{
  "_format": "hh-sol-artifact-1",
  "contractName": "ENMT",
  "sourceName": "contracts/ENMT.sol",
  "abi": [
    {
      "inputs": [
        {
          "internalType": "string",
          "name": "_name",
          "type": "string"
        },
        {
          "internalType": "string",
          "name": "_symbol",
          "type": "string"
        },
        {
          "internalType": "uint8",
          "name": "_decimals",
          "type": "uint8"
        },
        {
          "internalType": "address",
          "name": "_creator",
          "type": "address"
        },
        {
          "internalType": "uint256",
          "name": "_totalSupply",
          "type": "uint256"
        }
      ],
      "stateMutability": "nonpayable",
      "type": "constructor"
    },
    {
      "anonymous": false,
      "inputs": [
        {
          "indexed": true,
          "internalType": "address",
          "name": "owner",
          "type": "address"
        },
        {
          "indexed": true,
          "internalType": "address",
          "name": "spender",
          "type": "address"
        },
        {
          "indexed": false,
          "internalType": "uint256",
          "name": "value",
          "type": "uint256"
        }
      ],
      "name": "Approval",
      "type": "event"
    },
    {
      "anonymous": false,
      "inputs": [
        {
          "indexed": true,
          "internalType": "address",
          "name": "from",
          "type": "address"
        },
        {
          "indexed": true,
          "internalType": "address",
          "name": "to",
          "type": "address"
        },
        {
          "indexed": false,
          "internalType": "uint256",
          "name": "value",
          "type": "uint256"
        }
      ],
      "name": "Transfer",
      "type": "event"
    },
    {
      "inputs": [],
      "name": "INFO",
      "outputs": [
        {
          "internalType": "uint8",
          "name": "decimals",
          "type": "uint8"
        },
        {
          "internalType": "address",
          "name": "creator",
          "type": "address"
        }
      ],
      "stateMutability": "view",
      "type": "function"
    },
    {
      "inputs": [],
      "name": "TOKEN_TYPE",
      "outputs": [
        {
          "internalType": "uint256",
          "name": "",
          "type": "uint256"
        }
      ],
      "stateMutability": "view",
      "type": "function"
    },
    {
      "inputs": [
        {
          "internalType": "address",
          "name": "owner",
          "type": "address"
        },
        {
          "internalType": "address",
          "name": "spender",
          "type": "address"
        }
      ],
      "name": "allowance",
      "outputs": [
        {
          "internalType": "uint256",
          "name": "",
          "type": "uint256"
        }
      ],
      "stateMutability": "view",
      "type": "function"
    },
    {
      "inputs": [
        {
          "internalType": "address",
          "name": "spender",
          "type": "address"
        },
        {
          "internalType": "uint256",
          "name": "amount",
          "type": "uint256"
        }
      ],
      "name": "approve",
      "outputs": [
        {
          "internalType": "bool",
          "name": "",
          "type": "bool"
        }
      ],
      "stateMutability": "nonpayable",
      "type": "function"
    },
    {
      "inputs": [
        {
          "internalType": "address",
          "name": "account",
          "type": "address"
        }
      ],
      "name": "balanceOf",
      "outputs": [
        {
          "internalType": "uint256",
          "name": "",
          "type": "uint256"
        }
      ],
      "stateMutability": "view",
      "type": "function"
    },
    {
      "inputs": [
        {
          "internalType": "uint256",
          "name": "amount",
          "type": "uint256"
        }
      ],
      "name": "burn",
      "outputs": [],
      "stateMutability": "nonpayable",
      "type": "function"
    },
    {
      "inputs": [],
      "name": "decimals",
      "outputs": [
        {
          "internalType": "uint8",
          "name": "",
          "type": "uint8"
        }
      ],
      "stateMutability": "view",
      "type": "function"
    },
    {
      "inputs": [
        {
          "internalType": "address",
          "name": "spender",
          "type": "address"
        },
        {
          "internalType": "uint256",
          "name": "subtractedValue",
          "type": "uint256"
        }
      ],
      "name": "decreaseAllowance",
      "outputs": [
        {
          "internalType": "bool",
          "name": "",
          "type": "bool"
        }
      ],
      "stateMutability": "nonpayable",
      "type": "function"
    },
    {
      "inputs": [
        {
          "internalType": "address",
          "name": "spender",
          "type": "address"
        },
        {
          "internalType": "uint256",
          "name": "addedValue",
          "type": "uint256"
        }
      ],
      "name": "increaseAllowance",
      "outputs": [
        {
          "internalType": "bool",
          "name": "",
          "type": "bool"
        }
      ],
      "stateMutability": "nonpayable",
      "type": "function"
    },
    {
      "inputs": [],
      "name": "name",
      "outputs": [
        {
          "internalType": "string",
          "name": "",
          "type": "string"
        }
      ],
      "stateMutability": "view",
      "type": "function"
    },
    {
      "inputs": [],
      "name": "symbol",
      "outputs": [
        {
          "internalType": "string",
          "name": "",
          "type": "string"
        }
      ],
      "stateMutability": "view",
      "type": "function"
    },
    {
      "inputs": [],
      "name": "totalSupply",
      "outputs": [
        {
          "internalType": "uint256",
          "name": "",
          "type": "uint256"
        }
      ],
      "stateMutability": "view",
      "type": "function"
    },
    {
      "inputs": [
        {
          "internalType": "address",
          "name": "recipient",
          "type": "address"
        },
        {
          "internalType": "uint256",
          "name": "amount",
          "type": "uint256"
        }
      ],
      "name": "transfer",
      "outputs": [
        {
          "internalType": "bool",
          "name": "",
          "type": "bool"
        }
      ],
      "stateMutability": "nonpayable",
      "type": "function"
    },
    {
      "inputs": [
        {
          "internalType": "address",
          "name": "sender",
          "type": "address"
        },
        {
          "internalType": "address",
          "name": "recipient",
          "type": "address"
        },
        {
          "internalType": "uint256",
          "name": "amount",
          "type": "uint256"
        }
      ],
      "name": "transferFrom",
      "outputs": [
        {
          "internalType": "bool",
          "name": "",
          "type": "bool"
        }
      ],
      "stateMutability": "nonpayable",
      "type": "function"
    }
  ],
  "bytecode": "0x608060405260016005553480156200001657600080fd5b5060405162000f2b38038062000f2b83398101604081905262000039916200030c565b84518590859062000052906003906020850190620001b3565b50805162000068906004906020840190620001b3565b5050506200007d3382620000cb60201b60201c565b506040805180820190915260ff9092168083526001600160a01b039091166020909201829052600680546101009093026001600160a81b0319909316909117919091179055506200042f9050565b6001600160a01b038216620001265760405162461bcd60e51b815260206004820152601f60248201527f45524332303a206d696e7420746f20746865207a65726f206164647265737300604482015260640160405180910390fd5b80600260008282546200013a9190620003b7565b90915550506001600160a01b0382166000908152602081905260408120805483929062000169908490620003b7565b90915550506040518181526001600160a01b038316906000907fddf252ad1be2c89b69c2b068fc378daa952ba7f163c4a11628f55a4df523b3ef9060200160405180910390a35050565b828054620001c190620003dc565b90600052602060002090601f016020900481019282620001e5576000855562000230565b82601f106200020057805160ff191683800117855562000230565b8280016001018555821562000230579182015b828111156200023057825182559160200191906001019062000213565b506200023e92915062000242565b5090565b5b808211156200023e576000815560010162000243565b600082601f8301126200026a578081fd5b81516001600160401b038082111562000287576200028762000419565b604051601f8301601f19908116603f01168101908282118183101715620002b257620002b262000419565b81604052838152602092508683858801011115620002ce578485fd5b8491505b83821015620002f15785820183015181830184015290820190620002d2565b838211156200030257848385830101525b9695505050505050565b600080600080600060a0868803121562000324578081fd5b85516001600160401b03808211156200033b578283fd5b6200034989838a0162000259565b965060208801519150808211156200035f578283fd5b506200036e8882890162000259565b945050604086015160ff8116811462000385578182fd5b60608701519093506001600160a01b0381168114620003a2578182fd5b80925050608086015190509295509295909350565b60008219821115620003d757634e487b7160e01b81526011600452602481fd5b500190565b600181811c90821680620003f157607f821691505b602082108114156200041357634e487b7160e01b600052602260045260246000fd5b50919050565b634e487b7160e01b600052604160045260246000fd5b610aec806200043f6000396000f3fe608060405234801561001057600080fd5b50600436106100ea5760003560e01c806342966c681161008c57806395d89b411161006657806395d89b4114610202578063a457c2d71461020a578063a9059cbb1461021d578063dd62ed3e1461023057600080fd5b806342966c68146101bb578063609c92b8146101d057806370a08231146101d957600080fd5b80631c0a00f5116100c85780631c0a00f51461014257806323b872dd14610180578063313ce5671461019357806339509351146101a857600080fd5b806306fdde03146100ef578063095ea7b31461010d57806318160ddd14610130575b600080fd5b6100f7610269565b60405161010491906109e3565b60405180910390f35b61012061011b3660046109a2565b6102fb565b6040519015158152602001610104565b6002545b604051908152602001610104565b60065461015f9060ff81169061010090046001600160a01b031682565b6040805160ff90931683526001600160a01b03909116602083015201610104565b61012061018e366004610967565b610311565b60065460405160ff9091168152602001610104565b6101206101b63660046109a2565b6103c0565b6101ce6101c93660046109cb565b6103fc565b005b61013460055481565b6101346101e7366004610914565b6001600160a01b031660009081526020819052604090205490565b6100f7610409565b6101206102183660046109a2565b610418565b61012061022b3660046109a2565b6104b1565b61013461023e366004610935565b6001600160a01b03918216600090815260016020908152604080832093909416825291909152205490565b60606003805461027890610a65565b80601f01602080910402602001604051908101604052809291908181526020018280546102a490610a65565b80156102f15780601f106102c6576101008083540402835291602001916102f1565b820191906000526020600020905b8154815290600101906020018083116102d457829003601f168201915b5050505050905090565b60006103083384846104be565b50600192915050565b600061031e8484846105e3565b6001600160a01b0384166000908152600160209081526040808320338452909152902054828110156103a85760405162461bcd60e51b815260206004820152602860248201527f45524332303a207472616e7366657220616d6f756e74206578636565647320616044820152676c6c6f77616e636560c01b60648201526084015b60405180910390fd5b6103b585338584036104be565b506001949350505050565b3360008181526001602090815260408083206001600160a01b038716845290915281205490916103089185906103f7908690610a36565b6104be565b61040633826107b2565b50565b60606004805461027890610a65565b3360009081526001602090815260408083206001600160a01b03861684529091528120548281101561049a5760405162461bcd60e51b815260206004820152602560248201527f45524332303a2064656372656173656420616c6c6f77616e63652062656c6f77604482015264207a65726f60d81b606482015260840161039f565b6104a733858584036104be565b5060019392505050565b60006103083384846105e3565b6001600160a01b0383166105205760405162461bcd60e51b8152602060048201526024808201527f45524332303a20617070726f76652066726f6d20746865207a65726f206164646044820152637265737360e01b606482015260840161039f565b6001600160a01b0382166105815760405162461bcd60e51b815260206004820152602260248201527f45524332303a20617070726f766520746f20746865207a65726f206164647265604482015261737360f01b606482015260840161039f565b6001600160a01b0383811660008181526001602090815260408083209487168084529482529182902085905590518481527f8c5be1e5ebec7d5bd14f71427d1e84f3dd0314c0f7b2291e5b200ac8c7c3b92591015b60405180910390a3505050565b6001600160a01b0383166106475760405162461bcd60e51b815260206004820152602560248201527f45524332303a207472616e736665722066726f6d20746865207a65726f206164604482015264647265737360d81b606482015260840161039f565b6001600160a01b0382166106a95760405162461bcd60e51b815260206004820152602360248201527f45524332303a207472616e7366657220746f20746865207a65726f206164647260448201526265737360e81b606482015260840161039f565b6001600160a01b038316600090815260208190526040902054818110156107215760405162461bcd60e51b815260206004820152602660248201527f45524332303a207472616e7366657220616d6f756e7420657863656564732062604482015265616c616e636560d01b606482015260840161039f565b6001600160a01b03808516600090815260208190526040808220858503905591851681529081208054849290610758908490610a36565b92505081905550826001600160a01b0316846001600160a01b03167fddf252ad1be2c89b69c2b068fc378daa952ba7f163c4a11628f55a4df523b3ef846040516107a491815260200190565b60405180910390a350505050565b6001600160a01b0382166108125760405162461bcd60e51b815260206004820152602160248201527f45524332303a206275726e2066726f6d20746865207a65726f206164647265736044820152607360f81b606482015260840161039f565b6001600160a01b038216600090815260208190526040902054818110156108865760405162461bcd60e51b815260206004820152602260248201527f45524332303a206275726e20616d6f756e7420657863656564732062616c616e604482015261636560f01b606482015260840161039f565b6001600160a01b03831660009081526020819052604081208383039055600280548492906108b5908490610a4e565b90915550506040518281526000906001600160a01b038516907fddf252ad1be2c89b69c2b068fc378daa952ba7f163c4a11628f55a4df523b3ef906020016105d6565b80356001600160a01b038116811461090f57600080fd5b919050565b600060208284031215610925578081fd5b61092e826108f8565b9392505050565b60008060408385031215610947578081fd5b610950836108f8565b915061095e602084016108f8565b90509250929050565b60008060006060848603121561097b578081fd5b610984846108f8565b9250610992602085016108f8565b9150604084013590509250925092565b600080604083850312156109b4578182fd5b6109bd836108f8565b946020939093013593505050565b6000602082840312156109dc578081fd5b5035919050565b6000602080835283518082850152825b81811015610a0f578581018301518582016040015282016109f3565b81811115610a205783604083870101525b50601f01601f1916929092016040019392505050565b60008219821115610a4957610a49610aa0565b500190565b600082821015610a6057610a60610aa0565b500390565b600181811c90821680610a7957607f821691505b60208210811415610a9a57634e487b7160e01b600052602260045260246000fd5b50919050565b634e487b7160e01b600052601160045260246000fdfea264697066735822122000706c71dada43a6a06701df6b9176e35e744aaa5fbe817d83f6ea5d5847423964736f6c63430008040033",
  "linkReferences": {},
  "deployedLinkReferences": {}
}