{
  "_format": "hh-sol-artifact-1",
  "contractName": "Ctrain",
  "sourceName": "contracts/Ctrain.sol",
  "abi": [
    {
      "inputs": [
        {
          "internalType": "address",
          "name": "_token",
          "type": "address"
        },
        {
          "internalType": "address",
          "name": "_reserve",
          "type": "address"
        }
      ],
      "stateMutability": "nonpayable",
      "type": "constructor"
    },
    {
      "anonymous": false,
      "inputs": [
        {
          "indexed": true,
          "internalType": "address",
          "name": "owner",
          "type": "address"
        },
        {
          "indexed": true,
          "internalType": "address",
          "name": "approved",
          "type": "address"
        },
        {
          "indexed": true,
          "internalType": "uint256",
          "name": "tokenId",
          "type": "uint256"
        }
      ],
      "name": "Approval",
      "type": "event"
    },
    {
      "anonymous": false,
      "inputs": [
        {
          "indexed": true,
          "internalType": "address",
          "name": "owner",
          "type": "address"
        },
        {
          "indexed": true,
          "internalType": "address",
          "name": "operator",
          "type": "address"
        },
        {
          "indexed": false,
          "internalType": "bool",
          "name": "approved",
          "type": "bool"
        }
      ],
      "name": "ApprovalForAll",
      "type": "event"
    },
    {
      "anonymous": false,
      "inputs": [
        {
          "indexed": true,
          "internalType": "address",
          "name": "previousOwner",
          "type": "address"
        },
        {
          "indexed": true,
          "internalType": "address",
          "name": "newOwner",
          "type": "address"
        }
      ],
      "name": "OwnershipTransferred",
      "type": "event"
    },
    {
      "anonymous": false,
      "inputs": [
        {
          "indexed": false,
          "internalType": "address",
          "name": "account",
          "type": "address"
        }
      ],
      "name": "Paused",
      "type": "event"
    },
    {
      "anonymous": false,
      "inputs": [
        {
          "indexed": true,
          "internalType": "address",
          "name": "from",
          "type": "address"
        },
        {
          "indexed": true,
          "internalType": "address",
          "name": "to",
          "type": "address"
        },
        {
          "indexed": true,
          "internalType": "uint256",
          "name": "tokenId",
          "type": "uint256"
        }
      ],
      "name": "Transfer",
      "type": "event"
    },
    {
      "anonymous": false,
      "inputs": [
        {
          "indexed": false,
          "internalType": "address",
          "name": "account",
          "type": "address"
        }
      ],
      "name": "Unpaused",
      "type": "event"
    },
    {
      "inputs": [
        {
          "internalType": "address",
          "name": "to",
          "type": "address"
        },
        {
          "internalType": "uint256",
          "name": "tokenId",
          "type": "uint256"
        }
      ],
      "name": "approve",
      "outputs": [],
      "stateMutability": "nonpayable",
      "type": "function"
    },
    {
      "inputs": [
        {
          "internalType": "address",
          "name": "owner",
          "type": "address"
        }
      ],
      "name": "balanceOf",
      "outputs": [
        {
          "internalType": "uint256",
          "name": "",
          "type": "uint256"
        }
      ],
      "stateMutability": "view",
      "type": "function"
    },
    {
      "inputs": [
        {
          "internalType": "uint256",
          "name": "_mintAmount",
          "type": "uint256"
        },
        {
          "internalType": "uint256",
          "name": "_price",
          "type": "uint256"
        },
        {
          "internalType": "string",
          "name": "tokenURI",
          "type": "string"
        }
      ],
      "name": "create",
      "outputs": [],
      "stateMutability": "nonpayable",
      "type": "function"
    },
    {
      "inputs": [
        {
          "internalType": "uint256",
          "name": "tokenId",
          "type": "uint256"
        }
      ],
      "name": "getApproved",
      "outputs": [
        {
          "internalType": "address",
          "name": "",
          "type": "address"
        }
      ],
      "stateMutability": "view",
      "type": "function"
    },
    {
      "inputs": [
        {
          "internalType": "address",
          "name": "_owner",
          "type": "address"
        }
      ],
      "name": "getOwnerTrains",
      "outputs": [
        {
          "components": [
            {
              "internalType": "uint256",
              "name": "id",
              "type": "uint256"
            },
            {
              "internalType": "uint8",
              "name": "level",
              "type": "uint8"
            },
            {
              "internalType": "uint8",
              "name": "rarity",
              "type": "uint8"
            },
            {
              "internalType": "bool",
              "name": "fuel",
              "type": "bool"
            },
            {
              "internalType": "uint8",
              "name": "status",
              "type": "uint8"
            }
          ],
          "internalType": "struct Ctrain.Train[]",
          "name": "",
          "type": "tuple[]"
        }
      ],
      "stateMutability": "view",
      "type": "function"
    },
    {
      "inputs": [],
      "name": "getTrains",
      "outputs": [
        {
          "components": [
            {
              "internalType": "uint256",
              "name": "id",
              "type": "uint256"
            },
            {
              "internalType": "uint8",
              "name": "level",
              "type": "uint8"
            },
            {
              "internalType": "uint8",
              "name": "rarity",
              "type": "uint8"
            },
            {
              "internalType": "bool",
              "name": "fuel",
              "type": "bool"
            },
            {
              "internalType": "uint8",
              "name": "status",
              "type": "uint8"
            }
          ],
          "internalType": "struct Ctrain.Train[]",
          "name": "",
          "type": "tuple[]"
        }
      ],
      "stateMutability": "view",
      "type": "function"
    },
    {
      "inputs": [
        {
          "internalType": "address",
          "name": "owner",
          "type": "address"
        },
        {
          "internalType": "address",
          "name": "operator",
          "type": "address"
        }
      ],
      "name": "isApprovedForAll",
      "outputs": [
        {
          "internalType": "bool",
          "name": "",
          "type": "bool"
        }
      ],
      "stateMutability": "view",
      "type": "function"
    },
    {
      "inputs": [],
      "name": "name",
      "outputs": [
        {
          "internalType": "string",
          "name": "",
          "type": "string"
        }
      ],
      "stateMutability": "view",
      "type": "function"
    },
    {
      "inputs": [],
      "name": "nftPerAddressLimit",
      "outputs": [
        {
          "internalType": "uint256",
          "name": "",
          "type": "uint256"
        }
      ],
      "stateMutability": "view",
      "type": "function"
    },
    {
      "inputs": [],
      "name": "owner",
      "outputs": [
        {
          "internalType": "address",
          "name": "",
          "type": "address"
        }
      ],
      "stateMutability": "view",
      "type": "function"
    },
    {
      "inputs": [
        {
          "internalType": "uint256",
          "name": "tokenId",
          "type": "uint256"
        }
      ],
      "name": "ownerOf",
      "outputs": [
        {
          "internalType": "address",
          "name": "",
          "type": "address"
        }
      ],
      "stateMutability": "view",
      "type": "function"
    },
    {
      "inputs": [],
      "name": "pause",
      "outputs": [],
      "stateMutability": "nonpayable",
      "type": "function"
    },
    {
      "inputs": [],
      "name": "paused",
      "outputs": [
        {
          "internalType": "bool",
          "name": "",
          "type": "bool"
        }
      ],
      "stateMutability": "view",
      "type": "function"
    },
    {
      "inputs": [],
      "name": "renounceOwnership",
      "outputs": [],
      "stateMutability": "nonpayable",
      "type": "function"
    },
    {
      "inputs": [],
      "name": "reserveAddress",
      "outputs": [
        {
          "internalType": "address",
          "name": "",
          "type": "address"
        }
      ],
      "stateMutability": "view",
      "type": "function"
    },
    {
      "inputs": [
        {
          "internalType": "address",
          "name": "from",
          "type": "address"
        },
        {
          "internalType": "address",
          "name": "to",
          "type": "address"
        },
        {
          "internalType": "uint256",
          "name": "tokenId",
          "type": "uint256"
        }
      ],
      "name": "safeTransferFrom",
      "outputs": [],
      "stateMutability": "nonpayable",
      "type": "function"
    },
    {
      "inputs": [
        {
          "internalType": "address",
          "name": "from",
          "type": "address"
        },
        {
          "internalType": "address",
          "name": "to",
          "type": "address"
        },
        {
          "internalType": "uint256",
          "name": "tokenId",
          "type": "uint256"
        },
        {
          "internalType": "bytes",
          "name": "_data",
          "type": "bytes"
        }
      ],
      "name": "safeTransferFrom",
      "outputs": [],
      "stateMutability": "nonpayable",
      "type": "function"
    },
    {
      "inputs": [
        {
          "internalType": "address",
          "name": "operator",
          "type": "address"
        },
        {
          "internalType": "bool",
          "name": "approved",
          "type": "bool"
        }
      ],
      "name": "setApprovalForAll",
      "outputs": [],
      "stateMutability": "nonpayable",
      "type": "function"
    },
    {
      "inputs": [
        {
          "internalType": "uint256",
          "name": "_limit",
          "type": "uint256"
        }
      ],
      "name": "setNftPerAddressLimit",
      "outputs": [],
      "stateMutability": "nonpayable",
      "type": "function"
    },
    {
      "inputs": [
        {
          "internalType": "bytes4",
          "name": "interfaceId",
          "type": "bytes4"
        }
      ],
      "name": "supportsInterface",
      "outputs": [
        {
          "internalType": "bool",
          "name": "",
          "type": "bool"
        }
      ],
      "stateMutability": "view",
      "type": "function"
    },
    {
      "inputs": [],
      "name": "symbol",
      "outputs": [
        {
          "internalType": "string",
          "name": "",
          "type": "string"
        }
      ],
      "stateMutability": "view",
      "type": "function"
    },
    {
      "inputs": [],
      "name": "tokenAddress",
      "outputs": [
        {
          "internalType": "contract IERC20",
          "name": "",
          "type": "address"
        }
      ],
      "stateMutability": "view",
      "type": "function"
    },
    {
      "inputs": [
        {
          "internalType": "uint256",
          "name": "tokenId",
          "type": "uint256"
        }
      ],
      "name": "tokenURI",
      "outputs": [
        {
          "internalType": "string",
          "name": "",
          "type": "string"
        }
      ],
      "stateMutability": "view",
      "type": "function"
    },
    {
      "inputs": [
        {
          "internalType": "uint256",
          "name": "",
          "type": "uint256"
        }
      ],
      "name": "trains",
      "outputs": [
        {
          "internalType": "uint256",
          "name": "id",
          "type": "uint256"
        },
        {
          "internalType": "uint8",
          "name": "level",
          "type": "uint8"
        },
        {
          "internalType": "uint8",
          "name": "rarity",
          "type": "uint8"
        },
        {
          "internalType": "bool",
          "name": "fuel",
          "type": "bool"
        },
        {
          "internalType": "uint8",
          "name": "status",
          "type": "uint8"
        }
      ],
      "stateMutability": "view",
      "type": "function"
    },
    {
      "inputs": [
        {
          "internalType": "address",
          "name": "from",
          "type": "address"
        },
        {
          "internalType": "address",
          "name": "to",
          "type": "address"
        },
        {
          "internalType": "uint256",
          "name": "tokenId",
          "type": "uint256"
        }
      ],
      "name": "transferFrom",
      "outputs": [],
      "stateMutability": "nonpayable",
      "type": "function"
    },
    {
      "inputs": [
        {
          "internalType": "address",
          "name": "newOwner",
          "type": "address"
        }
      ],
      "name": "transferOwnership",
      "outputs": [],
      "stateMutability": "nonpayable",
      "type": "function"
    },
    {
      "inputs": [],
      "name": "unpause",
      "outputs": [],
      "stateMutability": "nonpayable",
      "type": "function"
    }
  ],
  "bytecode": "0x6080604052600a6009553480156200001657600080fd5b506040516200253a3803806200253a8339810160408190526200003991620001ff565b604080518082018252600681526521ba3930b4b760d11b60208083019182528351808501909452600384526221aa2960e91b90840152815191929162000082916000916200013c565b508051620000989060019060208401906200013c565b50506007805460ff1916905550620000b033620000e2565b600a80546001600160a01b039384166001600160a01b031991821617909155600b805492909316911617905562000273565b600780546001600160a01b03838116610100818102610100600160a81b031985161790945560405193909204169182907f8be0079c531659141344cd1fd0a4f28419497f9722a3daafe3b4186f6b6457e090600090a35050565b8280546200014a9062000236565b90600052602060002090601f0160209004810192826200016e5760008555620001b9565b82601f106200018957805160ff1916838001178555620001b9565b82800160010185558215620001b9579182015b82811115620001b95782518255916020019190600101906200019c565b50620001c7929150620001cb565b5090565b5b80821115620001c75760008155600101620001cc565b80516001600160a01b0381168114620001fa57600080fd5b919050565b6000806040838503121562000212578182fd5b6200021d83620001e2565b91506200022d60208401620001e2565b90509250929050565b600181811c908216806200024b57607f821691505b602082108114156200026d57634e487b7160e01b600052602260045260246000fd5b50919050565b6122b780620002836000396000f3fe608060405234801561001057600080fd5b50600436106101a95760003560e01c8063715018a6116100f9578063b88d4fde11610097578063d0eb26b011610071578063d0eb26b014610399578063e985e9c5146103ac578063f2fde38b146103e8578063f79ed94b146103fb57600080fd5b8063b88d4fde1461036a578063ba7d2c761461037d578063c87b56dd1461038657600080fd5b806395d89b41116100d357806395d89b41146103295780639cf278e8146103315780639d76ea5814610344578063a22cb4651461035757600080fd5b8063715018a6146103035780638456cb591461030b5780638da5cb5b1461031357600080fd5b80633f4ba83a11610166578063598c68b111610140578063598c68b1146102815780635c975abb146102c45780636352211e146102cf57806370a08231146102e257600080fd5b80633f4ba83a1461025357806342842e0e1461025b5780634b068c781461026e57600080fd5b806301ffc9a7146101ae57806306fdde03146101d6578063081812fc146101eb578063095ea7b31461021657806319ae037b1461022b57806323b872dd14610240575b600080fd5b6101c16101bc366004611e55565b61040e565b60405190151581526020015b60405180910390f35b6101de610460565b6040516101cd9190612038565b6101fe6101f9366004611e8d565b6104f2565b6040516001600160a01b0390911681526020016101cd565b610229610224366004611e10565b61057f565b005b610233610695565b6040516101cd9190611fc0565b61022961024e366004611d26565b610732565b610229610763565b610229610269366004611d26565b61079d565b61022961027c366004611ea5565b6107b8565b61029461028f366004611e8d565b610b28565b6040805195865260ff9485166020870152928416928501929092521515606084015216608082015260a0016101cd565b60075460ff166101c1565b6101fe6102dd366004611e8d565b610b75565b6102f56102f0366004611cda565b610bec565b6040519081526020016101cd565b610229610c73565b610229610cad565b60075461010090046001600160a01b03166101fe565b6101de610ce5565b61023361033f366004611cda565b610cf4565b600a546101fe906001600160a01b031681565b610229610365366004611dda565b610e88565b610229610378366004611d61565b610e97565b6102f560095481565b6101de610394366004611e8d565b610ecf565b6102296103a7366004611e8d565b611046565b6101c16103ba366004611cf4565b6001600160a01b03918216600090815260056020908152604080832093909416825291909152205460ff1690565b6102296103f6366004611cda565b61107b565b600b546101fe906001600160a01b031681565b60006001600160e01b031982166380ac58cd60e01b148061043f57506001600160e01b03198216635b5e139f60e01b145b8061045a57506301ffc9a760e01b6001600160e01b03198316145b92915050565b60606000805461046f906121b1565b80601f016020809104026020016040519081016040528092919081815260200182805461049b906121b1565b80156104e85780601f106104bd576101008083540402835291602001916104e8565b820191906000526020600020905b8154815290600101906020018083116104cb57829003601f168201915b5050505050905090565b60006104fd8261111c565b6105635760405162461bcd60e51b815260206004820152602c60248201527f4552433732313a20617070726f76656420717565727920666f72206e6f6e657860448201526b34b9ba32b73a103a37b5b2b760a11b60648201526084015b60405180910390fd5b506000908152600460205260409020546001600160a01b031690565b600061058a82610b75565b9050806001600160a01b0316836001600160a01b031614156105f85760405162461bcd60e51b815260206004820152602160248201527f4552433732313a20617070726f76616c20746f2063757272656e74206f776e656044820152603960f91b606482015260840161055a565b336001600160a01b0382161480610614575061061481336103ba565b6106865760405162461bcd60e51b815260206004820152603860248201527f4552433732313a20617070726f76652063616c6c6572206973206e6f74206f7760448201527f6e6572206e6f7220617070726f76656420666f7220616c6c0000000000000000606482015260840161055a565b6106908383611139565b505050565b6060600c805480602002602001604051908101604052809291908181526020016000905b828210156107295760008481526020908190206040805160a081018252600286029092018054835260019081015460ff80821685870152610100820481169385019390935262010000810483161515606085015263010000009004909116608083015290835290920191016106b9565b50505050905090565b61073c33826111a7565b6107585760405162461bcd60e51b815260040161055a906120d2565b61069083838361128d565b6007546001600160a01b036101009091041633146107935760405162461bcd60e51b815260040161055a9061209d565b61079b61142d565b565b61069083838360405180602001604052806000815250610e97565b60075460ff16156107fe5760405162461bcd60e51b815260206004820152601060248201526f14185d5cd8589b194e881c185d5cd95960821b604482015260640161055a565b6000831161085c5760405162461bcd60e51b815260206004820152602560248201527f4d696e696d756d206e756d626572206f66206d696e7461626c6520746f6b656e604482015264206973203160d81b606482015260840161055a565b60058311156108bb5760405162461bcd60e51b815260206004820152602560248201527f4d6178696d756d206e756d626572206f66206d696e7461626c6520746f6b656e604482015264206973203560d81b606482015260840161055a565b60006108c7848461214f565b905060006108d433610bec565b6009549091506108e48683612123565b11156109325760405162461bcd60e51b815260206004820152601c60248201527f6d6178204e465420706572206164647265737320657863656564656400000000604482015260640161055a565b600a54600b546040516323b872dd60e01b81523360048201526001600160a01b039182166024820152604481018590529116906323b872dd90606401602060405180830381600087803b15801561098857600080fd5b505af115801561099c573d6000803e3d6000fd5b505050506040513d601f19601f820116820180604052508101906109c09190611e39565b5060015b858111610b205760006109d760646114c0565b6040805160a081018252600d54815260016020820181815260ff80861694840194855260006060850181815260808601858152600c805496870181558352865160029096027fdf6966c971051c3d54ec59162606531493a51404a002842f56009d7e5cf4a8c781019690965593517fdf6966c971051c3d54ec59162606531493a51404a002842f56009d7e5cf4a8c89095018054975191519451841663010000000263ff0000001995151562010000029590951663ffff0000199285166101000261ffff199099169690941695909517969096179590951617179055919250610abf60085490565b9050610acb338261151c565b60008785604051602001610ae0929190611f61565b6040516020818303038152906040529050610afb828261164f565b610b09600880546001019055565b505050508080610b18906121ec565b9150506109c4565b505050505050565b600c8181548110610b3857600080fd5b60009182526020909120600290910201805460019091015490915060ff808216916101008104821691620100008204811691630100000090041685565b6000818152600260205260408120546001600160a01b03168061045a5760405162461bcd60e51b815260206004820152602960248201527f4552433732313a206f776e657220717565727920666f72206e6f6e657869737460448201526832b73a103a37b5b2b760b91b606482015260840161055a565b60006001600160a01b038216610c575760405162461bcd60e51b815260206004820152602a60248201527f4552433732313a2062616c616e636520717565727920666f7220746865207a65604482015269726f206164647265737360b01b606482015260840161055a565b506001600160a01b031660009081526003602052604090205490565b6007546001600160a01b03610100909104163314610ca35760405162461bcd60e51b815260040161055a9061209d565b61079b60006116da565b6007546001600160a01b03610100909104163314610cdd5760405162461bcd60e51b815260040161055a9061209d565b61079b611734565b60606001805461046f906121b1565b60606000610d0183610bec565b67ffffffffffffffff811115610d2757634e487b7160e01b600052604160045260246000fd5b604051908082528060200260200182016040528015610d8057816020015b6040805160a081018252600080825260208083018290529282018190526060820181905260808201528252600019909201910181610d455790505b5090506000805b600c54811015610e7f57846001600160a01b0316610da482610b75565b6001600160a01b03161415610e6d57600c8181548110610dd457634e487b7160e01b600052603260045260246000fd5b60009182526020918290206040805160a0810182526002909302909101805483526001015460ff8082169484019490945261010081048416918301919091526201000081048316151560608301526301000000900490911660808201528351849084908110610e5357634e487b7160e01b600052603260045260246000fd5b60200260200101819052508180610e69906121ec565b9250505b80610e77816121ec565b915050610d87565b50909392505050565b610e933383836117af565b5050565b610ea133836111a7565b610ebd5760405162461bcd60e51b815260040161055a906120d2565b610ec98484848461187e565b50505050565b6060610eda8261111c565b610f405760405162461bcd60e51b815260206004820152603160248201527f45524337323155524953746f726167653a2055524920717565727920666f72206044820152703737b732bc34b9ba32b73a103a37b5b2b760791b606482015260840161055a565b60008281526006602052604081208054610f59906121b1565b80601f0160208091040260200160405190810160405280929190818152602001828054610f85906121b1565b8015610fd25780601f10610fa757610100808354040283529160200191610fd2565b820191906000526020600020905b815481529060010190602001808311610fb557829003601f168201915b505050505090506000610ff060408051602081019091526000815290565b9050805160001415611003575092915050565b81511561103557808260405160200161101d929190611f32565b60405160208183030381529060405292505050919050565b61103e846118b1565b949350505050565b6007546001600160a01b036101009091041633146110765760405162461bcd60e51b815260040161055a9061209d565b600955565b6007546001600160a01b036101009091041633146110ab5760405162461bcd60e51b815260040161055a9061209d565b6001600160a01b0381166111105760405162461bcd60e51b815260206004820152602660248201527f4f776e61626c653a206e6577206f776e657220697320746865207a65726f206160448201526564647265737360d01b606482015260840161055a565b611119816116da565b50565b6000908152600260205260409020546001600160a01b0316151590565b600081815260046020526040902080546001600160a01b0319166001600160a01b038416908117909155819061116e82610b75565b6001600160a01b03167f8c5be1e5ebec7d5bd14f71427d1e84f3dd0314c0f7b2291e5b200ac8c7c3b92560405160405180910390a45050565b60006111b28261111c565b6112135760405162461bcd60e51b815260206004820152602c60248201527f4552433732313a206f70657261746f7220717565727920666f72206e6f6e657860448201526b34b9ba32b73a103a37b5b2b760a11b606482015260840161055a565b600061121e83610b75565b9050806001600160a01b0316846001600160a01b031614806112595750836001600160a01b031661124e846104f2565b6001600160a01b0316145b8061103e57506001600160a01b0380821660009081526005602090815260408083209388168352929052205460ff1661103e565b826001600160a01b03166112a082610b75565b6001600160a01b0316146113085760405162461bcd60e51b815260206004820152602960248201527f4552433732313a207472616e73666572206f6620746f6b656e2074686174206960448201526839903737ba1037bbb760b91b606482015260840161055a565b6001600160a01b03821661136a5760405162461bcd60e51b8152602060048201526024808201527f4552433732313a207472616e7366657220746f20746865207a65726f206164646044820152637265737360e01b606482015260840161055a565b611375600082611139565b6001600160a01b038316600090815260036020526040812080546001929061139e90849061216e565b90915550506001600160a01b03821660009081526003602052604081208054600192906113cc908490612123565b909155505060008181526002602052604080822080546001600160a01b0319166001600160a01b0386811691821790925591518493918716917fddf252ad1be2c89b69c2b068fc378daa952ba7f163c4a11628f55a4df523b3ef91a4505050565b60075460ff166114765760405162461bcd60e51b815260206004820152601460248201527314185d5cd8589b194e881b9bdd081c185d5cd95960621b604482015260640161055a565b6007805460ff191690557f5db9ee0a495bf2e6ff9c91a7834c1ba4fdd244a5e8aa4e537bd38aeae4b073aa335b6040516001600160a01b03909116815260200160405180910390a1565b60008042336040516020016114f192919091825260601b6bffffffffffffffffffffffff1916602082015260340190565b60408051601f19818403018152919052805160209091012090506115158382612207565b9392505050565b6001600160a01b0382166115725760405162461bcd60e51b815260206004820181905260248201527f4552433732313a206d696e7420746f20746865207a65726f2061646472657373604482015260640161055a565b61157b8161111c565b156115c85760405162461bcd60e51b815260206004820152601c60248201527f4552433732313a20746f6b656e20616c7265616479206d696e74656400000000604482015260640161055a565b6001600160a01b03821660009081526003602052604081208054600192906115f1908490612123565b909155505060008181526002602052604080822080546001600160a01b0319166001600160a01b03861690811790915590518392907fddf252ad1be2c89b69c2b068fc378daa952ba7f163c4a11628f55a4df523b3ef908290a45050565b6116588261111c565b6116bb5760405162461bcd60e51b815260206004820152602e60248201527f45524337323155524953746f726167653a2055524920736574206f66206e6f6e60448201526d32bc34b9ba32b73a103a37b5b2b760911b606482015260840161055a565b6000828152600660209081526040909120825161069092840190611baf565b600780546001600160a01b03838116610100818102610100600160a81b031985161790945560405193909204169182907f8be0079c531659141344cd1fd0a4f28419497f9722a3daafe3b4186f6b6457e090600090a35050565b60075460ff161561177a5760405162461bcd60e51b815260206004820152601060248201526f14185d5cd8589b194e881c185d5cd95960821b604482015260640161055a565b6007805460ff191660011790557f62e78cea01bee320cd4e420270b5ea74000d11b0c9f74754ebdbfc544b05a2586114a33390565b816001600160a01b0316836001600160a01b031614156118115760405162461bcd60e51b815260206004820152601960248201527f4552433732313a20617070726f766520746f2063616c6c657200000000000000604482015260640161055a565b6001600160a01b03838116600081815260056020908152604080832094871680845294825291829020805460ff191686151590811790915591519182527f17307eab39ab6107e8899845ad3d59bd9653f200f220920489ca2b5937696c31910160405180910390a3505050565b61188984848461128d565b61189584848484611988565b610ec95760405162461bcd60e51b815260040161055a9061204b565b60606118bc8261111c565b6119205760405162461bcd60e51b815260206004820152602f60248201527f4552433732314d657461646174613a2055524920717565727920666f72206e6f60448201526e3732bc34b9ba32b73a103a37b5b2b760891b606482015260840161055a565b600061193760408051602081019091526000815290565b905060008151116119575760405180602001604052806000815250611515565b8061196184611a95565b604051602001611972929190611f32565b6040516020818303038152906040529392505050565b60006001600160a01b0384163b15611a8a57604051630a85bd0160e11b81526001600160a01b0385169063150b7a02906119cc903390899088908890600401611f83565b602060405180830381600087803b1580156119e657600080fd5b505af1925050508015611a16575060408051601f3d908101601f19168201909252611a1391810190611e71565b60015b611a70573d808015611a44576040519150601f19603f3d011682016040523d82523d6000602084013e611a49565b606091505b508051611a685760405162461bcd60e51b815260040161055a9061204b565b805181602001fd5b6001600160e01b031916630a85bd0160e11b14905061103e565b506001949350505050565b606081611ab95750506040805180820190915260018152600360fc1b602082015290565b8160005b8115611ae35780611acd816121ec565b9150611adc9050600a8361213b565b9150611abd565b60008167ffffffffffffffff811115611b0c57634e487b7160e01b600052604160045260246000fd5b6040519080825280601f01601f191660200182016040528015611b36576020820181803683370190505b5090505b841561103e57611b4b60018361216e565b9150611b58600a86612207565b611b63906030612123565b60f81b818381518110611b8657634e487b7160e01b600052603260045260246000fd5b60200101906001600160f81b031916908160001a905350611ba8600a8661213b565b9450611b3a565b828054611bbb906121b1565b90600052602060002090601f016020900481019282611bdd5760008555611c23565b82601f10611bf657805160ff1916838001178555611c23565b82800160010185558215611c23579182015b82811115611c23578251825591602001919060010190611c08565b50611c2f929150611c33565b5090565b5b80821115611c2f5760008155600101611c34565b600067ffffffffffffffff80841115611c6357611c63612247565b604051601f8501601f19908116603f01168101908282118183101715611c8b57611c8b612247565b81604052809350858152868686011115611ca457600080fd5b858560208301376000602087830101525050509392505050565b80356001600160a01b0381168114611cd557600080fd5b919050565b600060208284031215611ceb578081fd5b61151582611cbe565b60008060408385031215611d06578081fd5b611d0f83611cbe565b9150611d1d60208401611cbe565b90509250929050565b600080600060608486031215611d3a578081fd5b611d4384611cbe565b9250611d5160208501611cbe565b9150604084013590509250925092565b60008060008060808587031215611d76578081fd5b611d7f85611cbe565b9350611d8d60208601611cbe565b925060408501359150606085013567ffffffffffffffff811115611daf578182fd5b8501601f81018713611dbf578182fd5b611dce87823560208401611c48565b91505092959194509250565b60008060408385031215611dec578182fd5b611df583611cbe565b91506020830135611e058161225d565b809150509250929050565b60008060408385031215611e22578182fd5b611e2b83611cbe565b946020939093013593505050565b600060208284031215611e4a578081fd5b81516115158161225d565b600060208284031215611e66578081fd5b81356115158161226b565b600060208284031215611e82578081fd5b81516115158161226b565b600060208284031215611e9e578081fd5b5035919050565b600080600060608486031215611eb9578283fd5b8335925060208401359150604084013567ffffffffffffffff811115611edd578182fd5b8401601f81018613611eed578182fd5b611efc86823560208401611c48565b9150509250925092565b60008151808452611f1e816020860160208601612185565b601f01601f19169290920160200192915050565b60008351611f44818460208801612185565b835190830190611f58818360208801612185565b01949350505050565b60008351611f73818460208801612185565b9190910191825250602001919050565b6001600160a01b0385811682528416602082015260408101839052608060608201819052600090611fb690830184611f06565b9695505050505050565b602080825282518282018190526000919060409081850190868401855b8281101561202b578151805185528681015160ff9081168887015286820151811687870152606080830151151590870152608091820151169085015260a09093019290850190600101611fdd565b5091979650505050505050565b6020815260006115156020830184611f06565b60208082526032908201527f4552433732313a207472616e7366657220746f206e6f6e20455243373231526560408201527131b2b4bb32b91034b6b83632b6b2b73a32b960711b606082015260800190565b6020808252818101527f4f776e61626c653a2063616c6c6572206973206e6f7420746865206f776e6572604082015260600190565b60208082526031908201527f4552433732313a207472616e736665722063616c6c6572206973206e6f74206f6040820152701ddb995c881b9bdc88185c1c1c9bdd9959607a1b606082015260800190565b600082198211156121365761213661221b565b500190565b60008261214a5761214a612231565b500490565b60008160001904831182151516156121695761216961221b565b500290565b6000828210156121805761218061221b565b500390565b60005b838110156121a0578181015183820152602001612188565b83811115610ec95750506000910152565b600181811c908216806121c557607f821691505b602082108114156121e657634e487b7160e01b600052602260045260246000fd5b50919050565b60006000198214156122005761220061221b565b5060010190565b60008261221657612216612231565b500690565b634e487b7160e01b600052601160045260246000fd5b634e487b7160e01b600052601260045260246000fd5b634e487b7160e01b600052604160045260246000fd5b801515811461111957600080fd5b6001600160e01b03198116811461111957600080fdfea26469706673582212206fd315d7949e4696c24a3bd66d760efa73c0bb21206d0f386b641434df2ae6ec64736f6c63430008040033",
  "linkReferences": {},
  "deployedLinkReferences": {}
}