{
  "_format": "hh-sol-artifact-1",
  "contractName": "Ctrain",
  "sourceName": "contracts/Ctrain.sol",
  "abi": [
    {
      "inputs": [
        {
          "internalType": "address",
          "name": "_token",
          "type": "address"
        },
        {
          "internalType": "address",
          "name": "_reserve",
          "type": "address"
        }
      ],
      "stateMutability": "nonpayable",
      "type": "constructor"
    },
    {
      "anonymous": false,
      "inputs": [
        {
          "indexed": true,
          "internalType": "address",
          "name": "owner",
          "type": "address"
        },
        {
          "indexed": true,
          "internalType": "address",
          "name": "approved",
          "type": "address"
        },
        {
          "indexed": true,
          "internalType": "uint256",
          "name": "tokenId",
          "type": "uint256"
        }
      ],
      "name": "Approval",
      "type": "event"
    },
    {
      "anonymous": false,
      "inputs": [
        {
          "indexed": true,
          "internalType": "address",
          "name": "owner",
          "type": "address"
        },
        {
          "indexed": true,
          "internalType": "address",
          "name": "operator",
          "type": "address"
        },
        {
          "indexed": false,
          "internalType": "bool",
          "name": "approved",
          "type": "bool"
        }
      ],
      "name": "ApprovalForAll",
      "type": "event"
    },
    {
      "anonymous": false,
      "inputs": [
        {
          "indexed": true,
          "internalType": "address",
          "name": "previousOwner",
          "type": "address"
        },
        {
          "indexed": true,
          "internalType": "address",
          "name": "newOwner",
          "type": "address"
        }
      ],
      "name": "OwnershipTransferred",
      "type": "event"
    },
    {
      "anonymous": false,
      "inputs": [
        {
          "indexed": false,
          "internalType": "address",
          "name": "account",
          "type": "address"
        }
      ],
      "name": "Paused",
      "type": "event"
    },
    {
      "anonymous": false,
      "inputs": [
        {
          "indexed": true,
          "internalType": "address",
          "name": "from",
          "type": "address"
        },
        {
          "indexed": true,
          "internalType": "address",
          "name": "to",
          "type": "address"
        },
        {
          "indexed": true,
          "internalType": "uint256",
          "name": "tokenId",
          "type": "uint256"
        }
      ],
      "name": "Transfer",
      "type": "event"
    },
    {
      "anonymous": false,
      "inputs": [
        {
          "indexed": false,
          "internalType": "address",
          "name": "account",
          "type": "address"
        }
      ],
      "name": "Unpaused",
      "type": "event"
    },
    {
      "inputs": [],
      "name": "allWhitelistedAddresses",
      "outputs": [
        {
          "internalType": "address[]",
          "name": "",
          "type": "address[]"
        }
      ],
      "stateMutability": "view",
      "type": "function"
    },
    {
      "inputs": [
        {
          "internalType": "address",
          "name": "to",
          "type": "address"
        },
        {
          "internalType": "uint256",
          "name": "tokenId",
          "type": "uint256"
        }
      ],
      "name": "approve",
      "outputs": [],
      "stateMutability": "nonpayable",
      "type": "function"
    },
    {
      "inputs": [
        {
          "internalType": "address",
          "name": "owner",
          "type": "address"
        }
      ],
      "name": "balanceOf",
      "outputs": [
        {
          "internalType": "uint256",
          "name": "",
          "type": "uint256"
        }
      ],
      "stateMutability": "view",
      "type": "function"
    },
    {
      "inputs": [
        {
          "internalType": "uint256",
          "name": "_mintAmount",
          "type": "uint256"
        },
        {
          "internalType": "string",
          "name": "tokenURI",
          "type": "string"
        }
      ],
      "name": "create",
      "outputs": [],
      "stateMutability": "payable",
      "type": "function"
    },
    {
      "inputs": [
        {
          "internalType": "uint256",
          "name": "tokenId",
          "type": "uint256"
        }
      ],
      "name": "getApproved",
      "outputs": [
        {
          "internalType": "address",
          "name": "",
          "type": "address"
        }
      ],
      "stateMutability": "view",
      "type": "function"
    },
    {
      "inputs": [
        {
          "internalType": "address",
          "name": "_owner",
          "type": "address"
        }
      ],
      "name": "getOwnerTrains",
      "outputs": [
        {
          "components": [
            {
              "internalType": "uint256",
              "name": "id",
              "type": "uint256"
            },
            {
              "internalType": "uint8",
              "name": "level",
              "type": "uint8"
            },
            {
              "internalType": "uint8",
              "name": "rarity",
              "type": "uint8"
            },
            {
              "internalType": "bool",
              "name": "fuel",
              "type": "bool"
            },
            {
              "internalType": "uint8",
              "name": "status",
              "type": "uint8"
            }
          ],
          "internalType": "struct Ctrain.Train[]",
          "name": "",
          "type": "tuple[]"
        }
      ],
      "stateMutability": "view",
      "type": "function"
    },
    {
      "inputs": [],
      "name": "getTrains",
      "outputs": [
        {
          "components": [
            {
              "internalType": "uint256",
              "name": "id",
              "type": "uint256"
            },
            {
              "internalType": "uint8",
              "name": "level",
              "type": "uint8"
            },
            {
              "internalType": "uint8",
              "name": "rarity",
              "type": "uint8"
            },
            {
              "internalType": "bool",
              "name": "fuel",
              "type": "bool"
            },
            {
              "internalType": "uint8",
              "name": "status",
              "type": "uint8"
            }
          ],
          "internalType": "struct Ctrain.Train[]",
          "name": "",
          "type": "tuple[]"
        }
      ],
      "stateMutability": "view",
      "type": "function"
    },
    {
      "inputs": [
        {
          "internalType": "address",
          "name": "owner",
          "type": "address"
        },
        {
          "internalType": "address",
          "name": "operator",
          "type": "address"
        }
      ],
      "name": "isApprovedForAll",
      "outputs": [
        {
          "internalType": "bool",
          "name": "",
          "type": "bool"
        }
      ],
      "stateMutability": "view",
      "type": "function"
    },
    {
      "inputs": [
        {
          "internalType": "address",
          "name": "_user",
          "type": "address"
        }
      ],
      "name": "isWhitelisted",
      "outputs": [
        {
          "internalType": "bool",
          "name": "",
          "type": "bool"
        }
      ],
      "stateMutability": "view",
      "type": "function"
    },
    {
      "inputs": [],
      "name": "name",
      "outputs": [
        {
          "internalType": "string",
          "name": "",
          "type": "string"
        }
      ],
      "stateMutability": "view",
      "type": "function"
    },
    {
      "inputs": [],
      "name": "nftPerAddressLimit",
      "outputs": [
        {
          "internalType": "uint256",
          "name": "",
          "type": "uint256"
        }
      ],
      "stateMutability": "view",
      "type": "function"
    },
    {
      "inputs": [],
      "name": "owner",
      "outputs": [
        {
          "internalType": "address",
          "name": "",
          "type": "address"
        }
      ],
      "stateMutability": "view",
      "type": "function"
    },
    {
      "inputs": [
        {
          "internalType": "uint256",
          "name": "tokenId",
          "type": "uint256"
        }
      ],
      "name": "ownerOf",
      "outputs": [
        {
          "internalType": "address",
          "name": "",
          "type": "address"
        }
      ],
      "stateMutability": "view",
      "type": "function"
    },
    {
      "inputs": [],
      "name": "pause",
      "outputs": [],
      "stateMutability": "nonpayable",
      "type": "function"
    },
    {
      "inputs": [],
      "name": "paused",
      "outputs": [
        {
          "internalType": "bool",
          "name": "",
          "type": "bool"
        }
      ],
      "stateMutability": "view",
      "type": "function"
    },
    {
      "inputs": [],
      "name": "renounceOwnership",
      "outputs": [],
      "stateMutability": "nonpayable",
      "type": "function"
    },
    {
      "inputs": [],
      "name": "reserveAddress",
      "outputs": [
        {
          "internalType": "address",
          "name": "",
          "type": "address"
        }
      ],
      "stateMutability": "view",
      "type": "function"
    },
    {
      "inputs": [
        {
          "internalType": "address",
          "name": "from",
          "type": "address"
        },
        {
          "internalType": "address",
          "name": "to",
          "type": "address"
        },
        {
          "internalType": "uint256",
          "name": "tokenId",
          "type": "uint256"
        }
      ],
      "name": "safeTransferFrom",
      "outputs": [],
      "stateMutability": "nonpayable",
      "type": "function"
    },
    {
      "inputs": [
        {
          "internalType": "address",
          "name": "from",
          "type": "address"
        },
        {
          "internalType": "address",
          "name": "to",
          "type": "address"
        },
        {
          "internalType": "uint256",
          "name": "tokenId",
          "type": "uint256"
        },
        {
          "internalType": "bytes",
          "name": "_data",
          "type": "bytes"
        }
      ],
      "name": "safeTransferFrom",
      "outputs": [],
      "stateMutability": "nonpayable",
      "type": "function"
    },
    {
      "inputs": [
        {
          "internalType": "address",
          "name": "operator",
          "type": "address"
        },
        {
          "internalType": "bool",
          "name": "approved",
          "type": "bool"
        }
      ],
      "name": "setApprovalForAll",
      "outputs": [],
      "stateMutability": "nonpayable",
      "type": "function"
    },
    {
      "inputs": [
        {
          "internalType": "uint256",
          "name": "_limit",
          "type": "uint256"
        }
      ],
      "name": "setNftPerAddressLimit",
      "outputs": [],
      "stateMutability": "nonpayable",
      "type": "function"
    },
    {
      "inputs": [
        {
          "internalType": "bytes4",
          "name": "interfaceId",
          "type": "bytes4"
        }
      ],
      "name": "supportsInterface",
      "outputs": [
        {
          "internalType": "bool",
          "name": "",
          "type": "bool"
        }
      ],
      "stateMutability": "view",
      "type": "function"
    },
    {
      "inputs": [],
      "name": "symbol",
      "outputs": [
        {
          "internalType": "string",
          "name": "",
          "type": "string"
        }
      ],
      "stateMutability": "view",
      "type": "function"
    },
    {
      "inputs": [],
      "name": "tokenAddress",
      "outputs": [
        {
          "internalType": "contract IERC20",
          "name": "",
          "type": "address"
        }
      ],
      "stateMutability": "view",
      "type": "function"
    },
    {
      "inputs": [
        {
          "internalType": "uint256",
          "name": "tokenId",
          "type": "uint256"
        }
      ],
      "name": "tokenURI",
      "outputs": [
        {
          "internalType": "string",
          "name": "",
          "type": "string"
        }
      ],
      "stateMutability": "view",
      "type": "function"
    },
    {
      "inputs": [],
      "name": "totalSupply",
      "outputs": [
        {
          "internalType": "uint256",
          "name": "",
          "type": "uint256"
        }
      ],
      "stateMutability": "view",
      "type": "function"
    },
    {
      "inputs": [
        {
          "internalType": "uint256",
          "name": "",
          "type": "uint256"
        }
      ],
      "name": "trains",
      "outputs": [
        {
          "internalType": "uint256",
          "name": "id",
          "type": "uint256"
        },
        {
          "internalType": "uint8",
          "name": "level",
          "type": "uint8"
        },
        {
          "internalType": "uint8",
          "name": "rarity",
          "type": "uint8"
        },
        {
          "internalType": "bool",
          "name": "fuel",
          "type": "bool"
        },
        {
          "internalType": "uint8",
          "name": "status",
          "type": "uint8"
        }
      ],
      "stateMutability": "view",
      "type": "function"
    },
    {
      "inputs": [
        {
          "internalType": "address",
          "name": "from",
          "type": "address"
        },
        {
          "internalType": "address",
          "name": "to",
          "type": "address"
        },
        {
          "internalType": "uint256",
          "name": "tokenId",
          "type": "uint256"
        }
      ],
      "name": "transferFrom",
      "outputs": [],
      "stateMutability": "nonpayable",
      "type": "function"
    },
    {
      "inputs": [
        {
          "internalType": "address",
          "name": "newOwner",
          "type": "address"
        }
      ],
      "name": "transferOwnership",
      "outputs": [],
      "stateMutability": "nonpayable",
      "type": "function"
    },
    {
      "inputs": [],
      "name": "unpause",
      "outputs": [],
      "stateMutability": "nonpayable",
      "type": "function"
    }
  ],
  "bytecode": "0x6080604052600a600955600a80553480156200001a57600080fd5b50604051620029af380380620029af8339810160408190526200003d9162000207565b604080518082018252600681526521ba3930b4b760d11b60208083019182528351808501909452600384526221aa2960e91b908401528151919291620000869160009162000144565b5080516200009c90600190602084019062000144565b50506007805460ff1916905550620000b433620000ea565b600b80546001600160a01b039384166001600160a01b031991821617909155600c8054929093169116179055426010556200027b565b600780546001600160a01b03838116610100818102610100600160a81b031985161790945560405193909204169182907f8be0079c531659141344cd1fd0a4f28419497f9722a3daafe3b4186f6b6457e090600090a35050565b82805462000152906200023e565b90600052602060002090601f016020900481019282620001765760008555620001c1565b82601f106200019157805160ff1916838001178555620001c1565b82800160010185558215620001c1579182015b82811115620001c1578251825591602001919060010190620001a4565b50620001cf929150620001d3565b5090565b5b80821115620001cf5760008155600101620001d4565b80516001600160a01b03811681146200020257600080fd5b919050565b600080604083850312156200021a578182fd5b6200022583620001ea565b91506200023560208401620001ea565b90509250929050565b600181811c908216806200025357607f821691505b602082108114156200027557634e487b7160e01b600052602260045260246000fd5b50919050565b612724806200028b6000396000f3fe6080604052600436106101cd5760003560e01c8063715018a6116100f7578063b88d4fde11610095578063e985e9c511610064578063e985e9c51461052c578063f2fde38b14610575578063f779acbb14610595578063f79ed94b146105b757600080fd5b8063b88d4fde146104b6578063ba7d2c76146104d6578063c87b56dd146104ec578063d0eb26b01461050c57600080fd5b806395d89b41116100d157806395d89b41146104415780639cf278e8146104565780639d76ea5814610476578063a22cb4651461049657600080fd5b8063715018a6146103f45780638456cb59146104095780638da5cb5b1461041e57600080fd5b806323b872dd1161016f578063598c68b11161013e578063598c68b11461034c5780635c975abb1461039c5780636352211e146103b457806370a08231146103d457600080fd5b806323b872dd146102d75780633af32abf146102f75780633f4ba83a1461031757806342842e0e1461032c57600080fd5b8063081812fc116101ab578063081812fc1461023e578063095ea7b31461027657806318160ddd1461029657806319ae037b146102b557600080fd5b80630118fa49146101d257806301ffc9a7146101e757806306fdde031461021c575b600080fd5b6101e56101e03660046122ce565b6105d7565b005b3480156101f357600080fd5b5061020761020236600461227e565b610ad3565b60405190151581526020015b60405180910390f35b34801561022857600080fd5b50610231610b25565b60405161021391906124a5565b34801561024a57600080fd5b5061025e6102593660046122b6565b610bb7565b6040516001600160a01b039091168152602001610213565b34801561028257600080fd5b506101e5610291366004612239565b610c3f565b3480156102a257600080fd5b50600a545b604051908152602001610213565b3480156102c157600080fd5b506102ca610d55565b604051610213919061242d565b3480156102e357600080fd5b506101e56102f236600461214f565b610df2565b34801561030357600080fd5b50610207610312366004612103565b610e23565b34801561032357600080fd5b506101e5610e9b565b34801561033857600080fd5b506101e561034736600461214f565b610ed5565b34801561035857600080fd5b5061036c6103673660046122b6565b610ef0565b6040805195865260ff9485166020870152928416928501929092521515606084015216608082015260a001610213565b3480156103a857600080fd5b5060075460ff16610207565b3480156103c057600080fd5b5061025e6103cf3660046122b6565b610f3d565b3480156103e057600080fd5b506102a76103ef366004612103565b610fb4565b34801561040057600080fd5b506101e561103b565b34801561041557600080fd5b506101e5611075565b34801561042a57600080fd5b5060075461010090046001600160a01b031661025e565b34801561044d57600080fd5b506102316110ad565b34801561046257600080fd5b506102ca610471366004612103565b6110bc565b34801561048257600080fd5b50600b5461025e906001600160a01b031681565b3480156104a257600080fd5b506101e56104b1366004612203565b611250565b3480156104c257600080fd5b506101e56104d136600461218a565b61125f565b3480156104e257600080fd5b506102a760095481565b3480156104f857600080fd5b506102316105073660046122b6565b611297565b34801561051857600080fd5b506101e56105273660046122b6565b61140e565b34801561053857600080fd5b5061020761054736600461211d565b6001600160a01b03918216600090815260056020908152604080832093909416825291909152205460ff1690565b34801561058157600080fd5b506101e5610590366004612103565b611443565b3480156105a157600080fd5b506105aa6114e4565b60405161021391906123e0565b3480156105c357600080fd5b50600c5461025e906001600160a01b031681565b60075460ff16156106225760405162461bcd60e51b815260206004820152601060248201526f14185d5cd8589b194e881c185d5cd95960821b60448201526064015b60405180910390fd5b600082116106805760405162461bcd60e51b815260206004820152602560248201527f4d696e696d756d206e756d626572206f66206d696e7461626c6520746f6b656e604482015264206973203160d81b6064820152608401610619565b60058211156106df5760405162461bcd60e51b815260206004820152602560248201527f4d6178696d756d206e756d626572206f66206d696e7461626c6520746f6b656e604482015264206973203560d81b6064820152608401610619565b600a548211156107255760405162461bcd60e51b8152602060048201526011602482015270151bdad95b881a5cc81cdbdb19081bdd5d607a1b6044820152606401610619565b6612d452694f400034811461079a5760405162461bcd60e51b815260206004820152603560248201527f506c656173652073656e6420616c6f6e6720243220666f722065616368204e466044820152745420746f20636f6d706c657465206d696e74696e6760581b6064820152608401610619565b6000601054610e106107ac9190612590565b90506000601054611c206107c09190612590565b905060008242116107db57506816c4abbebea010000061080b565b82421180156107ea5750814211155b156107ff5750681ba5abf9e77938000061080b565b50682086ac3510526000005b600061081787836125bc565b9050600061082433610fb4565b6009549091506108348983612590565b11156108825760405162461bcd60e51b815260206004820152601c60248201527f6d6178204e4654207065722061646472657373206578636565646564000000006044820152606401610619565b600b54600c546040516323b872dd60e01b81523360048201526001600160a01b039182166024820152604481018590529116906323b872dd90606401602060405180830381600087803b1580156108d857600080fd5b505af11580156108ec573d6000803e3d6000fd5b505050506040513d601f19601f820116820180604052508101906109109190612262565b5087600a600082825461092391906125db565b9091555050600d8054600181810183556000929092527fd7b6990105719101dabeb77144f2a3385c8033acd3af97e9423a695e81ad1eb50180546001600160a01b031916331790555b888111610ac857600061097f6064611545565b6040805160a081018252600f54815260016020820181815260ff80861694840194855260006060850181815260808601858152600e805496870181558352865160029096027fbb7b4a454dc3493923482f07822329ed19e8244eff582cc204f8554c3620c3fd81019690965593517fbb7b4a454dc3493923482f07822329ed19e8244eff582cc204f8554c3620c3fe9095018054975191519451841663010000000263ff0000001995151562010000029590951663ffff0000199285166101000261ffff199099169690941695909517969096179590951617179055919250610a6760085490565b9050610a7333826115a1565b60008b85604051602001610a88929190612381565b6040516020818303038152906040529050610aa382826116d4565b610ab1600880546001019055565b505050508080610ac090612659565b91505061096c565b505050505050505050565b60006001600160e01b031982166380ac58cd60e01b1480610b0457506001600160e01b03198216635b5e139f60e01b145b80610b1f57506301ffc9a760e01b6001600160e01b03198316145b92915050565b606060008054610b349061261e565b80601f0160208091040260200160405190810160405280929190818152602001828054610b609061261e565b8015610bad5780601f10610b8257610100808354040283529160200191610bad565b820191906000526020600020905b815481529060010190602001808311610b9057829003601f168201915b5050505050905090565b6000610bc28261175f565b610c235760405162461bcd60e51b815260206004820152602c60248201527f4552433732313a20617070726f76656420717565727920666f72206e6f6e657860448201526b34b9ba32b73a103a37b5b2b760a11b6064820152608401610619565b506000908152600460205260409020546001600160a01b031690565b6000610c4a82610f3d565b9050806001600160a01b0316836001600160a01b03161415610cb85760405162461bcd60e51b815260206004820152602160248201527f4552433732313a20617070726f76616c20746f2063757272656e74206f776e656044820152603960f91b6064820152608401610619565b336001600160a01b0382161480610cd45750610cd48133610547565b610d465760405162461bcd60e51b815260206004820152603860248201527f4552433732313a20617070726f76652063616c6c6572206973206e6f74206f7760448201527f6e6572206e6f7220617070726f76656420666f7220616c6c00000000000000006064820152608401610619565b610d50838361177c565b505050565b6060600e805480602002602001604051908101604052809291908181526020016000905b82821015610de95760008481526020908190206040805160a081018252600286029092018054835260019081015460ff8082168587015261010082048116938501939093526201000081048316151560608501526301000000900490911660808301529083529092019101610d79565b50505050905090565b610dfc33826117ea565b610e185760405162461bcd60e51b81526004016106199061253f565b610d508383836118d0565b6000805b600d54811015610e9257826001600160a01b0316600d8281548110610e5c57634e487b7160e01b600052603260045260246000fd5b6000918252602090912001546001600160a01b03161415610e805750600192915050565b80610e8a81612659565b915050610e27565b50600092915050565b6007546001600160a01b03610100909104163314610ecb5760405162461bcd60e51b81526004016106199061250a565b610ed3611a70565b565b610d508383836040518060200160405280600081525061125f565b600e8181548110610f0057600080fd5b60009182526020909120600290910201805460019091015490915060ff808216916101008104821691620100008204811691630100000090041685565b6000818152600260205260408120546001600160a01b031680610b1f5760405162461bcd60e51b815260206004820152602960248201527f4552433732313a206f776e657220717565727920666f72206e6f6e657869737460448201526832b73a103a37b5b2b760b91b6064820152608401610619565b60006001600160a01b03821661101f5760405162461bcd60e51b815260206004820152602a60248201527f4552433732313a2062616c616e636520717565727920666f7220746865207a65604482015269726f206164647265737360b01b6064820152608401610619565b506001600160a01b031660009081526003602052604090205490565b6007546001600160a01b0361010090910416331461106b5760405162461bcd60e51b81526004016106199061250a565b610ed36000611b03565b6007546001600160a01b036101009091041633146110a55760405162461bcd60e51b81526004016106199061250a565b610ed3611b5d565b606060018054610b349061261e565b606060006110c983610fb4565b67ffffffffffffffff8111156110ef57634e487b7160e01b600052604160045260246000fd5b60405190808252806020026020018201604052801561114857816020015b6040805160a08101825260008082526020808301829052928201819052606082018190526080820152825260001990920191018161110d5790505b5090506000805b600e5481101561124757846001600160a01b031661116c82610f3d565b6001600160a01b0316141561123557600e818154811061119c57634e487b7160e01b600052603260045260246000fd5b60009182526020918290206040805160a0810182526002909302909101805483526001015460ff808216948401949094526101008104841691830191909152620100008104831615156060830152630100000090049091166080820152835184908490811061121b57634e487b7160e01b600052603260045260246000fd5b6020026020010181905250818061123190612659565b9250505b8061123f81612659565b91505061114f565b50909392505050565b61125b338383611bd8565b5050565b61126933836117ea565b6112855760405162461bcd60e51b81526004016106199061253f565b61129184848484611ca7565b50505050565b60606112a28261175f565b6113085760405162461bcd60e51b815260206004820152603160248201527f45524337323155524953746f726167653a2055524920717565727920666f72206044820152703737b732bc34b9ba32b73a103a37b5b2b760791b6064820152608401610619565b600082815260066020526040812080546113219061261e565b80601f016020809104026020016040519081016040528092919081815260200182805461134d9061261e565b801561139a5780601f1061136f5761010080835404028352916020019161139a565b820191906000526020600020905b81548152906001019060200180831161137d57829003601f168201915b5050505050905060006113b860408051602081019091526000815290565b90508051600014156113cb575092915050565b8151156113fd5780826040516020016113e5929190612352565b60405160208183030381529060405292505050919050565b61140684611cda565b949350505050565b6007546001600160a01b0361010090910416331461143e5760405162461bcd60e51b81526004016106199061250a565b600955565b6007546001600160a01b036101009091041633146114735760405162461bcd60e51b81526004016106199061250a565b6001600160a01b0381166114d85760405162461bcd60e51b815260206004820152602660248201527f4f776e61626c653a206e6577206f776e657220697320746865207a65726f206160448201526564647265737360d01b6064820152608401610619565b6114e181611b03565b50565b6060600d805480602002602001604051908101604052809291908181526020018280548015610bad57602002820191906000526020600020905b81546001600160a01b0316815260019091019060200180831161151e575050505050905090565b600080423360405160200161157692919091825260601b6bffffffffffffffffffffffff1916602082015260340190565b60408051601f198184030181529190528051602090910120905061159a8382612674565b9392505050565b6001600160a01b0382166115f75760405162461bcd60e51b815260206004820181905260248201527f4552433732313a206d696e7420746f20746865207a65726f20616464726573736044820152606401610619565b6116008161175f565b1561164d5760405162461bcd60e51b815260206004820152601c60248201527f4552433732313a20746f6b656e20616c7265616479206d696e746564000000006044820152606401610619565b6001600160a01b0382166000908152600360205260408120805460019290611676908490612590565b909155505060008181526002602052604080822080546001600160a01b0319166001600160a01b03861690811790915590518392907fddf252ad1be2c89b69c2b068fc378daa952ba7f163c4a11628f55a4df523b3ef908290a45050565b6116dd8261175f565b6117405760405162461bcd60e51b815260206004820152602e60248201527f45524337323155524953746f726167653a2055524920736574206f66206e6f6e60448201526d32bc34b9ba32b73a103a37b5b2b760911b6064820152608401610619565b60008281526006602090815260409091208251610d5092840190611fd8565b6000908152600260205260409020546001600160a01b0316151590565b600081815260046020526040902080546001600160a01b0319166001600160a01b03841690811790915581906117b182610f3d565b6001600160a01b03167f8c5be1e5ebec7d5bd14f71427d1e84f3dd0314c0f7b2291e5b200ac8c7c3b92560405160405180910390a45050565b60006117f58261175f565b6118565760405162461bcd60e51b815260206004820152602c60248201527f4552433732313a206f70657261746f7220717565727920666f72206e6f6e657860448201526b34b9ba32b73a103a37b5b2b760a11b6064820152608401610619565b600061186183610f3d565b9050806001600160a01b0316846001600160a01b0316148061189c5750836001600160a01b031661189184610bb7565b6001600160a01b0316145b8061140657506001600160a01b0380821660009081526005602090815260408083209388168352929052205460ff16611406565b826001600160a01b03166118e382610f3d565b6001600160a01b03161461194b5760405162461bcd60e51b815260206004820152602960248201527f4552433732313a207472616e73666572206f6620746f6b656e2074686174206960448201526839903737ba1037bbb760b91b6064820152608401610619565b6001600160a01b0382166119ad5760405162461bcd60e51b8152602060048201526024808201527f4552433732313a207472616e7366657220746f20746865207a65726f206164646044820152637265737360e01b6064820152608401610619565b6119b860008261177c565b6001600160a01b03831660009081526003602052604081208054600192906119e19084906125db565b90915550506001600160a01b0382166000908152600360205260408120805460019290611a0f908490612590565b909155505060008181526002602052604080822080546001600160a01b0319166001600160a01b0386811691821790925591518493918716917fddf252ad1be2c89b69c2b068fc378daa952ba7f163c4a11628f55a4df523b3ef91a4505050565b60075460ff16611ab95760405162461bcd60e51b815260206004820152601460248201527314185d5cd8589b194e881b9bdd081c185d5cd95960621b6044820152606401610619565b6007805460ff191690557f5db9ee0a495bf2e6ff9c91a7834c1ba4fdd244a5e8aa4e537bd38aeae4b073aa335b6040516001600160a01b03909116815260200160405180910390a1565b600780546001600160a01b03838116610100818102610100600160a81b031985161790945560405193909204169182907f8be0079c531659141344cd1fd0a4f28419497f9722a3daafe3b4186f6b6457e090600090a35050565b60075460ff1615611ba35760405162461bcd60e51b815260206004820152601060248201526f14185d5cd8589b194e881c185d5cd95960821b6044820152606401610619565b6007805460ff191660011790557f62e78cea01bee320cd4e420270b5ea74000d11b0c9f74754ebdbfc544b05a258611ae63390565b816001600160a01b0316836001600160a01b03161415611c3a5760405162461bcd60e51b815260206004820152601960248201527f4552433732313a20617070726f766520746f2063616c6c6572000000000000006044820152606401610619565b6001600160a01b03838116600081815260056020908152604080832094871680845294825291829020805460ff191686151590811790915591519182527f17307eab39ab6107e8899845ad3d59bd9653f200f220920489ca2b5937696c31910160405180910390a3505050565b611cb28484846118d0565b611cbe84848484611db1565b6112915760405162461bcd60e51b8152600401610619906124b8565b6060611ce58261175f565b611d495760405162461bcd60e51b815260206004820152602f60248201527f4552433732314d657461646174613a2055524920717565727920666f72206e6f60448201526e3732bc34b9ba32b73a103a37b5b2b760891b6064820152608401610619565b6000611d6060408051602081019091526000815290565b90506000815111611d80576040518060200160405280600081525061159a565b80611d8a84611ebe565b604051602001611d9b929190612352565b6040516020818303038152906040529392505050565b60006001600160a01b0384163b15611eb357604051630a85bd0160e11b81526001600160a01b0385169063150b7a0290611df59033908990889088906004016123a3565b602060405180830381600087803b158015611e0f57600080fd5b505af1925050508015611e3f575060408051601f3d908101601f19168201909252611e3c9181019061229a565b60015b611e99573d808015611e6d576040519150601f19603f3d011682016040523d82523d6000602084013e611e72565b606091505b508051611e915760405162461bcd60e51b8152600401610619906124b8565b805181602001fd5b6001600160e01b031916630a85bd0160e11b149050611406565b506001949350505050565b606081611ee25750506040805180820190915260018152600360fc1b602082015290565b8160005b8115611f0c5780611ef681612659565b9150611f059050600a836125a8565b9150611ee6565b60008167ffffffffffffffff811115611f3557634e487b7160e01b600052604160045260246000fd5b6040519080825280601f01601f191660200182016040528015611f5f576020820181803683370190505b5090505b841561140657611f746001836125db565b9150611f81600a86612674565b611f8c906030612590565b60f81b818381518110611faf57634e487b7160e01b600052603260045260246000fd5b60200101906001600160f81b031916908160001a905350611fd1600a866125a8565b9450611f63565b828054611fe49061261e565b90600052602060002090601f016020900481019282612006576000855561204c565b82601f1061201f57805160ff191683800117855561204c565b8280016001018555821561204c579182015b8281111561204c578251825591602001919060010190612031565b5061205892915061205c565b5090565b5b80821115612058576000815560010161205d565b600067ffffffffffffffff8084111561208c5761208c6126b4565b604051601f8501601f19908116603f011681019082821181831017156120b4576120b46126b4565b816040528093508581528686860111156120cd57600080fd5b858560208301376000602087830101525050509392505050565b80356001600160a01b03811681146120fe57600080fd5b919050565b600060208284031215612114578081fd5b61159a826120e7565b6000806040838503121561212f578081fd5b612138836120e7565b9150612146602084016120e7565b90509250929050565b600080600060608486031215612163578081fd5b61216c846120e7565b925061217a602085016120e7565b9150604084013590509250925092565b6000806000806080858703121561219f578081fd5b6121a8856120e7565b93506121b6602086016120e7565b925060408501359150606085013567ffffffffffffffff8111156121d8578182fd5b8501601f810187136121e8578182fd5b6121f787823560208401612071565b91505092959194509250565b60008060408385031215612215578182fd5b61221e836120e7565b9150602083013561222e816126ca565b809150509250929050565b6000806040838503121561224b578182fd5b612254836120e7565b946020939093013593505050565b600060208284031215612273578081fd5b815161159a816126ca565b60006020828403121561228f578081fd5b813561159a816126d8565b6000602082840312156122ab578081fd5b815161159a816126d8565b6000602082840312156122c7578081fd5b5035919050565b600080604083850312156122e0578182fd5b82359150602083013567ffffffffffffffff8111156122fd578182fd5b8301601f8101851361230d578182fd5b61231c85823560208401612071565b9150509250929050565b6000815180845261233e8160208601602086016125f2565b601f01601f19169290920160200192915050565b600083516123648184602088016125f2565b8351908301906123788183602088016125f2565b01949350505050565b600083516123938184602088016125f2565b9190910191825250602001919050565b6001600160a01b03858116825284166020820152604081018390526080606082018190526000906123d690830184612326565b9695505050505050565b6020808252825182820181905260009190848201906040850190845b818110156124215783516001600160a01b0316835292840192918401916001016123fc565b50909695505050505050565b602080825282518282018190526000919060409081850190868401855b82811015612498578151805185528681015160ff9081168887015286820151811687870152606080830151151590870152608091820151169085015260a0909301929085019060010161244a565b5091979650505050505050565b60208152600061159a6020830184612326565b60208082526032908201527f4552433732313a207472616e7366657220746f206e6f6e20455243373231526560408201527131b2b4bb32b91034b6b83632b6b2b73a32b960711b606082015260800190565b6020808252818101527f4f776e61626c653a2063616c6c6572206973206e6f7420746865206f776e6572604082015260600190565b60208082526031908201527f4552433732313a207472616e736665722063616c6c6572206973206e6f74206f6040820152701ddb995c881b9bdc88185c1c1c9bdd9959607a1b606082015260800190565b600082198211156125a3576125a3612688565b500190565b6000826125b7576125b761269e565b500490565b60008160001904831182151516156125d6576125d6612688565b500290565b6000828210156125ed576125ed612688565b500390565b60005b8381101561260d5781810151838201526020016125f5565b838111156112915750506000910152565b600181811c9082168061263257607f821691505b6020821081141561265357634e487b7160e01b600052602260045260246000fd5b50919050565b600060001982141561266d5761266d612688565b5060010190565b6000826126835761268361269e565b500690565b634e487b7160e01b600052601160045260246000fd5b634e487b7160e01b600052601260045260246000fd5b634e487b7160e01b600052604160045260246000fd5b80151581146114e157600080fd5b6001600160e01b0319811681146114e157600080fdfea2646970667358221220ea8d6e188c449d0197330ecc344a1f4262c9a220d8eb99ea135795b034304e4664736f6c63430008040033",
  "linkReferences": {},
  "deployedLinkReferences": {}
}