{
  "_format": "hh-sol-artifact-1",
  "contractName": "Ctrain",
  "sourceName": "contracts/Ctrain.sol",
  "abi": [
    {
      "inputs": [
        {
          "internalType": "address",
          "name": "marketplaceAddress",
          "type": "address"
        },
        {
          "internalType": "address",
          "name": "_token",
          "type": "address"
        },
        {
          "internalType": "address",
          "name": "_reserve",
          "type": "address"
        }
      ],
      "stateMutability": "nonpayable",
      "type": "constructor"
    },
    {
      "anonymous": false,
      "inputs": [
        {
          "indexed": true,
          "internalType": "address",
          "name": "owner",
          "type": "address"
        },
        {
          "indexed": true,
          "internalType": "address",
          "name": "approved",
          "type": "address"
        },
        {
          "indexed": true,
          "internalType": "uint256",
          "name": "tokenId",
          "type": "uint256"
        }
      ],
      "name": "Approval",
      "type": "event"
    },
    {
      "anonymous": false,
      "inputs": [
        {
          "indexed": true,
          "internalType": "address",
          "name": "owner",
          "type": "address"
        },
        {
          "indexed": true,
          "internalType": "address",
          "name": "operator",
          "type": "address"
        },
        {
          "indexed": false,
          "internalType": "bool",
          "name": "approved",
          "type": "bool"
        }
      ],
      "name": "ApprovalForAll",
      "type": "event"
    },
    {
      "anonymous": false,
      "inputs": [
        {
          "indexed": false,
          "internalType": "address",
          "name": "account",
          "type": "address"
        }
      ],
      "name": "Paused",
      "type": "event"
    },
    {
      "anonymous": false,
      "inputs": [
        {
          "indexed": false,
          "internalType": "address",
          "name": "_sender",
          "type": "address"
        },
        {
          "indexed": false,
          "internalType": "address",
          "name": "_receiver",
          "type": "address"
        },
        {
          "indexed": false,
          "internalType": "uint256",
          "name": "_id",
          "type": "uint256"
        }
      ],
      "name": "RestrictedTransfer",
      "type": "event"
    },
    {
      "anonymous": false,
      "inputs": [
        {
          "indexed": true,
          "internalType": "address",
          "name": "from",
          "type": "address"
        },
        {
          "indexed": true,
          "internalType": "address",
          "name": "to",
          "type": "address"
        },
        {
          "indexed": true,
          "internalType": "uint256",
          "name": "tokenId",
          "type": "uint256"
        }
      ],
      "name": "Transfer",
      "type": "event"
    },
    {
      "anonymous": false,
      "inputs": [
        {
          "indexed": false,
          "internalType": "address",
          "name": "account",
          "type": "address"
        }
      ],
      "name": "Unpaused",
      "type": "event"
    },
    {
      "inputs": [
        {
          "internalType": "uint256",
          "name": "_amount",
          "type": "uint256"
        }
      ],
      "name": "TokenWithdraw",
      "outputs": [],
      "stateMutability": "nonpayable",
      "type": "function"
    },
    {
      "inputs": [],
      "name": "allWhitelistedAddresses",
      "outputs": [
        {
          "internalType": "address[]",
          "name": "",
          "type": "address[]"
        }
      ],
      "stateMutability": "view",
      "type": "function"
    },
    {
      "inputs": [
        {
          "internalType": "address",
          "name": "to",
          "type": "address"
        },
        {
          "internalType": "uint256",
          "name": "tokenId",
          "type": "uint256"
        }
      ],
      "name": "approve",
      "outputs": [],
      "stateMutability": "nonpayable",
      "type": "function"
    },
    {
      "inputs": [
        {
          "internalType": "address",
          "name": "owner",
          "type": "address"
        }
      ],
      "name": "balanceOf",
      "outputs": [
        {
          "internalType": "uint256",
          "name": "",
          "type": "uint256"
        }
      ],
      "stateMutability": "view",
      "type": "function"
    },
    {
      "inputs": [],
      "name": "createToken",
      "outputs": [],
      "stateMutability": "payable",
      "type": "function"
    },
    {
      "inputs": [
        {
          "internalType": "uint256",
          "name": "tokenId",
          "type": "uint256"
        }
      ],
      "name": "getApproved",
      "outputs": [
        {
          "internalType": "address",
          "name": "",
          "type": "address"
        }
      ],
      "stateMutability": "view",
      "type": "function"
    },
    {
      "inputs": [
        {
          "internalType": "address",
          "name": "_owner",
          "type": "address"
        }
      ],
      "name": "getOwnerTrains",
      "outputs": [
        {
          "components": [
            {
              "internalType": "uint256",
              "name": "id",
              "type": "uint256"
            },
            {
              "internalType": "uint8",
              "name": "level",
              "type": "uint8"
            },
            {
              "internalType": "uint8",
              "name": "rarity",
              "type": "uint8"
            },
            {
              "internalType": "bool",
              "name": "fuel",
              "type": "bool"
            },
            {
              "internalType": "uint8",
              "name": "acceleration",
              "type": "uint8"
            },
            {
              "internalType": "uint8",
              "name": "speed",
              "type": "uint8"
            },
            {
              "internalType": "uint8",
              "name": "brakes",
              "type": "uint8"
            },
            {
              "internalType": "uint8",
              "name": "loads",
              "type": "uint8"
            },
            {
              "internalType": "uint256",
              "name": "price",
              "type": "uint256"
            }
          ],
          "internalType": "struct Ctrain.Train[]",
          "name": "",
          "type": "tuple[]"
        }
      ],
      "stateMutability": "view",
      "type": "function"
    },
    {
      "inputs": [],
      "name": "getTrains",
      "outputs": [
        {
          "components": [
            {
              "internalType": "uint256",
              "name": "id",
              "type": "uint256"
            },
            {
              "internalType": "uint8",
              "name": "level",
              "type": "uint8"
            },
            {
              "internalType": "uint8",
              "name": "rarity",
              "type": "uint8"
            },
            {
              "internalType": "bool",
              "name": "fuel",
              "type": "bool"
            },
            {
              "internalType": "uint8",
              "name": "acceleration",
              "type": "uint8"
            },
            {
              "internalType": "uint8",
              "name": "speed",
              "type": "uint8"
            },
            {
              "internalType": "uint8",
              "name": "brakes",
              "type": "uint8"
            },
            {
              "internalType": "uint8",
              "name": "loads",
              "type": "uint8"
            },
            {
              "internalType": "uint256",
              "name": "price",
              "type": "uint256"
            }
          ],
          "internalType": "struct Ctrain.Train[]",
          "name": "",
          "type": "tuple[]"
        }
      ],
      "stateMutability": "view",
      "type": "function"
    },
    {
      "inputs": [
        {
          "internalType": "address",
          "name": "owner",
          "type": "address"
        },
        {
          "internalType": "address",
          "name": "operator",
          "type": "address"
        }
      ],
      "name": "isApprovedForAll",
      "outputs": [
        {
          "internalType": "bool",
          "name": "",
          "type": "bool"
        }
      ],
      "stateMutability": "view",
      "type": "function"
    },
    {
      "inputs": [
        {
          "internalType": "address",
          "name": "_user",
          "type": "address"
        }
      ],
      "name": "isWhitelisted",
      "outputs": [
        {
          "internalType": "bool",
          "name": "",
          "type": "bool"
        }
      ],
      "stateMutability": "view",
      "type": "function"
    },
    {
      "inputs": [],
      "name": "name",
      "outputs": [
        {
          "internalType": "string",
          "name": "",
          "type": "string"
        }
      ],
      "stateMutability": "view",
      "type": "function"
    },
    {
      "inputs": [
        {
          "internalType": "uint256",
          "name": "tokenId",
          "type": "uint256"
        }
      ],
      "name": "ownerOf",
      "outputs": [
        {
          "internalType": "address",
          "name": "",
          "type": "address"
        }
      ],
      "stateMutability": "view",
      "type": "function"
    },
    {
      "inputs": [],
      "name": "pause",
      "outputs": [],
      "stateMutability": "nonpayable",
      "type": "function"
    },
    {
      "inputs": [],
      "name": "paused",
      "outputs": [
        {
          "internalType": "bool",
          "name": "",
          "type": "bool"
        }
      ],
      "stateMutability": "view",
      "type": "function"
    },
    {
      "inputs": [],
      "name": "reserveAddress",
      "outputs": [
        {
          "internalType": "address",
          "name": "",
          "type": "address"
        }
      ],
      "stateMutability": "view",
      "type": "function"
    },
    {
      "inputs": [
        {
          "internalType": "address",
          "name": "from",
          "type": "address"
        },
        {
          "internalType": "address",
          "name": "to",
          "type": "address"
        },
        {
          "internalType": "uint256",
          "name": "tokenId",
          "type": "uint256"
        }
      ],
      "name": "safeTransferFrom",
      "outputs": [],
      "stateMutability": "nonpayable",
      "type": "function"
    },
    {
      "inputs": [
        {
          "internalType": "address",
          "name": "from",
          "type": "address"
        },
        {
          "internalType": "address",
          "name": "to",
          "type": "address"
        },
        {
          "internalType": "uint256",
          "name": "tokenId",
          "type": "uint256"
        },
        {
          "internalType": "bytes",
          "name": "_data",
          "type": "bytes"
        }
      ],
      "name": "safeTransferFrom",
      "outputs": [],
      "stateMutability": "nonpayable",
      "type": "function"
    },
    {
      "inputs": [
        {
          "internalType": "address",
          "name": "operator",
          "type": "address"
        },
        {
          "internalType": "bool",
          "name": "approved",
          "type": "bool"
        }
      ],
      "name": "setApprovalForAll",
      "outputs": [],
      "stateMutability": "nonpayable",
      "type": "function"
    },
    {
      "inputs": [
        {
          "internalType": "uint256",
          "name": "_limit",
          "type": "uint256"
        }
      ],
      "name": "setNftPerAddressLimit",
      "outputs": [],
      "stateMutability": "nonpayable",
      "type": "function"
    },
    {
      "inputs": [
        {
          "internalType": "bytes4",
          "name": "interfaceId",
          "type": "bytes4"
        }
      ],
      "name": "supportsInterface",
      "outputs": [
        {
          "internalType": "bool",
          "name": "",
          "type": "bool"
        }
      ],
      "stateMutability": "view",
      "type": "function"
    },
    {
      "inputs": [],
      "name": "symbol",
      "outputs": [
        {
          "internalType": "string",
          "name": "",
          "type": "string"
        }
      ],
      "stateMutability": "view",
      "type": "function"
    },
    {
      "inputs": [],
      "name": "tokenAddress",
      "outputs": [
        {
          "internalType": "contract IERC20",
          "name": "",
          "type": "address"
        }
      ],
      "stateMutability": "view",
      "type": "function"
    },
    {
      "inputs": [
        {
          "internalType": "uint256",
          "name": "tokenId",
          "type": "uint256"
        }
      ],
      "name": "tokenURI",
      "outputs": [
        {
          "internalType": "string",
          "name": "",
          "type": "string"
        }
      ],
      "stateMutability": "view",
      "type": "function"
    },
    {
      "inputs": [],
      "name": "totalPresaleSupply",
      "outputs": [
        {
          "internalType": "uint256",
          "name": "",
          "type": "uint256"
        }
      ],
      "stateMutability": "view",
      "type": "function"
    },
    {
      "inputs": [
        {
          "internalType": "uint256",
          "name": "",
          "type": "uint256"
        }
      ],
      "name": "trains",
      "outputs": [
        {
          "internalType": "uint256",
          "name": "id",
          "type": "uint256"
        },
        {
          "internalType": "uint8",
          "name": "level",
          "type": "uint8"
        },
        {
          "internalType": "uint8",
          "name": "rarity",
          "type": "uint8"
        },
        {
          "internalType": "bool",
          "name": "fuel",
          "type": "bool"
        },
        {
          "internalType": "uint8",
          "name": "acceleration",
          "type": "uint8"
        },
        {
          "internalType": "uint8",
          "name": "speed",
          "type": "uint8"
        },
        {
          "internalType": "uint8",
          "name": "brakes",
          "type": "uint8"
        },
        {
          "internalType": "uint8",
          "name": "loads",
          "type": "uint8"
        },
        {
          "internalType": "uint256",
          "name": "price",
          "type": "uint256"
        }
      ],
      "stateMutability": "view",
      "type": "function"
    },
    {
      "inputs": [
        {
          "internalType": "address",
          "name": "from",
          "type": "address"
        },
        {
          "internalType": "address",
          "name": "to",
          "type": "address"
        },
        {
          "internalType": "uint256",
          "name": "tokenId",
          "type": "uint256"
        }
      ],
      "name": "transferFrom",
      "outputs": [],
      "stateMutability": "nonpayable",
      "type": "function"
    },
    {
      "inputs": [],
      "name": "unpause",
      "outputs": [],
      "stateMutability": "nonpayable",
      "type": "function"
    },
    {
      "inputs": [
        {
          "internalType": "address[]",
          "name": "_users",
          "type": "address[]"
        }
      ],
      "name": "whitelistUsers",
      "outputs": [],
      "stateMutability": "nonpayable",
      "type": "function"
    },
    {
      "inputs": [],
      "name": "withdrawBNB",
      "outputs": [],
      "stateMutability": "payable",
      "type": "function"
    }
  ],
  "bytecode": "0x6080604052600a600b55610bb8600c553480156200001c57600080fd5b5060405162002b4538038062002b458339810160408190526200003f91620001c0565b604080518082018252600681526531ba3930b4b760d11b60208083019182528351808501909452600384526231ba3960e91b9084015281519192916200008891600091620000fd565b5080516200009e906001906020840190620000fd565b50506007805460ff1916905550600a80546001600160a01b03199081163317909155600980546001600160a01b03958616908316179055600d805493851693821693909317909255600e80549190931691161790554260125562000246565b8280546200010b9062000209565b90600052602060002090601f0160209004810192826200012f57600085556200017a565b82601f106200014a57805160ff19168380011785556200017a565b828001600101855582156200017a579182015b828111156200017a5782518255916020019190600101906200015d565b50620001889291506200018c565b5090565b5b808211156200018857600081556001016200018d565b80516001600160a01b0381168114620001bb57600080fd5b919050565b600080600060608486031215620001d5578283fd5b620001e084620001a3565b9250620001f060208501620001a3565b91506200020060408501620001a3565b90509250925092565b600181811c908216806200021e57607f821691505b602082108114156200024057634e487b7160e01b600052602260045260246000fd5b50919050565b6128ef80620002566000396000f3fe6080604052600436106101cd5760003560e01c80636352211e116100f7578063b88d4fde11610095578063e985e9c511610064578063e985e9c514610534578063edec5f271461057d578063f779acbb1461059d578063f79ed94b146105bf57600080fd5b8063b88d4fde146104be578063ba7d2c76146104de578063c87b56dd146104f4578063d0eb26b01461051457600080fd5b806395d89b41116100d157806395d89b41146104495780639cf278e81461045e5780639d76ea581461047e578063a22cb4651461049e57600080fd5b80636352211e146103f457806370a08231146104145780638456cb591461043457600080fd5b80632d571cc41161016f57806342842e0e1161013e57806342842e0e146103355780634f153fe814610355578063598c68b1146103745780635c975abb146103dc57600080fd5b80632d571cc4146102cd5780633267ae1d146102e05780633af32abf146103005780633f4ba83a1461032057600080fd5b8063095ea7b3116101ab578063095ea7b31461026157806319ae037b146102835780631d111d13146102a557806323b872dd146102ad57600080fd5b806301ffc9a7146101d257806306fdde0314610207578063081812fc14610229575b600080fd5b3480156101de57600080fd5b506101f26101ed36600461248f565b6105df565b60405190151581526020015b60405180910390f35b34801561021357600080fd5b5061021c610631565b6040516101fe9190612670565b34801561023557600080fd5b506102496102443660046124c7565b6106c3565b6040516001600160a01b0390911681526020016101fe565b34801561026d57600080fd5b5061028161027c3660046123da565b61075d565b005b34801561028f57600080fd5b50610298610873565b6040516101fe91906125c4565b61028161093c565b3480156102b957600080fd5b506102816102c8366004612294565b6109a5565b6102816102db3660046124c7565b6109d6565b3480156102ec57600080fd5b506102816102fb3660046124c7565b611023565b34801561030c57600080fd5b506101f261031b366004612248565b6110d5565b34801561032c57600080fd5b5061028161114d565b34801561034157600080fd5b50610281610350366004612294565b611181565b34801561036157600080fd5b50600c545b6040519081526020016101fe565b34801561038057600080fd5b5061039461038f3660046124c7565b61119c565b6040805198895260ff97881660208a01529587169588019590955292151560608701529084166080860152831660a0850152821660c08401521660e0820152610100016101fe565b3480156103e857600080fd5b5060075460ff166101f2565b34801561040057600080fd5b5061024961040f3660046124c7565b611209565b34801561042057600080fd5b5061036661042f366004612248565b611280565b34801561044057600080fd5b50610281611307565b34801561045557600080fd5b5061021c611339565b34801561046a57600080fd5b50610298610479366004612248565b611348565b34801561048a57600080fd5b50600d54610249906001600160a01b031681565b3480156104aa57600080fd5b506102816104b93660046123a4565b61151b565b3480156104ca57600080fd5b506102816104d93660046122cf565b611526565b3480156104ea57600080fd5b50610366600b5481565b34801561050057600080fd5b5061021c61050f3660046124c7565b61155e565b34801561052057600080fd5b5061028161052f3660046124c7565b6116e5565b34801561054057600080fd5b506101f261054f366004612262565b6001600160a01b03918216600090815260056020908152604080832093909416825291909152205460ff1690565b34801561058957600080fd5b50610281610598366004612403565b611714565b3480156105a957600080fd5b506105b2611756565b6040516101fe9190612577565b3480156105cb57600080fd5b50600e54610249906001600160a01b031681565b60006001600160e01b031982166380ac58cd60e01b148061061057506001600160e01b03198216635b5e139f60e01b145b8061062b57506301ffc9a760e01b6001600160e01b03198316145b92915050565b606060008054610640906127e9565b80601f016020809104026020016040519081016040528092919081815260200182805461066c906127e9565b80156106b95780601f1061068e576101008083540402835291602001916106b9565b820191906000526020600020905b81548152906001019060200180831161069c57829003601f168201915b5050505050905090565b6000818152600260205260408120546001600160a01b03166107415760405162461bcd60e51b815260206004820152602c60248201527f4552433732313a20617070726f76656420717565727920666f72206e6f6e657860448201526b34b9ba32b73a103a37b5b2b760a11b60648201526084015b60405180910390fd5b506000908152600460205260409020546001600160a01b031690565b600061076882611209565b9050806001600160a01b0316836001600160a01b031614156107d65760405162461bcd60e51b815260206004820152602160248201527f4552433732313a20617070726f76616c20746f2063757272656e74206f776e656044820152603960f91b6064820152608401610738565b336001600160a01b03821614806107f257506107f2813361054f565b6108645760405162461bcd60e51b815260206004820152603860248201527f4552433732313a20617070726f76652063616c6c6572206973206e6f74206f7760448201527f6e6572206e6f7220617070726f76656420666f7220616c6c00000000000000006064820152608401610738565b61086e83836117b7565b505050565b60606010805480602002602001604051908101604052809291908181526020016000905b82821015610933576000848152602090819020604080516101008082018352600287029093018054825260019081015460ff8082168488015294810485169383019390935262010000830484161515606083015263010000008304841660808301526401000000008304841660a0830152600160281b8304841660c0830152600160301b90920490921660e08301529083529092019101610897565b50505050905090565b600a546001600160a01b031633146109665760405162461bcd60e51b815260040161073890612726565b600e546040516001600160a01b039091169081904780156108fc02916000818181858888f193505050501580156109a1573d6000803e3d6000fd5b5050565b6109af3382611825565b6109cb5760405162461bcd60e51b8152600401610738906126d5565b61086e838383611918565b60008111610a345760405162461bcd60e51b815260206004820152602560248201527f4d696e696d756d206e756d626572206f66206d696e7461626c6520746f6b656e604482015264206973203160d81b6064820152608401610738565b6005811115610a935760405162461bcd60e51b815260206004820152602560248201527f4d6178696d756d206e756d626572206f66206d696e7461626c6520746f6b656e604482015264206973203560d81b6064820152608401610738565b6000601254610e10610aa5919061275b565b90506000601254611c20610ab9919061275b565b90506001428310610b9c57610acd336110d5565b610b255760405162461bcd60e51b815260206004820152602360248201527f596f7520617265206e6f742077686974656c697374656420666f722070726573604482015262616c6560e81b6064820152608401610738565b600c54841115610b735760405162461bcd60e51b8152602060048201526019602482015278141c995cd85b19481d1bdad95b881a5cc81cdbdb19081bdd5d603a1b6044820152606401610738565b83600c6000828254610b8591906127a6565b909155506816c4abbebea01000009150610c979050565b8242118015610bab5750814211155b15610c8b57610bb9336110d5565b610c145760405162461bcd60e51b815260206004820152602660248201527f20596f7520617265206e6f7420612077686974656c697374656420666f722070604482015265726573616c6560d01b6064820152608401610738565b600c54841115610c625760405162461bcd60e51b8152602060048201526019602482015278141c995cd85b19481d1bdad95b881a5cc81cdbdb19081bdd5d603a1b6044820152606401610738565b83600c6000828254610c7491906127a6565b90915550681ba5abf9e7793800009150610c979050565b50682086ac3510526000005b6611c37937e08000348114610cee5760405162461bcd60e51b815260206004820152601d60248201527f596f75206d7573742070617920746865207265717569726564206665650000006044820152606401610738565b600e546040516001600160a01b039091169082156108fc029083906000818181858888f19350505050158015610d28573d6000803e3d6000fd5b506000610d358684612787565b90506000610d4233611280565b600b54909150610d52888361275b565b1115610da05760405162461bcd60e51b815260206004820152601c60248201527f6d6178204e4654207065722061646472657373206578636565646564000000006044820152606401610738565b600d546040516323b872dd60e01b8152336004820152306024820152604481018490526001600160a01b03909116906323b872dd90606401602060405180830381600087803b158015610df257600080fd5b505af1158015610e06573d6000803e3d6000fd5b505050506040513d601f19601f82011682018060405250810190610e2a9190612473565b5060015b878111611019576000610e416064611ab8565b90506000610e4f6064611b14565b90506000610e5d600d611ab8565b90506000610e6b6007611ab8565b90506000610e796007611b14565b604080516101008082018352601154825260016020830181815260ff8b81169585019586526000606086018181528c8316608088019081528c841660a089019081528c851660c08a019081528b861660e08b0190815260108054998a01815586528a517f1b6847dc741a1b0cd08d278845f9d819d87b734759afb55fe2de5cb82a9ae6726002909a02998a015596517f1b6847dc741a1b0cd08d278845f9d819d87b734759afb55fe2de5cb82a9ae67390980180549b519451935192519151975198871661ffff19909c169b909b179386169098029290921763ffff00001916620100009115159190910263ff0000001916176301000000918416919091021765ffff0000000019166401000000009583169590950265ff0000000000191694909417600160281b928216929092029190911766ff0000000000001916600160301b929091169190910217909255600854929350919050610fda3382611b33565b600954610ff1906001600160a01b0316600161151b565b610fff600880546001019055565b50505050505050808061101190612824565b915050610e2e565b5050505050505050565b600a546001600160a01b0316331461104d5760405162461bcd60e51b815260040161073890612726565b600d54600a5460405163a9059cbb60e01b81526001600160a01b0391821660048201526024810184905291169063a9059cbb90604401602060405180830381600087803b15801561109d57600080fd5b505af11580156110b1573d6000803e3d6000fd5b505050506040513d601f19601f820116820180604052508101906109a19190612473565b6000805b600f5481101561114457826001600160a01b0316600f828154811061110e57634e487b7160e01b600052603260045260246000fd5b6000918252602090912001546001600160a01b031614156111325750600192915050565b8061113c81612824565b9150506110d9565b50600092915050565b600a546001600160a01b031633146111775760405162461bcd60e51b815260040161073890612726565b61117f611c75565b565b61086e83838360405180602001604052806000815250611526565b601081815481106111ac57600080fd5b60009182526020909120600290910201805460019091015490915060ff808216916101008104821691620100008204811691630100000081048216916401000000008204811691600160281b8104821691600160301b9091041688565b6000818152600260205260408120546001600160a01b03168061062b5760405162461bcd60e51b815260206004820152602960248201527f4552433732313a206f776e657220717565727920666f72206e6f6e657869737460448201526832b73a103a37b5b2b760b91b6064820152608401610738565b60006001600160a01b0382166112eb5760405162461bcd60e51b815260206004820152602a60248201527f4552433732313a2062616c616e636520717565727920666f7220746865207a65604482015269726f206164647265737360b01b6064820152608401610738565b506001600160a01b031660009081526003602052604090205490565b600a546001600160a01b031633146113315760405162461bcd60e51b815260040161073890612726565b61117f611d08565b606060018054610640906127e9565b6060600061135583611280565b67ffffffffffffffff81111561137b57634e487b7160e01b600052604160045260246000fd5b6040519080825280602002602001820160405280156113ea57816020015b604080516101008101825260008082526020808301829052928201819052606082018190526080820181905260a0820181905260c0820181905260e082015282526000199092019101816113995790505b5090506000805b60105481101561151257846001600160a01b031661140e82611209565b6001600160a01b03161415611500576010818154811061143e57634e487b7160e01b600052603260045260246000fd5b60009182526020918290206040805161010080820183526002909402909201805483526001015460ff8082169584019590955292830484169082015262010000820483161515606082015263010000008204831660808201526401000000008204831660a0820152600160281b8204831660c0820152600160301b90910490911660e082015283518490849081106114e657634e487b7160e01b600052603260045260246000fd5b602002602001018190525081806114fc90612824565b9250505b8061150a81612824565b9150506113f1565b50909392505050565b6109a1338383611d83565b6115303383611825565b61154c5760405162461bcd60e51b8152600401610738906126d5565b61155884848484611e52565b50505050565b6000818152600260205260409020546060906001600160a01b03166115df5760405162461bcd60e51b815260206004820152603160248201527f45524337323155524953746f726167653a2055524920717565727920666f72206044820152703737b732bc34b9ba32b73a103a37b5b2b760791b6064820152608401610738565b600082815260066020526040812080546115f8906127e9565b80601f0160208091040260200160405190810160405280929190818152602001828054611624906127e9565b80156116715780601f1061164657610100808354040283529160200191611671565b820191906000526020600020905b81548152906001019060200180831161165457829003601f168201915b50505050509050600061168f60408051602081019091526000815290565b90508051600014156116a2575092915050565b8151156116d45780826040516020016116bc92919061250b565b60405160208183030381529060405292505050919050565b6116dd84611e85565b949350505050565b600a546001600160a01b0316331461170f5760405162461bcd60e51b815260040161073890612726565b600b55565b600a546001600160a01b0316331461173e5760405162461bcd60e51b815260040161073890612726565b61174a600f6000612193565b61086e600f83836121b4565b6060600f8054806020026020016040519081016040528092919081815260200182805480156106b957602002820191906000526020600020905b81546001600160a01b03168152600190910190602001808311611790575050505050905090565b600081815260046020526040902080546001600160a01b0319166001600160a01b03841690811790915581906117ec82611209565b6001600160a01b03167f8c5be1e5ebec7d5bd14f71427d1e84f3dd0314c0f7b2291e5b200ac8c7c3b92560405160405180910390a45050565b6000818152600260205260408120546001600160a01b031661189e5760405162461bcd60e51b815260206004820152602c60248201527f4552433732313a206f70657261746f7220717565727920666f72206e6f6e657860448201526b34b9ba32b73a103a37b5b2b760a11b6064820152608401610738565b60006118a983611209565b9050806001600160a01b0316846001600160a01b031614806118e45750836001600160a01b03166118d9846106c3565b6001600160a01b0316145b806116dd57506001600160a01b0380821660009081526005602090815260408083209388168352929052205460ff166116dd565b826001600160a01b031661192b82611209565b6001600160a01b0316146119935760405162461bcd60e51b815260206004820152602960248201527f4552433732313a207472616e73666572206f6620746f6b656e2074686174206960448201526839903737ba1037bbb760b91b6064820152608401610738565b6001600160a01b0382166119f55760405162461bcd60e51b8152602060048201526024808201527f4552433732313a207472616e7366657220746f20746865207a65726f206164646044820152637265737360e01b6064820152608401610738565b611a006000826117b7565b6001600160a01b0383166000908152600360205260408120805460019290611a299084906127a6565b90915550506001600160a01b0382166000908152600360205260408120805460019290611a5790849061275b565b909155505060008181526002602052604080822080546001600160a01b0319166001600160a01b0386811691821790925591518493918716917fddf252ad1be2c89b69c2b068fc378daa952ba7f163c4a11628f55a4df523b3ef91a4505050565b6000804233604051602001611ae992919091825260601b6bffffffffffffffffffffffff1916602082015260340190565b60408051601f1981840301815291905280516020909101209050611b0d838261283f565b9392505050565b6000804442604051602001611ae9929190918252602082015260400190565b6001600160a01b038216611b895760405162461bcd60e51b815260206004820181905260248201527f4552433732313a206d696e7420746f20746865207a65726f20616464726573736044820152606401610738565b6000818152600260205260409020546001600160a01b031615611bee5760405162461bcd60e51b815260206004820152601c60248201527f4552433732313a20746f6b656e20616c7265616479206d696e746564000000006044820152606401610738565b6001600160a01b0382166000908152600360205260408120805460019290611c1790849061275b565b909155505060008181526002602052604080822080546001600160a01b0319166001600160a01b03861690811790915590518392907fddf252ad1be2c89b69c2b068fc378daa952ba7f163c4a11628f55a4df523b3ef908290a45050565b60075460ff16611cbe5760405162461bcd60e51b815260206004820152601460248201527314185d5cd8589b194e881b9bdd081c185d5cd95960621b6044820152606401610738565b6007805460ff191690557f5db9ee0a495bf2e6ff9c91a7834c1ba4fdd244a5e8aa4e537bd38aeae4b073aa335b6040516001600160a01b03909116815260200160405180910390a1565b60075460ff1615611d4e5760405162461bcd60e51b815260206004820152601060248201526f14185d5cd8589b194e881c185d5cd95960821b6044820152606401610738565b6007805460ff191660011790557f62e78cea01bee320cd4e420270b5ea74000d11b0c9f74754ebdbfc544b05a258611ceb3390565b816001600160a01b0316836001600160a01b03161415611de55760405162461bcd60e51b815260206004820152601960248201527f4552433732313a20617070726f766520746f2063616c6c6572000000000000006044820152606401610738565b6001600160a01b03838116600081815260056020908152604080832094871680845294825291829020805460ff191686151590811790915591519182527f17307eab39ab6107e8899845ad3d59bd9653f200f220920489ca2b5937696c31910160405180910390a3505050565b611e5d848484611918565b611e6984848484611f6c565b6115585760405162461bcd60e51b815260040161073890612683565b6000818152600260205260409020546060906001600160a01b0316611f045760405162461bcd60e51b815260206004820152602f60248201527f4552433732314d657461646174613a2055524920717565727920666f72206e6f60448201526e3732bc34b9ba32b73a103a37b5b2b760891b6064820152608401610738565b6000611f1b60408051602081019091526000815290565b90506000815111611f3b5760405180602001604052806000815250611b0d565b80611f4584612079565b604051602001611f5692919061250b565b6040516020818303038152906040529392505050565b60006001600160a01b0384163b1561206e57604051630a85bd0160e11b81526001600160a01b0385169063150b7a0290611fb090339089908890889060040161253a565b602060405180830381600087803b158015611fca57600080fd5b505af1925050508015611ffa575060408051601f3d908101601f19168201909252611ff7918101906124ab565b60015b612054573d808015612028576040519150601f19603f3d011682016040523d82523d6000602084013e61202d565b606091505b50805161204c5760405162461bcd60e51b815260040161073890612683565b805181602001fd5b6001600160e01b031916630a85bd0160e11b1490506116dd565b506001949350505050565b60608161209d5750506040805180820190915260018152600360fc1b602082015290565b8160005b81156120c757806120b181612824565b91506120c09050600a83612773565b91506120a1565b60008167ffffffffffffffff8111156120f057634e487b7160e01b600052604160045260246000fd5b6040519080825280601f01601f19166020018201604052801561211a576020820181803683370190505b5090505b84156116dd5761212f6001836127a6565b915061213c600a8661283f565b61214790603061275b565b60f81b81838151811061216a57634e487b7160e01b600052603260045260246000fd5b60200101906001600160f81b031916908160001a90535061218c600a86612773565b945061211e565b50805460008255906000526020600020908101906121b19190612217565b50565b828054828255906000526020600020908101928215612207579160200282015b828111156122075781546001600160a01b0319166001600160a01b038435161782556020909201916001909101906121d4565b50612213929150612217565b5090565b5b808211156122135760008155600101612218565b80356001600160a01b038116811461224357600080fd5b919050565b600060208284031215612259578081fd5b611b0d8261222c565b60008060408385031215612274578081fd5b61227d8361222c565b915061228b6020840161222c565b90509250929050565b6000806000606084860312156122a8578081fd5b6122b18461222c565b92506122bf6020850161222c565b9150604084013590509250925092565b600080600080608085870312156122e4578081fd5b6122ed8561222c565b93506122fb6020860161222c565b925060408501359150606085013567ffffffffffffffff8082111561231e578283fd5b818701915087601f830112612331578283fd5b8135818111156123435761234361287f565b604051601f8201601f19908116603f0116810190838211818310171561236b5761236b61287f565b816040528281528a6020848701011115612383578586fd5b82602086016020830137918201602001949094529598949750929550505050565b600080604083850312156123b6578182fd5b6123bf8361222c565b915060208301356123cf81612895565b809150509250929050565b600080604083850312156123ec578182fd5b6123f58361222c565b946020939093013593505050565b60008060208385031215612415578182fd5b823567ffffffffffffffff8082111561242c578384fd5b818501915085601f83011261243f578384fd5b81358181111561244d578485fd5b8660208260051b8501011115612461578485fd5b60209290920196919550909350505050565b600060208284031215612484578081fd5b8151611b0d81612895565b6000602082840312156124a0578081fd5b8135611b0d816128a3565b6000602082840312156124bc578081fd5b8151611b0d816128a3565b6000602082840312156124d8578081fd5b5035919050565b600081518084526124f78160208601602086016127bd565b601f01601f19169290920160200192915050565b6000835161251d8184602088016127bd565b8351908301906125318183602088016127bd565b01949350505050565b6001600160a01b038581168252841660208201526040810183905260806060820181905260009061256d908301846124df565b9695505050505050565b6020808252825182820181905260009190848201906040850190845b818110156125b85783516001600160a01b031683529284019291840191600101612593565b50909695505050505050565b602080825282518282018190526000919060409081850190868401855b82811015612663578151805185528681015160ff908116888701528682015116868601526060808201511515908601526080808201516126258288018260ff169052565b505060a08181015160ff9081169187019190915260c08083015182169087015260e091820151169085015261010090930192908501906001016125e1565b5091979650505050505050565b602081526000611b0d60208301846124df565b60208082526032908201527f4552433732313a207472616e7366657220746f206e6f6e20455243373231526560408201527131b2b4bb32b91034b6b83632b6b2b73a32b960711b606082015260800190565b60208082526031908201527f4552433732313a207472616e736665722063616c6c6572206973206e6f74206f6040820152701ddb995c881b9bdc88185c1c1c9bdd9959607a1b606082015260800190565b6020808252818101527f596f7527726520756e617574686f72697a65642e204f6e6c79206f776e657221604082015260600190565b6000821982111561276e5761276e612853565b500190565b60008261278257612782612869565b500490565b60008160001904831182151516156127a1576127a1612853565b500290565b6000828210156127b8576127b8612853565b500390565b60005b838110156127d85781810151838201526020016127c0565b838111156115585750506000910152565b600181811c908216806127fd57607f821691505b6020821081141561281e57634e487b7160e01b600052602260045260246000fd5b50919050565b600060001982141561283857612838612853565b5060010190565b60008261284e5761284e612869565b500690565b634e487b7160e01b600052601160045260246000fd5b634e487b7160e01b600052601260045260246000fd5b634e487b7160e01b600052604160045260246000fd5b80151581146121b157600080fd5b6001600160e01b0319811681146121b157600080fdfea264697066735822122052619f0acc7b96a72a31bc5e7b8d4d80d7bb42d35eeb542dbc7930289d656a3664736f6c63430008040033",
  "linkReferences": {},
  "deployedLinkReferences": {}
}