{
  "_format": "hh-sol-artifact-1",
  "contractName": "Ctrain",
  "sourceName": "contracts/Ctrain.sol",
  "abi": [
    {
      "inputs": [
        {
          "internalType": "address",
          "name": "_token",
          "type": "address"
        },
        {
          "internalType": "address",
          "name": "_reserve",
          "type": "address"
        }
      ],
      "stateMutability": "nonpayable",
      "type": "constructor"
    },
    {
      "anonymous": false,
      "inputs": [
        {
          "indexed": true,
          "internalType": "address",
          "name": "owner",
          "type": "address"
        },
        {
          "indexed": true,
          "internalType": "address",
          "name": "approved",
          "type": "address"
        },
        {
          "indexed": true,
          "internalType": "uint256",
          "name": "tokenId",
          "type": "uint256"
        }
      ],
      "name": "Approval",
      "type": "event"
    },
    {
      "anonymous": false,
      "inputs": [
        {
          "indexed": true,
          "internalType": "address",
          "name": "owner",
          "type": "address"
        },
        {
          "indexed": true,
          "internalType": "address",
          "name": "operator",
          "type": "address"
        },
        {
          "indexed": false,
          "internalType": "bool",
          "name": "approved",
          "type": "bool"
        }
      ],
      "name": "ApprovalForAll",
      "type": "event"
    },
    {
      "anonymous": false,
      "inputs": [
        {
          "indexed": true,
          "internalType": "address",
          "name": "previousOwner",
          "type": "address"
        },
        {
          "indexed": true,
          "internalType": "address",
          "name": "newOwner",
          "type": "address"
        }
      ],
      "name": "OwnershipTransferred",
      "type": "event"
    },
    {
      "anonymous": false,
      "inputs": [
        {
          "indexed": false,
          "internalType": "address",
          "name": "account",
          "type": "address"
        }
      ],
      "name": "Paused",
      "type": "event"
    },
    {
      "anonymous": false,
      "inputs": [
        {
          "indexed": false,
          "internalType": "address",
          "name": "_sender",
          "type": "address"
        },
        {
          "indexed": false,
          "internalType": "address",
          "name": "_receiver",
          "type": "address"
        },
        {
          "indexed": false,
          "internalType": "uint256",
          "name": "_id",
          "type": "uint256"
        }
      ],
      "name": "RestrictedTransfer",
      "type": "event"
    },
    {
      "anonymous": false,
      "inputs": [
        {
          "indexed": true,
          "internalType": "address",
          "name": "from",
          "type": "address"
        },
        {
          "indexed": true,
          "internalType": "address",
          "name": "to",
          "type": "address"
        },
        {
          "indexed": true,
          "internalType": "uint256",
          "name": "tokenId",
          "type": "uint256"
        }
      ],
      "name": "Transfer",
      "type": "event"
    },
    {
      "anonymous": false,
      "inputs": [
        {
          "indexed": false,
          "internalType": "address",
          "name": "account",
          "type": "address"
        }
      ],
      "name": "Unpaused",
      "type": "event"
    },
    {
      "inputs": [
        {
          "internalType": "uint256",
          "name": "_amount",
          "type": "uint256"
        }
      ],
      "name": "TokenWithdraw",
      "outputs": [],
      "stateMutability": "nonpayable",
      "type": "function"
    },
    {
      "inputs": [],
      "name": "allWhitelistedAddresses",
      "outputs": [
        {
          "internalType": "address[]",
          "name": "",
          "type": "address[]"
        }
      ],
      "stateMutability": "view",
      "type": "function"
    },
    {
      "inputs": [
        {
          "internalType": "address",
          "name": "to",
          "type": "address"
        },
        {
          "internalType": "uint256",
          "name": "tokenId",
          "type": "uint256"
        }
      ],
      "name": "approve",
      "outputs": [],
      "stateMutability": "nonpayable",
      "type": "function"
    },
    {
      "inputs": [
        {
          "internalType": "address",
          "name": "owner",
          "type": "address"
        }
      ],
      "name": "balanceOf",
      "outputs": [
        {
          "internalType": "uint256",
          "name": "",
          "type": "uint256"
        }
      ],
      "stateMutability": "view",
      "type": "function"
    },
    {
      "inputs": [
        {
          "internalType": "uint256",
          "name": "_mintAmount",
          "type": "uint256"
        }
      ],
      "name": "create",
      "outputs": [],
      "stateMutability": "payable",
      "type": "function"
    },
    {
      "inputs": [
        {
          "internalType": "uint256",
          "name": "tokenId",
          "type": "uint256"
        }
      ],
      "name": "getApproved",
      "outputs": [
        {
          "internalType": "address",
          "name": "",
          "type": "address"
        }
      ],
      "stateMutability": "view",
      "type": "function"
    },
    {
      "inputs": [
        {
          "internalType": "address",
          "name": "_owner",
          "type": "address"
        }
      ],
      "name": "getOwnerTrains",
      "outputs": [
        {
          "components": [
            {
              "internalType": "uint256",
              "name": "id",
              "type": "uint256"
            },
            {
              "internalType": "uint8",
              "name": "level",
              "type": "uint8"
            },
            {
              "internalType": "uint8",
              "name": "rarity",
              "type": "uint8"
            },
            {
              "internalType": "bool",
              "name": "fuel",
              "type": "bool"
            },
            {
              "internalType": "uint8",
              "name": "acceleration",
              "type": "uint8"
            },
            {
              "internalType": "uint8",
              "name": "speed",
              "type": "uint8"
            },
            {
              "internalType": "uint8",
              "name": "brakes",
              "type": "uint8"
            },
            {
              "internalType": "uint8",
              "name": "loads",
              "type": "uint8"
            }
          ],
          "internalType": "struct Ctrain.Train[]",
          "name": "",
          "type": "tuple[]"
        }
      ],
      "stateMutability": "view",
      "type": "function"
    },
    {
      "inputs": [],
      "name": "getTrains",
      "outputs": [
        {
          "components": [
            {
              "internalType": "uint256",
              "name": "id",
              "type": "uint256"
            },
            {
              "internalType": "uint8",
              "name": "level",
              "type": "uint8"
            },
            {
              "internalType": "uint8",
              "name": "rarity",
              "type": "uint8"
            },
            {
              "internalType": "bool",
              "name": "fuel",
              "type": "bool"
            },
            {
              "internalType": "uint8",
              "name": "acceleration",
              "type": "uint8"
            },
            {
              "internalType": "uint8",
              "name": "speed",
              "type": "uint8"
            },
            {
              "internalType": "uint8",
              "name": "brakes",
              "type": "uint8"
            },
            {
              "internalType": "uint8",
              "name": "loads",
              "type": "uint8"
            }
          ],
          "internalType": "struct Ctrain.Train[]",
          "name": "",
          "type": "tuple[]"
        }
      ],
      "stateMutability": "view",
      "type": "function"
    },
    {
      "inputs": [
        {
          "internalType": "address",
          "name": "owner",
          "type": "address"
        },
        {
          "internalType": "address",
          "name": "operator",
          "type": "address"
        }
      ],
      "name": "isApprovedForAll",
      "outputs": [
        {
          "internalType": "bool",
          "name": "",
          "type": "bool"
        }
      ],
      "stateMutability": "view",
      "type": "function"
    },
    {
      "inputs": [
        {
          "internalType": "address",
          "name": "_user",
          "type": "address"
        }
      ],
      "name": "isWhitelisted",
      "outputs": [
        {
          "internalType": "bool",
          "name": "",
          "type": "bool"
        }
      ],
      "stateMutability": "view",
      "type": "function"
    },
    {
      "inputs": [],
      "name": "name",
      "outputs": [
        {
          "internalType": "string",
          "name": "",
          "type": "string"
        }
      ],
      "stateMutability": "view",
      "type": "function"
    },
    {
      "inputs": [],
      "name": "nftPerAddressLimit",
      "outputs": [
        {
          "internalType": "uint256",
          "name": "",
          "type": "uint256"
        }
      ],
      "stateMutability": "view",
      "type": "function"
    },
    {
      "inputs": [],
      "name": "owner",
      "outputs": [
        {
          "internalType": "address",
          "name": "",
          "type": "address"
        }
      ],
      "stateMutability": "view",
      "type": "function"
    },
    {
      "inputs": [
        {
          "internalType": "uint256",
          "name": "tokenId",
          "type": "uint256"
        }
      ],
      "name": "ownerOf",
      "outputs": [
        {
          "internalType": "address",
          "name": "",
          "type": "address"
        }
      ],
      "stateMutability": "view",
      "type": "function"
    },
    {
      "inputs": [],
      "name": "pause",
      "outputs": [],
      "stateMutability": "nonpayable",
      "type": "function"
    },
    {
      "inputs": [],
      "name": "paused",
      "outputs": [
        {
          "internalType": "bool",
          "name": "",
          "type": "bool"
        }
      ],
      "stateMutability": "view",
      "type": "function"
    },
    {
      "inputs": [],
      "name": "renounceOwnership",
      "outputs": [],
      "stateMutability": "nonpayable",
      "type": "function"
    },
    {
      "inputs": [],
      "name": "reserveAddress",
      "outputs": [
        {
          "internalType": "address",
          "name": "",
          "type": "address"
        }
      ],
      "stateMutability": "view",
      "type": "function"
    },
    {
      "inputs": [
        {
          "internalType": "address",
          "name": "_from",
          "type": "address"
        },
        {
          "internalType": "address",
          "name": "_to",
          "type": "address"
        },
        {
          "internalType": "uint256",
          "name": "_tokenId",
          "type": "uint256"
        }
      ],
      "name": "safeTransferFrom",
      "outputs": [],
      "stateMutability": "nonpayable",
      "type": "function"
    },
    {
      "inputs": [
        {
          "internalType": "address",
          "name": "from",
          "type": "address"
        },
        {
          "internalType": "address",
          "name": "to",
          "type": "address"
        },
        {
          "internalType": "uint256",
          "name": "tokenId",
          "type": "uint256"
        },
        {
          "internalType": "bytes",
          "name": "_data",
          "type": "bytes"
        }
      ],
      "name": "safeTransferFrom",
      "outputs": [],
      "stateMutability": "nonpayable",
      "type": "function"
    },
    {
      "inputs": [
        {
          "internalType": "address",
          "name": "operator",
          "type": "address"
        },
        {
          "internalType": "bool",
          "name": "approved",
          "type": "bool"
        }
      ],
      "name": "setApprovalForAll",
      "outputs": [],
      "stateMutability": "nonpayable",
      "type": "function"
    },
    {
      "inputs": [
        {
          "internalType": "uint256",
          "name": "_limit",
          "type": "uint256"
        }
      ],
      "name": "setNftPerAddressLimit",
      "outputs": [],
      "stateMutability": "nonpayable",
      "type": "function"
    },
    {
      "inputs": [
        {
          "internalType": "bytes4",
          "name": "interfaceId",
          "type": "bytes4"
        }
      ],
      "name": "supportsInterface",
      "outputs": [
        {
          "internalType": "bool",
          "name": "",
          "type": "bool"
        }
      ],
      "stateMutability": "view",
      "type": "function"
    },
    {
      "inputs": [],
      "name": "symbol",
      "outputs": [
        {
          "internalType": "string",
          "name": "",
          "type": "string"
        }
      ],
      "stateMutability": "view",
      "type": "function"
    },
    {
      "inputs": [],
      "name": "tokenAddress",
      "outputs": [
        {
          "internalType": "contract IERC20",
          "name": "",
          "type": "address"
        }
      ],
      "stateMutability": "view",
      "type": "function"
    },
    {
      "inputs": [
        {
          "internalType": "uint256",
          "name": "tokenId",
          "type": "uint256"
        }
      ],
      "name": "tokenURI",
      "outputs": [
        {
          "internalType": "string",
          "name": "",
          "type": "string"
        }
      ],
      "stateMutability": "view",
      "type": "function"
    },
    {
      "inputs": [],
      "name": "totalPresaleSupply",
      "outputs": [
        {
          "internalType": "uint256",
          "name": "",
          "type": "uint256"
        }
      ],
      "stateMutability": "view",
      "type": "function"
    },
    {
      "inputs": [
        {
          "internalType": "uint256",
          "name": "",
          "type": "uint256"
        }
      ],
      "name": "trains",
      "outputs": [
        {
          "internalType": "uint256",
          "name": "id",
          "type": "uint256"
        },
        {
          "internalType": "uint8",
          "name": "level",
          "type": "uint8"
        },
        {
          "internalType": "uint8",
          "name": "rarity",
          "type": "uint8"
        },
        {
          "internalType": "bool",
          "name": "fuel",
          "type": "bool"
        },
        {
          "internalType": "uint8",
          "name": "acceleration",
          "type": "uint8"
        },
        {
          "internalType": "uint8",
          "name": "speed",
          "type": "uint8"
        },
        {
          "internalType": "uint8",
          "name": "brakes",
          "type": "uint8"
        },
        {
          "internalType": "uint8",
          "name": "loads",
          "type": "uint8"
        }
      ],
      "stateMutability": "view",
      "type": "function"
    },
    {
      "inputs": [
        {
          "internalType": "address",
          "name": "_from",
          "type": "address"
        },
        {
          "internalType": "address",
          "name": "_to",
          "type": "address"
        },
        {
          "internalType": "uint256",
          "name": "_tokenId",
          "type": "uint256"
        }
      ],
      "name": "transferFrom",
      "outputs": [],
      "stateMutability": "nonpayable",
      "type": "function"
    },
    {
      "inputs": [
        {
          "internalType": "address",
          "name": "newOwner",
          "type": "address"
        }
      ],
      "name": "transferOwnership",
      "outputs": [],
      "stateMutability": "nonpayable",
      "type": "function"
    },
    {
      "inputs": [],
      "name": "unpause",
      "outputs": [],
      "stateMutability": "nonpayable",
      "type": "function"
    },
    {
      "inputs": [
        {
          "internalType": "address[]",
          "name": "_users",
          "type": "address[]"
        }
      ],
      "name": "whitelistUsers",
      "outputs": [],
      "stateMutability": "nonpayable",
      "type": "function"
    },
    {
      "inputs": [],
      "name": "withdrawBNB",
      "outputs": [],
      "stateMutability": "payable",
      "type": "function"
    }
  ],
  "bytecode": "0x6080604052600a600955610bb8600a553480156200001c57600080fd5b5060405162002ea938038062002ea98339810160408190526200003f9162000209565b604080518082018252600681526521ba3930b4b760d11b60208083019182528351808501909452600384526221aa2960e91b908401528151919291620000889160009162000146565b5080516200009e90600190602084019062000146565b50506007805460ff1916905550620000b633620000ec565b600b80546001600160a01b039384166001600160a01b031991821617909155600c8054929093169116179055426010556200027d565b600780546001600160a01b03838116610100818102610100600160a81b031985161790945560405193909204169182907f8be0079c531659141344cd1fd0a4f28419497f9722a3daafe3b4186f6b6457e090600090a35050565b828054620001549062000240565b90600052602060002090601f016020900481019282620001785760008555620001c3565b82601f106200019357805160ff1916838001178555620001c3565b82800160010185558215620001c3579182015b82811115620001c3578251825591602001919060010190620001a6565b50620001d1929150620001d5565b5090565b5b80821115620001d15760008155600101620001d6565b80516001600160a01b03811681146200020457600080fd5b919050565b600080604083850312156200021c578182fd5b6200022783620001ec565b91506200023760208401620001ec565b90509250929050565b600181811c908216806200025557607f821691505b602082108114156200027757634e487b7160e01b600052602260045260246000fd5b50919050565b612c1c806200028d6000396000f3fe6080604052600436106101ee5760003560e01c8063715018a61161010d578063b88d4fde116100a0578063e985e9c51161006f578063e985e9c51461058d578063edec5f27146105d6578063f2fde38b146105f6578063f779acbb14610616578063f79ed94b1461063857600080fd5b8063b88d4fde14610517578063ba7d2c7614610537578063c87b56dd1461054d578063d0eb26b01461056d57600080fd5b806395d89b41116100dc57806395d89b41146104a25780639cf278e8146104b75780639d76ea58146104d7578063a22cb465146104f757600080fd5b8063715018a614610442578063780900dc146104575780638456cb591461046a5780638da5cb5b1461047f57600080fd5b80633af32abf11610185578063598c68b111610154578063598c68b1146103825780635c975abb146103ea5780636352211e1461040257806370a082311461042257600080fd5b80633af32abf1461030e5780633f4ba83a1461032e57806342842e0e146103435780634f153fe81461036357600080fd5b806319ae037b116101c157806319ae037b146102a45780631d111d13146102c657806323b872dd146102ce5780633267ae1d146102ee57600080fd5b806301ffc9a7146101f357806306fdde0314610228578063081812fc1461024a578063095ea7b314610282575b600080fd5b3480156101ff57600080fd5b5061021361020e3660046127cb565b610658565b60405190151581526020015b60405180910390f35b34801561023457600080fd5b5061023d6106aa565b60405161021f91906129ac565b34801561025657600080fd5b5061026a610265366004612803565b61073c565b6040516001600160a01b03909116815260200161021f565b34801561028e57600080fd5b506102a261029d366004612716565b6107d6565b005b3480156102b057600080fd5b506102b96108ec565b60405161021f9190612900565b6102a26109b5565b3480156102da57600080fd5b506102a26102e93660046125d0565b610a24565b3480156102fa57600080fd5b506102a2610309366004612803565b610ae8565b34801561031a57600080fd5b50610213610329366004612584565b610ba0565b34801561033a57600080fd5b506102a2610c18565b34801561034f57600080fd5b506102a261035e3660046125d0565b610c52565b34801561036f57600080fd5b50600a545b60405190815260200161021f565b34801561038e57600080fd5b506103a261039d366004612803565b610cd6565b6040805198895260ff97881660208a01529587169588019590955292151560608701529084166080860152831660a0850152821660c08401521660e08201526101000161021f565b3480156103f657600080fd5b5060075460ff16610213565b34801561040e57600080fd5b5061026a61041d366004612803565b610d43565b34801561042e57600080fd5b5061037461043d366004612584565b610dba565b34801561044e57600080fd5b506102a2610e41565b6102a2610465366004612803565b610e7b565b34801561047657600080fd5b506102a26114ef565b34801561048b57600080fd5b5060075461010090046001600160a01b031661026a565b3480156104ae57600080fd5b5061023d611527565b3480156104c357600080fd5b506102b96104d2366004612584565b611536565b3480156104e357600080fd5b50600b5461026a906001600160a01b031681565b34801561050357600080fd5b506102a26105123660046126e0565b611709565b34801561052357600080fd5b506102a261053236600461260b565b611714565b34801561054357600080fd5b5061037460095481565b34801561055957600080fd5b5061023d610568366004612803565b611796565b34801561057957600080fd5b506102a2610588366004612803565b61191d565b34801561059957600080fd5b506102136105a836600461259e565b6001600160a01b03918216600090815260056020908152604080832093909416825291909152205460ff1690565b3480156105e257600080fd5b506102a26105f136600461273f565b611952565b34801561060257600080fd5b506102a2610611366004612584565b61199a565b34801561062257600080fd5b5061062b611a3b565b60405161021f91906128b3565b34801561064457600080fd5b50600c5461026a906001600160a01b031681565b60006001600160e01b031982166380ac58cd60e01b148061068957506001600160e01b03198216635b5e139f60e01b145b806106a457506301ffc9a760e01b6001600160e01b03198316145b92915050565b6060600080546106b990612b16565b80601f01602080910402602001604051908101604052809291908181526020018280546106e590612b16565b80156107325780601f1061070757610100808354040283529160200191610732565b820191906000526020600020905b81548152906001019060200180831161071557829003601f168201915b5050505050905090565b6000818152600260205260408120546001600160a01b03166107ba5760405162461bcd60e51b815260206004820152602c60248201527f4552433732313a20617070726f76656420717565727920666f72206e6f6e657860448201526b34b9ba32b73a103a37b5b2b760a11b60648201526084015b60405180910390fd5b506000908152600460205260409020546001600160a01b031690565b60006107e182610d43565b9050806001600160a01b0316836001600160a01b0316141561084f5760405162461bcd60e51b815260206004820152602160248201527f4552433732313a20617070726f76616c20746f2063757272656e74206f776e656044820152603960f91b60648201526084016107b1565b336001600160a01b038216148061086b575061086b81336105a8565b6108dd5760405162461bcd60e51b815260206004820152603860248201527f4552433732313a20617070726f76652063616c6c6572206973206e6f74206f7760448201527f6e6572206e6f7220617070726f76656420666f7220616c6c000000000000000060648201526084016107b1565b6108e78383611a9c565b505050565b6060600e805480602002602001604051908101604052809291908181526020016000905b828210156109ac576000848152602090819020604080516101008082018352600287029093018054825260019081015460ff8082168488015294810485169383019390935262010000830484161515606083015263010000008304841660808301526401000000008304841660a0830152600160281b8304841660c0830152600160301b90920490921660e08301529083529092019101610910565b50505050905090565b6007546001600160a01b036101009091041633146109e55760405162461bcd60e51b81526004016107b190612a53565b600c546040516001600160a01b039091169081904780156108fc02916000818181858888f19350505050158015610a20573d6000803e3d6000fd5b5050565b6007546001600160a01b03610100909104163314610a545760405162461bcd60e51b81526004016107b190612a53565b610a5d81610d43565b6001600160a01b0316336001600160a01b031614610a8d5760405162461bcd60e51b81526004016107b190612a11565b610a98838383611b0a565b604080516001600160a01b038086168252841660208201529081018290527f57659db6b7b15cc906bcc98e53922136e0e76b4f7c70efcf9836c71d6223d09f9060600160405180910390a1505050565b6007546001600160a01b03610100909104163314610b185760405162461bcd60e51b81526004016107b190612a53565b600b5460085460405163a9059cbb60e01b81526001600160a01b0391821660048201526024810184905291169063a9059cbb90604401602060405180830381600087803b158015610b6857600080fd5b505af1158015610b7c573d6000803e3d6000fd5b505050506040513d601f19601f82011682018060405250810190610a2091906127af565b6000805b600d54811015610c0f57826001600160a01b0316600d8281548110610bd957634e487b7160e01b600052603260045260246000fd5b6000918252602090912001546001600160a01b03161415610bfd5750600192915050565b80610c0781612b51565b915050610ba4565b50600092915050565b6007546001600160a01b03610100909104163314610c485760405162461bcd60e51b81526004016107b190612a53565b610c50611caa565b565b6007546001600160a01b03610100909104163314610c825760405162461bcd60e51b81526004016107b190612a53565b610c8b81610d43565b6001600160a01b0316336001600160a01b031614610cbb5760405162461bcd60e51b81526004016107b190612a11565b610a9883838360405180602001604052806000815250611714565b600e8181548110610ce657600080fd5b60009182526020909120600290910201805460019091015490915060ff808216916101008104821691620100008204811691630100000081048216916401000000008204811691600160281b8104821691600160301b9091041688565b6000818152600260205260408120546001600160a01b0316806106a45760405162461bcd60e51b815260206004820152602960248201527f4552433732313a206f776e657220717565727920666f72206e6f6e657869737460448201526832b73a103a37b5b2b760b91b60648201526084016107b1565b60006001600160a01b038216610e255760405162461bcd60e51b815260206004820152602a60248201527f4552433732313a2062616c616e636520717565727920666f7220746865207a65604482015269726f206164647265737360b01b60648201526084016107b1565b506001600160a01b031660009081526003602052604090205490565b6007546001600160a01b03610100909104163314610e715760405162461bcd60e51b81526004016107b190612a53565b610c506000611d3d565b60075460ff1615610ec15760405162461bcd60e51b815260206004820152601060248201526f14185d5cd8589b194e881c185d5cd95960821b60448201526064016107b1565b60008111610f1f5760405162461bcd60e51b815260206004820152602560248201527f4d696e696d756d206e756d626572206f66206d696e7461626c6520746f6b656e604482015264206973203160d81b60648201526084016107b1565b6005811115610f7e5760405162461bcd60e51b815260206004820152602560248201527f4d6178696d756d206e756d626572206f66206d696e7461626c6520746f6b656e604482015264206973203560d81b60648201526084016107b1565b6000601054610e10610f909190612a88565b90506000601054611c20610fa49190612a88565b9050600082421161108757610fb833610ba0565b6110105760405162461bcd60e51b815260206004820152602360248201527f596f7520617265206e6f742077686974656c697374656420666f722070726573604482015262616c6560e81b60648201526084016107b1565b600a5484111561105e5760405162461bcd60e51b8152602060048201526019602482015278141c995cd85b19481d1bdad95b881a5cc81cdbdb19081bdd5d603a1b60448201526064016107b1565b83600a60008282546110709190612ad3565b909155506816c4abbebea010000091506111819050565b82421180156110965750814211155b15611175576110a433610ba0565b6110fe5760405162461bcd60e51b815260206004820152602560248201527f596f7520617265206e6f7420612077686974656c697374656420666f722070726044820152646573616c6560d81b60648201526084016107b1565b600a5484111561114c5760405162461bcd60e51b8152602060048201526019602482015278141c995cd85b19481d1bdad95b881a5cc81cdbdb19081bdd5d603a1b60448201526064016107b1565b83600a600082825461115e9190612ad3565b90915550681ba5abf9e77938000091506111819050565b50682086ac3510526000005b600061118d8583612ab4565b9050600061119a33610dba565b6009549091506111aa8783612a88565b11156111f85760405162461bcd60e51b815260206004820152601c60248201527f6d6178204e46542070657220616464726573732065786365656465640000000060448201526064016107b1565b600b546040516323b872dd60e01b8152336004820152306024820152604481018490526001600160a01b03909116906323b872dd90606401602060405180830381600087803b15801561124a57600080fd5b505af115801561125e573d6000803e3d6000fd5b505050506040513d601f19601f8201168201806040525081019061128291906127af565b506000611296876611c37937e08000612ab4565b90508034146113055760405162461bcd60e51b815260206004820152603560248201527f506c656173652073656e6420616c6f6e6720243220666f722065616368204e466044820152745420746f20636f6d706c657465206d696e74696e6760581b60648201526084016107b1565b60015b8781116114e557600061131b6064611d97565b905060006113296064611df3565b90506000611337600d611d97565b905060006113456007611d97565b905060006113536007611df3565b604080516101008082018352600f8054835260016020840181815260ff8c81169686019687526000606087018181528d8316608089019081528d841660a08a019081528d851660c08b019081528c861660e08c01908152600e8054998a0181559095528a517fbb7b4a454dc3493923482f07822329ed19e8244eff582cc204f8554c3620c3fd60029099029889015595517fbb7b4a454dc3493923482f07822329ed19e8244eff582cc204f8554c3620c3fe90970180549b519351925191519651945197861661ffff19909c169b909b179285169098029190911763ffff00001916620100009115159190910263ff0000001916176301000000968316969096029590951765ffff0000000019166401000000009282169290920265ff0000000000191691909117600160281b948216949094029390931766ff0000000000001916600160301b9190931602919091179092559054919250906114b63382611e12565b600f80549060006114c683612b51565b91905055505050505050505080806114dd90612b51565b915050611308565b5050505050505050565b6007546001600160a01b0361010090910416331461151f5760405162461bcd60e51b81526004016107b190612a53565b610c50611f54565b6060600180546106b990612b16565b6060600061154383610dba565b67ffffffffffffffff81111561156957634e487b7160e01b600052604160045260246000fd5b6040519080825280602002602001820160405280156115d857816020015b604080516101008101825260008082526020808301829052928201819052606082018190526080820181905260a0820181905260c0820181905260e082015282526000199092019101816115875790505b5090506000805b600e5481101561170057846001600160a01b03166115fc82610d43565b6001600160a01b031614156116ee57600e818154811061162c57634e487b7160e01b600052603260045260246000fd5b60009182526020918290206040805161010080820183526002909402909201805483526001015460ff8082169584019590955292830484169082015262010000820483161515606082015263010000008204831660808201526401000000008204831660a0820152600160281b8204831660c0820152600160301b90910490911660e082015283518490849081106116d457634e487b7160e01b600052603260045260246000fd5b602002602001018190525081806116ea90612b51565b9250505b806116f881612b51565b9150506115df565b50909392505050565b610a20338383611fcf565b61171e338361209e565b6117845760405162461bcd60e51b815260206004820152603160248201527f4552433732313a207472616e736665722063616c6c6572206973206e6f74206f6044820152701ddb995c881b9bdc88185c1c1c9bdd9959607a1b60648201526084016107b1565b61179084848484612191565b50505050565b6000818152600260205260409020546060906001600160a01b03166118175760405162461bcd60e51b815260206004820152603160248201527f45524337323155524953746f726167653a2055524920717565727920666f72206044820152703737b732bc34b9ba32b73a103a37b5b2b760791b60648201526084016107b1565b6000828152600660205260408120805461183090612b16565b80601f016020809104026020016040519081016040528092919081815260200182805461185c90612b16565b80156118a95780601f1061187e576101008083540402835291602001916118a9565b820191906000526020600020905b81548152906001019060200180831161188c57829003601f168201915b5050505050905060006118c760408051602081019091526000815290565b90508051600014156118da575092915050565b81511561190c5780826040516020016118f4929190612847565b60405160208183030381529060405292505050919050565b611915846121c4565b949350505050565b6007546001600160a01b0361010090910416331461194d5760405162461bcd60e51b81526004016107b190612a53565b600955565b6007546001600160a01b036101009091041633146119825760405162461bcd60e51b81526004016107b190612a53565b61198e600d60006124d2565b6108e7600d83836124f0565b6007546001600160a01b036101009091041633146119ca5760405162461bcd60e51b81526004016107b190612a53565b6001600160a01b038116611a2f5760405162461bcd60e51b815260206004820152602660248201527f4f776e61626c653a206e6577206f776e657220697320746865207a65726f206160448201526564647265737360d01b60648201526084016107b1565b611a3881611d3d565b50565b6060600d80548060200260200160405190810160405280929190818152602001828054801561073257602002820191906000526020600020905b81546001600160a01b03168152600190910190602001808311611a75575050505050905090565b600081815260046020526040902080546001600160a01b0319166001600160a01b0384169081179091558190611ad182610d43565b6001600160a01b03167f8c5be1e5ebec7d5bd14f71427d1e84f3dd0314c0f7b2291e5b200ac8c7c3b92560405160405180910390a45050565b826001600160a01b0316611b1d82610d43565b6001600160a01b031614611b855760405162461bcd60e51b815260206004820152602960248201527f4552433732313a207472616e73666572206f6620746f6b656e2074686174206960448201526839903737ba1037bbb760b91b60648201526084016107b1565b6001600160a01b038216611be75760405162461bcd60e51b8152602060048201526024808201527f4552433732313a207472616e7366657220746f20746865207a65726f206164646044820152637265737360e01b60648201526084016107b1565b611bf2600082611a9c565b6001600160a01b0383166000908152600360205260408120805460019290611c1b908490612ad3565b90915550506001600160a01b0382166000908152600360205260408120805460019290611c49908490612a88565b909155505060008181526002602052604080822080546001600160a01b0319166001600160a01b0386811691821790925591518493918716917fddf252ad1be2c89b69c2b068fc378daa952ba7f163c4a11628f55a4df523b3ef91a4505050565b60075460ff16611cf35760405162461bcd60e51b815260206004820152601460248201527314185d5cd8589b194e881b9bdd081c185d5cd95960621b60448201526064016107b1565b6007805460ff191690557f5db9ee0a495bf2e6ff9c91a7834c1ba4fdd244a5e8aa4e537bd38aeae4b073aa335b6040516001600160a01b03909116815260200160405180910390a1565b600780546001600160a01b03838116610100818102610100600160a81b031985161790945560405193909204169182907f8be0079c531659141344cd1fd0a4f28419497f9722a3daafe3b4186f6b6457e090600090a35050565b6000804233604051602001611dc892919091825260601b6bffffffffffffffffffffffff1916602082015260340190565b60408051601f1981840301815291905280516020909101209050611dec8382612b6c565b9392505050565b6000804442604051602001611dc8929190918252602082015260400190565b6001600160a01b038216611e685760405162461bcd60e51b815260206004820181905260248201527f4552433732313a206d696e7420746f20746865207a65726f206164647265737360448201526064016107b1565b6000818152600260205260409020546001600160a01b031615611ecd5760405162461bcd60e51b815260206004820152601c60248201527f4552433732313a20746f6b656e20616c7265616479206d696e7465640000000060448201526064016107b1565b6001600160a01b0382166000908152600360205260408120805460019290611ef6908490612a88565b909155505060008181526002602052604080822080546001600160a01b0319166001600160a01b03861690811790915590518392907fddf252ad1be2c89b69c2b068fc378daa952ba7f163c4a11628f55a4df523b3ef908290a45050565b60075460ff1615611f9a5760405162461bcd60e51b815260206004820152601060248201526f14185d5cd8589b194e881c185d5cd95960821b60448201526064016107b1565b6007805460ff191660011790557f62e78cea01bee320cd4e420270b5ea74000d11b0c9f74754ebdbfc544b05a258611d203390565b816001600160a01b0316836001600160a01b031614156120315760405162461bcd60e51b815260206004820152601960248201527f4552433732313a20617070726f766520746f2063616c6c65720000000000000060448201526064016107b1565b6001600160a01b03838116600081815260056020908152604080832094871680845294825291829020805460ff191686151590811790915591519182527f17307eab39ab6107e8899845ad3d59bd9653f200f220920489ca2b5937696c31910160405180910390a3505050565b6000818152600260205260408120546001600160a01b03166121175760405162461bcd60e51b815260206004820152602c60248201527f4552433732313a206f70657261746f7220717565727920666f72206e6f6e657860448201526b34b9ba32b73a103a37b5b2b760a11b60648201526084016107b1565b600061212283610d43565b9050806001600160a01b0316846001600160a01b0316148061215d5750836001600160a01b03166121528461073c565b6001600160a01b0316145b8061191557506001600160a01b0380821660009081526005602090815260408083209388168352929052205460ff16611915565b61219c848484611b0a565b6121a8848484846122ab565b6117905760405162461bcd60e51b81526004016107b1906129bf565b6000818152600260205260409020546060906001600160a01b03166122435760405162461bcd60e51b815260206004820152602f60248201527f4552433732314d657461646174613a2055524920717565727920666f72206e6f60448201526e3732bc34b9ba32b73a103a37b5b2b760891b60648201526084016107b1565b600061225a60408051602081019091526000815290565b9050600081511161227a5760405180602001604052806000815250611dec565b80612284846123b8565b604051602001612295929190612847565b6040516020818303038152906040529392505050565b60006001600160a01b0384163b156123ad57604051630a85bd0160e11b81526001600160a01b0385169063150b7a02906122ef903390899088908890600401612876565b602060405180830381600087803b15801561230957600080fd5b505af1925050508015612339575060408051601f3d908101601f19168201909252612336918101906127e7565b60015b612393573d808015612367576040519150601f19603f3d011682016040523d82523d6000602084013e61236c565b606091505b50805161238b5760405162461bcd60e51b81526004016107b1906129bf565b805181602001fd5b6001600160e01b031916630a85bd0160e11b149050611915565b506001949350505050565b6060816123dc5750506040805180820190915260018152600360fc1b602082015290565b8160005b811561240657806123f081612b51565b91506123ff9050600a83612aa0565b91506123e0565b60008167ffffffffffffffff81111561242f57634e487b7160e01b600052604160045260246000fd5b6040519080825280601f01601f191660200182016040528015612459576020820181803683370190505b5090505b84156119155761246e600183612ad3565b915061247b600a86612b6c565b612486906030612a88565b60f81b8183815181106124a957634e487b7160e01b600052603260045260246000fd5b60200101906001600160f81b031916908160001a9053506124cb600a86612aa0565b945061245d565b5080546000825590600052602060002090810190611a389190612553565b828054828255906000526020600020908101928215612543579160200282015b828111156125435781546001600160a01b0319166001600160a01b03843516178255602090920191600190910190612510565b5061254f929150612553565b5090565b5b8082111561254f5760008155600101612554565b80356001600160a01b038116811461257f57600080fd5b919050565b600060208284031215612595578081fd5b611dec82612568565b600080604083850312156125b0578081fd5b6125b983612568565b91506125c760208401612568565b90509250929050565b6000806000606084860312156125e4578081fd5b6125ed84612568565b92506125fb60208501612568565b9150604084013590509250925092565b60008060008060808587031215612620578081fd5b61262985612568565b935061263760208601612568565b925060408501359150606085013567ffffffffffffffff8082111561265a578283fd5b818701915087601f83011261266d578283fd5b81358181111561267f5761267f612bac565b604051601f8201601f19908116603f011681019083821181831017156126a7576126a7612bac565b816040528281528a60208487010111156126bf578586fd5b82602086016020830137918201602001949094529598949750929550505050565b600080604083850312156126f2578182fd5b6126fb83612568565b9150602083013561270b81612bc2565b809150509250929050565b60008060408385031215612728578182fd5b61273183612568565b946020939093013593505050565b60008060208385031215612751578182fd5b823567ffffffffffffffff80821115612768578384fd5b818501915085601f83011261277b578384fd5b813581811115612789578485fd5b8660208260051b850101111561279d578485fd5b60209290920196919550909350505050565b6000602082840312156127c0578081fd5b8151611dec81612bc2565b6000602082840312156127dc578081fd5b8135611dec81612bd0565b6000602082840312156127f8578081fd5b8151611dec81612bd0565b600060208284031215612814578081fd5b5035919050565b60008151808452612833816020860160208601612aea565b601f01601f19169290920160200192915050565b60008351612859818460208801612aea565b83519083019061286d818360208801612aea565b01949350505050565b6001600160a01b03858116825284166020820152604081018390526080606082018190526000906128a99083018461281b565b9695505050505050565b6020808252825182820181905260009190848201906040850190845b818110156128f45783516001600160a01b0316835292840192918401916001016128cf565b50909695505050505050565b602080825282518282018190526000919060409081850190868401855b8281101561299f578151805185528681015160ff908116888701528682015116868601526060808201511515908601526080808201516129618288018260ff169052565b505060a08181015160ff9081169187019190915260c08083015182169087015260e0918201511690850152610100909301929085019060010161291d565b5091979650505050505050565b602081526000611dec602083018461281b565b60208082526032908201527f4552433732313a207472616e7366657220746f206e6f6e20455243373231526560408201527131b2b4bb32b91034b6b83632b6b2b73a32b960711b606082015260800190565b60208082526022908201527f596f75277265206e6f7420746865206f776e6572206f66207468697320746f6b60408201526132b760f11b606082015260800190565b6020808252818101527f4f776e61626c653a2063616c6c6572206973206e6f7420746865206f776e6572604082015260600190565b60008219821115612a9b57612a9b612b80565b500190565b600082612aaf57612aaf612b96565b500490565b6000816000190483118215151615612ace57612ace612b80565b500290565b600082821015612ae557612ae5612b80565b500390565b60005b83811015612b05578181015183820152602001612aed565b838111156117905750506000910152565b600181811c90821680612b2a57607f821691505b60208210811415612b4b57634e487b7160e01b600052602260045260246000fd5b50919050565b6000600019821415612b6557612b65612b80565b5060010190565b600082612b7b57612b7b612b96565b500690565b634e487b7160e01b600052601160045260246000fd5b634e487b7160e01b600052601260045260246000fd5b634e487b7160e01b600052604160045260246000fd5b8015158114611a3857600080fd5b6001600160e01b031981168114611a3857600080fdfea2646970667358221220c530d26178d69b3777ac76a8290261883d5c016d1560a2c22c96076d158d884164736f6c63430008040033",
  "linkReferences": {},
  "deployedLinkReferences": {}
}