{
  "_format": "hh-sol-artifact-1",
  "contractName": "Ctrain",
  "sourceName": "contracts/Ctrain.sol",
  "abi": [
    {
      "inputs": [
        {
          "internalType": "address",
          "name": "_token",
          "type": "address"
        },
        {
          "internalType": "address",
          "name": "_reserve",
          "type": "address"
        }
      ],
      "stateMutability": "nonpayable",
      "type": "constructor"
    },
    {
      "anonymous": false,
      "inputs": [
        {
          "indexed": true,
          "internalType": "address",
          "name": "owner",
          "type": "address"
        },
        {
          "indexed": true,
          "internalType": "address",
          "name": "approved",
          "type": "address"
        },
        {
          "indexed": true,
          "internalType": "uint256",
          "name": "tokenId",
          "type": "uint256"
        }
      ],
      "name": "Approval",
      "type": "event"
    },
    {
      "anonymous": false,
      "inputs": [
        {
          "indexed": true,
          "internalType": "address",
          "name": "owner",
          "type": "address"
        },
        {
          "indexed": true,
          "internalType": "address",
          "name": "operator",
          "type": "address"
        },
        {
          "indexed": false,
          "internalType": "bool",
          "name": "approved",
          "type": "bool"
        }
      ],
      "name": "ApprovalForAll",
      "type": "event"
    },
    {
      "anonymous": false,
      "inputs": [
        {
          "indexed": true,
          "internalType": "address",
          "name": "previousOwner",
          "type": "address"
        },
        {
          "indexed": true,
          "internalType": "address",
          "name": "newOwner",
          "type": "address"
        }
      ],
      "name": "OwnershipTransferred",
      "type": "event"
    },
    {
      "anonymous": false,
      "inputs": [
        {
          "indexed": false,
          "internalType": "address",
          "name": "account",
          "type": "address"
        }
      ],
      "name": "Paused",
      "type": "event"
    },
    {
      "anonymous": false,
      "inputs": [
        {
          "indexed": false,
          "internalType": "address",
          "name": "_sender",
          "type": "address"
        },
        {
          "indexed": false,
          "internalType": "address",
          "name": "_receiver",
          "type": "address"
        },
        {
          "indexed": false,
          "internalType": "uint256",
          "name": "_id",
          "type": "uint256"
        }
      ],
      "name": "RestrictedTransfer",
      "type": "event"
    },
    {
      "anonymous": false,
      "inputs": [
        {
          "indexed": true,
          "internalType": "address",
          "name": "from",
          "type": "address"
        },
        {
          "indexed": true,
          "internalType": "address",
          "name": "to",
          "type": "address"
        },
        {
          "indexed": true,
          "internalType": "uint256",
          "name": "tokenId",
          "type": "uint256"
        }
      ],
      "name": "Transfer",
      "type": "event"
    },
    {
      "anonymous": false,
      "inputs": [
        {
          "indexed": false,
          "internalType": "address",
          "name": "account",
          "type": "address"
        }
      ],
      "name": "Unpaused",
      "type": "event"
    },
    {
      "inputs": [],
      "name": "allWhitelistedAddresses",
      "outputs": [
        {
          "internalType": "address[]",
          "name": "",
          "type": "address[]"
        }
      ],
      "stateMutability": "view",
      "type": "function"
    },
    {
      "inputs": [
        {
          "internalType": "address",
          "name": "to",
          "type": "address"
        },
        {
          "internalType": "uint256",
          "name": "tokenId",
          "type": "uint256"
        }
      ],
      "name": "approve",
      "outputs": [],
      "stateMutability": "nonpayable",
      "type": "function"
    },
    {
      "inputs": [
        {
          "internalType": "address",
          "name": "owner",
          "type": "address"
        }
      ],
      "name": "balanceOf",
      "outputs": [
        {
          "internalType": "uint256",
          "name": "",
          "type": "uint256"
        }
      ],
      "stateMutability": "view",
      "type": "function"
    },
    {
      "inputs": [
        {
          "internalType": "uint256",
          "name": "_mintAmount",
          "type": "uint256"
        }
      ],
      "name": "create",
      "outputs": [],
      "stateMutability": "payable",
      "type": "function"
    },
    {
      "inputs": [
        {
          "internalType": "uint256",
          "name": "tokenId",
          "type": "uint256"
        }
      ],
      "name": "getApproved",
      "outputs": [
        {
          "internalType": "address",
          "name": "",
          "type": "address"
        }
      ],
      "stateMutability": "view",
      "type": "function"
    },
    {
      "inputs": [
        {
          "internalType": "address",
          "name": "_owner",
          "type": "address"
        }
      ],
      "name": "getOwnerTrains",
      "outputs": [
        {
          "components": [
            {
              "internalType": "uint256",
              "name": "id",
              "type": "uint256"
            },
            {
              "internalType": "uint8",
              "name": "level",
              "type": "uint8"
            },
            {
              "internalType": "uint8",
              "name": "rarity",
              "type": "uint8"
            },
            {
              "internalType": "bool",
              "name": "fuel",
              "type": "bool"
            },
            {
              "internalType": "uint8",
              "name": "acceleration",
              "type": "uint8"
            },
            {
              "internalType": "uint8",
              "name": "speed",
              "type": "uint8"
            },
            {
              "internalType": "uint8",
              "name": "brakes",
              "type": "uint8"
            },
            {
              "internalType": "uint8",
              "name": "loads",
              "type": "uint8"
            }
          ],
          "internalType": "struct Ctrain.Train[]",
          "name": "",
          "type": "tuple[]"
        }
      ],
      "stateMutability": "view",
      "type": "function"
    },
    {
      "inputs": [],
      "name": "getTrains",
      "outputs": [
        {
          "components": [
            {
              "internalType": "uint256",
              "name": "id",
              "type": "uint256"
            },
            {
              "internalType": "uint8",
              "name": "level",
              "type": "uint8"
            },
            {
              "internalType": "uint8",
              "name": "rarity",
              "type": "uint8"
            },
            {
              "internalType": "bool",
              "name": "fuel",
              "type": "bool"
            },
            {
              "internalType": "uint8",
              "name": "acceleration",
              "type": "uint8"
            },
            {
              "internalType": "uint8",
              "name": "speed",
              "type": "uint8"
            },
            {
              "internalType": "uint8",
              "name": "brakes",
              "type": "uint8"
            },
            {
              "internalType": "uint8",
              "name": "loads",
              "type": "uint8"
            }
          ],
          "internalType": "struct Ctrain.Train[]",
          "name": "",
          "type": "tuple[]"
        }
      ],
      "stateMutability": "view",
      "type": "function"
    },
    {
      "inputs": [
        {
          "internalType": "address",
          "name": "owner",
          "type": "address"
        },
        {
          "internalType": "address",
          "name": "operator",
          "type": "address"
        }
      ],
      "name": "isApprovedForAll",
      "outputs": [
        {
          "internalType": "bool",
          "name": "",
          "type": "bool"
        }
      ],
      "stateMutability": "view",
      "type": "function"
    },
    {
      "inputs": [
        {
          "internalType": "address",
          "name": "_user",
          "type": "address"
        }
      ],
      "name": "isWhitelisted",
      "outputs": [
        {
          "internalType": "bool",
          "name": "",
          "type": "bool"
        }
      ],
      "stateMutability": "view",
      "type": "function"
    },
    {
      "inputs": [],
      "name": "name",
      "outputs": [
        {
          "internalType": "string",
          "name": "",
          "type": "string"
        }
      ],
      "stateMutability": "view",
      "type": "function"
    },
    {
      "inputs": [],
      "name": "nftPerAddressLimit",
      "outputs": [
        {
          "internalType": "uint256",
          "name": "",
          "type": "uint256"
        }
      ],
      "stateMutability": "view",
      "type": "function"
    },
    {
      "inputs": [],
      "name": "owner",
      "outputs": [
        {
          "internalType": "address",
          "name": "",
          "type": "address"
        }
      ],
      "stateMutability": "view",
      "type": "function"
    },
    {
      "inputs": [
        {
          "internalType": "uint256",
          "name": "tokenId",
          "type": "uint256"
        }
      ],
      "name": "ownerOf",
      "outputs": [
        {
          "internalType": "address",
          "name": "",
          "type": "address"
        }
      ],
      "stateMutability": "view",
      "type": "function"
    },
    {
      "inputs": [],
      "name": "pause",
      "outputs": [],
      "stateMutability": "nonpayable",
      "type": "function"
    },
    {
      "inputs": [],
      "name": "paused",
      "outputs": [
        {
          "internalType": "bool",
          "name": "",
          "type": "bool"
        }
      ],
      "stateMutability": "view",
      "type": "function"
    },
    {
      "inputs": [],
      "name": "renounceOwnership",
      "outputs": [],
      "stateMutability": "nonpayable",
      "type": "function"
    },
    {
      "inputs": [],
      "name": "reserveAddress",
      "outputs": [
        {
          "internalType": "address",
          "name": "",
          "type": "address"
        }
      ],
      "stateMutability": "view",
      "type": "function"
    },
    {
      "inputs": [
        {
          "internalType": "address",
          "name": "_from",
          "type": "address"
        },
        {
          "internalType": "address",
          "name": "_to",
          "type": "address"
        },
        {
          "internalType": "uint256",
          "name": "_tokenId",
          "type": "uint256"
        }
      ],
      "name": "safeTransferFrom",
      "outputs": [],
      "stateMutability": "nonpayable",
      "type": "function"
    },
    {
      "inputs": [
        {
          "internalType": "address",
          "name": "from",
          "type": "address"
        },
        {
          "internalType": "address",
          "name": "to",
          "type": "address"
        },
        {
          "internalType": "uint256",
          "name": "tokenId",
          "type": "uint256"
        },
        {
          "internalType": "bytes",
          "name": "_data",
          "type": "bytes"
        }
      ],
      "name": "safeTransferFrom",
      "outputs": [],
      "stateMutability": "nonpayable",
      "type": "function"
    },
    {
      "inputs": [
        {
          "internalType": "address",
          "name": "operator",
          "type": "address"
        },
        {
          "internalType": "bool",
          "name": "approved",
          "type": "bool"
        }
      ],
      "name": "setApprovalForAll",
      "outputs": [],
      "stateMutability": "nonpayable",
      "type": "function"
    },
    {
      "inputs": [
        {
          "internalType": "uint256",
          "name": "_limit",
          "type": "uint256"
        }
      ],
      "name": "setNftPerAddressLimit",
      "outputs": [],
      "stateMutability": "nonpayable",
      "type": "function"
    },
    {
      "inputs": [
        {
          "internalType": "bytes4",
          "name": "interfaceId",
          "type": "bytes4"
        }
      ],
      "name": "supportsInterface",
      "outputs": [
        {
          "internalType": "bool",
          "name": "",
          "type": "bool"
        }
      ],
      "stateMutability": "view",
      "type": "function"
    },
    {
      "inputs": [],
      "name": "symbol",
      "outputs": [
        {
          "internalType": "string",
          "name": "",
          "type": "string"
        }
      ],
      "stateMutability": "view",
      "type": "function"
    },
    {
      "inputs": [],
      "name": "tokenAddress",
      "outputs": [
        {
          "internalType": "contract IERC20",
          "name": "",
          "type": "address"
        }
      ],
      "stateMutability": "view",
      "type": "function"
    },
    {
      "inputs": [
        {
          "internalType": "uint256",
          "name": "tokenId",
          "type": "uint256"
        }
      ],
      "name": "tokenURI",
      "outputs": [
        {
          "internalType": "string",
          "name": "",
          "type": "string"
        }
      ],
      "stateMutability": "view",
      "type": "function"
    },
    {
      "inputs": [],
      "name": "totalPresaleSupply",
      "outputs": [
        {
          "internalType": "uint256",
          "name": "",
          "type": "uint256"
        }
      ],
      "stateMutability": "view",
      "type": "function"
    },
    {
      "inputs": [
        {
          "internalType": "uint256",
          "name": "",
          "type": "uint256"
        }
      ],
      "name": "trains",
      "outputs": [
        {
          "internalType": "uint256",
          "name": "id",
          "type": "uint256"
        },
        {
          "internalType": "uint8",
          "name": "level",
          "type": "uint8"
        },
        {
          "internalType": "uint8",
          "name": "rarity",
          "type": "uint8"
        },
        {
          "internalType": "bool",
          "name": "fuel",
          "type": "bool"
        },
        {
          "internalType": "uint8",
          "name": "acceleration",
          "type": "uint8"
        },
        {
          "internalType": "uint8",
          "name": "speed",
          "type": "uint8"
        },
        {
          "internalType": "uint8",
          "name": "brakes",
          "type": "uint8"
        },
        {
          "internalType": "uint8",
          "name": "loads",
          "type": "uint8"
        }
      ],
      "stateMutability": "view",
      "type": "function"
    },
    {
      "inputs": [
        {
          "internalType": "address",
          "name": "_from",
          "type": "address"
        },
        {
          "internalType": "address",
          "name": "_to",
          "type": "address"
        },
        {
          "internalType": "uint256",
          "name": "_tokenId",
          "type": "uint256"
        }
      ],
      "name": "transferFrom",
      "outputs": [],
      "stateMutability": "nonpayable",
      "type": "function"
    },
    {
      "inputs": [
        {
          "internalType": "address",
          "name": "newOwner",
          "type": "address"
        }
      ],
      "name": "transferOwnership",
      "outputs": [],
      "stateMutability": "nonpayable",
      "type": "function"
    },
    {
      "inputs": [],
      "name": "unpause",
      "outputs": [],
      "stateMutability": "nonpayable",
      "type": "function"
    },
    {
      "inputs": [
        {
          "internalType": "address[]",
          "name": "_users",
          "type": "address[]"
        }
      ],
      "name": "whitelistUsers",
      "outputs": [],
      "stateMutability": "nonpayable",
      "type": "function"
    },
    {
      "inputs": [],
      "name": "withdraw",
      "outputs": [],
      "stateMutability": "payable",
      "type": "function"
    }
  ],
  "bytecode": "0x6080604052600a600955610bb8600a553480156200001c57600080fd5b5060405162002d6d38038062002d6d8339810160408190526200003f9162000209565b604080518082018252600681526521ba3930b4b760d11b60208083019182528351808501909452600384526221aa2960e91b908401528151919291620000889160009162000146565b5080516200009e90600190602084019062000146565b50506007805460ff1916905550620000b633620000ec565b600b80546001600160a01b039384166001600160a01b031991821617909155600c8054929093169116179055426010556200027d565b600780546001600160a01b03838116610100818102610100600160a81b031985161790945560405193909204169182907f8be0079c531659141344cd1fd0a4f28419497f9722a3daafe3b4186f6b6457e090600090a35050565b828054620001549062000240565b90600052602060002090601f016020900481019282620001785760008555620001c3565b82601f106200019357805160ff1916838001178555620001c3565b82800160010185558215620001c3579182015b82811115620001c3578251825591602001919060010190620001a6565b50620001d1929150620001d5565b5090565b5b80821115620001d15760008155600101620001d6565b80516001600160a01b03811681146200020457600080fd5b919050565b600080604083850312156200021c578182fd5b6200022783620001ec565b91506200023760208401620001ec565b90509250929050565b600181811c908216806200025557607f821691505b602082108114156200027757634e487b7160e01b600052602260045260246000fd5b50919050565b612ae0806200028d6000396000f3fe6080604052600436106101e35760003560e01c8063780900dc11610102578063ba7d2c7611610095578063edec5f2711610064578063edec5f27146105ab578063f2fde38b146105cb578063f779acbb146105eb578063f79ed94b1461060d57600080fd5b8063ba7d2c761461050c578063c87b56dd14610522578063d0eb26b014610542578063e985e9c51461056257600080fd5b80639cf278e8116100d15780639cf278e81461048c5780639d76ea58146104ac578063a22cb465146104cc578063b88d4fde146104ec57600080fd5b8063780900dc1461042c5780638456cb591461043f5780638da5cb5b1461045457806395d89b411461047757600080fd5b80633f4ba83a1161017a5780635c975abb116101495780635c975abb146103bf5780636352211e146103d757806370a08231146103f7578063715018a61461041757600080fd5b80633f4ba83a1461030357806342842e0e146103185780634f153fe814610338578063598c68b11461035757600080fd5b806319ae037b116101b657806319ae037b1461029957806323b872dd146102bb5780633af32abf146102db5780633ccfd60b146102fb57600080fd5b806301ffc9a7146101e857806306fdde031461021d578063081812fc1461023f578063095ea7b314610277575b600080fd5b3480156101f457600080fd5b5061020861020336600461264a565b61062d565b60405190151581526020015b60405180910390f35b34801561022957600080fd5b5061023261067f565b604051610214919061282b565b34801561024b57600080fd5b5061025f61025a366004612682565b610711565b6040516001600160a01b039091168152602001610214565b34801561028357600080fd5b50610297610292366004612595565b6107ab565b005b3480156102a557600080fd5b506102ae6108c1565b604051610214919061277f565b3480156102c757600080fd5b506102976102d636600461244f565b61098a565b3480156102e757600080fd5b506102086102f6366004612403565b610a4e565b610297610ac6565b34801561030f57600080fd5b50610297610b35565b34801561032457600080fd5b5061029761033336600461244f565b610b6f565b34801561034457600080fd5b50600a545b604051908152602001610214565b34801561036357600080fd5b50610377610372366004612682565b610bf3565b6040805198895260ff97881660208a01529587169588019590955292151560608701529084166080860152831660a0850152821660c08401521660e082015261010001610214565b3480156103cb57600080fd5b5060075460ff16610208565b3480156103e357600080fd5b5061025f6103f2366004612682565b610c60565b34801561040357600080fd5b50610349610412366004612403565b610cd7565b34801561042357600080fd5b50610297610d5e565b61029761043a366004612682565b610d98565b34801561044b57600080fd5b5061029761138d565b34801561046057600080fd5b5060075461010090046001600160a01b031661025f565b34801561048357600080fd5b506102326113c5565b34801561049857600080fd5b506102ae6104a7366004612403565b6113d4565b3480156104b857600080fd5b50600b5461025f906001600160a01b031681565b3480156104d857600080fd5b506102976104e736600461255f565b6115a7565b3480156104f857600080fd5b5061029761050736600461248a565b6115b2565b34801561051857600080fd5b5061034960095481565b34801561052e57600080fd5b5061023261053d366004612682565b611634565b34801561054e57600080fd5b5061029761055d366004612682565b6117bb565b34801561056e57600080fd5b5061020861057d36600461241d565b6001600160a01b03918216600090815260056020908152604080832093909416825291909152205460ff1690565b3480156105b757600080fd5b506102976105c63660046125be565b6117f0565b3480156105d757600080fd5b506102976105e6366004612403565b611838565b3480156105f757600080fd5b506106006118d9565b6040516102149190612732565b34801561061957600080fd5b50600c5461025f906001600160a01b031681565b60006001600160e01b031982166380ac58cd60e01b148061065e57506001600160e01b03198216635b5e139f60e01b145b8061067957506301ffc9a760e01b6001600160e01b03198316145b92915050565b60606000805461068e906129da565b80601f01602080910402602001604051908101604052809291908181526020018280546106ba906129da565b80156107075780601f106106dc57610100808354040283529160200191610707565b820191906000526020600020905b8154815290600101906020018083116106ea57829003601f168201915b5050505050905090565b6000818152600260205260408120546001600160a01b031661078f5760405162461bcd60e51b815260206004820152602c60248201527f4552433732313a20617070726f76656420717565727920666f72206e6f6e657860448201526b34b9ba32b73a103a37b5b2b760a11b60648201526084015b60405180910390fd5b506000908152600460205260409020546001600160a01b031690565b60006107b682610c60565b9050806001600160a01b0316836001600160a01b031614156108245760405162461bcd60e51b815260206004820152602160248201527f4552433732313a20617070726f76616c20746f2063757272656e74206f776e656044820152603960f91b6064820152608401610786565b336001600160a01b03821614806108405750610840813361057d565b6108b25760405162461bcd60e51b815260206004820152603860248201527f4552433732313a20617070726f76652063616c6c6572206973206e6f74206f7760448201527f6e6572206e6f7220617070726f76656420666f7220616c6c00000000000000006064820152608401610786565b6108bc838361193a565b505050565b6060600e805480602002602001604051908101604052809291908181526020016000905b82821015610981576000848152602090819020604080516101008082018352600287029093018054825260019081015460ff8082168488015294810485169383019390935262010000830484161515606083015263010000008304841660808301526401000000008304841660a0830152600160281b8304841660c0830152600160301b90920490921660e083015290835290920191016108e5565b50505050905090565b6007546001600160a01b036101009091041633146109ba5760405162461bcd60e51b815260040161078690612917565b6109c381610c60565b6001600160a01b0316336001600160a01b0316146109f35760405162461bcd60e51b815260040161078690612890565b6109fe8383836119a8565b604080516001600160a01b038086168252841660208201529081018290527f57659db6b7b15cc906bcc98e53922136e0e76b4f7c70efcf9836c71d6223d09f9060600160405180910390a1505050565b6000805b600d54811015610abd57826001600160a01b0316600d8281548110610a8757634e487b7160e01b600052603260045260246000fd5b6000918252602090912001546001600160a01b03161415610aab5750600192915050565b80610ab581612a15565b915050610a52565b50600092915050565b6007546001600160a01b03610100909104163314610af65760405162461bcd60e51b815260040161078690612917565b600c546040516001600160a01b039091169081904780156108fc02916000818181858888f19350505050158015610b31573d6000803e3d6000fd5b5050565b6007546001600160a01b03610100909104163314610b655760405162461bcd60e51b815260040161078690612917565b610b6d611b48565b565b6007546001600160a01b03610100909104163314610b9f5760405162461bcd60e51b815260040161078690612917565b610ba881610c60565b6001600160a01b0316336001600160a01b031614610bd85760405162461bcd60e51b815260040161078690612890565b6109fe838383604051806020016040528060008152506115b2565b600e8181548110610c0357600080fd5b60009182526020909120600290910201805460019091015490915060ff808216916101008104821691620100008204811691630100000081048216916401000000008204811691600160281b8104821691600160301b9091041688565b6000818152600260205260408120546001600160a01b0316806106795760405162461bcd60e51b815260206004820152602960248201527f4552433732313a206f776e657220717565727920666f72206e6f6e657869737460448201526832b73a103a37b5b2b760b91b6064820152608401610786565b60006001600160a01b038216610d425760405162461bcd60e51b815260206004820152602a60248201527f4552433732313a2062616c616e636520717565727920666f7220746865207a65604482015269726f206164647265737360b01b6064820152608401610786565b506001600160a01b031660009081526003602052604090205490565b6007546001600160a01b03610100909104163314610d8e5760405162461bcd60e51b815260040161078690612917565b610b6d6000611bdb565b60075460ff1615610dde5760405162461bcd60e51b815260206004820152601060248201526f14185d5cd8589b194e881c185d5cd95960821b6044820152606401610786565b60008111610e3c5760405162461bcd60e51b815260206004820152602560248201527f4d696e696d756d206e756d626572206f66206d696e7461626c6520746f6b656e604482015264206973203160d81b6064820152608401610786565b6005811115610e9b5760405162461bcd60e51b815260206004820152602560248201527f4d6178696d756d206e756d626572206f66206d696e7461626c6520746f6b656e604482015264206973203560d81b6064820152608401610786565b6000601054610e10610ead919061294c565b90506000601054611c20610ec1919061294c565b90506000824211610f6857610ed533610a4e565b610ef15760405162461bcd60e51b8152600401610786906128d2565b600a54841115610f3f5760405162461bcd60e51b8152602060048201526019602482015278141c995cd85b19481d1bdad95b881a5cc81cdbdb19081bdd5d603a1b6044820152606401610786565b83600a6000828254610f519190612997565b909155506816c4abbebea010000091506110249050565b8242118015610f775750814211155b1561101857610f8533610a4e565b610fa15760405162461bcd60e51b8152600401610786906128d2565b600a54841115610fef5760405162461bcd60e51b8152602060048201526019602482015278141c995cd85b19481d1bdad95b881a5cc81cdbdb19081bdd5d603a1b6044820152606401610786565b83600a60008282546110019190612997565b90915550681ba5abf9e77938000091506110249050565b50682086ac3510526000005b60006110308583612978565b9050600061103d33610cd7565b60095490915061104d878361294c565b111561109b5760405162461bcd60e51b815260206004820152601c60248201527f6d6178204e4654207065722061646472657373206578636565646564000000006044820152606401610786565b600b54600c546040516323b872dd60e01b81523360048201526001600160a01b039182166024820152604481018590529116906323b872dd90606401602060405180830381600087803b1580156110f157600080fd5b505af1158015611105573d6000803e3d6000fd5b505050506040513d601f19601f82011682018060405250810190611129919061262e565b50600061113d876612d452694f4000612978565b90508034146111ac5760405162461bcd60e51b815260206004820152603560248201527f506c656173652073656e6420616c6f6e6720243220666f722065616368204e466044820152745420746f20636f6d706c657465206d696e74696e6760581b6064820152608401610786565b60015b8781116113835760006111c26064611c35565b905060006111d06064611c35565b905060006111de6064611c35565b905060006111ec6064611c35565b905060006111fa6064611c35565b604080516101008082018352600f54825260016020830181815260ff8b81169585019586526000606086018181528c8316608088019081528c841660a089019081528c851660c08a019081528b861660e08b01908152600e8054998a01815586528a517fbb7b4a454dc3493923482f07822329ed19e8244eff582cc204f8554c3620c3fd6002909a02998a015596517fbb7b4a454dc3493923482f07822329ed19e8244eff582cc204f8554c3620c3fe90980180549b519451935192519151975198871661ffff19909c169b909b179386169098029290921763ffff00001916620100009115159190910263ff0000001916176301000000918416919091021765ffff0000000019166401000000009583169590950265ff0000000000191694909417600160281b928216929092029190911766ff0000000000001916600160301b92909116919091021790925560085492935091905061135b3382611c91565b611369600880546001019055565b50505050505050808061137b90612a15565b9150506111af565b5050505050505050565b6007546001600160a01b036101009091041633146113bd5760405162461bcd60e51b815260040161078690612917565b610b6d611dd3565b60606001805461068e906129da565b606060006113e183610cd7565b67ffffffffffffffff81111561140757634e487b7160e01b600052604160045260246000fd5b60405190808252806020026020018201604052801561147657816020015b604080516101008101825260008082526020808301829052928201819052606082018190526080820181905260a0820181905260c0820181905260e082015282526000199092019101816114255790505b5090506000805b600e5481101561159e57846001600160a01b031661149a82610c60565b6001600160a01b0316141561158c57600e81815481106114ca57634e487b7160e01b600052603260045260246000fd5b60009182526020918290206040805161010080820183526002909402909201805483526001015460ff8082169584019590955292830484169082015262010000820483161515606082015263010000008204831660808201526401000000008204831660a0820152600160281b8204831660c0820152600160301b90910490911660e0820152835184908490811061157257634e487b7160e01b600052603260045260246000fd5b6020026020010181905250818061158890612a15565b9250505b8061159681612a15565b91505061147d565b50909392505050565b610b31338383611e4e565b6115bc3383611f1d565b6116225760405162461bcd60e51b815260206004820152603160248201527f4552433732313a207472616e736665722063616c6c6572206973206e6f74206f6044820152701ddb995c881b9bdc88185c1c1c9bdd9959607a1b6064820152608401610786565b61162e84848484612010565b50505050565b6000818152600260205260409020546060906001600160a01b03166116b55760405162461bcd60e51b815260206004820152603160248201527f45524337323155524953746f726167653a2055524920717565727920666f72206044820152703737b732bc34b9ba32b73a103a37b5b2b760791b6064820152608401610786565b600082815260066020526040812080546116ce906129da565b80601f01602080910402602001604051908101604052809291908181526020018280546116fa906129da565b80156117475780601f1061171c57610100808354040283529160200191611747565b820191906000526020600020905b81548152906001019060200180831161172a57829003601f168201915b50505050509050600061176560408051602081019091526000815290565b9050805160001415611778575092915050565b8151156117aa5780826040516020016117929291906126c6565b60405160208183030381529060405292505050919050565b6117b384612043565b949350505050565b6007546001600160a01b036101009091041633146117eb5760405162461bcd60e51b815260040161078690612917565b600955565b6007546001600160a01b036101009091041633146118205760405162461bcd60e51b815260040161078690612917565b61182c600d6000612351565b6108bc600d838361236f565b6007546001600160a01b036101009091041633146118685760405162461bcd60e51b815260040161078690612917565b6001600160a01b0381166118cd5760405162461bcd60e51b815260206004820152602660248201527f4f776e61626c653a206e6577206f776e657220697320746865207a65726f206160448201526564647265737360d01b6064820152608401610786565b6118d681611bdb565b50565b6060600d80548060200260200160405190810160405280929190818152602001828054801561070757602002820191906000526020600020905b81546001600160a01b03168152600190910190602001808311611913575050505050905090565b600081815260046020526040902080546001600160a01b0319166001600160a01b038416908117909155819061196f82610c60565b6001600160a01b03167f8c5be1e5ebec7d5bd14f71427d1e84f3dd0314c0f7b2291e5b200ac8c7c3b92560405160405180910390a45050565b826001600160a01b03166119bb82610c60565b6001600160a01b031614611a235760405162461bcd60e51b815260206004820152602960248201527f4552433732313a207472616e73666572206f6620746f6b656e2074686174206960448201526839903737ba1037bbb760b91b6064820152608401610786565b6001600160a01b038216611a855760405162461bcd60e51b8152602060048201526024808201527f4552433732313a207472616e7366657220746f20746865207a65726f206164646044820152637265737360e01b6064820152608401610786565b611a9060008261193a565b6001600160a01b0383166000908152600360205260408120805460019290611ab9908490612997565b90915550506001600160a01b0382166000908152600360205260408120805460019290611ae790849061294c565b909155505060008181526002602052604080822080546001600160a01b0319166001600160a01b0386811691821790925591518493918716917fddf252ad1be2c89b69c2b068fc378daa952ba7f163c4a11628f55a4df523b3ef91a4505050565b60075460ff16611b915760405162461bcd60e51b815260206004820152601460248201527314185d5cd8589b194e881b9bdd081c185d5cd95960621b6044820152606401610786565b6007805460ff191690557f5db9ee0a495bf2e6ff9c91a7834c1ba4fdd244a5e8aa4e537bd38aeae4b073aa335b6040516001600160a01b03909116815260200160405180910390a1565b600780546001600160a01b03838116610100818102610100600160a81b031985161790945560405193909204169182907f8be0079c531659141344cd1fd0a4f28419497f9722a3daafe3b4186f6b6457e090600090a35050565b6000804233604051602001611c6692919091825260601b6bffffffffffffffffffffffff1916602082015260340190565b60408051601f1981840301815291905280516020909101209050611c8a8382612a30565b9392505050565b6001600160a01b038216611ce75760405162461bcd60e51b815260206004820181905260248201527f4552433732313a206d696e7420746f20746865207a65726f20616464726573736044820152606401610786565b6000818152600260205260409020546001600160a01b031615611d4c5760405162461bcd60e51b815260206004820152601c60248201527f4552433732313a20746f6b656e20616c7265616479206d696e746564000000006044820152606401610786565b6001600160a01b0382166000908152600360205260408120805460019290611d7590849061294c565b909155505060008181526002602052604080822080546001600160a01b0319166001600160a01b03861690811790915590518392907fddf252ad1be2c89b69c2b068fc378daa952ba7f163c4a11628f55a4df523b3ef908290a45050565b60075460ff1615611e195760405162461bcd60e51b815260206004820152601060248201526f14185d5cd8589b194e881c185d5cd95960821b6044820152606401610786565b6007805460ff191660011790557f62e78cea01bee320cd4e420270b5ea74000d11b0c9f74754ebdbfc544b05a258611bbe3390565b816001600160a01b0316836001600160a01b03161415611eb05760405162461bcd60e51b815260206004820152601960248201527f4552433732313a20617070726f766520746f2063616c6c6572000000000000006044820152606401610786565b6001600160a01b03838116600081815260056020908152604080832094871680845294825291829020805460ff191686151590811790915591519182527f17307eab39ab6107e8899845ad3d59bd9653f200f220920489ca2b5937696c31910160405180910390a3505050565b6000818152600260205260408120546001600160a01b0316611f965760405162461bcd60e51b815260206004820152602c60248201527f4552433732313a206f70657261746f7220717565727920666f72206e6f6e657860448201526b34b9ba32b73a103a37b5b2b760a11b6064820152608401610786565b6000611fa183610c60565b9050806001600160a01b0316846001600160a01b03161480611fdc5750836001600160a01b0316611fd184610711565b6001600160a01b0316145b806117b357506001600160a01b0380821660009081526005602090815260408083209388168352929052205460ff166117b3565b61201b8484846119a8565b6120278484848461212a565b61162e5760405162461bcd60e51b81526004016107869061283e565b6000818152600260205260409020546060906001600160a01b03166120c25760405162461bcd60e51b815260206004820152602f60248201527f4552433732314d657461646174613a2055524920717565727920666f72206e6f60448201526e3732bc34b9ba32b73a103a37b5b2b760891b6064820152608401610786565b60006120d960408051602081019091526000815290565b905060008151116120f95760405180602001604052806000815250611c8a565b8061210384612237565b6040516020016121149291906126c6565b6040516020818303038152906040529392505050565b60006001600160a01b0384163b1561222c57604051630a85bd0160e11b81526001600160a01b0385169063150b7a029061216e9033908990889088906004016126f5565b602060405180830381600087803b15801561218857600080fd5b505af19250505080156121b8575060408051601f3d908101601f191682019092526121b591810190612666565b60015b612212573d8080156121e6576040519150601f19603f3d011682016040523d82523d6000602084013e6121eb565b606091505b50805161220a5760405162461bcd60e51b81526004016107869061283e565b805181602001fd5b6001600160e01b031916630a85bd0160e11b1490506117b3565b506001949350505050565b60608161225b5750506040805180820190915260018152600360fc1b602082015290565b8160005b8115612285578061226f81612a15565b915061227e9050600a83612964565b915061225f565b60008167ffffffffffffffff8111156122ae57634e487b7160e01b600052604160045260246000fd5b6040519080825280601f01601f1916602001820160405280156122d8576020820181803683370190505b5090505b84156117b3576122ed600183612997565b91506122fa600a86612a30565b61230590603061294c565b60f81b81838151811061232857634e487b7160e01b600052603260045260246000fd5b60200101906001600160f81b031916908160001a90535061234a600a86612964565b94506122dc565b50805460008255906000526020600020908101906118d691906123d2565b8280548282559060005260206000209081019282156123c2579160200282015b828111156123c25781546001600160a01b0319166001600160a01b0384351617825560209092019160019091019061238f565b506123ce9291506123d2565b5090565b5b808211156123ce57600081556001016123d3565b80356001600160a01b03811681146123fe57600080fd5b919050565b600060208284031215612414578081fd5b611c8a826123e7565b6000806040838503121561242f578081fd5b612438836123e7565b9150612446602084016123e7565b90509250929050565b600080600060608486031215612463578081fd5b61246c846123e7565b925061247a602085016123e7565b9150604084013590509250925092565b6000806000806080858703121561249f578081fd5b6124a8856123e7565b93506124b6602086016123e7565b925060408501359150606085013567ffffffffffffffff808211156124d9578283fd5b818701915087601f8301126124ec578283fd5b8135818111156124fe576124fe612a70565b604051601f8201601f19908116603f0116810190838211818310171561252657612526612a70565b816040528281528a602084870101111561253e578586fd5b82602086016020830137918201602001949094529598949750929550505050565b60008060408385031215612571578182fd5b61257a836123e7565b9150602083013561258a81612a86565b809150509250929050565b600080604083850312156125a7578182fd5b6125b0836123e7565b946020939093013593505050565b600080602083850312156125d0578182fd5b823567ffffffffffffffff808211156125e7578384fd5b818501915085601f8301126125fa578384fd5b813581811115612608578485fd5b8660208260051b850101111561261c578485fd5b60209290920196919550909350505050565b60006020828403121561263f578081fd5b8151611c8a81612a86565b60006020828403121561265b578081fd5b8135611c8a81612a94565b600060208284031215612677578081fd5b8151611c8a81612a94565b600060208284031215612693578081fd5b5035919050565b600081518084526126b28160208601602086016129ae565b601f01601f19169290920160200192915050565b600083516126d88184602088016129ae565b8351908301906126ec8183602088016129ae565b01949350505050565b6001600160a01b03858116825284166020820152604081018390526080606082018190526000906127289083018461269a565b9695505050505050565b6020808252825182820181905260009190848201906040850190845b818110156127735783516001600160a01b03168352928401929184019160010161274e565b50909695505050505050565b602080825282518282018190526000919060409081850190868401855b8281101561281e578151805185528681015160ff908116888701528682015116868601526060808201511515908601526080808201516127e08288018260ff169052565b505060a08181015160ff9081169187019190915260c08083015182169087015260e0918201511690850152610100909301929085019060010161279c565b5091979650505050505050565b602081526000611c8a602083018461269a565b60208082526032908201527f4552433732313a207472616e7366657220746f206e6f6e20455243373231526560408201527131b2b4bb32b91034b6b83632b6b2b73a32b960711b606082015260800190565b60208082526022908201527f596f75277265206e6f7420746865206f776e6572206f66207468697320746f6b60408201526132b760f11b606082015260800190565b60208082526025908201527f596f7520617265206e6f7420612077686974656c697374656420666f722070726040820152646573616c6560d81b606082015260800190565b6020808252818101527f4f776e61626c653a2063616c6c6572206973206e6f7420746865206f776e6572604082015260600190565b6000821982111561295f5761295f612a44565b500190565b60008261297357612973612a5a565b500490565b600081600019048311821515161561299257612992612a44565b500290565b6000828210156129a9576129a9612a44565b500390565b60005b838110156129c95781810151838201526020016129b1565b8381111561162e5750506000910152565b600181811c908216806129ee57607f821691505b60208210811415612a0f57634e487b7160e01b600052602260045260246000fd5b50919050565b6000600019821415612a2957612a29612a44565b5060010190565b600082612a3f57612a3f612a5a565b500690565b634e487b7160e01b600052601160045260246000fd5b634e487b7160e01b600052601260045260246000fd5b634e487b7160e01b600052604160045260246000fd5b80151581146118d657600080fd5b6001600160e01b0319811681146118d657600080fdfea2646970667358221220767dcd3411708859e259d1af6cad567af6af6fc9183e11e74e36516286df98c964736f6c63430008040033",
  "linkReferences": {},
  "deployedLinkReferences": {}
}