{
  "_format": "hh-sol-artifact-1",
  "contractName": "MarketPlace",
  "sourceName": "contracts/Marketplace.sol",
  "abi": [
    {
      "inputs": [
        {
          "internalType": "address",
          "name": "_token",
          "type": "address"
        }
      ],
      "stateMutability": "nonpayable",
      "type": "constructor"
    },
    {
      "anonymous": false,
      "inputs": [
        {
          "indexed": true,
          "internalType": "uint256",
          "name": "itemId",
          "type": "uint256"
        },
        {
          "indexed": true,
          "internalType": "address",
          "name": "nftContract",
          "type": "address"
        },
        {
          "indexed": true,
          "internalType": "uint256",
          "name": "tokenId",
          "type": "uint256"
        },
        {
          "indexed": false,
          "internalType": "address",
          "name": "seller",
          "type": "address"
        },
        {
          "indexed": false,
          "internalType": "address",
          "name": "owner",
          "type": "address"
        },
        {
          "indexed": false,
          "internalType": "uint256",
          "name": "price",
          "type": "uint256"
        },
        {
          "indexed": false,
          "internalType": "bool",
          "name": "sold",
          "type": "bool"
        }
      ],
      "name": "MarketItemCreated",
      "type": "event"
    },
    {
      "inputs": [
        {
          "internalType": "uint256",
          "name": "_amount",
          "type": "uint256"
        }
      ],
      "name": "TokenWithdraw",
      "outputs": [],
      "stateMutability": "nonpayable",
      "type": "function"
    },
    {
      "inputs": [
        {
          "internalType": "address",
          "name": "nftContract",
          "type": "address"
        },
        {
          "internalType": "uint256",
          "name": "tokenId",
          "type": "uint256"
        }
      ],
      "name": "buy",
      "outputs": [],
      "stateMutability": "payable",
      "type": "function"
    },
    {
      "inputs": [
        {
          "internalType": "uint256",
          "name": "tokenId",
          "type": "uint256"
        }
      ],
      "name": "fetchPrice",
      "outputs": [
        {
          "internalType": "uint256",
          "name": "",
          "type": "uint256"
        }
      ],
      "stateMutability": "view",
      "type": "function"
    },
    {
      "inputs": [
        {
          "internalType": "address",
          "name": "nftContract",
          "type": "address"
        },
        {
          "internalType": "uint256",
          "name": "tokenId",
          "type": "uint256"
        },
        {
          "internalType": "uint256",
          "name": "price",
          "type": "uint256"
        }
      ],
      "name": "sell",
      "outputs": [],
      "stateMutability": "payable",
      "type": "function"
    },
    {
      "inputs": [],
      "name": "tokenAddress",
      "outputs": [
        {
          "internalType": "contract IERC20",
          "name": "",
          "type": "address"
        }
      ],
      "stateMutability": "view",
      "type": "function"
    },
    {
      "inputs": [],
      "name": "withdrawBNB",
      "outputs": [],
      "stateMutability": "payable",
      "type": "function"
    }
  ],
  "bytecode": "0x608060405234801561001057600080fd5b5060405161109638038061109683398101604081905261002f91610067565b600160005560048054336001600160a01b031991821617909155600380549091166001600160a01b0392909216919091179055610095565b600060208284031215610078578081fd5b81516001600160a01b038116811461008e578182fd5b9392505050565b610ff2806100a46000396000f3fe60806040526004361061007b5760003560e01c80636a2724621161004e5780636a272462146100ea5780639d76ea58146100fd578063cce7ec1314610135578063f064c32e1461014857600080fd5b80630f08efe0146100805780631d111d13146100ab578063202e3740146100b55780633267ae1d146100ca575b600080fd5b34801561008c57600080fd5b5061009561015d565b6040516100a29190610e89565b60405180910390f35b6100b3610305565b005b3480156100c157600080fd5b506100956103a3565b3480156100d657600080fd5b506100b36100e5366004610e4d565b610589565b6100b36100f8366004610df4565b61066f565b34801561010957600080fd5b5060035461011d906001600160a01b031681565b6040516001600160a01b0390911681526020016100a2565b6100b3610143366004610dcb565b61089a565b34801561015457600080fd5b50610095610b8d565b6060600061016a60015490565b9050600061017760025490565b6001546101849190610f74565b90506000808267ffffffffffffffff8111156101b057634e487b7160e01b600052604160045260246000fd5b6040519080825280602002602001820160405280156101e957816020015b6101d6610d73565b8152602001906001900390816101ce5790505b50905060005b848110156102fc576000600581610207846001610f1d565b81526020810191909152604001600020600401546001600160a01b031614156102ea576000610237826001610f1d565b600081815260056020818152604092839020835160e0810185528154815260018201546001600160a01b0390811693820193909352600282015494810194909452600381015482166060850152600481015490911660808401529081015460a0830152600681015460ff16151560c08301528551929350918590879081106102cf57634e487b7160e01b600052603260045260246000fd5b60209081029190910101526102e5600186610f1d565b945050505b806102f481610f8b565b9150506101ef565b50949350505050565b6004546001600160a01b031633146103645760405162461bcd60e51b815260206004820181905260248201527f596f7527726520756e617574686f72697a65642e204f6e6c79206f776e65722160448201526064015b60405180910390fd5b6004546040516001600160a01b039091169081904780156108fc02916000818181858888f1935050505015801561039f573d6000803e3d6000fd5b5050565b606060006103b060015490565b905060008060005b838110156104135733600560006103d0846001610f1d565b81526020810191909152604001600020600401546001600160a01b03161415610401576103fe600184610f1d565b92505b8061040b81610f8b565b9150506103b8565b5060008267ffffffffffffffff81111561043d57634e487b7160e01b600052604160045260246000fd5b60405190808252806020026020018201604052801561047657816020015b610463610d73565b81526020019060019003908161045b5790505b50905060005b848110156102fc573360056000610494846001610f1d565b81526020810191909152604001600020600401546001600160a01b031614156105775760006104c4826001610f1d565b600081815260056020818152604092839020835160e0810185528154815260018201546001600160a01b0390811693820193909352600282015494810194909452600381015482166060850152600481015490911660808401529081015460a0830152600681015460ff16151560c083015285519293509185908790811061055c57634e487b7160e01b600052603260045260246000fd5b6020908102919091010152610572600186610f1d565b945050505b8061058181610f8b565b91505061047c565b6004546001600160a01b031633146105e35760405162461bcd60e51b815260206004820181905260248201527f596f7527726520756e617574686f72697a65642e204f6e6c79206f776e657221604482015260640161035b565b6003546004805460405163a9059cbb60e01b81526001600160a01b0391821692810192909252602482018490529091169063a9059cbb90604401602060405180830381600087803b15801561063757600080fd5b505af115801561064b573d6000803e3d6000fd5b505050506040513d601f19601f8201168201806040525081019061039f9190610e26565b600260005414156106c25760405162461bcd60e51b815260206004820152601f60248201527f5265656e7472616e637947756172643a207265656e7472616e742063616c6c00604482015260640161035b565b6002600055806107145760405162461bcd60e51b815260206004820152601c60248201527f5072696365206d757374206265206174206c6561737420312077656900000000604482015260640161035b565b600061071f60015490565b6040805160e0810182528281526001600160a01b0387811660208084018281528486018a8152336060870181815260006080890181815260a08a018e815260c08b018381528d8452600598899052928c90209a518b55955160018b0180546001600160a01b0319908116928c16929092179055945160028b0155915160038a0180548616918a1691909117905590516004808a018054909516919098161790925591519286019290925590516006909401805460ff19169415159490941790935592516323b872dd60e01b815293945091926323b872dd9261080692913091899101610e65565b600060405180830381600087803b15801561082057600080fd5b505af1158015610834573d6000803e3d6000fd5b505060408051338152600060208201819052818301879052606082015290518693506001600160a01b038816925084917f045dfa01dcba2b36aba1d3dc4a874f4b0c5d2fbeb8d2c4b34a7d88c8d8f929d1919081900360800190a4505060016000555050565b600260005414156108ed5760405162461bcd60e51b815260206004820152601f60248201527f5265656e7472616e637947756172643a207265656e7472616e742063616c6c00604482015260640161035b565b600260008181558281526005602081905260409182902092830154920154600354915163095ea7b360e01b81523060048201526024810182905290916001600160a01b03169063095ea7b390604401602060405180830381600087803b15801561095657600080fd5b505af115801561096a573d6000803e3d6000fd5b505050506040513d601f19601f8201168201806040525081019061098e9190610e26565b506003546040516323b872dd60e01b81526001600160a01b03909116906323b872dd906109c390339030908690600401610e65565b602060405180830381600087803b1580156109dd57600080fd5b505af11580156109f1573d6000803e3d6000fd5b505050506040513d601f19601f82011682018060405250810190610a159190610e26565b506000838152600560205260408120600301546001600160a01b0316906064610a3f84600f610f55565b610a499190610f35565b90506000610a578285610f74565b6003546040516323b872dd60e01b81529192506001600160a01b0316906323b872dd90610a8c90309087908690600401610e65565b602060405180830381600087803b158015610aa657600080fd5b505af1158015610aba573d6000803e3d6000fd5b505050506040513d601f19601f82011682018060405250810190610ade9190610e26565b506040516323b872dd60e01b81526001600160a01b038816906323b872dd90610b0f90309033908a90600401610e65565b600060405180830381600087803b158015610b2957600080fd5b505af1158015610b3d573d6000803e3d6000fd5b50505060008781526005602052604090206004810180546001600160a01b03191633179055600601805460ff1916600117905550610b7f600280546001019055565b505060016000555050505050565b60606000610b9a60015490565b905060008060005b83811015610bfd573360056000610bba846001610f1d565b81526020810191909152604001600020600301546001600160a01b03161415610beb57610be8600184610f1d565b92505b80610bf581610f8b565b915050610ba2565b5060008267ffffffffffffffff811115610c2757634e487b7160e01b600052604160045260246000fd5b604051908082528060200260200182016040528015610c6057816020015b610c4d610d73565b815260200190600190039081610c455790505b50905060005b848110156102fc573360056000610c7e846001610f1d565b81526020810191909152604001600020600301546001600160a01b03161415610d61576000610cae826001610f1d565b600081815260056020818152604092839020835160e0810185528154815260018201546001600160a01b0390811693820193909352600282015494810194909452600381015482166060850152600481015490911660808401529081015460a0830152600681015460ff16151560c0830152855192935091859087908110610d4657634e487b7160e01b600052603260045260246000fd5b6020908102919091010152610d5c600186610f1d565b945050505b80610d6b81610f8b565b915050610c66565b6040805160e081018252600080825260208201819052918101829052606081018290526080810182905260a0810182905260c081019190915290565b80356001600160a01b0381168114610dc657600080fd5b919050565b60008060408385031215610ddd578182fd5b610de683610daf565b946020939093013593505050565b600080600060608486031215610e08578081fd5b610e1184610daf565b95602085013595506040909401359392505050565b600060208284031215610e37578081fd5b81518015158114610e46578182fd5b9392505050565b600060208284031215610e5e578081fd5b5035919050565b6001600160a01b039384168152919092166020820152604081019190915260600190565b602080825282518282018190526000919060409081850190868401855b82811015610f1057815180518552868101516001600160a01b039081168887015286820151878701526060808301518216908701526080808301519091169086015260a0808201519086015260c09081015115159085015260e09093019290850190600101610ea6565b5091979650505050505050565b60008219821115610f3057610f30610fa6565b500190565b600082610f5057634e487b7160e01b81526012600452602481fd5b500490565b6000816000190483118215151615610f6f57610f6f610fa6565b500290565b600082821015610f8657610f86610fa6565b500390565b6000600019821415610f9f57610f9f610fa6565b5060010190565b634e487b7160e01b600052601160045260246000fdfea2646970667358221220ae916f9c40a09a820f2cf399c93c70c6b08d8d87e4d55b49c66a0380831fe16364736f6c63430008040033",
  "linkReferences": {},
  "deployedLinkReferences": {}
}