{
  "_format": "hh-sol-artifact-1",
  "contractName": "StakeToken",
  "sourceName": "contracts/StakeToken.sol",
  "abi": [
    {
      "inputs": [
        {
          "internalType": "address",
          "name": "_rewardsToken",
          "type": "address"
        },
        {
          "internalType": "address",
          "name": "_stakingToken",
          "type": "address"
        }
      ],
      "stateMutability": "nonpayable",
      "type": "constructor"
    },
    {
      "anonymous": false,
      "inputs": [
        {
          "indexed": true,
          "internalType": "address",
          "name": "previousOwner",
          "type": "address"
        },
        {
          "indexed": true,
          "internalType": "address",
          "name": "newOwner",
          "type": "address"
        }
      ],
      "name": "OwnershipTransferred",
      "type": "event"
    },
    {
      "anonymous": false,
      "inputs": [
        {
          "indexed": false,
          "internalType": "address",
          "name": "account",
          "type": "address"
        }
      ],
      "name": "Paused",
      "type": "event"
    },
    {
      "anonymous": false,
      "inputs": [
        {
          "indexed": true,
          "internalType": "address",
          "name": "user",
          "type": "address"
        },
        {
          "indexed": false,
          "internalType": "uint256",
          "name": "amount",
          "type": "uint256"
        }
      ],
      "name": "Staked",
      "type": "event"
    },
    {
      "anonymous": false,
      "inputs": [
        {
          "indexed": false,
          "internalType": "address",
          "name": "account",
          "type": "address"
        }
      ],
      "name": "Unpaused",
      "type": "event"
    },
    {
      "anonymous": false,
      "inputs": [
        {
          "indexed": true,
          "internalType": "address",
          "name": "user",
          "type": "address"
        },
        {
          "indexed": false,
          "internalType": "uint256",
          "name": "amount",
          "type": "uint256"
        }
      ],
      "name": "Withdrawn",
      "type": "event"
    },
    {
      "inputs": [],
      "name": "owner",
      "outputs": [
        {
          "internalType": "address",
          "name": "",
          "type": "address"
        }
      ],
      "stateMutability": "view",
      "type": "function"
    },
    {
      "inputs": [],
      "name": "paused",
      "outputs": [
        {
          "internalType": "bool",
          "name": "",
          "type": "bool"
        }
      ],
      "stateMutability": "view",
      "type": "function"
    },
    {
      "inputs": [],
      "name": "renounceOwnership",
      "outputs": [],
      "stateMutability": "nonpayable",
      "type": "function"
    },
    {
      "inputs": [],
      "name": "rewardsDurationPoolFour",
      "outputs": [
        {
          "internalType": "uint256",
          "name": "",
          "type": "uint256"
        }
      ],
      "stateMutability": "view",
      "type": "function"
    },
    {
      "inputs": [],
      "name": "rewardsDurationPoolOne",
      "outputs": [
        {
          "internalType": "uint256",
          "name": "",
          "type": "uint256"
        }
      ],
      "stateMutability": "view",
      "type": "function"
    },
    {
      "inputs": [],
      "name": "rewardsDurationPoolThree",
      "outputs": [
        {
          "internalType": "uint256",
          "name": "",
          "type": "uint256"
        }
      ],
      "stateMutability": "view",
      "type": "function"
    },
    {
      "inputs": [],
      "name": "rewardsDurationPoolTwo",
      "outputs": [
        {
          "internalType": "uint256",
          "name": "",
          "type": "uint256"
        }
      ],
      "stateMutability": "view",
      "type": "function"
    },
    {
      "inputs": [],
      "name": "rewardsToken",
      "outputs": [
        {
          "internalType": "contract IERC20",
          "name": "",
          "type": "address"
        }
      ],
      "stateMutability": "view",
      "type": "function"
    },
    {
      "inputs": [
        {
          "internalType": "uint256",
          "name": "amount",
          "type": "uint256"
        }
      ],
      "name": "stakePoolFour",
      "outputs": [],
      "stateMutability": "nonpayable",
      "type": "function"
    },
    {
      "inputs": [
        {
          "internalType": "uint256",
          "name": "amount",
          "type": "uint256"
        }
      ],
      "name": "stakePoolOne",
      "outputs": [],
      "stateMutability": "nonpayable",
      "type": "function"
    },
    {
      "inputs": [
        {
          "internalType": "uint256",
          "name": "amount",
          "type": "uint256"
        }
      ],
      "name": "stakePoolThree",
      "outputs": [],
      "stateMutability": "nonpayable",
      "type": "function"
    },
    {
      "inputs": [
        {
          "internalType": "uint256",
          "name": "amount",
          "type": "uint256"
        }
      ],
      "name": "stakePoolTwo",
      "outputs": [],
      "stateMutability": "nonpayable",
      "type": "function"
    },
    {
      "inputs": [
        {
          "internalType": "address",
          "name": "account",
          "type": "address"
        }
      ],
      "name": "stakingBalance",
      "outputs": [
        {
          "internalType": "uint256",
          "name": "",
          "type": "uint256"
        }
      ],
      "stateMutability": "view",
      "type": "function"
    },
    {
      "inputs": [],
      "name": "stakingToken",
      "outputs": [
        {
          "internalType": "contract IERC20",
          "name": "",
          "type": "address"
        }
      ],
      "stateMutability": "view",
      "type": "function"
    },
    {
      "inputs": [],
      "name": "totalSupply",
      "outputs": [
        {
          "internalType": "uint256",
          "name": "",
          "type": "uint256"
        }
      ],
      "stateMutability": "view",
      "type": "function"
    },
    {
      "inputs": [
        {
          "internalType": "address",
          "name": "newOwner",
          "type": "address"
        }
      ],
      "name": "transferOwnership",
      "outputs": [],
      "stateMutability": "nonpayable",
      "type": "function"
    },
    {
      "inputs": [
        {
          "internalType": "uint256",
          "name": "amount",
          "type": "uint256"
        },
        {
          "internalType": "uint256",
          "name": "index",
          "type": "uint256"
        }
      ],
      "name": "withdrawStakePoolFour",
      "outputs": [
        {
          "internalType": "uint256",
          "name": "",
          "type": "uint256"
        }
      ],
      "stateMutability": "nonpayable",
      "type": "function"
    },
    {
      "inputs": [
        {
          "internalType": "uint256",
          "name": "amount",
          "type": "uint256"
        },
        {
          "internalType": "uint256",
          "name": "index",
          "type": "uint256"
        }
      ],
      "name": "withdrawStakePoolOne",
      "outputs": [
        {
          "internalType": "uint256",
          "name": "",
          "type": "uint256"
        }
      ],
      "stateMutability": "nonpayable",
      "type": "function"
    },
    {
      "inputs": [
        {
          "internalType": "uint256",
          "name": "amount",
          "type": "uint256"
        },
        {
          "internalType": "uint256",
          "name": "index",
          "type": "uint256"
        }
      ],
      "name": "withdrawStakePoolThree",
      "outputs": [
        {
          "internalType": "uint256",
          "name": "",
          "type": "uint256"
        }
      ],
      "stateMutability": "nonpayable",
      "type": "function"
    },
    {
      "inputs": [
        {
          "internalType": "uint256",
          "name": "amount",
          "type": "uint256"
        },
        {
          "internalType": "uint256",
          "name": "index",
          "type": "uint256"
        }
      ],
      "name": "withdrawStakePoolTwo",
      "outputs": [
        {
          "internalType": "uint256",
          "name": "",
          "type": "uint256"
        }
      ],
      "stateMutability": "nonpayable",
      "type": "function"
    }
  ],
  "bytecode": "0x6080604052620fd2006005556224ea00600655623a0200600755624f1a0060085561806c600955613171600a55620481ae600b556207865e600c553480156200004757600080fd5b50604051620018e7380380620018e78339810160408190526200006a9162000144565b60016000819055805460ff191690556200008433620000cd565b600e80546001600160a01b03199081163317909155600380546001600160a01b03948516908316179055600480549290931691161790556002805460010181556000526200017b565b600180546001600160a01b03838116610100818102610100600160a81b031985161790945560405193909204169182907f8be0079c531659141344cd1fd0a4f28419497f9722a3daafe3b4186f6b6457e090600090a35050565b80516001600160a01b03811681146200013f57600080fd5b919050565b6000806040838503121562000157578182fd5b620001628362000127565b9150620001726020840162000127565b90509250929050565b61175c806200018b6000396000f3fe608060405234801561001057600080fd5b506004361061012c5760003560e01c806372f702f3116100ad578063bf1e28b011610071578063bf1e28b014610255578063d1af0c7d14610268578063f049badc1461027b578063f08f595e1461028e578063f2fde38b146102a157600080fd5b806372f702f3146101e55780638a175345146102105780638da5cb5b14610219578063ba353afe1461022f578063bcf96b941461024257600080fd5b806348c5ddf1116100f457806348c5ddf1146101a25780634adbfec7146101ab5780635c975abb146101be57806363b39209146101d4578063715018a6146101dd57600080fd5b80630b5aa5a31461013157806318160ddd1461014657806318369bbb1461015d578063247b38911461017057806345bc78ab14610179575b600080fd5b61014461013f3660046114b3565b6102b4565b005b600d545b6040519081526020015b60405180910390f35b61014a61016b3660046114cb565b6104ef565b61014a60085481565b61014a61018736600461146c565b6001600160a01b03166000908152600f602052604090205490565b61014a60075481565b6101446101b93660046114b3565b6107d2565b60015460ff166040519015158152602001610154565b61014a60055481565b6101446108bb565b6004546101f8906001600160a01b031681565b6040516001600160a01b039091168152602001610154565b61014a60065481565b60015461010090046001600160a01b03166101f8565b61014a61023d3660046114cb565b610927565b6101446102503660046114b3565b610a8c565b61014a6102633660046114cb565b610b74565b6003546101f8906001600160a01b031681565b6101446102893660046114b3565b610cd9565b61014a61029c3660046114cb565b610dc1565b6101446102af36600461146c565b610f26565b600260005414156102e05760405162461bcd60e51b81526004016102d790611590565b60405180910390fd5b600260005560015460ff16156103085760405162461bcd60e51b81526004016102d79061153b565b60328110156103515760405162461bcd60e51b8152602060048201526015602482015274043616e6e6f74207374616b652062656c6f7720353605c1b60448201526064016102d7565b6207a1208111156103a45760405162461bcd60e51b815260206004820152601d60248201527f43616e6e6f74207374616b65206d6f7265207468616e2035303030303000000060448201526064016102d7565b600d546103b19082610ff7565b600d55336000908152600f60205260409020546103ce9082610ff7565b336000908152600f602090815260408083209390935560109052205442816103fc576103f93361100a565b91505b6002828154811061041d57634e487b7160e01b600052603260045260246000fd5b6000918252602080832060408051608081018252338082528185018a8152928201888152606083018881526002978802909501600190810180548083018255908a52969098209251600496870290930180546001600160a01b0319166001600160a01b039485161781559351978401979097559551948201949094559051600390910155546104b092911690308661108e565b60405183815233907f9e71bc8eea02a63969f509818f2dafb9254532904319f9dbda79b67bd34a5f3d9060200160405180910390a25050600160005550565b60008083116105105760405162461bcd60e51b81526004016102d790611565565b600d5461051d90846110ff565b600d55336000908152600f602052604090205461053a90846110ff565b336000908152600f60209081526040808320939093556010905290812054600280549192918390811061057d57634e487b7160e01b600052603260045260246000fd5b906000526020600020906002020160010184815481106105ad57634e487b7160e01b600052603260045260246000fd5b600091825260209182902060408051608081018252600490930290910180546001600160a01b03168352600181015493830184905260028101549183019190915260030154606082015291508511156106185760405162461bcd60e51b81526004016102d7906115c7565b600754816040015161062a9190611676565b4210156106495760405162461bcd60e51b81526004016102d790611619565b60006106548261110b565b905085826020015161066691906116cd565b602083018190526106f6576002838154811061069257634e487b7160e01b600052603260045260246000fd5b906000526020600020906002020160010185815481106106c257634e487b7160e01b600052603260045260246000fd5b60009182526020822060049091020180546001600160a01b0319168155600181018290556002810182905560030155610762565b81602001516002848154811061071c57634e487b7160e01b600052603260045260246000fd5b9060005260206000209060020201600101868154811061074c57634e487b7160e01b600052603260045260246000fd5b9060005260206000209060040201600101819055505b600061076e8288611676565b600454909150610788906001600160a01b0316338361114c565b60405187815233907f7084f5476618d8e60b11ef0d7d3f06914655adb8793e28ff7f018d4c76d505d59060200160405180910390a26107c78288611676565b979650505050505050565b600260005414156107f55760405162461bcd60e51b81526004016102d790611590565b600260005560015460ff161561081d5760405162461bcd60e51b81526004016102d79061153b565b61012c8110156108685760405162461bcd60e51b8152602060048201526016602482015275043616e6e6f74207374616b652062656c6f77203330360541b60448201526064016102d7565b620f42408111156103a45760405162461bcd60e51b815260206004820152601e60248201527f43616e6e6f74207374616b65206d6f7265207468616e2031303030303030000060448201526064016102d7565b6001546001600160a01b0361010090910416331461091b5760405162461bcd60e51b815260206004820181905260248201527f4f776e61626c653a2063616c6c6572206973206e6f7420746865206f776e657260448201526064016102d7565b6109256000611181565b565b60008083116109485760405162461bcd60e51b81526004016102d790611565565b600d5461095590846110ff565b600d55336000908152600f602052604090205461097290846110ff565b336000908152600f6020908152604080832093909355601090529081205460028054919291839081106109b557634e487b7160e01b600052603260045260246000fd5b906000526020600020906002020160010184815481106109e557634e487b7160e01b600052603260045260246000fd5b600091825260209182902060408051608081018252600490930290910180546001600160a01b0316835260018101549383018490526002810154918301919091526003015460608201529150851115610a505760405162461bcd60e51b81526004016102d7906115c7565b6008548160400151610a629190611676565b421015610a815760405162461bcd60e51b81526004016102d790611619565b6000610654826111db565b60026000541415610aaf5760405162461bcd60e51b81526004016102d790611590565b600260005560015460ff1615610ad75760405162461bcd60e51b81526004016102d79061153b565b60fa811015610b215760405162461bcd60e51b8152602060048201526016602482015275043616e6e6f74207374616b652062656c6f77203235360541b60448201526064016102d7565b620b71b08111156103a45760405162461bcd60e51b815260206004820152601d60248201527f43616e6e6f74207374616b65206d6f7265207468616e2037353030303000000060448201526064016102d7565b6000808311610b955760405162461bcd60e51b81526004016102d790611565565b600d54610ba290846110ff565b600d55336000908152600f6020526040902054610bbf90846110ff565b336000908152600f602090815260408083209390935560109052908120546002805491929183908110610c0257634e487b7160e01b600052603260045260246000fd5b90600052602060002090600202016001018481548110610c3257634e487b7160e01b600052603260045260246000fd5b600091825260209182902060408051608081018252600490930290910180546001600160a01b0316835260018101549383018490526002810154918301919091526003015460608201529150851115610c9d5760405162461bcd60e51b81526004016102d7906115c7565b6006548160400151610caf9190611676565b421015610cce5760405162461bcd60e51b81526004016102d790611619565b6000610654826111f8565b60026000541415610cfc5760405162461bcd60e51b81526004016102d790611590565b600260005560015460ff1615610d245760405162461bcd60e51b81526004016102d79061153b565b6064811015610d6e5760405162461bcd60e51b8152602060048201526016602482015275043616e6e6f74207374616b652062656c6f77203130360541b60448201526064016102d7565b6207a1208111156103a45760405162461bcd60e51b815260206004820152601d60248201527f43616e6e6f74207374616b65206d6f7265207468616e2036323530303000000060448201526064016102d7565b6000808311610de25760405162461bcd60e51b81526004016102d790611565565b600d54610def90846110ff565b600d55336000908152600f6020526040902054610e0c90846110ff565b336000908152600f602090815260408083209390935560109052908120546002805491929183908110610e4f57634e487b7160e01b600052603260045260246000fd5b90600052602060002090600202016001018481548110610e7f57634e487b7160e01b600052603260045260246000fd5b600091825260209182902060408051608081018252600490930290910180546001600160a01b0316835260018101549383018490526002810154918301919091526003015460608201529150851115610eea5760405162461bcd60e51b81526004016102d7906115c7565b6005548160400151610efc9190611676565b421015610f1b5760405162461bcd60e51b81526004016102d790611619565b600061065482611215565b6001546001600160a01b03610100909104163314610f865760405162461bcd60e51b815260206004820181905260248201527f4f776e61626c653a2063616c6c6572206973206e6f7420746865206f776e657260448201526064016102d7565b6001600160a01b038116610feb5760405162461bcd60e51b815260206004820152602660248201527f4f776e61626c653a206e6577206f776e657220697320746865207a65726f206160448201526564647265737360d01b60648201526084016102d7565b610ff481611181565b50565b60006110038284611676565b9392505050565b60028054600190810180835560009283528291611026916116cd565b9050826002828154811061104a57634e487b7160e01b600052603260045260246000fd5b6000918252602080832060029290920290910180546001600160a01b0319166001600160a01b03948516179055949091168152601090935260409092208290555090565b6040516001600160a01b03808516602483015283166044820152606481018290526110f99085906323b872dd60e01b906084015b60408051601f198184030181529190526020810180516001600160e01b03166001600160e01b031990931692909217909152611232565b50505050565b600061100382846116cd565b6000600b54826020015160075484604001514261112891906116cd565b611132919061168e565b61113c91906116ae565b611146919061168e565b92915050565b6040516001600160a01b03831660248201526044810182905261117c90849063a9059cbb60e01b906064016110c2565b505050565b600180546001600160a01b03838116610100818102610100600160a81b031985161790945560405193909204169182907f8be0079c531659141344cd1fd0a4f28419497f9722a3daafe3b4186f6b6457e090600090a35050565b6000600c54826020015160085484604001514261112891906116cd565b6000600a54826020015160065484604001514261112891906116cd565b6000600954826020015160055484604001514261112891906116cd565b6000611287826040518060400160405280602081526020017f5361666545524332303a206c6f772d6c6576656c2063616c6c206661696c6564815250856001600160a01b03166113049092919063ffffffff16565b80519091501561117c57808060200190518101906112a59190611493565b61117c5760405162461bcd60e51b815260206004820152602a60248201527f5361666545524332303a204552433230206f7065726174696f6e20646964206e6044820152691bdd081cdd58d8d9595960b21b60648201526084016102d7565b6060611313848460008561131b565b949350505050565b60608247101561137c5760405162461bcd60e51b815260206004820152602660248201527f416464726573733a20696e73756666696369656e742062616c616e636520666f6044820152651c8818d85b1b60d21b60648201526084016102d7565b843b6113ca5760405162461bcd60e51b815260206004820152601d60248201527f416464726573733a2063616c6c20746f206e6f6e2d636f6e747261637400000060448201526064016102d7565b600080866001600160a01b031685876040516113e691906114ec565b60006040518083038185875af1925050503d8060008114611423576040519150601f19603f3d011682016040523d82523d6000602084013e611428565b606091505b50915091506107c782828660608315611442575081611003565b8251156114525782518084602001fd5b8160405162461bcd60e51b81526004016102d79190611508565b60006020828403121561147d578081fd5b81356001600160a01b0381168114611003578182fd5b6000602082840312156114a4578081fd5b81518015158114611003578182fd5b6000602082840312156114c4578081fd5b5035919050565b600080604083850312156114dd578081fd5b50508035926020909101359150565b600082516114fe8184602087016116e4565b9190910192915050565b60208152600082518060208401526115278160408501602087016116e4565b601f01601f19169190910160400192915050565b60208082526010908201526f14185d5cd8589b194e881c185d5cd95960821b604082015260600190565b602080825260119082015270043616e6e6f74207769746864726177203607c1b604082015260600190565b6020808252601f908201527f5265656e7472616e637947756172643a207265656e7472616e742063616c6c00604082015260600190565b60208082526032908201527f5374616b696e673a2043616e6e6f74207769746864726177206d6f7265207468604082015271185b881e5bdd481a185d99481cdd185ad95960721b606082015260800190565b6020808252603d908201527f546f6b656e206c6f636b65642e20576169742074696c6c20616674657220726560408201527f7761726473206475726174696f6e20666f72207468697320706f6f6c2e000000606082015260800190565b6000821982111561168957611689611710565b500190565b6000826116a957634e487b7160e01b81526012600452602481fd5b500490565b60008160001904831182151516156116c8576116c8611710565b500290565b6000828210156116df576116df611710565b500390565b60005b838110156116ff5781810151838201526020016116e7565b838111156110f95750506000910152565b634e487b7160e01b600052601160045260246000fdfea2646970667358221220a27898ccb8f72f2c527d45018cbea8047ff7049b7486a350bfc216aad1e40bff64736f6c63430008040033",
  "linkReferences": {},
  "deployedLinkReferences": {}
}