{
  "_format": "hh-sol-artifact-1",
  "contractName": "StakeToken",
  "sourceName": "contracts/StakeToken.sol",
  "abi": [
    {
      "inputs": [
        {
          "internalType": "address",
          "name": "_rewardsToken",
          "type": "address"
        },
        {
          "internalType": "address",
          "name": "_stakingToken",
          "type": "address"
        }
      ],
      "stateMutability": "nonpayable",
      "type": "constructor"
    },
    {
      "anonymous": false,
      "inputs": [
        {
          "indexed": true,
          "internalType": "address",
          "name": "previousOwner",
          "type": "address"
        },
        {
          "indexed": true,
          "internalType": "address",
          "name": "newOwner",
          "type": "address"
        }
      ],
      "name": "OwnershipTransferred",
      "type": "event"
    },
    {
      "anonymous": false,
      "inputs": [
        {
          "indexed": false,
          "internalType": "address",
          "name": "account",
          "type": "address"
        }
      ],
      "name": "Paused",
      "type": "event"
    },
    {
      "anonymous": false,
      "inputs": [
        {
          "indexed": true,
          "internalType": "address",
          "name": "user",
          "type": "address"
        },
        {
          "indexed": false,
          "internalType": "uint256",
          "name": "amount",
          "type": "uint256"
        }
      ],
      "name": "Staked",
      "type": "event"
    },
    {
      "anonymous": false,
      "inputs": [
        {
          "indexed": false,
          "internalType": "address",
          "name": "account",
          "type": "address"
        }
      ],
      "name": "Unpaused",
      "type": "event"
    },
    {
      "anonymous": false,
      "inputs": [
        {
          "indexed": true,
          "internalType": "address",
          "name": "user",
          "type": "address"
        },
        {
          "indexed": false,
          "internalType": "uint256",
          "name": "amount",
          "type": "uint256"
        }
      ],
      "name": "Withdrawn",
      "type": "event"
    },
    {
      "inputs": [],
      "name": "owner",
      "outputs": [
        {
          "internalType": "address",
          "name": "",
          "type": "address"
        }
      ],
      "stateMutability": "view",
      "type": "function"
    },
    {
      "inputs": [],
      "name": "paused",
      "outputs": [
        {
          "internalType": "bool",
          "name": "",
          "type": "bool"
        }
      ],
      "stateMutability": "view",
      "type": "function"
    },
    {
      "inputs": [],
      "name": "renounceOwnership",
      "outputs": [],
      "stateMutability": "nonpayable",
      "type": "function"
    },
    {
      "inputs": [],
      "name": "rewardsDuration",
      "outputs": [
        {
          "internalType": "uint256",
          "name": "",
          "type": "uint256"
        }
      ],
      "stateMutability": "view",
      "type": "function"
    },
    {
      "inputs": [],
      "name": "rewardsToken",
      "outputs": [
        {
          "internalType": "contract IERC20",
          "name": "",
          "type": "address"
        }
      ],
      "stateMutability": "view",
      "type": "function"
    },
    {
      "inputs": [
        {
          "internalType": "uint256",
          "name": "amount",
          "type": "uint256"
        }
      ],
      "name": "stake",
      "outputs": [],
      "stateMutability": "nonpayable",
      "type": "function"
    },
    {
      "inputs": [
        {
          "internalType": "address",
          "name": "account",
          "type": "address"
        }
      ],
      "name": "stakingBalance",
      "outputs": [
        {
          "internalType": "uint256",
          "name": "",
          "type": "uint256"
        }
      ],
      "stateMutability": "view",
      "type": "function"
    },
    {
      "inputs": [],
      "name": "stakingToken",
      "outputs": [
        {
          "internalType": "contract IERC20",
          "name": "",
          "type": "address"
        }
      ],
      "stateMutability": "view",
      "type": "function"
    },
    {
      "inputs": [],
      "name": "totalSupply",
      "outputs": [
        {
          "internalType": "uint256",
          "name": "",
          "type": "uint256"
        }
      ],
      "stateMutability": "view",
      "type": "function"
    },
    {
      "inputs": [
        {
          "internalType": "address",
          "name": "newOwner",
          "type": "address"
        }
      ],
      "name": "transferOwnership",
      "outputs": [],
      "stateMutability": "nonpayable",
      "type": "function"
    },
    {
      "inputs": [
        {
          "internalType": "uint256",
          "name": "amount",
          "type": "uint256"
        },
        {
          "internalType": "uint256",
          "name": "index",
          "type": "uint256"
        }
      ],
      "name": "withdrawStake",
      "outputs": [
        {
          "internalType": "uint256",
          "name": "",
          "type": "uint256"
        }
      ],
      "stateMutability": "nonpayable",
      "type": "function"
    }
  ],
  "bytecode": "0x6080604052607860055561806c60065534801561001b57600080fd5b5060405161103738038061103783398101604081905261003a91610110565b60016000819055805460ff191690556100523361009a565b600880546001600160a01b03199081163317909155600380546001600160a01b0394851690831617905560048054929093169116179055600280546001018155600052610142565b600180546001600160a01b03838116610100818102610100600160a81b031985161790945560405193909204169182907f8be0079c531659141344cd1fd0a4f28419497f9722a3daafe3b4186f6b6457e090600090a35050565b80516001600160a01b038116811461010b57600080fd5b919050565b60008060408385031215610122578182fd5b61012b836100f4565b9150610139602084016100f4565b90509250929050565b610ee6806101516000396000f3fe608060405234801561001057600080fd5b50600436106100a95760003560e01c806372f702f31161007157806372f702f3146101175780638da5cb5b14610142578063a694fc3a14610158578063d1af0c7d1461016b578063f1fdf4691461017e578063f2fde38b1461019157600080fd5b806318160ddd146100ae578063386a9525146100c557806345bc78ab146100ce5780635c975abb146100f7578063715018a61461010d575b600080fd5b6007545b6040519081526020015b60405180910390f35b6100b260055481565b6100b26100dc366004610d31565b6001600160a01b031660009081526009602052604090205490565b60015460ff1660405190151581526020016100bc565b6101156101a4565b005b60045461012a906001600160a01b031681565b6040516001600160a01b0390911681526020016100bc565b60015461010090046001600160a01b031661012a565b610115610166366004610d78565b610215565b60035461012a906001600160a01b031681565b6100b261018c366004610d90565b61049a565b61011561019f366004610d31565b610842565b6001546001600160a01b036101009091041633146102095760405162461bcd60e51b815260206004820181905260248201527f4f776e61626c653a2063616c6c6572206973206e6f7420746865206f776e657260448201526064015b60405180910390fd5b6102136000610913565b565b600260005414156102685760405162461bcd60e51b815260206004820152601f60248201527f5265656e7472616e637947756172643a207265656e7472616e742063616c6c006044820152606401610200565b600260005560015460ff16156102b35760405162461bcd60e51b815260206004820152601060248201526f14185d5cd8589b194e881c185d5cd95960821b6044820152606401610200565b60328110156102fc5760405162461bcd60e51b8152602060048201526015602482015274043616e6e6f74207374616b652062656c6f7720353605c1b6044820152606401610200565b6207a12081111561034f5760405162461bcd60e51b815260206004820152601d60248201527f43616e6e6f74207374616b65206d6f7265207468616e203530303030300000006044820152606401610200565b60075461035c908261096d565b60075533600090815260096020526040902054610379908261096d565b33600090815260096020908152604080832093909355600a9052205442816103a7576103a433610980565b91505b600282815481106103c857634e487b7160e01b600052603260045260246000fd5b6000918252602080832060408051608081018252338082528185018a8152928201888152606083018881526002978802909501600190810180548083018255908a52969098209251600496870290930180546001600160a01b0319166001600160a01b0394851617815593519784019790975595519482019490945590516003909101555461045b929116903086610a04565b60405183815233907f9e71bc8eea02a63969f509818f2dafb9254532904319f9dbda79b67bd34a5f3d9060200160405180910390a25050600160005550565b60008083116104df5760405162461bcd60e51b8152602060048201526011602482015270043616e6e6f74207769746864726177203607c1b6044820152606401610200565b6007546104ec9084610a75565b600755336000908152600960205260409020546105099084610a75565b33600090815260096020908152604080832093909355600a905290812054600280549192918390811061054c57634e487b7160e01b600052603260045260246000fd5b9060005260206000209060020201600101848154811061057c57634e487b7160e01b600052603260045260246000fd5b600091825260209182902060408051608081018252600490930290910180546001600160a01b03168352600181015493830184905260028101549183019190915260030154606082015291508511156106325760405162461bcd60e51b815260206004820152603260248201527f5374616b696e673a2043616e6e6f74207769746864726177206d6f7265207468604482015271185b881e5bdd481a185d99481cdd185ad95960721b6064820152608401610200565b60055481604001516106449190610e00565b4210156106b95760405162461bcd60e51b815260206004820152603d60248201527f546f6b656e206c6f636b65642e20576169742074696c6c20616674657220726560448201527f7761726473206475726174696f6e20666f72207468697320706f6f6c2e0000006064820152608401610200565b60006106c482610a81565b90508582602001516106d69190610e57565b60208301819052610766576002838154811061070257634e487b7160e01b600052603260045260246000fd5b9060005260206000209060020201600101858154811061073257634e487b7160e01b600052603260045260246000fd5b60009182526020822060049091020180546001600160a01b03191681556001810182905560028101829055600301556107d2565b81602001516002848154811061078c57634e487b7160e01b600052603260045260246000fd5b906000526020600020906002020160010186815481106107bc57634e487b7160e01b600052603260045260246000fd5b9060005260206000209060040201600101819055505b60006107de8288610e00565b6004549091506107f8906001600160a01b03163383610ac2565b60405187815233907f7084f5476618d8e60b11ef0d7d3f06914655adb8793e28ff7f018d4c76d505d59060200160405180910390a26108378288610e00565b979650505050505050565b6001546001600160a01b036101009091041633146108a25760405162461bcd60e51b815260206004820181905260248201527f4f776e61626c653a2063616c6c6572206973206e6f7420746865206f776e65726044820152606401610200565b6001600160a01b0381166109075760405162461bcd60e51b815260206004820152602660248201527f4f776e61626c653a206e6577206f776e657220697320746865207a65726f206160448201526564647265737360d01b6064820152608401610200565b61091081610913565b50565b600180546001600160a01b03838116610100818102610100600160a81b031985161790945560405193909204169182907f8be0079c531659141344cd1fd0a4f28419497f9722a3daafe3b4186f6b6457e090600090a35050565b60006109798284610e00565b9392505050565b6002805460019081018083556000928352829161099c91610e57565b905082600282815481106109c057634e487b7160e01b600052603260045260246000fd5b6000918252602080832060029290920290910180546001600160a01b0319166001600160a01b03948516179055949091168152600a90935260409092208290555090565b6040516001600160a01b0380851660248301528316604482015260648101829052610a6f9085906323b872dd60e01b906084015b60408051601f198184030181529190526020810180516001600160e01b03166001600160e01b031990931692909217909152610af7565b50505050565b60006109798284610e57565b60006006548260200151600554846040015142610a9e9190610e57565b610aa89190610e18565b610ab29190610e38565b610abc9190610e18565b92915050565b6040516001600160a01b038316602482015260448101829052610af290849063a9059cbb60e01b90606401610a38565b505050565b6000610b4c826040518060400160405280602081526020017f5361666545524332303a206c6f772d6c6576656c2063616c6c206661696c6564815250856001600160a01b0316610bc99092919063ffffffff16565b805190915015610af25780806020019051810190610b6a9190610d58565b610af25760405162461bcd60e51b815260206004820152602a60248201527f5361666545524332303a204552433230206f7065726174696f6e20646964206e6044820152691bdd081cdd58d8d9595960b21b6064820152608401610200565b6060610bd88484600085610be0565b949350505050565b606082471015610c415760405162461bcd60e51b815260206004820152602660248201527f416464726573733a20696e73756666696369656e742062616c616e636520666f6044820152651c8818d85b1b60d21b6064820152608401610200565b843b610c8f5760405162461bcd60e51b815260206004820152601d60248201527f416464726573733a2063616c6c20746f206e6f6e2d636f6e74726163740000006044820152606401610200565b600080866001600160a01b03168587604051610cab9190610db1565b60006040518083038185875af1925050503d8060008114610ce8576040519150601f19603f3d011682016040523d82523d6000602084013e610ced565b606091505b509150915061083782828660608315610d07575081610979565b825115610d175782518084602001fd5b8160405162461bcd60e51b81526004016102009190610dcd565b600060208284031215610d42578081fd5b81356001600160a01b0381168114610979578182fd5b600060208284031215610d69578081fd5b81518015158114610979578182fd5b600060208284031215610d89578081fd5b5035919050565b60008060408385031215610da2578081fd5b50508035926020909101359150565b60008251610dc3818460208701610e6e565b9190910192915050565b6020815260008251806020840152610dec816040850160208701610e6e565b601f01601f19169190910160400192915050565b60008219821115610e1357610e13610e9a565b500190565b600082610e3357634e487b7160e01b81526012600452602481fd5b500490565b6000816000190483118215151615610e5257610e52610e9a565b500290565b600082821015610e6957610e69610e9a565b500390565b60005b83811015610e89578181015183820152602001610e71565b83811115610a6f5750506000910152565b634e487b7160e01b600052601160045260246000fdfea26469706673582212204e4746ee617ed1d0c387fafa4b9d99ec83cbaed5c1c9e2ad99744aead3162f5864736f6c63430008040033",
  "linkReferences": {},
  "deployedLinkReferences": {}
}