{
  "_format": "hh-sol-artifact-1",
  "contractName": "StakeToken",
  "sourceName": "contracts/StakeToken.sol",
  "abi": [
    {
      "inputs": [
        {
          "internalType": "address",
          "name": "_rewardsToken",
          "type": "address"
        },
        {
          "internalType": "address",
          "name": "_stakingToken",
          "type": "address"
        }
      ],
      "stateMutability": "nonpayable",
      "type": "constructor"
    },
    {
      "anonymous": false,
      "inputs": [
        {
          "indexed": true,
          "internalType": "address",
          "name": "previousOwner",
          "type": "address"
        },
        {
          "indexed": true,
          "internalType": "address",
          "name": "newOwner",
          "type": "address"
        }
      ],
      "name": "OwnershipTransferred",
      "type": "event"
    },
    {
      "anonymous": false,
      "inputs": [
        {
          "indexed": false,
          "internalType": "address",
          "name": "account",
          "type": "address"
        }
      ],
      "name": "Paused",
      "type": "event"
    },
    {
      "anonymous": false,
      "inputs": [
        {
          "indexed": true,
          "internalType": "address",
          "name": "user",
          "type": "address"
        },
        {
          "indexed": false,
          "internalType": "uint256",
          "name": "amount",
          "type": "uint256"
        }
      ],
      "name": "Staked",
      "type": "event"
    },
    {
      "anonymous": false,
      "inputs": [
        {
          "indexed": false,
          "internalType": "address",
          "name": "account",
          "type": "address"
        }
      ],
      "name": "Unpaused",
      "type": "event"
    },
    {
      "anonymous": false,
      "inputs": [
        {
          "indexed": true,
          "internalType": "address",
          "name": "user",
          "type": "address"
        },
        {
          "indexed": false,
          "internalType": "uint256",
          "name": "amount",
          "type": "uint256"
        }
      ],
      "name": "Withdrawn",
      "type": "event"
    },
    {
      "inputs": [],
      "name": "fetchMyStakes",
      "outputs": [
        {
          "components": [
            {
              "internalType": "address",
              "name": "user",
              "type": "address"
            },
            {
              "internalType": "uint256",
              "name": "amount",
              "type": "uint256"
            },
            {
              "internalType": "uint256",
              "name": "since",
              "type": "uint256"
            },
            {
              "internalType": "uint256",
              "name": "claimable",
              "type": "uint256"
            },
            {
              "internalType": "uint256",
              "name": "pool",
              "type": "uint256"
            }
          ],
          "internalType": "struct StakeToken.Stake[]",
          "name": "",
          "type": "tuple[]"
        }
      ],
      "stateMutability": "view",
      "type": "function"
    },
    {
      "inputs": [],
      "name": "owner",
      "outputs": [
        {
          "internalType": "address",
          "name": "",
          "type": "address"
        }
      ],
      "stateMutability": "view",
      "type": "function"
    },
    {
      "inputs": [],
      "name": "paused",
      "outputs": [
        {
          "internalType": "bool",
          "name": "",
          "type": "bool"
        }
      ],
      "stateMutability": "view",
      "type": "function"
    },
    {
      "inputs": [],
      "name": "renounceOwnership",
      "outputs": [],
      "stateMutability": "nonpayable",
      "type": "function"
    },
    {
      "inputs": [],
      "name": "rewardsDurationPoolFour",
      "outputs": [
        {
          "internalType": "uint256",
          "name": "",
          "type": "uint256"
        }
      ],
      "stateMutability": "view",
      "type": "function"
    },
    {
      "inputs": [],
      "name": "rewardsDurationPoolOne",
      "outputs": [
        {
          "internalType": "uint256",
          "name": "",
          "type": "uint256"
        }
      ],
      "stateMutability": "view",
      "type": "function"
    },
    {
      "inputs": [],
      "name": "rewardsDurationPoolThree",
      "outputs": [
        {
          "internalType": "uint256",
          "name": "",
          "type": "uint256"
        }
      ],
      "stateMutability": "view",
      "type": "function"
    },
    {
      "inputs": [],
      "name": "rewardsDurationPoolTwo",
      "outputs": [
        {
          "internalType": "uint256",
          "name": "",
          "type": "uint256"
        }
      ],
      "stateMutability": "view",
      "type": "function"
    },
    {
      "inputs": [],
      "name": "rewardsToken",
      "outputs": [
        {
          "internalType": "contract IERC20",
          "name": "",
          "type": "address"
        }
      ],
      "stateMutability": "view",
      "type": "function"
    },
    {
      "inputs": [
        {
          "internalType": "uint256",
          "name": "amount",
          "type": "uint256"
        }
      ],
      "name": "stakePoolFour",
      "outputs": [],
      "stateMutability": "nonpayable",
      "type": "function"
    },
    {
      "inputs": [
        {
          "internalType": "uint256",
          "name": "amount",
          "type": "uint256"
        }
      ],
      "name": "stakePoolOne",
      "outputs": [],
      "stateMutability": "nonpayable",
      "type": "function"
    },
    {
      "inputs": [
        {
          "internalType": "uint256",
          "name": "amount",
          "type": "uint256"
        }
      ],
      "name": "stakePoolThree",
      "outputs": [],
      "stateMutability": "nonpayable",
      "type": "function"
    },
    {
      "inputs": [
        {
          "internalType": "uint256",
          "name": "amount",
          "type": "uint256"
        }
      ],
      "name": "stakePoolTwo",
      "outputs": [],
      "stateMutability": "nonpayable",
      "type": "function"
    },
    {
      "inputs": [
        {
          "internalType": "address",
          "name": "account",
          "type": "address"
        }
      ],
      "name": "stakingBalance",
      "outputs": [
        {
          "internalType": "uint256",
          "name": "",
          "type": "uint256"
        }
      ],
      "stateMutability": "view",
      "type": "function"
    },
    {
      "inputs": [],
      "name": "stakingToken",
      "outputs": [
        {
          "internalType": "contract IERC20",
          "name": "",
          "type": "address"
        }
      ],
      "stateMutability": "view",
      "type": "function"
    },
    {
      "inputs": [],
      "name": "totalSupply",
      "outputs": [
        {
          "internalType": "uint256",
          "name": "",
          "type": "uint256"
        }
      ],
      "stateMutability": "view",
      "type": "function"
    },
    {
      "inputs": [
        {
          "internalType": "address",
          "name": "newOwner",
          "type": "address"
        }
      ],
      "name": "transferOwnership",
      "outputs": [],
      "stateMutability": "nonpayable",
      "type": "function"
    },
    {
      "inputs": [
        {
          "internalType": "uint256",
          "name": "amount",
          "type": "uint256"
        },
        {
          "internalType": "uint256",
          "name": "index",
          "type": "uint256"
        }
      ],
      "name": "withdrawStakePoolFour",
      "outputs": [
        {
          "internalType": "uint256",
          "name": "",
          "type": "uint256"
        }
      ],
      "stateMutability": "nonpayable",
      "type": "function"
    },
    {
      "inputs": [
        {
          "internalType": "uint256",
          "name": "amount",
          "type": "uint256"
        },
        {
          "internalType": "uint256",
          "name": "index",
          "type": "uint256"
        }
      ],
      "name": "withdrawStakePoolOne",
      "outputs": [
        {
          "internalType": "uint256",
          "name": "",
          "type": "uint256"
        }
      ],
      "stateMutability": "nonpayable",
      "type": "function"
    },
    {
      "inputs": [
        {
          "internalType": "uint256",
          "name": "amount",
          "type": "uint256"
        },
        {
          "internalType": "uint256",
          "name": "index",
          "type": "uint256"
        }
      ],
      "name": "withdrawStakePoolThree",
      "outputs": [
        {
          "internalType": "uint256",
          "name": "",
          "type": "uint256"
        }
      ],
      "stateMutability": "nonpayable",
      "type": "function"
    },
    {
      "inputs": [
        {
          "internalType": "uint256",
          "name": "amount",
          "type": "uint256"
        },
        {
          "internalType": "uint256",
          "name": "index",
          "type": "uint256"
        }
      ],
      "name": "withdrawStakePoolTwo",
      "outputs": [
        {
          "internalType": "uint256",
          "name": "",
          "type": "uint256"
        }
      ],
      "stateMutability": "nonpayable",
      "type": "function"
    }
  ],
  "bytecode": "0x6080604052620fd2006005556224ea00600655623a0200600755624f1a0060085561806c600955613171600a55620481ae600b556207865e600c553480156200004757600080fd5b5060405162002006380380620020068339810160408190526200006a9162000144565b60016000819055805460ff191690556200008433620000cd565b600e80546001600160a01b03199081163317909155600380546001600160a01b03948516908316179055600480549290931691161790556002805460010181556000526200017b565b600180546001600160a01b03838116610100818102610100600160a81b031985161790945560405193909204169182907f8be0079c531659141344cd1fd0a4f28419497f9722a3daafe3b4186f6b6457e090600090a35050565b80516001600160a01b03811681146200013f57600080fd5b919050565b6000806040838503121562000157578182fd5b620001628362000127565b9150620001726020840162000127565b90509250929050565b611e7b806200018b6000396000f3fe608060405234801561001057600080fd5b50600436106101375760003560e01c806372f702f3116100b8578063bf1e28b01161007c578063bf1e28b014610260578063d1af0c7d14610273578063e187f68614610286578063f049badc1461029b578063f08f595e146102ae578063f2fde38b146102c157600080fd5b806372f702f3146101f05780638a1753451461021b5780638da5cb5b14610224578063ba353afe1461023a578063bcf96b941461024d57600080fd5b806348c5ddf1116100ff57806348c5ddf1146101ad5780634adbfec7146101b65780635c975abb146101c957806363b39209146101df578063715018a6146101e857600080fd5b80630b5aa5a31461013c57806318160ddd1461015157806318369bbb14610168578063247b38911461017b57806345bc78ab14610184575b600080fd5b61014f61014a366004611b40565b6102d4565b005b600d545b6040519081526020015b60405180910390f35b610155610176366004611b58565b61052b565b61015560085481565b610155610192366004611af9565b6001600160a01b03166000908152600f602052604090205490565b61015560075481565b61014f6101c4366004611b40565b61081f565b60015460ff16604051901515815260200161015f565b61015560055481565b61014f610a21565b600454610203906001600160a01b031681565b6040516001600160a01b03909116815260200161015f565b61015560065481565b60015461010090046001600160a01b0316610203565b610155610248366004611b58565b610a8d565b61014f61025b366004611b40565b610bfc565b61015561026e366004611b58565b610e00565b600354610203906001600160a01b031681565b61028e610f6f565b60405161015f9190611b95565b61014f6102a9366004611b40565b6110a6565b6101556102bc366004611b58565b6112a8565b61014f6102cf366004611af9565b6115b3565b600260005414156103005760405162461bcd60e51b81526004016102f790611c94565b60405180910390fd5b600260005560015460ff16156103285760405162461bcd60e51b81526004016102f790611c3f565b6802b5e3af16b18800008110156103795760405162461bcd60e51b8152602060048201526015602482015274043616e6e6f74207374616b652062656c6f7720353605c1b60448201526064016102f7565b6969e10de76676d08000008111156103d35760405162461bcd60e51b815260206004820152601d60248201527f43616e6e6f74207374616b65206d6f7265207468616e2035303030303000000060448201526064016102f7565b600d546103e09082611684565b600d55336000908152600f60205260409020546103fd9082611684565b336000908152600f6020908152604080832093909355601090522054428161042b5761042833611697565b91505b6002828154811061044c57634e487b7160e01b600052603260045260246000fd5b600091825260208083206040805160a081018252338082528185018a8152928201888152606083018881526001608085018181526002998a02909701810180548083018255908b52979099209351600590970290930180546001600160a01b0319166001600160a01b03978816178155935197840197909755955194820194909455925160038401555160049283015590546104ec92911690308661171b565b60405183815233907f9e71bc8eea02a63969f509818f2dafb9254532904319f9dbda79b67bd34a5f3d9060200160405180910390a25050600160005550565b600080831161054c5760405162461bcd60e51b81526004016102f790611c69565b600d54610559908461178c565b600d55336000908152600f6020526040902054610576908461178c565b336000908152600f6020908152604080832093909355601090529081205460028054919291839081106105b957634e487b7160e01b600052603260045260246000fd5b906000526020600020906002020160010184815481106105e957634e487b7160e01b600052603260045260246000fd5b60009182526020918290206040805160a081018252600590930290910180546001600160a01b03168352600181015493830184905260028101549183019190915260038101546060830152600401546080820152915085111561065e5760405162461bcd60e51b81526004016102f790611ccb565b60075481604001516106709190611d7a565b42101561068f5760405162461bcd60e51b81526004016102f790611d1d565b600061069a82611798565b90508582602001516106ac9190611dd1565b6020830181905261074357600283815481106106d857634e487b7160e01b600052603260045260246000fd5b9060005260206000209060020201600101858154811061070857634e487b7160e01b600052603260045260246000fd5b60009182526020822060059091020180546001600160a01b0319168155600181018290556002810182905560038101829055600401556107af565b81602001516002848154811061076957634e487b7160e01b600052603260045260246000fd5b9060005260206000209060020201600101868154811061079957634e487b7160e01b600052603260045260246000fd5b9060005260206000209060050201600101819055505b60006107bb8288611d7a565b6004549091506107d5906001600160a01b031633836117d9565b60405187815233907f7084f5476618d8e60b11ef0d7d3f06914655adb8793e28ff7f018d4c76d505d59060200160405180910390a26108148288611d7a565b979650505050505050565b600260005414156108425760405162461bcd60e51b81526004016102f790611c94565b600260005560015460ff161561086a5760405162461bcd60e51b81526004016102f790611c3f565b61012c8110156108b55760405162461bcd60e51b8152602060048201526016602482015275043616e6e6f74207374616b652062656c6f77203330360541b60448201526064016102f7565b620f42408111156109085760405162461bcd60e51b815260206004820152601e60248201527f43616e6e6f74207374616b65206d6f7265207468616e2031303030303030000060448201526064016102f7565b600d546109159082611684565b600d55336000908152600f60205260409020546109329082611684565b336000908152600f602090815260408083209390935560109052205442816109605761095d33611697565b91505b6002828154811061098157634e487b7160e01b600052603260045260246000fd5b600091825260208083206040805160a081018252338082528185018a8152928201888152606083018881526004608085018181526002998a02909701600190810180548083018255908c5298909a209451600590980290940180546001600160a01b0319166001600160a01b0398891617815594519885019890985551958301959095559451600382015590519084015591546104ec921690308661171b565b6001546001600160a01b03610100909104163314610a815760405162461bcd60e51b815260206004820181905260248201527f4f776e61626c653a2063616c6c6572206973206e6f7420746865206f776e657260448201526064016102f7565b610a8b600061180e565b565b6000808311610aae5760405162461bcd60e51b81526004016102f790611c69565b600d54610abb908461178c565b600d55336000908152600f6020526040902054610ad8908461178c565b336000908152600f602090815260408083209390935560109052908120546002805491929183908110610b1b57634e487b7160e01b600052603260045260246000fd5b90600052602060002090600202016001018481548110610b4b57634e487b7160e01b600052603260045260246000fd5b60009182526020918290206040805160a081018252600590930290910180546001600160a01b031683526001810154938301849052600281015491830191909152600381015460608301526004015460808201529150851115610bc05760405162461bcd60e51b81526004016102f790611ccb565b6008548160400151610bd29190611d7a565b421015610bf15760405162461bcd60e51b81526004016102f790611d1d565b600061069a82611868565b60026000541415610c1f5760405162461bcd60e51b81526004016102f790611c94565b600260005560015460ff1615610c475760405162461bcd60e51b81526004016102f790611c3f565b60fa811015610c915760405162461bcd60e51b8152602060048201526016602482015275043616e6e6f74207374616b652062656c6f77203235360541b60448201526064016102f7565b620b71b0811115610ce45760405162461bcd60e51b815260206004820152601d60248201527f43616e6e6f74207374616b65206d6f7265207468616e2037353030303000000060448201526064016102f7565b600d54610cf19082611684565b600d55336000908152600f6020526040902054610d0e9082611684565b336000908152600f60209081526040808320939093556010905220544281610d3c57610d3933611697565b91505b60028281548110610d5d57634e487b7160e01b600052603260045260246000fd5b600091825260208083206040805160a081018252338082528185018a8152928201888152606083018881526003608085018181526002998a02909701600190810180548083018255908c5298909a209451600590980290940180546001600160a01b0319166001600160a01b0398891617815594519885019890985551958301959095559451948101949094555160049384015591546104ec921690308661171b565b6000808311610e215760405162461bcd60e51b81526004016102f790611c69565b600d54610e2e908461178c565b600d55336000908152600f6020526040902054610e4b908461178c565b336000908152600f602090815260408083209390935560109052908120546002805491929183908110610e8e57634e487b7160e01b600052603260045260246000fd5b90600052602060002090600202016001018481548110610ebe57634e487b7160e01b600052603260045260246000fd5b60009182526020918290206040805160a081018252600590930290910180546001600160a01b031683526001810154938301849052600281015491830191909152600381015460608301526004015460808201529150851115610f335760405162461bcd60e51b81526004016102f790611ccb565b6006548160400151610f459190611d7a565b421015610f645760405162461bcd60e51b81526004016102f790611d1d565b600061069a82611885565b606060005b6002548110156110a257336001600160a01b031660028281548110610fa957634e487b7160e01b600052603260045260246000fd5b60009182526020909120600290910201546001600160a01b0316141561109057600060028281548110610fec57634e487b7160e01b600052603260045260246000fd5b9060005260206000209060020201600101805480602002602001604051908101604052809291908181526020016000905b828210156110845760008481526020908190206040805160a0810182526005860290920180546001600160a01b031683526001808201548486015260028201549284019290925260038101546060840152600401546080830152908352909201910161101d565b50929695505050505050565b8061109a81611e14565b915050610f74565b5090565b600260005414156110c95760405162461bcd60e51b81526004016102f790611c94565b600260005560015460ff16156110f15760405162461bcd60e51b81526004016102f790611c3f565b606481101561113b5760405162461bcd60e51b8152602060048201526016602482015275043616e6e6f74207374616b652062656c6f77203130360541b60448201526064016102f7565b6207a12081111561118e5760405162461bcd60e51b815260206004820152601d60248201527f43616e6e6f74207374616b65206d6f7265207468616e2036323530303000000060448201526064016102f7565b600d5461119b9082611684565b600d55336000908152600f60205260409020546111b89082611684565b336000908152600f602090815260408083209390935560109052205442816111e6576111e333611697565b91505b6002828154811061120757634e487b7160e01b600052603260045260246000fd5b600091825260208083206040805160a081018252338082528185018a815292820188815260608301888152600260808501818152600199820290970189018054808b018255908b52979099209351600590970290930180546001600160a01b039788166001600160a01b0319909116178155935196840196909655945195820195909555935160038501555160049384015591546104ec921690308661171b565b6000806112bd670de0b6b3a764000085611d92565b9050600084116112df5760405162461bcd60e51b81526004016102f790611c69565b600d546112ec908261178c565b600d55336000908152600f6020526040902054611309908261178c565b336000908152600f60209081526040808320939093556010905290812054600280549192918390811061134c57634e487b7160e01b600052603260045260246000fd5b9060005260206000209060020201600101858154811061137c57634e487b7160e01b600052603260045260246000fd5b60009182526020918290206040805160a081018252600590930290910180546001600160a01b0316835260018101549383018490526002810154918301919091526003810154606083015260040154608082015291508311156113f15760405162461bcd60e51b81526004016102f790611ccb565b60055481604001516114039190611d7a565b4210156114225760405162461bcd60e51b81526004016102f790611d1d565b600061142d826118a2565b905083826020015161143f9190611dd1565b602083018190526114d6576002838154811061146b57634e487b7160e01b600052603260045260246000fd5b9060005260206000209060020201600101868154811061149b57634e487b7160e01b600052603260045260246000fd5b60009182526020822060059091020180546001600160a01b031916815560018101829055600281018290556003810182905560040155611542565b8160200151600284815481106114fc57634e487b7160e01b600052603260045260246000fd5b9060005260206000209060020201600101878154811061152c57634e487b7160e01b600052603260045260246000fd5b9060005260206000209060050201600101819055505b600061154e8286611d7a565b600454909150611568906001600160a01b031633836117d9565b60405185815233907f7084f5476618d8e60b11ef0d7d3f06914655adb8793e28ff7f018d4c76d505d59060200160405180910390a26115a78289611d7a565b98975050505050505050565b6001546001600160a01b036101009091041633146116135760405162461bcd60e51b815260206004820181905260248201527f4f776e61626c653a2063616c6c6572206973206e6f7420746865206f776e657260448201526064016102f7565b6001600160a01b0381166116785760405162461bcd60e51b815260206004820152602660248201527f4f776e61626c653a206e6577206f776e657220697320746865207a65726f206160448201526564647265737360d01b60648201526084016102f7565b6116818161180e565b50565b60006116908284611d7a565b9392505050565b600280546001908101808355600092835282916116b391611dd1565b905082600282815481106116d757634e487b7160e01b600052603260045260246000fd5b6000918252602080832060029290920290910180546001600160a01b0319166001600160a01b03948516179055949091168152601090935260409092208290555090565b6040516001600160a01b03808516602483015283166044820152606481018290526117869085906323b872dd60e01b906084015b60408051601f198184030181529190526020810180516001600160e01b03166001600160e01b0319909316929092179091526118bf565b50505050565b60006116908284611dd1565b6000600b5482602001516007548460400151426117b59190611dd1565b6117bf9190611d92565b6117c99190611db2565b6117d39190611d92565b92915050565b6040516001600160a01b03831660248201526044810182905261180990849063a9059cbb60e01b9060640161174f565b505050565b600180546001600160a01b03838116610100818102610100600160a81b031985161790945560405193909204169182907f8be0079c531659141344cd1fd0a4f28419497f9722a3daafe3b4186f6b6457e090600090a35050565b6000600c5482602001516008548460400151426117b59190611dd1565b6000600a5482602001516006548460400151426117b59190611dd1565b600060095482602001516005548460400151426117b59190611dd1565b6000611914826040518060400160405280602081526020017f5361666545524332303a206c6f772d6c6576656c2063616c6c206661696c6564815250856001600160a01b03166119919092919063ffffffff16565b80519091501561180957808060200190518101906119329190611b20565b6118095760405162461bcd60e51b815260206004820152602a60248201527f5361666545524332303a204552433230206f7065726174696f6e20646964206e6044820152691bdd081cdd58d8d9595960b21b60648201526084016102f7565b60606119a084846000856119a8565b949350505050565b606082471015611a095760405162461bcd60e51b815260206004820152602660248201527f416464726573733a20696e73756666696369656e742062616c616e636520666f6044820152651c8818d85b1b60d21b60648201526084016102f7565b843b611a575760405162461bcd60e51b815260206004820152601d60248201527f416464726573733a2063616c6c20746f206e6f6e2d636f6e747261637400000060448201526064016102f7565b600080866001600160a01b03168587604051611a739190611b79565b60006040518083038185875af1925050503d8060008114611ab0576040519150601f19603f3d011682016040523d82523d6000602084013e611ab5565b606091505b509150915061081482828660608315611acf575081611690565b825115611adf5782518084602001fd5b8160405162461bcd60e51b81526004016102f79190611c0c565b600060208284031215611b0a578081fd5b81356001600160a01b0381168114611690578182fd5b600060208284031215611b31578081fd5b81518015158114611690578182fd5b600060208284031215611b51578081fd5b5035919050565b60008060408385031215611b6a578081fd5b50508035926020909101359150565b60008251611b8b818460208701611de8565b9190910192915050565b602080825282518282018190526000919060409081850190868401855b82811015611bff57815180516001600160a01b0316855286810151878601528581015186860152606080820151908601526080908101519085015260a09093019290850190600101611bb2565b5091979650505050505050565b6020815260008251806020840152611c2b816040850160208701611de8565b601f01601f19169190910160400192915050565b60208082526010908201526f14185d5cd8589b194e881c185d5cd95960821b604082015260600190565b602080825260119082015270043616e6e6f74207769746864726177203607c1b604082015260600190565b6020808252601f908201527f5265656e7472616e637947756172643a207265656e7472616e742063616c6c00604082015260600190565b60208082526032908201527f5374616b696e673a2043616e6e6f74207769746864726177206d6f7265207468604082015271185b881e5bdd481a185d99481cdd185ad95960721b606082015260800190565b6020808252603d908201527f546f6b656e206c6f636b65642e20576169742074696c6c20616674657220726560408201527f7761726473206475726174696f6e20666f72207468697320706f6f6c2e000000606082015260800190565b60008219821115611d8d57611d8d611e2f565b500190565b600082611dad57634e487b7160e01b81526012600452602481fd5b500490565b6000816000190483118215151615611dcc57611dcc611e2f565b500290565b600082821015611de357611de3611e2f565b500390565b60005b83811015611e03578181015183820152602001611deb565b838111156117865750506000910152565b6000600019821415611e2857611e28611e2f565b5060010190565b634e487b7160e01b600052601160045260246000fdfea2646970667358221220ed21b3e170be28b4e103bd883edde431fefc8cceda0b1b72b5ccc7e51b7358c164736f6c63430008040033",
  "linkReferences": {},
  "deployedLinkReferences": {}
}