{
  "_format": "hh-sol-artifact-1",
  "contractName": "StakeToken",
  "sourceName": "contracts/StakeToken.sol",
  "abi": [
    {
      "inputs": [
        {
          "internalType": "address",
          "name": "_rewardsToken",
          "type": "address"
        },
        {
          "internalType": "address",
          "name": "_stakingToken",
          "type": "address"
        }
      ],
      "stateMutability": "nonpayable",
      "type": "constructor"
    },
    {
      "anonymous": false,
      "inputs": [
        {
          "indexed": true,
          "internalType": "address",
          "name": "previousOwner",
          "type": "address"
        },
        {
          "indexed": true,
          "internalType": "address",
          "name": "newOwner",
          "type": "address"
        }
      ],
      "name": "OwnershipTransferred",
      "type": "event"
    },
    {
      "anonymous": false,
      "inputs": [
        {
          "indexed": false,
          "internalType": "address",
          "name": "account",
          "type": "address"
        }
      ],
      "name": "Paused",
      "type": "event"
    },
    {
      "anonymous": false,
      "inputs": [
        {
          "indexed": true,
          "internalType": "address",
          "name": "user",
          "type": "address"
        },
        {
          "indexed": false,
          "internalType": "uint256",
          "name": "amount",
          "type": "uint256"
        }
      ],
      "name": "Staked",
      "type": "event"
    },
    {
      "anonymous": false,
      "inputs": [
        {
          "indexed": false,
          "internalType": "address",
          "name": "account",
          "type": "address"
        }
      ],
      "name": "Unpaused",
      "type": "event"
    },
    {
      "anonymous": false,
      "inputs": [
        {
          "indexed": true,
          "internalType": "address",
          "name": "user",
          "type": "address"
        },
        {
          "indexed": false,
          "internalType": "uint256",
          "name": "amount",
          "type": "uint256"
        }
      ],
      "name": "Withdrawn",
      "type": "event"
    },
    {
      "inputs": [
        {
          "internalType": "uint256",
          "name": "_amount",
          "type": "uint256"
        }
      ],
      "name": "TokenWithdraw",
      "outputs": [],
      "stateMutability": "nonpayable",
      "type": "function"
    },
    {
      "inputs": [],
      "name": "fetchMyStakes",
      "outputs": [
        {
          "components": [
            {
              "internalType": "address",
              "name": "user",
              "type": "address"
            },
            {
              "internalType": "uint256",
              "name": "amount",
              "type": "uint256"
            },
            {
              "internalType": "uint256",
              "name": "since",
              "type": "uint256"
            },
            {
              "internalType": "uint256",
              "name": "claimable",
              "type": "uint256"
            },
            {
              "internalType": "uint256",
              "name": "pool",
              "type": "uint256"
            }
          ],
          "internalType": "struct StakeToken.Stake[]",
          "name": "",
          "type": "tuple[]"
        }
      ],
      "stateMutability": "view",
      "type": "function"
    },
    {
      "inputs": [],
      "name": "owner",
      "outputs": [
        {
          "internalType": "address",
          "name": "",
          "type": "address"
        }
      ],
      "stateMutability": "view",
      "type": "function"
    },
    {
      "inputs": [],
      "name": "paused",
      "outputs": [
        {
          "internalType": "bool",
          "name": "",
          "type": "bool"
        }
      ],
      "stateMutability": "view",
      "type": "function"
    },
    {
      "inputs": [],
      "name": "renounceOwnership",
      "outputs": [],
      "stateMutability": "nonpayable",
      "type": "function"
    },
    {
      "inputs": [],
      "name": "rewardsDurationPoolFour",
      "outputs": [
        {
          "internalType": "uint256",
          "name": "",
          "type": "uint256"
        }
      ],
      "stateMutability": "view",
      "type": "function"
    },
    {
      "inputs": [],
      "name": "rewardsDurationPoolOne",
      "outputs": [
        {
          "internalType": "uint256",
          "name": "",
          "type": "uint256"
        }
      ],
      "stateMutability": "view",
      "type": "function"
    },
    {
      "inputs": [],
      "name": "rewardsDurationPoolThree",
      "outputs": [
        {
          "internalType": "uint256",
          "name": "",
          "type": "uint256"
        }
      ],
      "stateMutability": "view",
      "type": "function"
    },
    {
      "inputs": [],
      "name": "rewardsDurationPoolTwo",
      "outputs": [
        {
          "internalType": "uint256",
          "name": "",
          "type": "uint256"
        }
      ],
      "stateMutability": "view",
      "type": "function"
    },
    {
      "inputs": [],
      "name": "rewardsToken",
      "outputs": [
        {
          "internalType": "contract IERC20",
          "name": "",
          "type": "address"
        }
      ],
      "stateMutability": "view",
      "type": "function"
    },
    {
      "inputs": [
        {
          "internalType": "uint256",
          "name": "amount",
          "type": "uint256"
        }
      ],
      "name": "stakePoolFour",
      "outputs": [],
      "stateMutability": "nonpayable",
      "type": "function"
    },
    {
      "inputs": [
        {
          "internalType": "uint256",
          "name": "amount",
          "type": "uint256"
        }
      ],
      "name": "stakePoolOne",
      "outputs": [],
      "stateMutability": "nonpayable",
      "type": "function"
    },
    {
      "inputs": [
        {
          "internalType": "uint256",
          "name": "amount",
          "type": "uint256"
        }
      ],
      "name": "stakePoolThree",
      "outputs": [],
      "stateMutability": "nonpayable",
      "type": "function"
    },
    {
      "inputs": [
        {
          "internalType": "uint256",
          "name": "amount",
          "type": "uint256"
        }
      ],
      "name": "stakePoolTwo",
      "outputs": [],
      "stateMutability": "nonpayable",
      "type": "function"
    },
    {
      "inputs": [
        {
          "internalType": "address",
          "name": "account",
          "type": "address"
        }
      ],
      "name": "stakingBalance",
      "outputs": [
        {
          "internalType": "uint256",
          "name": "",
          "type": "uint256"
        }
      ],
      "stateMutability": "view",
      "type": "function"
    },
    {
      "inputs": [],
      "name": "stakingToken",
      "outputs": [
        {
          "internalType": "contract IERC20",
          "name": "",
          "type": "address"
        }
      ],
      "stateMutability": "view",
      "type": "function"
    },
    {
      "inputs": [],
      "name": "totalSupply",
      "outputs": [
        {
          "internalType": "uint256",
          "name": "",
          "type": "uint256"
        }
      ],
      "stateMutability": "view",
      "type": "function"
    },
    {
      "inputs": [
        {
          "internalType": "address",
          "name": "newOwner",
          "type": "address"
        }
      ],
      "name": "transferOwnership",
      "outputs": [],
      "stateMutability": "nonpayable",
      "type": "function"
    },
    {
      "inputs": [
        {
          "internalType": "uint256",
          "name": "amount",
          "type": "uint256"
        },
        {
          "internalType": "uint256",
          "name": "index",
          "type": "uint256"
        }
      ],
      "name": "withdrawStakePoolFour",
      "outputs": [
        {
          "internalType": "uint256",
          "name": "",
          "type": "uint256"
        }
      ],
      "stateMutability": "nonpayable",
      "type": "function"
    },
    {
      "inputs": [
        {
          "internalType": "uint256",
          "name": "amount",
          "type": "uint256"
        },
        {
          "internalType": "uint256",
          "name": "index",
          "type": "uint256"
        }
      ],
      "name": "withdrawStakePoolOne",
      "outputs": [
        {
          "internalType": "uint256",
          "name": "",
          "type": "uint256"
        }
      ],
      "stateMutability": "nonpayable",
      "type": "function"
    },
    {
      "inputs": [
        {
          "internalType": "uint256",
          "name": "amount",
          "type": "uint256"
        },
        {
          "internalType": "uint256",
          "name": "index",
          "type": "uint256"
        }
      ],
      "name": "withdrawStakePoolThree",
      "outputs": [
        {
          "internalType": "uint256",
          "name": "",
          "type": "uint256"
        }
      ],
      "stateMutability": "nonpayable",
      "type": "function"
    },
    {
      "inputs": [
        {
          "internalType": "uint256",
          "name": "amount",
          "type": "uint256"
        },
        {
          "internalType": "uint256",
          "name": "index",
          "type": "uint256"
        }
      ],
      "name": "withdrawStakePoolTwo",
      "outputs": [
        {
          "internalType": "uint256",
          "name": "",
          "type": "uint256"
        }
      ],
      "stateMutability": "nonpayable",
      "type": "function"
    }
  ],
  "bytecode": "0x60806040526078600555607860065560786007556078600855601e6009556008600a556003600b556002600c553480156200003957600080fd5b506040516200205d3803806200205d8339810160408190526200005c9162000136565b60016000819055805460ff191690556200007633620000bf565b600e80546001600160a01b03199081163317909155600380546001600160a01b03948516908316179055600480549290931691161790556002805460010181556000526200016d565b600180546001600160a01b03838116610100818102610100600160a81b031985161790945560405193909204169182907f8be0079c531659141344cd1fd0a4f28419497f9722a3daafe3b4186f6b6457e090600090a35050565b80516001600160a01b03811681146200013157600080fd5b919050565b6000806040838503121562000149578182fd5b620001548362000119565b9150620001646020840162000119565b90509250929050565b611ee0806200017d6000396000f3fe608060405234801561001057600080fd5b50600436106101425760003560e01c806372f702f3116100b8578063bf1e28b01161007c578063bf1e28b01461027e578063d1af0c7d14610291578063e187f686146102a4578063f049badc146102b9578063f08f595e146102cc578063f2fde38b146102df57600080fd5b806372f702f31461020e5780638a175345146102395780638da5cb5b14610242578063ba353afe14610258578063bcf96b941461026b57600080fd5b806345bc78ab1161010a57806345bc78ab146101a257806348c5ddf1146101cb5780634adbfec7146101d45780635c975abb146101e757806363b39209146101fd578063715018a61461020657600080fd5b80630b5aa5a31461014757806318160ddd1461015c57806318369bbb14610173578063247b3891146101865780633267ae1d1461018f575b600080fd5b61015a610155366004611b70565b6102f2565b005b600d545b6040519081526020015b60405180910390f35b610160610181366004611b88565b610549565b61016060085481565b61015a61019d366004611b70565b610849565b6101606101b0366004611b29565b6001600160a01b03166000908152600f602052604090205490565b61016060075481565b61015a6101e2366004611b70565b610907565b60015460ff16604051901515815260200161016a565b61016060055481565b61015a610b17565b600454610221906001600160a01b031681565b6040516001600160a01b03909116815260200161016a565b61016060065481565b60015461010090046001600160a01b0316610221565b610160610266366004611b88565b610b53565b61015a610279366004611b70565b610cc2565b61016061028c366004611b88565b610ed5565b600354610221906001600160a01b031681565b6102ac611044565b60405161016a9190611bc5565b61015a6102c7366004611b70565b61117b565b6101606102da366004611b88565b61138c565b61015a6102ed366004611b29565b61161c565b6002600054141561031e5760405162461bcd60e51b815260040161031590611cf9565b60405180910390fd5b600260005560015460ff16156103465760405162461bcd60e51b815260040161031590611c6f565b6802b5e3af16b18800008110156103975760405162461bcd60e51b8152602060048201526015602482015274043616e6e6f74207374616b652062656c6f7720353605c1b6044820152606401610315565b6969e10de76676d08000008111156103f15760405162461bcd60e51b815260206004820152601d60248201527f43616e6e6f74207374616b65206d6f7265207468616e203530303030300000006044820152606401610315565b600d546103fe90826116bd565b600d55336000908152600f602052604090205461041b90826116bd565b336000908152600f6020908152604080832093909355601090522054428161044957610446336116d0565b91505b6002828154811061046a57634e487b7160e01b600052603260045260246000fd5b600091825260208083206040805160a081018252338082528185018a8152928201888152606083018881526001608085018181526002998a02909701810180548083018255908b52979099209351600590970290930180546001600160a01b0319166001600160a01b039788161781559351978401979097559551948201949094559251600384015551600492830155905461050a929116903086611754565b60405183815233907f9e71bc8eea02a63969f509818f2dafb9254532904319f9dbda79b67bd34a5f3d9060200160405180910390a25050600160005550565b600080831161056a5760405162461bcd60e51b815260040161031590611c99565b600d5461057790846117c5565b600d55336000908152600f602052604090205461059490846117c5565b336000908152600f6020908152604080832093909355601090529081205460028054919291839081106105d757634e487b7160e01b600052603260045260246000fd5b9060005260206000209060020201600101848154811061060757634e487b7160e01b600052603260045260246000fd5b60009182526020918290206040805160a081018252600590930290910180546001600160a01b03168352600181015493830184905260028101549183019190915260038101546060830152600401546080820152915085111561067c5760405162461bcd60e51b815260040161031590611d30565b600754816040015161068e9190611ddf565b4210156106ad5760405162461bcd60e51b815260040161031590611d82565b60006106b8826117d1565b90508582602001516106ca9190611e36565b6020830181905261076157600283815481106106f657634e487b7160e01b600052603260045260246000fd5b9060005260206000209060020201600101858154811061072657634e487b7160e01b600052603260045260246000fd5b60009182526020822060059091020180546001600160a01b0319168155600181018290556002810182905560038101829055600401556107cd565b81602001516002848154811061078757634e487b7160e01b600052603260045260246000fd5b906000526020600020906002020160010186815481106107b757634e487b7160e01b600052603260045260246000fd5b9060005260206000209060050201600101819055505b60006107d98288611ddf565b6107e5906103e8611e17565b6004549091506107ff906001600160a01b03163383611812565b60405187815233907f7084f5476618d8e60b11ef0d7d3f06914655adb8793e28ff7f018d4c76d505d59060200160405180910390a261083e8288611ddf565b979650505050505050565b6001546001600160a01b036101009091041633146108795760405162461bcd60e51b815260040161031590611cc4565b60048054600e5460405163a9059cbb60e01b81526001600160a01b039182169381019390935260248301849052169063a9059cbb90604401602060405180830381600087803b1580156108cb57600080fd5b505af11580156108df573d6000803e3d6000fd5b505050506040513d601f19601f820116820180604052508101906109039190611b50565b5050565b6002600054141561092a5760405162461bcd60e51b815260040161031590611cf9565b600260005560015460ff16156109525760405162461bcd60e51b815260040161031590611c6f565b681043561a88293000008110156109a45760405162461bcd60e51b8152602060048201526016602482015275043616e6e6f74207374616b652062656c6f77203330360541b6044820152606401610315565b69d3c21bcecceda10000008111156109fe5760405162461bcd60e51b815260206004820152601e60248201527f43616e6e6f74207374616b65206d6f7265207468616e203130303030303000006044820152606401610315565b600d54610a0b90826116bd565b600d55336000908152600f6020526040902054610a2890826116bd565b336000908152600f60209081526040808320939093556010905220544281610a5657610a53336116d0565b91505b60028281548110610a7757634e487b7160e01b600052603260045260246000fd5b600091825260208083206040805160a081018252338082528185018a8152928201888152606083018881526004608085018181526002998a02909701600190810180548083018255908c5298909a209451600590980290940180546001600160a01b0319166001600160a01b03988916178155945198850198909855519583019590955594516003820155905190840155915461050a9216903086611754565b6001546001600160a01b03610100909104163314610b475760405162461bcd60e51b815260040161031590611cc4565b610b516000611847565b565b6000808311610b745760405162461bcd60e51b815260040161031590611c99565b600d54610b8190846117c5565b600d55336000908152600f6020526040902054610b9e90846117c5565b336000908152600f602090815260408083209390935560109052908120546002805491929183908110610be157634e487b7160e01b600052603260045260246000fd5b90600052602060002090600202016001018481548110610c1157634e487b7160e01b600052603260045260246000fd5b60009182526020918290206040805160a081018252600590930290910180546001600160a01b031683526001810154938301849052600281015491830191909152600381015460608301526004015460808201529150851115610c865760405162461bcd60e51b815260040161031590611d30565b6008548160400151610c989190611ddf565b421015610cb75760405162461bcd60e51b815260040161031590611d82565b60006106b8826118a1565b60026000541415610ce55760405162461bcd60e51b815260040161031590611cf9565b600260005560015460ff1615610d0d5760405162461bcd60e51b815260040161031590611c6f565b680d8d726b7177a80000811015610d5f5760405162461bcd60e51b8152602060048201526016602482015275043616e6e6f74207374616b652062656c6f77203235360541b6044820152606401610315565b699ed194db19b238c00000811115610db95760405162461bcd60e51b815260206004820152601d60248201527f43616e6e6f74207374616b65206d6f7265207468616e203735303030300000006044820152606401610315565b600d54610dc690826116bd565b600d55336000908152600f6020526040902054610de390826116bd565b336000908152600f60209081526040808320939093556010905220544281610e1157610e0e336116d0565b91505b60028281548110610e3257634e487b7160e01b600052603260045260246000fd5b600091825260208083206040805160a081018252338082528185018a8152928201888152606083018881526003608085018181526002998a02909701600190810180548083018255908c5298909a209451600590980290940180546001600160a01b0319166001600160a01b03988916178155945198850198909855519583019590955594519481019490945551600493840155915461050a9216903086611754565b6000808311610ef65760405162461bcd60e51b815260040161031590611c99565b600d54610f0390846117c5565b600d55336000908152600f6020526040902054610f2090846117c5565b336000908152600f602090815260408083209390935560109052908120546002805491929183908110610f6357634e487b7160e01b600052603260045260246000fd5b90600052602060002090600202016001018481548110610f9357634e487b7160e01b600052603260045260246000fd5b60009182526020918290206040805160a081018252600590930290910180546001600160a01b0316835260018101549383018490526002810154918301919091526003810154606083015260040154608082015291508511156110085760405162461bcd60e51b815260040161031590611d30565b600654816040015161101a9190611ddf565b4210156110395760405162461bcd60e51b815260040161031590611d82565b60006106b8826118be565b606060005b60025481101561117757336001600160a01b03166002828154811061107e57634e487b7160e01b600052603260045260246000fd5b60009182526020909120600290910201546001600160a01b03161415611165576000600282815481106110c157634e487b7160e01b600052603260045260246000fd5b9060005260206000209060020201600101805480602002602001604051908101604052809291908181526020016000905b828210156111595760008481526020908190206040805160a0810182526005860290920180546001600160a01b03168352600180820154848601526002820154928401929092526003810154606084015260040154608083015290835290920191016110f2565b50929695505050505050565b8061116f81611e79565b915050611049565b5090565b6002600054141561119e5760405162461bcd60e51b815260040161031590611cf9565b600260005560015460ff16156111c65760405162461bcd60e51b815260040161031590611c6f565b68056bc75e2d631000008110156112185760405162461bcd60e51b8152602060048201526016602482015275043616e6e6f74207374616b652062656c6f77203130360541b6044820152606401610315565b6984595161401484a000008111156112725760405162461bcd60e51b815260206004820152601d60248201527f43616e6e6f74207374616b65206d6f7265207468616e203632353030300000006044820152606401610315565b600d5461127f90826116bd565b600d55336000908152600f602052604090205461129c90826116bd565b336000908152600f602090815260408083209390935560109052205442816112ca576112c7336116d0565b91505b600282815481106112eb57634e487b7160e01b600052603260045260246000fd5b600091825260208083206040805160a081018252338082528185018a815292820188815260608301888152600260808501818152600199820290970189018054808b018255908b52979099209351600590970290930180546001600160a01b039788166001600160a01b03199091161781559351968401969096559451958201959095559351600385015551600493840155915461050a9216903086611754565b60008083116113ad5760405162461bcd60e51b815260040161031590611c99565b600d546113ba90846117c5565b600d55336000908152600f60205260409020546113d790846117c5565b336000908152600f60209081526040808320939093556010905290812054600280549192918390811061141a57634e487b7160e01b600052603260045260246000fd5b9060005260206000209060020201600101848154811061144a57634e487b7160e01b600052603260045260246000fd5b60009182526020918290206040805160a081018252600590930290910180546001600160a01b0316835260018101549383018490526002810154918301919091526003810154606083015260040154608082015291508511156114bf5760405162461bcd60e51b815260040161031590611d30565b60055481604001516114d19190611ddf565b4210156114f05760405162461bcd60e51b815260040161031590611d82565b60006114fb826118db565b905085826020015161150d9190611e36565b602083018190526115a4576002838154811061153957634e487b7160e01b600052603260045260246000fd5b9060005260206000209060020201600101858154811061156957634e487b7160e01b600052603260045260246000fd5b60009182526020822060059091020180546001600160a01b031916815560018101829055600281018290556003810182905560040155611610565b8160200151600284815481106115ca57634e487b7160e01b600052603260045260246000fd5b906000526020600020906002020160010186815481106115fa57634e487b7160e01b600052603260045260246000fd5b9060005260206000209060050201600101819055505b60006107e58288611ddf565b6001546001600160a01b0361010090910416331461164c5760405162461bcd60e51b815260040161031590611cc4565b6001600160a01b0381166116b15760405162461bcd60e51b815260206004820152602660248201527f4f776e61626c653a206e6577206f776e657220697320746865207a65726f206160448201526564647265737360d01b6064820152608401610315565b6116ba81611847565b50565b60006116c98284611ddf565b9392505050565b600280546001908101808355600092835282916116ec91611e36565b9050826002828154811061171057634e487b7160e01b600052603260045260246000fd5b6000918252602080832060029290920290910180546001600160a01b0319166001600160a01b03948516179055949091168152601090935260409092208290555090565b6040516001600160a01b03808516602483015283166044820152606481018290526117bf9085906323b872dd60e01b906084015b60408051601f198184030181529190526020810180516001600160e01b03166001600160e01b0319909316929092179091526118ef565b50505050565b60006116c98284611e36565b6000600b5482602001516007548460400151426117ee9190611e36565b6117f89190611df7565b6118029190611e17565b61180c9190611df7565b92915050565b6040516001600160a01b03831660248201526044810182905261184290849063a9059cbb60e01b90606401611788565b505050565b600180546001600160a01b03838116610100818102610100600160a81b031985161790945560405193909204169182907f8be0079c531659141344cd1fd0a4f28419497f9722a3daafe3b4186f6b6457e090600090a35050565b6000600c5482602001516008548460400151426117ee9190611e36565b6000600a5482602001516006548460400151426117ee9190611e36565b6000600954826020015161180c9190611df7565b6000611944826040518060400160405280602081526020017f5361666545524332303a206c6f772d6c6576656c2063616c6c206661696c6564815250856001600160a01b03166119c19092919063ffffffff16565b80519091501561184257808060200190518101906119629190611b50565b6118425760405162461bcd60e51b815260206004820152602a60248201527f5361666545524332303a204552433230206f7065726174696f6e20646964206e6044820152691bdd081cdd58d8d9595960b21b6064820152608401610315565b60606119d084846000856119d8565b949350505050565b606082471015611a395760405162461bcd60e51b815260206004820152602660248201527f416464726573733a20696e73756666696369656e742062616c616e636520666f6044820152651c8818d85b1b60d21b6064820152608401610315565b843b611a875760405162461bcd60e51b815260206004820152601d60248201527f416464726573733a2063616c6c20746f206e6f6e2d636f6e74726163740000006044820152606401610315565b600080866001600160a01b03168587604051611aa39190611ba9565b60006040518083038185875af1925050503d8060008114611ae0576040519150601f19603f3d011682016040523d82523d6000602084013e611ae5565b606091505b509150915061083e82828660608315611aff5750816116c9565b825115611b0f5782518084602001fd5b8160405162461bcd60e51b81526004016103159190611c3c565b600060208284031215611b3a578081fd5b81356001600160a01b03811681146116c9578182fd5b600060208284031215611b61578081fd5b815180151581146116c9578182fd5b600060208284031215611b81578081fd5b5035919050565b60008060408385031215611b9a578081fd5b50508035926020909101359150565b60008251611bbb818460208701611e4d565b9190910192915050565b602080825282518282018190526000919060409081850190868401855b82811015611c2f57815180516001600160a01b0316855286810151878601528581015186860152606080820151908601526080908101519085015260a09093019290850190600101611be2565b5091979650505050505050565b6020815260008251806020840152611c5b816040850160208701611e4d565b601f01601f19169190910160400192915050565b60208082526010908201526f14185d5cd8589b194e881c185d5cd95960821b604082015260600190565b602080825260119082015270043616e6e6f74207769746864726177203607c1b604082015260600190565b6020808252818101527f4f776e61626c653a2063616c6c6572206973206e6f7420746865206f776e6572604082015260600190565b6020808252601f908201527f5265656e7472616e637947756172643a207265656e7472616e742063616c6c00604082015260600190565b60208082526032908201527f5374616b696e673a2043616e6e6f74207769746864726177206d6f7265207468604082015271185b881e5bdd481a185d99481cdd185ad95960721b606082015260800190565b6020808252603d908201527f546f6b656e206c6f636b65642e20576169742074696c6c20616674657220726560408201527f7761726473206475726174696f6e20666f72207468697320706f6f6c2e000000606082015260800190565b60008219821115611df257611df2611e94565b500190565b600082611e1257634e487b7160e01b81526012600452602481fd5b500490565b6000816000190483118215151615611e3157611e31611e94565b500290565b600082821015611e4857611e48611e94565b500390565b60005b83811015611e68578181015183820152602001611e50565b838111156117bf5750506000910152565b6000600019821415611e8d57611e8d611e94565b5060010190565b634e487b7160e01b600052601160045260246000fdfea26469706673582212209567c492e468563cdf50917421f74849651bb8555bc83ddab03627a2288d255464736f6c63430008040033",
  "linkReferences": {},
  "deployedLinkReferences": {}
}