{
  "_format": "hh-sol-artifact-1",
  "contractName": "StakeToken",
  "sourceName": "contracts/StakeToken.sol",
  "abi": [
    {
      "inputs": [
        {
          "internalType": "address",
          "name": "_rewardsToken",
          "type": "address"
        },
        {
          "internalType": "address",
          "name": "_stakingToken",
          "type": "address"
        }
      ],
      "stateMutability": "nonpayable",
      "type": "constructor"
    },
    {
      "anonymous": false,
      "inputs": [
        {
          "indexed": true,
          "internalType": "address",
          "name": "previousOwner",
          "type": "address"
        },
        {
          "indexed": true,
          "internalType": "address",
          "name": "newOwner",
          "type": "address"
        }
      ],
      "name": "OwnershipTransferred",
      "type": "event"
    },
    {
      "anonymous": false,
      "inputs": [
        {
          "indexed": false,
          "internalType": "address",
          "name": "account",
          "type": "address"
        }
      ],
      "name": "Paused",
      "type": "event"
    },
    {
      "anonymous": false,
      "inputs": [
        {
          "indexed": true,
          "internalType": "address",
          "name": "user",
          "type": "address"
        },
        {
          "indexed": false,
          "internalType": "uint256",
          "name": "amount",
          "type": "uint256"
        }
      ],
      "name": "Staked",
      "type": "event"
    },
    {
      "anonymous": false,
      "inputs": [
        {
          "indexed": false,
          "internalType": "address",
          "name": "account",
          "type": "address"
        }
      ],
      "name": "Unpaused",
      "type": "event"
    },
    {
      "anonymous": false,
      "inputs": [
        {
          "indexed": true,
          "internalType": "address",
          "name": "user",
          "type": "address"
        },
        {
          "indexed": false,
          "internalType": "uint256",
          "name": "amount",
          "type": "uint256"
        }
      ],
      "name": "Withdrawn",
      "type": "event"
    },
    {
      "inputs": [],
      "name": "owner",
      "outputs": [
        {
          "internalType": "address",
          "name": "",
          "type": "address"
        }
      ],
      "stateMutability": "view",
      "type": "function"
    },
    {
      "inputs": [],
      "name": "paused",
      "outputs": [
        {
          "internalType": "bool",
          "name": "",
          "type": "bool"
        }
      ],
      "stateMutability": "view",
      "type": "function"
    },
    {
      "inputs": [],
      "name": "renounceOwnership",
      "outputs": [],
      "stateMutability": "nonpayable",
      "type": "function"
    },
    {
      "inputs": [],
      "name": "rewardsDuration",
      "outputs": [
        {
          "internalType": "uint256",
          "name": "",
          "type": "uint256"
        }
      ],
      "stateMutability": "view",
      "type": "function"
    },
    {
      "inputs": [],
      "name": "rewardsToken",
      "outputs": [
        {
          "internalType": "contract IERC20",
          "name": "",
          "type": "address"
        }
      ],
      "stateMutability": "view",
      "type": "function"
    },
    {
      "inputs": [
        {
          "internalType": "uint256",
          "name": "amount",
          "type": "uint256"
        }
      ],
      "name": "stake",
      "outputs": [],
      "stateMutability": "payable",
      "type": "function"
    },
    {
      "inputs": [
        {
          "internalType": "address",
          "name": "account",
          "type": "address"
        }
      ],
      "name": "stakingBalance",
      "outputs": [
        {
          "internalType": "uint256",
          "name": "",
          "type": "uint256"
        }
      ],
      "stateMutability": "view",
      "type": "function"
    },
    {
      "inputs": [],
      "name": "stakingToken",
      "outputs": [
        {
          "internalType": "contract IERC20",
          "name": "",
          "type": "address"
        }
      ],
      "stateMutability": "view",
      "type": "function"
    },
    {
      "inputs": [],
      "name": "totalSupply",
      "outputs": [
        {
          "internalType": "uint256",
          "name": "",
          "type": "uint256"
        }
      ],
      "stateMutability": "view",
      "type": "function"
    },
    {
      "inputs": [
        {
          "internalType": "address",
          "name": "newOwner",
          "type": "address"
        }
      ],
      "name": "transferOwnership",
      "outputs": [],
      "stateMutability": "nonpayable",
      "type": "function"
    },
    {
      "inputs": [
        {
          "internalType": "uint256",
          "name": "amount",
          "type": "uint256"
        },
        {
          "internalType": "uint256",
          "name": "index",
          "type": "uint256"
        }
      ],
      "name": "withdrawStake",
      "outputs": [
        {
          "internalType": "uint256",
          "name": "",
          "type": "uint256"
        }
      ],
      "stateMutability": "nonpayable",
      "type": "function"
    }
  ],
  "bytecode": "0x6080604052607860055561806c60065534801561001b57600080fd5b506040516110ac3803806110ac83398101604081905261003a91610110565b60016000819055805460ff191690556100523361009a565b600880546001600160a01b03199081163317909155600380546001600160a01b0394851690831617905560048054929093169116179055600280546001018155600052610142565b600180546001600160a01b03838116610100818102610100600160a81b031985161790945560405193909204169182907f8be0079c531659141344cd1fd0a4f28419497f9722a3daafe3b4186f6b6457e090600090a35050565b80516001600160a01b038116811461010b57600080fd5b919050565b60008060408385031215610122578182fd5b61012b836100f4565b9150610139602084016100f4565b90509250929050565b610f5b806101516000396000f3fe60806040526004361061009c5760003560e01c806372f702f31161006457806372f702f31461014b5780638da5cb5b14610183578063a694fc3a146101a6578063d1af0c7d146101b9578063f1fdf469146101d9578063f2fde38b146101f957600080fd5b806318160ddd146100a1578063386a9525146100c557806345bc78ab146100db5780635c975abb14610111578063715018a614610134575b600080fd5b3480156100ad57600080fd5b506007545b6040519081526020015b60405180910390f35b3480156100d157600080fd5b506100b260055481565b3480156100e757600080fd5b506100b26100f6366004610da6565b6001600160a01b031660009081526009602052604090205490565b34801561011d57600080fd5b5060015460ff1660405190151581526020016100bc565b34801561014057600080fd5b50610149610219565b005b34801561015757600080fd5b5060045461016b906001600160a01b031681565b6040516001600160a01b0390911681526020016100bc565b34801561018f57600080fd5b5060015461010090046001600160a01b031661016b565b6101496101b4366004610ded565b61028a565b3480156101c557600080fd5b5060035461016b906001600160a01b031681565b3480156101e557600080fd5b506100b26101f4366004610e05565b61050f565b34801561020557600080fd5b50610149610214366004610da6565b6108b7565b6001546001600160a01b0361010090910416331461027e5760405162461bcd60e51b815260206004820181905260248201527f4f776e61626c653a2063616c6c6572206973206e6f7420746865206f776e657260448201526064015b60405180910390fd5b6102886000610988565b565b600260005414156102dd5760405162461bcd60e51b815260206004820152601f60248201527f5265656e7472616e637947756172643a207265656e7472616e742063616c6c006044820152606401610275565b600260005560015460ff16156103285760405162461bcd60e51b815260206004820152601060248201526f14185d5cd8589b194e881c185d5cd95960821b6044820152606401610275565b60328110156103715760405162461bcd60e51b8152602060048201526015602482015274043616e6e6f74207374616b652062656c6f7720353605c1b6044820152606401610275565b6207a1208111156103c45760405162461bcd60e51b815260206004820152601d60248201527f43616e6e6f74207374616b65206d6f7265207468616e203530303030300000006044820152606401610275565b6007546103d190826109e2565b600755336000908152600960205260409020546103ee90826109e2565b33600090815260096020908152604080832093909355600a90522054428161041c57610419336109f5565b91505b6002828154811061043d57634e487b7160e01b600052603260045260246000fd5b6000918252602080832060408051608081018252338082528185018a8152928201888152606083018881526002978802909501600190810180548083018255908a52969098209251600496870290930180546001600160a01b0319166001600160a01b039485161781559351978401979097559551948201949094559051600390910155546104d0929116903086610a79565b60405183815233907f9e71bc8eea02a63969f509818f2dafb9254532904319f9dbda79b67bd34a5f3d9060200160405180910390a25050600160005550565b60008083116105545760405162461bcd60e51b8152602060048201526011602482015270043616e6e6f74207769746864726177203607c1b6044820152606401610275565b6007546105619084610aea565b6007553360009081526009602052604090205461057e9084610aea565b33600090815260096020908152604080832093909355600a90529081205460028054919291839081106105c157634e487b7160e01b600052603260045260246000fd5b906000526020600020906002020160010184815481106105f157634e487b7160e01b600052603260045260246000fd5b600091825260209182902060408051608081018252600490930290910180546001600160a01b03168352600181015493830184905260028101549183019190915260030154606082015291508511156106a75760405162461bcd60e51b815260206004820152603260248201527f5374616b696e673a2043616e6e6f74207769746864726177206d6f7265207468604482015271185b881e5bdd481a185d99481cdd185ad95960721b6064820152608401610275565b60055481604001516106b99190610e75565b42101561072e5760405162461bcd60e51b815260206004820152603d60248201527f546f6b656e206c6f636b65642e20576169742074696c6c20616674657220726560448201527f7761726473206475726174696f6e20666f72207468697320706f6f6c2e0000006064820152608401610275565b600061073982610af6565b905085826020015161074b9190610ecc565b602083018190526107db576002838154811061077757634e487b7160e01b600052603260045260246000fd5b906000526020600020906002020160010185815481106107a757634e487b7160e01b600052603260045260246000fd5b60009182526020822060049091020180546001600160a01b0319168155600181018290556002810182905560030155610847565b81602001516002848154811061080157634e487b7160e01b600052603260045260246000fd5b9060005260206000209060020201600101868154811061083157634e487b7160e01b600052603260045260246000fd5b9060005260206000209060040201600101819055505b60006108538288610e75565b60045490915061086d906001600160a01b03163383610b37565b60405187815233907f7084f5476618d8e60b11ef0d7d3f06914655adb8793e28ff7f018d4c76d505d59060200160405180910390a26108ac8288610e75565b979650505050505050565b6001546001600160a01b036101009091041633146109175760405162461bcd60e51b815260206004820181905260248201527f4f776e61626c653a2063616c6c6572206973206e6f7420746865206f776e65726044820152606401610275565b6001600160a01b03811661097c5760405162461bcd60e51b815260206004820152602660248201527f4f776e61626c653a206e6577206f776e657220697320746865207a65726f206160448201526564647265737360d01b6064820152608401610275565b61098581610988565b50565b600180546001600160a01b03838116610100818102610100600160a81b031985161790945560405193909204169182907f8be0079c531659141344cd1fd0a4f28419497f9722a3daafe3b4186f6b6457e090600090a35050565b60006109ee8284610e75565b9392505050565b60028054600190810180835560009283528291610a1191610ecc565b90508260028281548110610a3557634e487b7160e01b600052603260045260246000fd5b6000918252602080832060029290920290910180546001600160a01b0319166001600160a01b03948516179055949091168152600a90935260409092208290555090565b6040516001600160a01b0380851660248301528316604482015260648101829052610ae49085906323b872dd60e01b906084015b60408051601f198184030181529190526020810180516001600160e01b03166001600160e01b031990931692909217909152610b6c565b50505050565b60006109ee8284610ecc565b60006006548260200151600554846040015142610b139190610ecc565b610b1d9190610e8d565b610b279190610ead565b610b319190610e8d565b92915050565b6040516001600160a01b038316602482015260448101829052610b6790849063a9059cbb60e01b90606401610aad565b505050565b6000610bc1826040518060400160405280602081526020017f5361666545524332303a206c6f772d6c6576656c2063616c6c206661696c6564815250856001600160a01b0316610c3e9092919063ffffffff16565b805190915015610b675780806020019051810190610bdf9190610dcd565b610b675760405162461bcd60e51b815260206004820152602a60248201527f5361666545524332303a204552433230206f7065726174696f6e20646964206e6044820152691bdd081cdd58d8d9595960b21b6064820152608401610275565b6060610c4d8484600085610c55565b949350505050565b606082471015610cb65760405162461bcd60e51b815260206004820152602660248201527f416464726573733a20696e73756666696369656e742062616c616e636520666f6044820152651c8818d85b1b60d21b6064820152608401610275565b843b610d045760405162461bcd60e51b815260206004820152601d60248201527f416464726573733a2063616c6c20746f206e6f6e2d636f6e74726163740000006044820152606401610275565b600080866001600160a01b03168587604051610d209190610e26565b60006040518083038185875af1925050503d8060008114610d5d576040519150601f19603f3d011682016040523d82523d6000602084013e610d62565b606091505b50915091506108ac82828660608315610d7c5750816109ee565b825115610d8c5782518084602001fd5b8160405162461bcd60e51b81526004016102759190610e42565b600060208284031215610db7578081fd5b81356001600160a01b03811681146109ee578182fd5b600060208284031215610dde578081fd5b815180151581146109ee578182fd5b600060208284031215610dfe578081fd5b5035919050565b60008060408385031215610e17578081fd5b50508035926020909101359150565b60008251610e38818460208701610ee3565b9190910192915050565b6020815260008251806020840152610e61816040850160208701610ee3565b601f01601f19169190910160400192915050565b60008219821115610e8857610e88610f0f565b500190565b600082610ea857634e487b7160e01b81526012600452602481fd5b500490565b6000816000190483118215151615610ec757610ec7610f0f565b500290565b600082821015610ede57610ede610f0f565b500390565b60005b83811015610efe578181015183820152602001610ee6565b83811115610ae45750506000910152565b634e487b7160e01b600052601160045260246000fdfea264697066735822122011f81707c09e342449fb59d33aed1717982067f01fbd4643662e144fc897dd0964736f6c63430008040033",
  "linkReferences": {},
  "deployedLinkReferences": {}
}