{
  "_format": "hh-sol-artifact-1",
  "contractName": "CTRAIN",
  "sourceName": "contracts/Ctrain.sol",
  "abi": [
    {
      "inputs": [
        {
          "internalType": "address",
          "name": "marketplaceAddress",
          "type": "address"
        },
        {
          "internalType": "address",
          "name": "_token",
          "type": "address"
        },
        {
          "internalType": "address",
          "name": "_reserve",
          "type": "address"
        }
      ],
      "stateMutability": "nonpayable",
      "type": "constructor"
    },
    {
      "anonymous": false,
      "inputs": [
        {
          "indexed": true,
          "internalType": "address",
          "name": "owner",
          "type": "address"
        },
        {
          "indexed": true,
          "internalType": "address",
          "name": "approved",
          "type": "address"
        },
        {
          "indexed": true,
          "internalType": "uint256",
          "name": "tokenId",
          "type": "uint256"
        }
      ],
      "name": "Approval",
      "type": "event"
    },
    {
      "anonymous": false,
      "inputs": [
        {
          "indexed": true,
          "internalType": "address",
          "name": "owner",
          "type": "address"
        },
        {
          "indexed": true,
          "internalType": "address",
          "name": "operator",
          "type": "address"
        },
        {
          "indexed": false,
          "internalType": "bool",
          "name": "approved",
          "type": "bool"
        }
      ],
      "name": "ApprovalForAll",
      "type": "event"
    },
    {
      "anonymous": false,
      "inputs": [
        {
          "indexed": false,
          "internalType": "address",
          "name": "account",
          "type": "address"
        }
      ],
      "name": "Paused",
      "type": "event"
    },
    {
      "anonymous": false,
      "inputs": [
        {
          "indexed": false,
          "internalType": "address",
          "name": "_sender",
          "type": "address"
        },
        {
          "indexed": false,
          "internalType": "address",
          "name": "_receiver",
          "type": "address"
        },
        {
          "indexed": false,
          "internalType": "uint256",
          "name": "_id",
          "type": "uint256"
        }
      ],
      "name": "RestrictedTransfer",
      "type": "event"
    },
    {
      "anonymous": false,
      "inputs": [
        {
          "indexed": true,
          "internalType": "address",
          "name": "from",
          "type": "address"
        },
        {
          "indexed": true,
          "internalType": "address",
          "name": "to",
          "type": "address"
        },
        {
          "indexed": true,
          "internalType": "uint256",
          "name": "tokenId",
          "type": "uint256"
        }
      ],
      "name": "Transfer",
      "type": "event"
    },
    {
      "anonymous": false,
      "inputs": [
        {
          "indexed": false,
          "internalType": "address",
          "name": "account",
          "type": "address"
        }
      ],
      "name": "Unpaused",
      "type": "event"
    },
    {
      "inputs": [
        {
          "internalType": "uint256",
          "name": "_amount",
          "type": "uint256"
        }
      ],
      "name": "TokenWithdraw",
      "outputs": [],
      "stateMutability": "nonpayable",
      "type": "function"
    },
    {
      "inputs": [],
      "name": "allWhitelistedAddresses",
      "outputs": [
        {
          "internalType": "address[]",
          "name": "",
          "type": "address[]"
        }
      ],
      "stateMutability": "view",
      "type": "function"
    },
    {
      "inputs": [
        {
          "internalType": "address",
          "name": "to",
          "type": "address"
        },
        {
          "internalType": "uint256",
          "name": "tokenId",
          "type": "uint256"
        }
      ],
      "name": "approve",
      "outputs": [],
      "stateMutability": "nonpayable",
      "type": "function"
    },
    {
      "inputs": [
        {
          "internalType": "address",
          "name": "owner",
          "type": "address"
        }
      ],
      "name": "balanceOf",
      "outputs": [
        {
          "internalType": "uint256",
          "name": "",
          "type": "uint256"
        }
      ],
      "stateMutability": "view",
      "type": "function"
    },
    {
      "inputs": [
        {
          "internalType": "uint256",
          "name": "_mintAmount",
          "type": "uint256"
        }
      ],
      "name": "createToken",
      "outputs": [],
      "stateMutability": "nonpayable",
      "type": "function"
    },
    {
      "inputs": [
        {
          "internalType": "uint256",
          "name": "tokenId",
          "type": "uint256"
        }
      ],
      "name": "getApproved",
      "outputs": [
        {
          "internalType": "address",
          "name": "",
          "type": "address"
        }
      ],
      "stateMutability": "view",
      "type": "function"
    },
    {
      "inputs": [
        {
          "internalType": "address",
          "name": "_owner",
          "type": "address"
        }
      ],
      "name": "getOwnerTrains",
      "outputs": [
        {
          "components": [
            {
              "internalType": "uint256",
              "name": "id",
              "type": "uint256"
            },
            {
              "internalType": "uint8",
              "name": "level",
              "type": "uint8"
            },
            {
              "internalType": "uint8",
              "name": "rarity",
              "type": "uint8"
            },
            {
              "internalType": "bool",
              "name": "fuel",
              "type": "bool"
            },
            {
              "internalType": "uint8",
              "name": "acceleration",
              "type": "uint8"
            },
            {
              "internalType": "uint8",
              "name": "speed",
              "type": "uint8"
            },
            {
              "internalType": "uint8",
              "name": "brakes",
              "type": "uint8"
            },
            {
              "internalType": "uint8",
              "name": "loads",
              "type": "uint8"
            }
          ],
          "internalType": "struct CTRAIN.Train[]",
          "name": "",
          "type": "tuple[]"
        }
      ],
      "stateMutability": "view",
      "type": "function"
    },
    {
      "inputs": [],
      "name": "getTrains",
      "outputs": [
        {
          "components": [
            {
              "internalType": "uint256",
              "name": "id",
              "type": "uint256"
            },
            {
              "internalType": "uint8",
              "name": "level",
              "type": "uint8"
            },
            {
              "internalType": "uint8",
              "name": "rarity",
              "type": "uint8"
            },
            {
              "internalType": "bool",
              "name": "fuel",
              "type": "bool"
            },
            {
              "internalType": "uint8",
              "name": "acceleration",
              "type": "uint8"
            },
            {
              "internalType": "uint8",
              "name": "speed",
              "type": "uint8"
            },
            {
              "internalType": "uint8",
              "name": "brakes",
              "type": "uint8"
            },
            {
              "internalType": "uint8",
              "name": "loads",
              "type": "uint8"
            }
          ],
          "internalType": "struct CTRAIN.Train[]",
          "name": "",
          "type": "tuple[]"
        }
      ],
      "stateMutability": "view",
      "type": "function"
    },
    {
      "inputs": [
        {
          "internalType": "address",
          "name": "owner",
          "type": "address"
        },
        {
          "internalType": "address",
          "name": "operator",
          "type": "address"
        }
      ],
      "name": "isApprovedForAll",
      "outputs": [
        {
          "internalType": "bool",
          "name": "",
          "type": "bool"
        }
      ],
      "stateMutability": "view",
      "type": "function"
    },
    {
      "inputs": [
        {
          "internalType": "address",
          "name": "_user",
          "type": "address"
        }
      ],
      "name": "isWhitelisted",
      "outputs": [
        {
          "internalType": "bool",
          "name": "",
          "type": "bool"
        }
      ],
      "stateMutability": "view",
      "type": "function"
    },
    {
      "inputs": [],
      "name": "name",
      "outputs": [
        {
          "internalType": "string",
          "name": "",
          "type": "string"
        }
      ],
      "stateMutability": "view",
      "type": "function"
    },
    {
      "inputs": [],
      "name": "nftPerAddressLimit",
      "outputs": [
        {
          "internalType": "uint256",
          "name": "",
          "type": "uint256"
        }
      ],
      "stateMutability": "view",
      "type": "function"
    },
    {
      "inputs": [
        {
          "internalType": "uint256",
          "name": "tokenId",
          "type": "uint256"
        }
      ],
      "name": "ownerOf",
      "outputs": [
        {
          "internalType": "address",
          "name": "",
          "type": "address"
        }
      ],
      "stateMutability": "view",
      "type": "function"
    },
    {
      "inputs": [],
      "name": "pause",
      "outputs": [],
      "stateMutability": "nonpayable",
      "type": "function"
    },
    {
      "inputs": [],
      "name": "paused",
      "outputs": [
        {
          "internalType": "bool",
          "name": "",
          "type": "bool"
        }
      ],
      "stateMutability": "view",
      "type": "function"
    },
    {
      "inputs": [],
      "name": "reserveAddress",
      "outputs": [
        {
          "internalType": "address",
          "name": "",
          "type": "address"
        }
      ],
      "stateMutability": "view",
      "type": "function"
    },
    {
      "inputs": [
        {
          "internalType": "address",
          "name": "from",
          "type": "address"
        },
        {
          "internalType": "address",
          "name": "to",
          "type": "address"
        },
        {
          "internalType": "uint256",
          "name": "tokenId",
          "type": "uint256"
        }
      ],
      "name": "safeTransferFrom",
      "outputs": [],
      "stateMutability": "nonpayable",
      "type": "function"
    },
    {
      "inputs": [
        {
          "internalType": "address",
          "name": "from",
          "type": "address"
        },
        {
          "internalType": "address",
          "name": "to",
          "type": "address"
        },
        {
          "internalType": "uint256",
          "name": "tokenId",
          "type": "uint256"
        },
        {
          "internalType": "bytes",
          "name": "_data",
          "type": "bytes"
        }
      ],
      "name": "safeTransferFrom",
      "outputs": [],
      "stateMutability": "nonpayable",
      "type": "function"
    },
    {
      "inputs": [
        {
          "internalType": "address",
          "name": "operator",
          "type": "address"
        },
        {
          "internalType": "bool",
          "name": "approved",
          "type": "bool"
        }
      ],
      "name": "setApprovalForAll",
      "outputs": [],
      "stateMutability": "nonpayable",
      "type": "function"
    },
    {
      "inputs": [
        {
          "internalType": "uint256",
          "name": "_limit",
          "type": "uint256"
        }
      ],
      "name": "setNftPerAddressLimit",
      "outputs": [],
      "stateMutability": "nonpayable",
      "type": "function"
    },
    {
      "inputs": [
        {
          "internalType": "bytes4",
          "name": "interfaceId",
          "type": "bytes4"
        }
      ],
      "name": "supportsInterface",
      "outputs": [
        {
          "internalType": "bool",
          "name": "",
          "type": "bool"
        }
      ],
      "stateMutability": "view",
      "type": "function"
    },
    {
      "inputs": [],
      "name": "symbol",
      "outputs": [
        {
          "internalType": "string",
          "name": "",
          "type": "string"
        }
      ],
      "stateMutability": "view",
      "type": "function"
    },
    {
      "inputs": [],
      "name": "tokenAddress",
      "outputs": [
        {
          "internalType": "contract IERC20",
          "name": "",
          "type": "address"
        }
      ],
      "stateMutability": "view",
      "type": "function"
    },
    {
      "inputs": [
        {
          "internalType": "uint256",
          "name": "tokenId",
          "type": "uint256"
        }
      ],
      "name": "tokenURI",
      "outputs": [
        {
          "internalType": "string",
          "name": "",
          "type": "string"
        }
      ],
      "stateMutability": "view",
      "type": "function"
    },
    {
      "inputs": [],
      "name": "totalPresaleSupply",
      "outputs": [
        {
          "internalType": "uint256",
          "name": "",
          "type": "uint256"
        }
      ],
      "stateMutability": "view",
      "type": "function"
    },
    {
      "inputs": [
        {
          "internalType": "uint256",
          "name": "",
          "type": "uint256"
        }
      ],
      "name": "trains",
      "outputs": [
        {
          "internalType": "uint256",
          "name": "id",
          "type": "uint256"
        },
        {
          "internalType": "uint8",
          "name": "level",
          "type": "uint8"
        },
        {
          "internalType": "uint8",
          "name": "rarity",
          "type": "uint8"
        },
        {
          "internalType": "bool",
          "name": "fuel",
          "type": "bool"
        },
        {
          "internalType": "uint8",
          "name": "acceleration",
          "type": "uint8"
        },
        {
          "internalType": "uint8",
          "name": "speed",
          "type": "uint8"
        },
        {
          "internalType": "uint8",
          "name": "brakes",
          "type": "uint8"
        },
        {
          "internalType": "uint8",
          "name": "loads",
          "type": "uint8"
        }
      ],
      "stateMutability": "view",
      "type": "function"
    },
    {
      "inputs": [
        {
          "internalType": "address",
          "name": "from",
          "type": "address"
        },
        {
          "internalType": "address",
          "name": "to",
          "type": "address"
        },
        {
          "internalType": "uint256",
          "name": "tokenId",
          "type": "uint256"
        }
      ],
      "name": "transferFrom",
      "outputs": [],
      "stateMutability": "nonpayable",
      "type": "function"
    },
    {
      "inputs": [],
      "name": "unpause",
      "outputs": [],
      "stateMutability": "nonpayable",
      "type": "function"
    },
    {
      "inputs": [
        {
          "internalType": "address[]",
          "name": "_users",
          "type": "address[]"
        }
      ],
      "name": "whitelistUsers",
      "outputs": [],
      "stateMutability": "nonpayable",
      "type": "function"
    },
    {
      "inputs": [],
      "name": "withdrawBNB",
      "outputs": [],
      "stateMutability": "payable",
      "type": "function"
    }
  ],
  "bytecode": "0x6080604052600a600b55610bb8600c553480156200001c57600080fd5b5060405162002abf38038062002abf8339810160408190526200003f91620001c0565b604080518082018252600681526531ba3930b4b760d11b60208083019182528351808501909452600384526231ba3960e91b9084015281519192916200008891600091620000fd565b5080516200009e906001906020840190620000fd565b50506007805460ff1916905550600a80546001600160a01b03199081163317909155600980546001600160a01b03958616908316179055600d805493851693821693909317909255600e80549190931691161790554260125562000246565b8280546200010b9062000209565b90600052602060002090601f0160209004810192826200012f57600085556200017a565b82601f106200014a57805160ff19168380011785556200017a565b828001600101855582156200017a579182015b828111156200017a5782518255916020019190600101906200015d565b50620001889291506200018c565b5090565b5b808211156200018857600081556001016200018d565b80516001600160a01b0381168114620001bb57600080fd5b919050565b600080600060608486031215620001d5578283fd5b620001e084620001a3565b9250620001f060208501620001a3565b91506200020060408501620001a3565b90509250925092565b600181811c908216806200021e57607f821691505b602082108114156200024057634e487b7160e01b600052602260045260246000fd5b50919050565b61286980620002566000396000f3fe6080604052600436106101cd5760003560e01c80636352211e116100f7578063b88d4fde11610095578063e985e9c511610064578063e985e9c514610541578063edec5f271461058a578063f779acbb146105aa578063f79ed94b146105cc57600080fd5b8063b88d4fde146104cb578063ba7d2c76146104eb578063c87b56dd14610501578063d0eb26b01461052157600080fd5b806395d89b41116100d157806395d89b41146104565780639cf278e81461046b5780639d76ea581461048b578063a22cb465146104ab57600080fd5b80636352211e1461040157806370a08231146104215780638456cb591461044157600080fd5b80632d571cc41161016f57806342842e0e1161013e57806342842e0e146103425780634f153fe814610362578063598c68b1146103815780635c975abb146103e957600080fd5b80632d571cc4146102cd5780633267ae1d146102ed5780633af32abf1461030d5780633f4ba83a1461032d57600080fd5b8063095ea7b3116101ab578063095ea7b31461026157806319ae037b146102835780631d111d13146102a557806323b872dd146102ad57600080fd5b806301ffc9a7146101d257806306fdde0314610207578063081812fc14610229575b600080fd5b3480156101de57600080fd5b506101f26101ed366004612409565b6105ec565b60405190151581526020015b60405180910390f35b34801561021357600080fd5b5061021c61063e565b6040516101fe91906125ea565b34801561023557600080fd5b50610249610244366004612441565b6106d0565b6040516001600160a01b0390911681526020016101fe565b34801561026d57600080fd5b5061028161027c366004612354565b61076a565b005b34801561028f57600080fd5b50610298610880565b6040516101fe919061253e565b610281610949565b3480156102b957600080fd5b506102816102c836600461220e565b6109b2565b3480156102d957600080fd5b506102816102e8366004612441565b6109e3565b3480156102f957600080fd5b50610281610308366004612441565b610f9d565b34801561031957600080fd5b506101f26103283660046121c2565b61104f565b34801561033957600080fd5b506102816110c7565b34801561034e57600080fd5b5061028161035d36600461220e565b6110fb565b34801561036e57600080fd5b50600c545b6040519081526020016101fe565b34801561038d57600080fd5b506103a161039c366004612441565b611116565b6040805198895260ff97881660208a01529587169588019590955292151560608701529084166080860152831660a0850152821660c08401521660e0820152610100016101fe565b3480156103f557600080fd5b5060075460ff166101f2565b34801561040d57600080fd5b5061024961041c366004612441565b611183565b34801561042d57600080fd5b5061037361043c3660046121c2565b6111fa565b34801561044d57600080fd5b50610281611281565b34801561046257600080fd5b5061021c6112b3565b34801561047757600080fd5b506102986104863660046121c2565b6112c2565b34801561049757600080fd5b50600d54610249906001600160a01b031681565b3480156104b757600080fd5b506102816104c636600461231e565b611495565b3480156104d757600080fd5b506102816104e6366004612249565b6114a0565b3480156104f757600080fd5b50610373600b5481565b34801561050d57600080fd5b5061021c61051c366004612441565b6114d8565b34801561052d57600080fd5b5061028161053c366004612441565b61165f565b34801561054d57600080fd5b506101f261055c3660046121dc565b6001600160a01b03918216600090815260056020908152604080832093909416825291909152205460ff1690565b34801561059657600080fd5b506102816105a536600461237d565b61168e565b3480156105b657600080fd5b506105bf6116d0565b6040516101fe91906124f1565b3480156105d857600080fd5b50600e54610249906001600160a01b031681565b60006001600160e01b031982166380ac58cd60e01b148061061d57506001600160e01b03198216635b5e139f60e01b145b8061063857506301ffc9a760e01b6001600160e01b03198316145b92915050565b60606000805461064d90612763565b80601f016020809104026020016040519081016040528092919081815260200182805461067990612763565b80156106c65780601f1061069b576101008083540402835291602001916106c6565b820191906000526020600020905b8154815290600101906020018083116106a957829003601f168201915b5050505050905090565b6000818152600260205260408120546001600160a01b031661074e5760405162461bcd60e51b815260206004820152602c60248201527f4552433732313a20617070726f76656420717565727920666f72206e6f6e657860448201526b34b9ba32b73a103a37b5b2b760a11b60648201526084015b60405180910390fd5b506000908152600460205260409020546001600160a01b031690565b600061077582611183565b9050806001600160a01b0316836001600160a01b031614156107e35760405162461bcd60e51b815260206004820152602160248201527f4552433732313a20617070726f76616c20746f2063757272656e74206f776e656044820152603960f91b6064820152608401610745565b336001600160a01b03821614806107ff57506107ff813361055c565b6108715760405162461bcd60e51b815260206004820152603860248201527f4552433732313a20617070726f76652063616c6c6572206973206e6f74206f7760448201527f6e6572206e6f7220617070726f76656420666f7220616c6c00000000000000006064820152608401610745565b61087b8383611731565b505050565b60606010805480602002602001604051908101604052809291908181526020016000905b82821015610940576000848152602090819020604080516101008082018352600287029093018054825260019081015460ff8082168488015294810485169383019390935262010000830484161515606083015263010000008304841660808301526401000000008304841660a0830152600160281b8304841660c0830152600160301b90920490921660e083015290835290920191016108a4565b50505050905090565b600a546001600160a01b031633146109735760405162461bcd60e51b8152600401610745906126a0565b600e546040516001600160a01b039091169081904780156108fc02916000818181858888f193505050501580156109ae573d6000803e3d6000fd5b5050565b6109bc338261179f565b6109d85760405162461bcd60e51b81526004016107459061264f565b61087b838383611892565b60008111610a415760405162461bcd60e51b815260206004820152602560248201527f4d696e696d756d206e756d626572206f66206d696e7461626c6520746f6b656e604482015264206973203160d81b6064820152608401610745565b6005811115610aa05760405162461bcd60e51b815260206004820152602560248201527f4d6178696d756d206e756d626572206f66206d696e7461626c6520746f6b656e604482015264206973203560d81b6064820152608401610745565b6000601254610e10610ab291906126d5565b90506000601254611c20610ac691906126d5565b90506001428310610ba957610ada3361104f565b610b325760405162461bcd60e51b815260206004820152602360248201527f596f7520617265206e6f742077686974656c697374656420666f722070726573604482015262616c6560e81b6064820152608401610745565b600c54841115610b805760405162461bcd60e51b8152602060048201526019602482015278141c995cd85b19481d1bdad95b881a5cc81cdbdb19081bdd5d603a1b6044820152606401610745565b83600c6000828254610b929190612720565b909155506816c4abbebea01000009150610ca49050565b8242118015610bb85750814211155b15610c9857610bc63361104f565b610c215760405162461bcd60e51b815260206004820152602660248201527f20596f7520617265206e6f7420612077686974656c697374656420666f722070604482015265726573616c6560d01b6064820152608401610745565b600c54841115610c6f5760405162461bcd60e51b8152602060048201526019602482015278141c995cd85b19481d1bdad95b881a5cc81cdbdb19081bdd5d603a1b6044820152606401610745565b83600c6000828254610c819190612720565b90915550681ba5abf9e7793800009150610ca49050565b50682086ac3510526000005b6000610cb08583612701565b90506000610cbd336111fa565b600b54909150610ccd87836126d5565b1115610d1b5760405162461bcd60e51b815260206004820152601c60248201527f6d6178204e4654207065722061646472657373206578636565646564000000006044820152606401610745565b600d546040516323b872dd60e01b8152336004820152306024820152604481018490526001600160a01b03909116906323b872dd90606401602060405180830381600087803b158015610d6d57600080fd5b505af1158015610d81573d6000803e3d6000fd5b505050506040513d601f19601f82011682018060405250810190610da591906123ed565b5060015b868111610f94576000610dbc6064611a32565b90506000610dca6064611a8e565b90506000610dd8600d611a32565b90506000610de66007611a32565b90506000610df46007611a8e565b604080516101008082018352601154825260016020830181815260ff8b81169585019586526000606086018181528c8316608088019081528c841660a089019081528c851660c08a019081528b861660e08b0190815260108054998a01815586528a517f1b6847dc741a1b0cd08d278845f9d819d87b734759afb55fe2de5cb82a9ae6726002909a02998a015596517f1b6847dc741a1b0cd08d278845f9d819d87b734759afb55fe2de5cb82a9ae67390980180549b519451935192519151975198871661ffff19909c169b909b179386169098029290921763ffff00001916620100009115159190910263ff0000001916176301000000918416919091021765ffff0000000019166401000000009583169590950265ff0000000000191694909417600160281b928216929092029190911766ff0000000000001916600160301b929091169190910217909255600854929350919050610f553382611aad565b600954610f6c906001600160a01b03166001611495565b610f7a600880546001019055565b505050505050508080610f8c9061279e565b915050610da9565b50505050505050565b600a546001600160a01b03163314610fc75760405162461bcd60e51b8152600401610745906126a0565b600d54600a5460405163a9059cbb60e01b81526001600160a01b0391821660048201526024810184905291169063a9059cbb90604401602060405180830381600087803b15801561101757600080fd5b505af115801561102b573d6000803e3d6000fd5b505050506040513d601f19601f820116820180604052508101906109ae91906123ed565b6000805b600f548110156110be57826001600160a01b0316600f828154811061108857634e487b7160e01b600052603260045260246000fd5b6000918252602090912001546001600160a01b031614156110ac5750600192915050565b806110b68161279e565b915050611053565b50600092915050565b600a546001600160a01b031633146110f15760405162461bcd60e51b8152600401610745906126a0565b6110f9611bef565b565b61087b838383604051806020016040528060008152506114a0565b6010818154811061112657600080fd5b60009182526020909120600290910201805460019091015490915060ff808216916101008104821691620100008204811691630100000081048216916401000000008204811691600160281b8104821691600160301b9091041688565b6000818152600260205260408120546001600160a01b0316806106385760405162461bcd60e51b815260206004820152602960248201527f4552433732313a206f776e657220717565727920666f72206e6f6e657869737460448201526832b73a103a37b5b2b760b91b6064820152608401610745565b60006001600160a01b0382166112655760405162461bcd60e51b815260206004820152602a60248201527f4552433732313a2062616c616e636520717565727920666f7220746865207a65604482015269726f206164647265737360b01b6064820152608401610745565b506001600160a01b031660009081526003602052604090205490565b600a546001600160a01b031633146112ab5760405162461bcd60e51b8152600401610745906126a0565b6110f9611c82565b60606001805461064d90612763565b606060006112cf836111fa565b67ffffffffffffffff8111156112f557634e487b7160e01b600052604160045260246000fd5b60405190808252806020026020018201604052801561136457816020015b604080516101008101825260008082526020808301829052928201819052606082018190526080820181905260a0820181905260c0820181905260e082015282526000199092019101816113135790505b5090506000805b60105481101561148c57846001600160a01b031661138882611183565b6001600160a01b0316141561147a57601081815481106113b857634e487b7160e01b600052603260045260246000fd5b60009182526020918290206040805161010080820183526002909402909201805483526001015460ff8082169584019590955292830484169082015262010000820483161515606082015263010000008204831660808201526401000000008204831660a0820152600160281b8204831660c0820152600160301b90910490911660e0820152835184908490811061146057634e487b7160e01b600052603260045260246000fd5b602002602001018190525081806114769061279e565b9250505b806114848161279e565b91505061136b565b50909392505050565b6109ae338383611cfd565b6114aa338361179f565b6114c65760405162461bcd60e51b81526004016107459061264f565b6114d284848484611dcc565b50505050565b6000818152600260205260409020546060906001600160a01b03166115595760405162461bcd60e51b815260206004820152603160248201527f45524337323155524953746f726167653a2055524920717565727920666f72206044820152703737b732bc34b9ba32b73a103a37b5b2b760791b6064820152608401610745565b6000828152600660205260408120805461157290612763565b80601f016020809104026020016040519081016040528092919081815260200182805461159e90612763565b80156115eb5780601f106115c0576101008083540402835291602001916115eb565b820191906000526020600020905b8154815290600101906020018083116115ce57829003601f168201915b50505050509050600061160960408051602081019091526000815290565b905080516000141561161c575092915050565b81511561164e578082604051602001611636929190612485565b60405160208183030381529060405292505050919050565b61165784611dff565b949350505050565b600a546001600160a01b031633146116895760405162461bcd60e51b8152600401610745906126a0565b600b55565b600a546001600160a01b031633146116b85760405162461bcd60e51b8152600401610745906126a0565b6116c4600f600061210d565b61087b600f838361212e565b6060600f8054806020026020016040519081016040528092919081815260200182805480156106c657602002820191906000526020600020905b81546001600160a01b0316815260019091019060200180831161170a575050505050905090565b600081815260046020526040902080546001600160a01b0319166001600160a01b038416908117909155819061176682611183565b6001600160a01b03167f8c5be1e5ebec7d5bd14f71427d1e84f3dd0314c0f7b2291e5b200ac8c7c3b92560405160405180910390a45050565b6000818152600260205260408120546001600160a01b03166118185760405162461bcd60e51b815260206004820152602c60248201527f4552433732313a206f70657261746f7220717565727920666f72206e6f6e657860448201526b34b9ba32b73a103a37b5b2b760a11b6064820152608401610745565b600061182383611183565b9050806001600160a01b0316846001600160a01b0316148061185e5750836001600160a01b0316611853846106d0565b6001600160a01b0316145b8061165757506001600160a01b0380821660009081526005602090815260408083209388168352929052205460ff16611657565b826001600160a01b03166118a582611183565b6001600160a01b03161461190d5760405162461bcd60e51b815260206004820152602960248201527f4552433732313a207472616e73666572206f6620746f6b656e2074686174206960448201526839903737ba1037bbb760b91b6064820152608401610745565b6001600160a01b03821661196f5760405162461bcd60e51b8152602060048201526024808201527f4552433732313a207472616e7366657220746f20746865207a65726f206164646044820152637265737360e01b6064820152608401610745565b61197a600082611731565b6001600160a01b03831660009081526003602052604081208054600192906119a3908490612720565b90915550506001600160a01b03821660009081526003602052604081208054600192906119d19084906126d5565b909155505060008181526002602052604080822080546001600160a01b0319166001600160a01b0386811691821790925591518493918716917fddf252ad1be2c89b69c2b068fc378daa952ba7f163c4a11628f55a4df523b3ef91a4505050565b6000804233604051602001611a6392919091825260601b6bffffffffffffffffffffffff1916602082015260340190565b60408051601f1981840301815291905280516020909101209050611a8783826127b9565b9392505050565b6000804442604051602001611a63929190918252602082015260400190565b6001600160a01b038216611b035760405162461bcd60e51b815260206004820181905260248201527f4552433732313a206d696e7420746f20746865207a65726f20616464726573736044820152606401610745565b6000818152600260205260409020546001600160a01b031615611b685760405162461bcd60e51b815260206004820152601c60248201527f4552433732313a20746f6b656e20616c7265616479206d696e746564000000006044820152606401610745565b6001600160a01b0382166000908152600360205260408120805460019290611b919084906126d5565b909155505060008181526002602052604080822080546001600160a01b0319166001600160a01b03861690811790915590518392907fddf252ad1be2c89b69c2b068fc378daa952ba7f163c4a11628f55a4df523b3ef908290a45050565b60075460ff16611c385760405162461bcd60e51b815260206004820152601460248201527314185d5cd8589b194e881b9bdd081c185d5cd95960621b6044820152606401610745565b6007805460ff191690557f5db9ee0a495bf2e6ff9c91a7834c1ba4fdd244a5e8aa4e537bd38aeae4b073aa335b6040516001600160a01b03909116815260200160405180910390a1565b60075460ff1615611cc85760405162461bcd60e51b815260206004820152601060248201526f14185d5cd8589b194e881c185d5cd95960821b6044820152606401610745565b6007805460ff191660011790557f62e78cea01bee320cd4e420270b5ea74000d11b0c9f74754ebdbfc544b05a258611c653390565b816001600160a01b0316836001600160a01b03161415611d5f5760405162461bcd60e51b815260206004820152601960248201527f4552433732313a20617070726f766520746f2063616c6c6572000000000000006044820152606401610745565b6001600160a01b03838116600081815260056020908152604080832094871680845294825291829020805460ff191686151590811790915591519182527f17307eab39ab6107e8899845ad3d59bd9653f200f220920489ca2b5937696c31910160405180910390a3505050565b611dd7848484611892565b611de384848484611ee6565b6114d25760405162461bcd60e51b8152600401610745906125fd565b6000818152600260205260409020546060906001600160a01b0316611e7e5760405162461bcd60e51b815260206004820152602f60248201527f4552433732314d657461646174613a2055524920717565727920666f72206e6f60448201526e3732bc34b9ba32b73a103a37b5b2b760891b6064820152608401610745565b6000611e9560408051602081019091526000815290565b90506000815111611eb55760405180602001604052806000815250611a87565b80611ebf84611ff3565b604051602001611ed0929190612485565b6040516020818303038152906040529392505050565b60006001600160a01b0384163b15611fe857604051630a85bd0160e11b81526001600160a01b0385169063150b7a0290611f2a9033908990889088906004016124b4565b602060405180830381600087803b158015611f4457600080fd5b505af1925050508015611f74575060408051601f3d908101601f19168201909252611f7191810190612425565b60015b611fce573d808015611fa2576040519150601f19603f3d011682016040523d82523d6000602084013e611fa7565b606091505b508051611fc65760405162461bcd60e51b8152600401610745906125fd565b805181602001fd5b6001600160e01b031916630a85bd0160e11b149050611657565b506001949350505050565b6060816120175750506040805180820190915260018152600360fc1b602082015290565b8160005b8115612041578061202b8161279e565b915061203a9050600a836126ed565b915061201b565b60008167ffffffffffffffff81111561206a57634e487b7160e01b600052604160045260246000fd5b6040519080825280601f01601f191660200182016040528015612094576020820181803683370190505b5090505b8415611657576120a9600183612720565b91506120b6600a866127b9565b6120c19060306126d5565b60f81b8183815181106120e457634e487b7160e01b600052603260045260246000fd5b60200101906001600160f81b031916908160001a905350612106600a866126ed565b9450612098565b508054600082559060005260206000209081019061212b9190612191565b50565b828054828255906000526020600020908101928215612181579160200282015b828111156121815781546001600160a01b0319166001600160a01b0384351617825560209092019160019091019061214e565b5061218d929150612191565b5090565b5b8082111561218d5760008155600101612192565b80356001600160a01b03811681146121bd57600080fd5b919050565b6000602082840312156121d3578081fd5b611a87826121a6565b600080604083850312156121ee578081fd5b6121f7836121a6565b9150612205602084016121a6565b90509250929050565b600080600060608486031215612222578081fd5b61222b846121a6565b9250612239602085016121a6565b9150604084013590509250925092565b6000806000806080858703121561225e578081fd5b612267856121a6565b9350612275602086016121a6565b925060408501359150606085013567ffffffffffffffff80821115612298578283fd5b818701915087601f8301126122ab578283fd5b8135818111156122bd576122bd6127f9565b604051601f8201601f19908116603f011681019083821181831017156122e5576122e56127f9565b816040528281528a60208487010111156122fd578586fd5b82602086016020830137918201602001949094529598949750929550505050565b60008060408385031215612330578182fd5b612339836121a6565b915060208301356123498161280f565b809150509250929050565b60008060408385031215612366578182fd5b61236f836121a6565b946020939093013593505050565b6000806020838503121561238f578182fd5b823567ffffffffffffffff808211156123a6578384fd5b818501915085601f8301126123b9578384fd5b8135818111156123c7578485fd5b8660208260051b85010111156123db578485fd5b60209290920196919550909350505050565b6000602082840312156123fe578081fd5b8151611a878161280f565b60006020828403121561241a578081fd5b8135611a878161281d565b600060208284031215612436578081fd5b8151611a878161281d565b600060208284031215612452578081fd5b5035919050565b60008151808452612471816020860160208601612737565b601f01601f19169290920160200192915050565b60008351612497818460208801612737565b8351908301906124ab818360208801612737565b01949350505050565b6001600160a01b03858116825284166020820152604081018390526080606082018190526000906124e790830184612459565b9695505050505050565b6020808252825182820181905260009190848201906040850190845b818110156125325783516001600160a01b03168352928401929184019160010161250d565b50909695505050505050565b602080825282518282018190526000919060409081850190868401855b828110156125dd578151805185528681015160ff9081168887015286820151168686015260608082015115159086015260808082015161259f8288018260ff169052565b505060a08181015160ff9081169187019190915260c08083015182169087015260e0918201511690850152610100909301929085019060010161255b565b5091979650505050505050565b602081526000611a876020830184612459565b60208082526032908201527f4552433732313a207472616e7366657220746f206e6f6e20455243373231526560408201527131b2b4bb32b91034b6b83632b6b2b73a32b960711b606082015260800190565b60208082526031908201527f4552433732313a207472616e736665722063616c6c6572206973206e6f74206f6040820152701ddb995c881b9bdc88185c1c1c9bdd9959607a1b606082015260800190565b6020808252818101527f596f7527726520756e617574686f72697a65642e204f6e6c79206f776e657221604082015260600190565b600082198211156126e8576126e86127cd565b500190565b6000826126fc576126fc6127e3565b500490565b600081600019048311821515161561271b5761271b6127cd565b500290565b600082821015612732576127326127cd565b500390565b60005b8381101561275257818101518382015260200161273a565b838111156114d25750506000910152565b600181811c9082168061277757607f821691505b6020821081141561279857634e487b7160e01b600052602260045260246000fd5b50919050565b60006000198214156127b2576127b26127cd565b5060010190565b6000826127c8576127c86127e3565b500690565b634e487b7160e01b600052601160045260246000fd5b634e487b7160e01b600052601260045260246000fd5b634e487b7160e01b600052604160045260246000fd5b801515811461212b57600080fd5b6001600160e01b03198116811461212b57600080fdfea26469706673582212202a2e9706387593942aae9ea750dc55ed7d23238bfe015edc6c0b5b99630b225464736f6c63430008040033",
  "linkReferences": {},
  "deployedLinkReferences": {}
}