{
  "_format": "hh-sol-artifact-1",
  "contractName": "Ctrain",
  "sourceName": "contracts/Ctrain.sol",
  "abi": [
    {
      "inputs": [
        {
          "internalType": "address",
          "name": "_token",
          "type": "address"
        },
        {
          "internalType": "address",
          "name": "_reserve",
          "type": "address"
        }
      ],
      "stateMutability": "nonpayable",
      "type": "constructor"
    },
    {
      "anonymous": false,
      "inputs": [
        {
          "indexed": true,
          "internalType": "address",
          "name": "owner",
          "type": "address"
        },
        {
          "indexed": true,
          "internalType": "address",
          "name": "approved",
          "type": "address"
        },
        {
          "indexed": true,
          "internalType": "uint256",
          "name": "tokenId",
          "type": "uint256"
        }
      ],
      "name": "Approval",
      "type": "event"
    },
    {
      "anonymous": false,
      "inputs": [
        {
          "indexed": true,
          "internalType": "address",
          "name": "owner",
          "type": "address"
        },
        {
          "indexed": true,
          "internalType": "address",
          "name": "operator",
          "type": "address"
        },
        {
          "indexed": false,
          "internalType": "bool",
          "name": "approved",
          "type": "bool"
        }
      ],
      "name": "ApprovalForAll",
      "type": "event"
    },
    {
      "anonymous": false,
      "inputs": [
        {
          "indexed": true,
          "internalType": "address",
          "name": "previousOwner",
          "type": "address"
        },
        {
          "indexed": true,
          "internalType": "address",
          "name": "newOwner",
          "type": "address"
        }
      ],
      "name": "OwnershipTransferred",
      "type": "event"
    },
    {
      "anonymous": false,
      "inputs": [
        {
          "indexed": false,
          "internalType": "address",
          "name": "account",
          "type": "address"
        }
      ],
      "name": "Paused",
      "type": "event"
    },
    {
      "anonymous": false,
      "inputs": [
        {
          "indexed": true,
          "internalType": "address",
          "name": "from",
          "type": "address"
        },
        {
          "indexed": true,
          "internalType": "address",
          "name": "to",
          "type": "address"
        },
        {
          "indexed": true,
          "internalType": "uint256",
          "name": "tokenId",
          "type": "uint256"
        }
      ],
      "name": "Transfer",
      "type": "event"
    },
    {
      "anonymous": false,
      "inputs": [
        {
          "indexed": false,
          "internalType": "address",
          "name": "account",
          "type": "address"
        }
      ],
      "name": "Unpaused",
      "type": "event"
    },
    {
      "inputs": [
        {
          "internalType": "address",
          "name": "to",
          "type": "address"
        },
        {
          "internalType": "uint256",
          "name": "tokenId",
          "type": "uint256"
        }
      ],
      "name": "approve",
      "outputs": [],
      "stateMutability": "nonpayable",
      "type": "function"
    },
    {
      "inputs": [
        {
          "internalType": "address",
          "name": "owner",
          "type": "address"
        }
      ],
      "name": "balanceOf",
      "outputs": [
        {
          "internalType": "uint256",
          "name": "",
          "type": "uint256"
        }
      ],
      "stateMutability": "view",
      "type": "function"
    },
    {
      "inputs": [
        {
          "internalType": "uint256",
          "name": "_mintAmount",
          "type": "uint256"
        }
      ],
      "name": "createToken",
      "outputs": [],
      "stateMutability": "nonpayable",
      "type": "function"
    },
    {
      "inputs": [],
      "name": "endPresale",
      "outputs": [],
      "stateMutability": "nonpayable",
      "type": "function"
    },
    {
      "inputs": [
        {
          "internalType": "uint256",
          "name": "tokenId",
          "type": "uint256"
        }
      ],
      "name": "getApproved",
      "outputs": [
        {
          "internalType": "address",
          "name": "",
          "type": "address"
        }
      ],
      "stateMutability": "view",
      "type": "function"
    },
    {
      "inputs": [
        {
          "internalType": "uint256",
          "name": "_mintAmount",
          "type": "uint256"
        }
      ],
      "name": "getMintingPrice",
      "outputs": [
        {
          "internalType": "uint256",
          "name": "",
          "type": "uint256"
        }
      ],
      "stateMutability": "view",
      "type": "function"
    },
    {
      "inputs": [
        {
          "internalType": "address",
          "name": "owner",
          "type": "address"
        },
        {
          "internalType": "address",
          "name": "operator",
          "type": "address"
        }
      ],
      "name": "isApprovedForAll",
      "outputs": [
        {
          "internalType": "bool",
          "name": "",
          "type": "bool"
        }
      ],
      "stateMutability": "view",
      "type": "function"
    },
    {
      "inputs": [],
      "name": "name",
      "outputs": [
        {
          "internalType": "string",
          "name": "",
          "type": "string"
        }
      ],
      "stateMutability": "view",
      "type": "function"
    },
    {
      "inputs": [],
      "name": "nftPerAddressLimit",
      "outputs": [
        {
          "internalType": "uint256",
          "name": "",
          "type": "uint256"
        }
      ],
      "stateMutability": "view",
      "type": "function"
    },
    {
      "inputs": [],
      "name": "owner",
      "outputs": [
        {
          "internalType": "address",
          "name": "",
          "type": "address"
        }
      ],
      "stateMutability": "view",
      "type": "function"
    },
    {
      "inputs": [
        {
          "internalType": "uint256",
          "name": "tokenId",
          "type": "uint256"
        }
      ],
      "name": "ownerOf",
      "outputs": [
        {
          "internalType": "address",
          "name": "",
          "type": "address"
        }
      ],
      "stateMutability": "view",
      "type": "function"
    },
    {
      "inputs": [],
      "name": "pause",
      "outputs": [],
      "stateMutability": "nonpayable",
      "type": "function"
    },
    {
      "inputs": [],
      "name": "paused",
      "outputs": [
        {
          "internalType": "bool",
          "name": "",
          "type": "bool"
        }
      ],
      "stateMutability": "view",
      "type": "function"
    },
    {
      "inputs": [],
      "name": "presale",
      "outputs": [
        {
          "internalType": "bool",
          "name": "",
          "type": "bool"
        }
      ],
      "stateMutability": "view",
      "type": "function"
    },
    {
      "inputs": [],
      "name": "renounceOwnership",
      "outputs": [],
      "stateMutability": "nonpayable",
      "type": "function"
    },
    {
      "inputs": [],
      "name": "reserveAddress",
      "outputs": [
        {
          "internalType": "address",
          "name": "",
          "type": "address"
        }
      ],
      "stateMutability": "view",
      "type": "function"
    },
    {
      "inputs": [
        {
          "internalType": "address",
          "name": "from",
          "type": "address"
        },
        {
          "internalType": "address",
          "name": "to",
          "type": "address"
        },
        {
          "internalType": "uint256",
          "name": "tokenId",
          "type": "uint256"
        }
      ],
      "name": "safeTransferFrom",
      "outputs": [],
      "stateMutability": "nonpayable",
      "type": "function"
    },
    {
      "inputs": [
        {
          "internalType": "address",
          "name": "from",
          "type": "address"
        },
        {
          "internalType": "address",
          "name": "to",
          "type": "address"
        },
        {
          "internalType": "uint256",
          "name": "tokenId",
          "type": "uint256"
        },
        {
          "internalType": "bytes",
          "name": "_data",
          "type": "bytes"
        }
      ],
      "name": "safeTransferFrom",
      "outputs": [],
      "stateMutability": "nonpayable",
      "type": "function"
    },
    {
      "inputs": [
        {
          "internalType": "address",
          "name": "operator",
          "type": "address"
        },
        {
          "internalType": "bool",
          "name": "approved",
          "type": "bool"
        }
      ],
      "name": "setApprovalForAll",
      "outputs": [],
      "stateMutability": "nonpayable",
      "type": "function"
    },
    {
      "inputs": [
        {
          "internalType": "uint256",
          "name": "_limit",
          "type": "uint256"
        }
      ],
      "name": "setNftPerAddressLimit",
      "outputs": [],
      "stateMutability": "nonpayable",
      "type": "function"
    },
    {
      "inputs": [
        {
          "internalType": "bytes4",
          "name": "interfaceId",
          "type": "bytes4"
        }
      ],
      "name": "supportsInterface",
      "outputs": [
        {
          "internalType": "bool",
          "name": "",
          "type": "bool"
        }
      ],
      "stateMutability": "view",
      "type": "function"
    },
    {
      "inputs": [],
      "name": "symbol",
      "outputs": [
        {
          "internalType": "string",
          "name": "",
          "type": "string"
        }
      ],
      "stateMutability": "view",
      "type": "function"
    },
    {
      "inputs": [],
      "name": "tokenAddress",
      "outputs": [
        {
          "internalType": "contract IERC20",
          "name": "",
          "type": "address"
        }
      ],
      "stateMutability": "view",
      "type": "function"
    },
    {
      "inputs": [
        {
          "internalType": "uint256",
          "name": "tokenId",
          "type": "uint256"
        }
      ],
      "name": "tokenURI",
      "outputs": [
        {
          "internalType": "string",
          "name": "",
          "type": "string"
        }
      ],
      "stateMutability": "view",
      "type": "function"
    },
    {
      "inputs": [
        {
          "internalType": "address",
          "name": "from",
          "type": "address"
        },
        {
          "internalType": "address",
          "name": "to",
          "type": "address"
        },
        {
          "internalType": "uint256",
          "name": "tokenId",
          "type": "uint256"
        }
      ],
      "name": "transferFrom",
      "outputs": [],
      "stateMutability": "nonpayable",
      "type": "function"
    },
    {
      "inputs": [
        {
          "internalType": "address",
          "name": "newOwner",
          "type": "address"
        }
      ],
      "name": "transferOwnership",
      "outputs": [],
      "stateMutability": "nonpayable",
      "type": "function"
    },
    {
      "inputs": [],
      "name": "unpause",
      "outputs": [],
      "stateMutability": "nonpayable",
      "type": "function"
    }
  ],
  "bytecode": "0x6080604052682086ac351052600000600955600a805460ff19166001178155600b553480156200002e57600080fd5b5060405162001f8438038062001f84833981016040819052620000519162000217565b604080518082018252600681526521ba3930b4b760d11b60208083019182528351808501909452600384526221aa2960e91b9084015281519192916200009a9160009162000154565b508051620000b090600190602084019062000154565b50506007805460ff1916905550620000c833620000fa565b600c80546001600160a01b039384166001600160a01b031991821617909155600d80549290931691161790556200028b565b600780546001600160a01b03838116610100818102610100600160a81b031985161790945560405193909204169182907f8be0079c531659141344cd1fd0a4f28419497f9722a3daafe3b4186f6b6457e090600090a35050565b82805462000162906200024e565b90600052602060002090601f016020900481019282620001865760008555620001d1565b82601f10620001a157805160ff1916838001178555620001d1565b82800160010185558215620001d1579182015b82811115620001d1578251825591602001919060010190620001b4565b50620001df929150620001e3565b5090565b5b80821115620001df5760008155600101620001e4565b80516001600160a01b03811681146200021257600080fd5b919050565b600080604083850312156200022a578182fd5b6200023583620001fa565b91506200024560208401620001fa565b90509250929050565b600181811c908216806200026357607f821691505b602082108114156200028557634e487b7160e01b600052602260045260246000fd5b50919050565b611ce9806200029b6000396000f3fe608060405234801561001057600080fd5b50600436106101a95760003560e01c80638da5cb5b116100f9578063c87b56dd11610097578063eb1635ed11610071578063eb1635ed14610385578063f2fde38b14610398578063f79ed94b146103ab578063fdea8e0b146103be57600080fd5b8063c87b56dd14610323578063d0eb26b014610336578063e985e9c51461034957600080fd5b8063a22cb465116100d3578063a22cb465146102ec578063a43be57b146102ff578063b88d4fde14610307578063ba7d2c761461031a57600080fd5b80638da5cb5b146102bb57806395d89b41146102d15780639d76ea58146102d957600080fd5b80633f4ba83a116101665780636352211e116101405780636352211e1461027757806370a082311461028a578063715018a6146102ab5780638456cb59146102b357600080fd5b80633f4ba83a1461025157806342842e0e146102595780635c975abb1461026c57600080fd5b806301ffc9a7146101ae57806306fdde03146101d6578063081812fc146101eb578063095ea7b31461021657806323b872dd1461022b5780632d571cc41461023e575b600080fd5b6101c16101bc366004611982565b6103cb565b60405190151581526020015b60405180910390f35b6101de61041d565b6040516101cd9190611a6a565b6101fe6101f93660046119ba565b6104af565b6040516001600160a01b0390911681526020016101cd565b61022961022436600461193d565b610549565b005b6102296102393660046117f7565b61065f565b61022961024c3660046119ba565b610690565b610229610915565b6102296102673660046117f7565b61094f565b60075460ff166101c1565b6101fe6102853660046119ba565b61096a565b61029d6102983660046117ab565b6109e1565b6040519081526020016101cd565b610229610a68565b610229610aa2565b60075461010090046001600160a01b03166101fe565b6101de610ada565b600c546101fe906001600160a01b031681565b6102296102fa366004611907565b610ae9565b610229610af8565b610229610315366004611832565b610b34565b61029d600b5481565b6101de6103313660046119ba565b610b66565b6102296103443660046119ba565b610ced565b6101c16103573660046117c5565b6001600160a01b03918216600090815260056020908152604080832093909416825291909152205460ff1690565b61029d6103933660046119ba565b610d22565b6102296103a63660046117ab565b610d32565b600d546101fe906001600160a01b031681565b600a546101c19060ff1681565b60006001600160e01b031982166380ac58cd60e01b14806103fc57506001600160e01b03198216635b5e139f60e01b145b8061041757506301ffc9a760e01b6001600160e01b03198316145b92915050565b60606000805461042c90611be3565b80601f016020809104026020016040519081016040528092919081815260200182805461045890611be3565b80156104a55780601f1061047a576101008083540402835291602001916104a5565b820191906000526020600020905b81548152906001019060200180831161048857829003601f168201915b5050505050905090565b6000818152600260205260408120546001600160a01b031661052d5760405162461bcd60e51b815260206004820152602c60248201527f4552433732313a20617070726f76656420717565727920666f72206e6f6e657860448201526b34b9ba32b73a103a37b5b2b760a11b60648201526084015b60405180910390fd5b506000908152600460205260409020546001600160a01b031690565b60006105548261096a565b9050806001600160a01b0316836001600160a01b031614156105c25760405162461bcd60e51b815260206004820152602160248201527f4552433732313a20617070726f76616c20746f2063757272656e74206f776e656044820152603960f91b6064820152608401610524565b336001600160a01b03821614806105de57506105de8133610357565b6106505760405162461bcd60e51b815260206004820152603860248201527f4552433732313a20617070726f76652063616c6c6572206973206e6f74206f7760448201527f6e6572206e6f7220617070726f76656420666f7220616c6c00000000000000006064820152608401610524565b61065a8383610dd3565b505050565b6106693382610e41565b6106855760405162461bcd60e51b815260040161052490611b04565b61065a838383610f34565b60075460ff16156106d65760405162461bcd60e51b815260206004820152601060248201526f14185d5cd8589b194e881c185d5cd95960821b6044820152606401610524565b600081116107345760405162461bcd60e51b815260206004820152602560248201527f4d696e696d756d206e756d626572206f66206d696e7461626c6520746f6b656e604482015264206973203160d81b6064820152608401610524565b60058111156107935760405162461bcd60e51b815260206004820152602560248201527f4d6178696d756d206e756d626572206f66206d696e7461626c6520746f6b656e604482015264206973203560d81b6064820152608401610524565b600a5460ff161515600114156107b5576816c4abbebea01000006009556107c3565b681ba5abf9e7793800006009555b6000816009546107d39190611b81565b905060006107e0336109e1565b600b549091506107f08483611b55565b111561083e5760405162461bcd60e51b815260206004820152601c60248201527f6d6178204e4654207065722061646472657373206578636565646564000000006044820152606401610524565b60015b83811161090f57600061085360085490565b600c54600d546040516323b872dd60e01b81523360048201526001600160a01b0391821660248201526044810188905292935016906323b872dd90606401602060405180830381600087803b1580156108ab57600080fd5b505af11580156108bf573d6000803e3d6000fd5b505050506040513d601f19601f820116820180604052508101906108e39190611966565b506108ee33826110d4565b6108fc600880546001019055565b508061090781611c1e565b915050610841565b50505050565b6007546001600160a01b036101009091041633146109455760405162461bcd60e51b815260040161052490611acf565b61094d611216565b565b61065a83838360405180602001604052806000815250610b34565b6000818152600260205260408120546001600160a01b0316806104175760405162461bcd60e51b815260206004820152602960248201527f4552433732313a206f776e657220717565727920666f72206e6f6e657869737460448201526832b73a103a37b5b2b760b91b6064820152608401610524565b60006001600160a01b038216610a4c5760405162461bcd60e51b815260206004820152602a60248201527f4552433732313a2062616c616e636520717565727920666f7220746865207a65604482015269726f206164647265737360b01b6064820152608401610524565b506001600160a01b031660009081526003602052604090205490565b6007546001600160a01b03610100909104163314610a985760405162461bcd60e51b815260040161052490611acf565b61094d60006112a9565b6007546001600160a01b03610100909104163314610ad25760405162461bcd60e51b815260040161052490611acf565b61094d611303565b60606001805461042c90611be3565b610af433838361137e565b5050565b6007546001600160a01b03610100909104163314610b285760405162461bcd60e51b815260040161052490611acf565b600a805460ff19169055565b610b3e3383610e41565b610b5a5760405162461bcd60e51b815260040161052490611b04565b61090f8484848461144d565b6000818152600260205260409020546060906001600160a01b0316610be75760405162461bcd60e51b815260206004820152603160248201527f45524337323155524953746f726167653a2055524920717565727920666f72206044820152703737b732bc34b9ba32b73a103a37b5b2b760791b6064820152608401610524565b60008281526006602052604081208054610c0090611be3565b80601f0160208091040260200160405190810160405280929190818152602001828054610c2c90611be3565b8015610c795780601f10610c4e57610100808354040283529160200191610c79565b820191906000526020600020905b815481529060010190602001808311610c5c57829003601f168201915b505050505090506000610c9760408051602081019091526000815290565b9050805160001415610caa575092915050565b815115610cdc578082604051602001610cc49291906119fe565b60405160208183030381529060405292505050919050565b610ce584611480565b949350505050565b6007546001600160a01b03610100909104163314610d1d5760405162461bcd60e51b815260040161052490611acf565b600b55565b6000600954826104179190611b81565b6007546001600160a01b03610100909104163314610d625760405162461bcd60e51b815260040161052490611acf565b6001600160a01b038116610dc75760405162461bcd60e51b815260206004820152602660248201527f4f776e61626c653a206e6577206f776e657220697320746865207a65726f206160448201526564647265737360d01b6064820152608401610524565b610dd0816112a9565b50565b600081815260046020526040902080546001600160a01b0319166001600160a01b0384169081179091558190610e088261096a565b6001600160a01b03167f8c5be1e5ebec7d5bd14f71427d1e84f3dd0314c0f7b2291e5b200ac8c7c3b92560405160405180910390a45050565b6000818152600260205260408120546001600160a01b0316610eba5760405162461bcd60e51b815260206004820152602c60248201527f4552433732313a206f70657261746f7220717565727920666f72206e6f6e657860448201526b34b9ba32b73a103a37b5b2b760a11b6064820152608401610524565b6000610ec58361096a565b9050806001600160a01b0316846001600160a01b03161480610f005750836001600160a01b0316610ef5846104af565b6001600160a01b0316145b80610ce557506001600160a01b0380821660009081526005602090815260408083209388168352929052205460ff16610ce5565b826001600160a01b0316610f478261096a565b6001600160a01b031614610faf5760405162461bcd60e51b815260206004820152602960248201527f4552433732313a207472616e73666572206f6620746f6b656e2074686174206960448201526839903737ba1037bbb760b91b6064820152608401610524565b6001600160a01b0382166110115760405162461bcd60e51b8152602060048201526024808201527f4552433732313a207472616e7366657220746f20746865207a65726f206164646044820152637265737360e01b6064820152608401610524565b61101c600082610dd3565b6001600160a01b0383166000908152600360205260408120805460019290611045908490611ba0565b90915550506001600160a01b0382166000908152600360205260408120805460019290611073908490611b55565b909155505060008181526002602052604080822080546001600160a01b0319166001600160a01b0386811691821790925591518493918716917fddf252ad1be2c89b69c2b068fc378daa952ba7f163c4a11628f55a4df523b3ef91a4505050565b6001600160a01b03821661112a5760405162461bcd60e51b815260206004820181905260248201527f4552433732313a206d696e7420746f20746865207a65726f20616464726573736044820152606401610524565b6000818152600260205260409020546001600160a01b03161561118f5760405162461bcd60e51b815260206004820152601c60248201527f4552433732313a20746f6b656e20616c7265616479206d696e746564000000006044820152606401610524565b6001600160a01b03821660009081526003602052604081208054600192906111b8908490611b55565b909155505060008181526002602052604080822080546001600160a01b0319166001600160a01b03861690811790915590518392907fddf252ad1be2c89b69c2b068fc378daa952ba7f163c4a11628f55a4df523b3ef908290a45050565b60075460ff1661125f5760405162461bcd60e51b815260206004820152601460248201527314185d5cd8589b194e881b9bdd081c185d5cd95960621b6044820152606401610524565b6007805460ff191690557f5db9ee0a495bf2e6ff9c91a7834c1ba4fdd244a5e8aa4e537bd38aeae4b073aa335b6040516001600160a01b03909116815260200160405180910390a1565b600780546001600160a01b03838116610100818102610100600160a81b031985161790945560405193909204169182907f8be0079c531659141344cd1fd0a4f28419497f9722a3daafe3b4186f6b6457e090600090a35050565b60075460ff16156113495760405162461bcd60e51b815260206004820152601060248201526f14185d5cd8589b194e881c185d5cd95960821b6044820152606401610524565b6007805460ff191660011790557f62e78cea01bee320cd4e420270b5ea74000d11b0c9f74754ebdbfc544b05a25861128c3390565b816001600160a01b0316836001600160a01b031614156113e05760405162461bcd60e51b815260206004820152601960248201527f4552433732313a20617070726f766520746f2063616c6c6572000000000000006044820152606401610524565b6001600160a01b03838116600081815260056020908152604080832094871680845294825291829020805460ff191686151590811790915591519182527f17307eab39ab6107e8899845ad3d59bd9653f200f220920489ca2b5937696c31910160405180910390a3505050565b611458848484610f34565b61146484848484611568565b61090f5760405162461bcd60e51b815260040161052490611a7d565b6000818152600260205260409020546060906001600160a01b03166114ff5760405162461bcd60e51b815260206004820152602f60248201527f4552433732314d657461646174613a2055524920717565727920666f72206e6f60448201526e3732bc34b9ba32b73a103a37b5b2b760891b6064820152608401610524565b600061151660408051602081019091526000815290565b905060008151116115365760405180602001604052806000815250611561565b8061154084611675565b6040516020016115519291906119fe565b6040516020818303038152906040525b9392505050565b60006001600160a01b0384163b1561166a57604051630a85bd0160e11b81526001600160a01b0385169063150b7a02906115ac903390899088908890600401611a2d565b602060405180830381600087803b1580156115c657600080fd5b505af19250505080156115f6575060408051601f3d908101601f191682019092526115f39181019061199e565b60015b611650573d808015611624576040519150601f19603f3d011682016040523d82523d6000602084013e611629565b606091505b5080516116485760405162461bcd60e51b815260040161052490611a7d565b805181602001fd5b6001600160e01b031916630a85bd0160e11b149050610ce5565b506001949350505050565b6060816116995750506040805180820190915260018152600360fc1b602082015290565b8160005b81156116c357806116ad81611c1e565b91506116bc9050600a83611b6d565b915061169d565b60008167ffffffffffffffff8111156116ec57634e487b7160e01b600052604160045260246000fd5b6040519080825280601f01601f191660200182016040528015611716576020820181803683370190505b5090505b8415610ce55761172b600183611ba0565b9150611738600a86611c39565b611743906030611b55565b60f81b81838151811061176657634e487b7160e01b600052603260045260246000fd5b60200101906001600160f81b031916908160001a905350611788600a86611b6d565b945061171a565b80356001600160a01b03811681146117a657600080fd5b919050565b6000602082840312156117bc578081fd5b6115618261178f565b600080604083850312156117d7578081fd5b6117e08361178f565b91506117ee6020840161178f565b90509250929050565b60008060006060848603121561180b578081fd5b6118148461178f565b92506118226020850161178f565b9150604084013590509250925092565b60008060008060808587031215611847578081fd5b6118508561178f565b935061185e6020860161178f565b925060408501359150606085013567ffffffffffffffff80821115611881578283fd5b818701915087601f830112611894578283fd5b8135818111156118a6576118a6611c79565b604051601f8201601f19908116603f011681019083821181831017156118ce576118ce611c79565b816040528281528a60208487010111156118e6578586fd5b82602086016020830137918201602001949094529598949750929550505050565b60008060408385031215611919578182fd5b6119228361178f565b9150602083013561193281611c8f565b809150509250929050565b6000806040838503121561194f578182fd5b6119588361178f565b946020939093013593505050565b600060208284031215611977578081fd5b815161156181611c8f565b600060208284031215611993578081fd5b813561156181611c9d565b6000602082840312156119af578081fd5b815161156181611c9d565b6000602082840312156119cb578081fd5b5035919050565b600081518084526119ea816020860160208601611bb7565b601f01601f19169290920160200192915050565b60008351611a10818460208801611bb7565b835190830190611a24818360208801611bb7565b01949350505050565b6001600160a01b0385811682528416602082015260408101839052608060608201819052600090611a60908301846119d2565b9695505050505050565b60208152600061156160208301846119d2565b60208082526032908201527f4552433732313a207472616e7366657220746f206e6f6e20455243373231526560408201527131b2b4bb32b91034b6b83632b6b2b73a32b960711b606082015260800190565b6020808252818101527f4f776e61626c653a2063616c6c6572206973206e6f7420746865206f776e6572604082015260600190565b60208082526031908201527f4552433732313a207472616e736665722063616c6c6572206973206e6f74206f6040820152701ddb995c881b9bdc88185c1c1c9bdd9959607a1b606082015260800190565b60008219821115611b6857611b68611c4d565b500190565b600082611b7c57611b7c611c63565b500490565b6000816000190483118215151615611b9b57611b9b611c4d565b500290565b600082821015611bb257611bb2611c4d565b500390565b60005b83811015611bd2578181015183820152602001611bba565b8381111561090f5750506000910152565b600181811c90821680611bf757607f821691505b60208210811415611c1857634e487b7160e01b600052602260045260246000fd5b50919050565b6000600019821415611c3257611c32611c4d565b5060010190565b600082611c4857611c48611c63565b500690565b634e487b7160e01b600052601160045260246000fd5b634e487b7160e01b600052601260045260246000fd5b634e487b7160e01b600052604160045260246000fd5b8015158114610dd057600080fd5b6001600160e01b031981168114610dd057600080fdfea264697066735822122094d2f10e40774b82a9c3a0c7a119ef72129a9b78c012b06b2316bc227f166d8164736f6c63430008040033",
  "linkReferences": {},
  "deployedLinkReferences": {}
}