{
  "_format": "hh-sol-artifact-1",
  "contractName": "Ctrain",
  "sourceName": "contracts/Ctrain.sol",
  "abi": [
    {
      "inputs": [
        {
          "internalType": "address",
          "name": "_token",
          "type": "address"
        },
        {
          "internalType": "address",
          "name": "_reserve",
          "type": "address"
        }
      ],
      "stateMutability": "nonpayable",
      "type": "constructor"
    },
    {
      "anonymous": false,
      "inputs": [
        {
          "indexed": true,
          "internalType": "address",
          "name": "owner",
          "type": "address"
        },
        {
          "indexed": true,
          "internalType": "address",
          "name": "approved",
          "type": "address"
        },
        {
          "indexed": true,
          "internalType": "uint256",
          "name": "tokenId",
          "type": "uint256"
        }
      ],
      "name": "Approval",
      "type": "event"
    },
    {
      "anonymous": false,
      "inputs": [
        {
          "indexed": true,
          "internalType": "address",
          "name": "owner",
          "type": "address"
        },
        {
          "indexed": true,
          "internalType": "address",
          "name": "operator",
          "type": "address"
        },
        {
          "indexed": false,
          "internalType": "bool",
          "name": "approved",
          "type": "bool"
        }
      ],
      "name": "ApprovalForAll",
      "type": "event"
    },
    {
      "anonymous": false,
      "inputs": [
        {
          "indexed": true,
          "internalType": "address",
          "name": "previousOwner",
          "type": "address"
        },
        {
          "indexed": true,
          "internalType": "address",
          "name": "newOwner",
          "type": "address"
        }
      ],
      "name": "OwnershipTransferred",
      "type": "event"
    },
    {
      "anonymous": false,
      "inputs": [
        {
          "indexed": false,
          "internalType": "address",
          "name": "account",
          "type": "address"
        }
      ],
      "name": "Paused",
      "type": "event"
    },
    {
      "anonymous": false,
      "inputs": [
        {
          "indexed": true,
          "internalType": "address",
          "name": "from",
          "type": "address"
        },
        {
          "indexed": true,
          "internalType": "address",
          "name": "to",
          "type": "address"
        },
        {
          "indexed": true,
          "internalType": "uint256",
          "name": "tokenId",
          "type": "uint256"
        }
      ],
      "name": "Transfer",
      "type": "event"
    },
    {
      "anonymous": false,
      "inputs": [
        {
          "indexed": false,
          "internalType": "address",
          "name": "account",
          "type": "address"
        }
      ],
      "name": "Unpaused",
      "type": "event"
    },
    {
      "inputs": [
        {
          "internalType": "address",
          "name": "to",
          "type": "address"
        },
        {
          "internalType": "uint256",
          "name": "tokenId",
          "type": "uint256"
        }
      ],
      "name": "approve",
      "outputs": [],
      "stateMutability": "nonpayable",
      "type": "function"
    },
    {
      "inputs": [
        {
          "internalType": "address",
          "name": "owner",
          "type": "address"
        }
      ],
      "name": "balanceOf",
      "outputs": [
        {
          "internalType": "uint256",
          "name": "",
          "type": "uint256"
        }
      ],
      "stateMutability": "view",
      "type": "function"
    },
    {
      "inputs": [
        {
          "internalType": "uint256",
          "name": "_mintAmount",
          "type": "uint256"
        },
        {
          "internalType": "string",
          "name": "tokenURI",
          "type": "string"
        }
      ],
      "name": "create",
      "outputs": [],
      "stateMutability": "nonpayable",
      "type": "function"
    },
    {
      "inputs": [
        {
          "internalType": "uint256",
          "name": "tokenId",
          "type": "uint256"
        }
      ],
      "name": "getApproved",
      "outputs": [
        {
          "internalType": "address",
          "name": "",
          "type": "address"
        }
      ],
      "stateMutability": "view",
      "type": "function"
    },
    {
      "inputs": [
        {
          "internalType": "address",
          "name": "_owner",
          "type": "address"
        }
      ],
      "name": "getOwnerTrains",
      "outputs": [
        {
          "components": [
            {
              "internalType": "uint256",
              "name": "id",
              "type": "uint256"
            },
            {
              "internalType": "uint8",
              "name": "level",
              "type": "uint8"
            },
            {
              "internalType": "uint8",
              "name": "rarity",
              "type": "uint8"
            },
            {
              "internalType": "bool",
              "name": "fuel",
              "type": "bool"
            },
            {
              "internalType": "uint8",
              "name": "status",
              "type": "uint8"
            }
          ],
          "internalType": "struct Ctrain.Train[]",
          "name": "",
          "type": "tuple[]"
        }
      ],
      "stateMutability": "view",
      "type": "function"
    },
    {
      "inputs": [],
      "name": "getTrains",
      "outputs": [
        {
          "components": [
            {
              "internalType": "uint256",
              "name": "id",
              "type": "uint256"
            },
            {
              "internalType": "uint8",
              "name": "level",
              "type": "uint8"
            },
            {
              "internalType": "uint8",
              "name": "rarity",
              "type": "uint8"
            },
            {
              "internalType": "bool",
              "name": "fuel",
              "type": "bool"
            },
            {
              "internalType": "uint8",
              "name": "status",
              "type": "uint8"
            }
          ],
          "internalType": "struct Ctrain.Train[]",
          "name": "",
          "type": "tuple[]"
        }
      ],
      "stateMutability": "view",
      "type": "function"
    },
    {
      "inputs": [
        {
          "internalType": "address",
          "name": "owner",
          "type": "address"
        },
        {
          "internalType": "address",
          "name": "operator",
          "type": "address"
        }
      ],
      "name": "isApprovedForAll",
      "outputs": [
        {
          "internalType": "bool",
          "name": "",
          "type": "bool"
        }
      ],
      "stateMutability": "view",
      "type": "function"
    },
    {
      "inputs": [],
      "name": "name",
      "outputs": [
        {
          "internalType": "string",
          "name": "",
          "type": "string"
        }
      ],
      "stateMutability": "view",
      "type": "function"
    },
    {
      "inputs": [],
      "name": "nftPerAddressLimit",
      "outputs": [
        {
          "internalType": "uint256",
          "name": "",
          "type": "uint256"
        }
      ],
      "stateMutability": "view",
      "type": "function"
    },
    {
      "inputs": [],
      "name": "owner",
      "outputs": [
        {
          "internalType": "address",
          "name": "",
          "type": "address"
        }
      ],
      "stateMutability": "view",
      "type": "function"
    },
    {
      "inputs": [
        {
          "internalType": "uint256",
          "name": "tokenId",
          "type": "uint256"
        }
      ],
      "name": "ownerOf",
      "outputs": [
        {
          "internalType": "address",
          "name": "",
          "type": "address"
        }
      ],
      "stateMutability": "view",
      "type": "function"
    },
    {
      "inputs": [],
      "name": "pause",
      "outputs": [],
      "stateMutability": "nonpayable",
      "type": "function"
    },
    {
      "inputs": [],
      "name": "paused",
      "outputs": [
        {
          "internalType": "bool",
          "name": "",
          "type": "bool"
        }
      ],
      "stateMutability": "view",
      "type": "function"
    },
    {
      "inputs": [],
      "name": "renounceOwnership",
      "outputs": [],
      "stateMutability": "nonpayable",
      "type": "function"
    },
    {
      "inputs": [],
      "name": "reserveAddress",
      "outputs": [
        {
          "internalType": "address",
          "name": "",
          "type": "address"
        }
      ],
      "stateMutability": "view",
      "type": "function"
    },
    {
      "inputs": [
        {
          "internalType": "address",
          "name": "from",
          "type": "address"
        },
        {
          "internalType": "address",
          "name": "to",
          "type": "address"
        },
        {
          "internalType": "uint256",
          "name": "tokenId",
          "type": "uint256"
        }
      ],
      "name": "safeTransferFrom",
      "outputs": [],
      "stateMutability": "nonpayable",
      "type": "function"
    },
    {
      "inputs": [
        {
          "internalType": "address",
          "name": "from",
          "type": "address"
        },
        {
          "internalType": "address",
          "name": "to",
          "type": "address"
        },
        {
          "internalType": "uint256",
          "name": "tokenId",
          "type": "uint256"
        },
        {
          "internalType": "bytes",
          "name": "_data",
          "type": "bytes"
        }
      ],
      "name": "safeTransferFrom",
      "outputs": [],
      "stateMutability": "nonpayable",
      "type": "function"
    },
    {
      "inputs": [
        {
          "internalType": "address",
          "name": "operator",
          "type": "address"
        },
        {
          "internalType": "bool",
          "name": "approved",
          "type": "bool"
        }
      ],
      "name": "setApprovalForAll",
      "outputs": [],
      "stateMutability": "nonpayable",
      "type": "function"
    },
    {
      "inputs": [
        {
          "internalType": "uint256",
          "name": "_limit",
          "type": "uint256"
        }
      ],
      "name": "setNftPerAddressLimit",
      "outputs": [],
      "stateMutability": "nonpayable",
      "type": "function"
    },
    {
      "inputs": [
        {
          "internalType": "bytes4",
          "name": "interfaceId",
          "type": "bytes4"
        }
      ],
      "name": "supportsInterface",
      "outputs": [
        {
          "internalType": "bool",
          "name": "",
          "type": "bool"
        }
      ],
      "stateMutability": "view",
      "type": "function"
    },
    {
      "inputs": [],
      "name": "symbol",
      "outputs": [
        {
          "internalType": "string",
          "name": "",
          "type": "string"
        }
      ],
      "stateMutability": "view",
      "type": "function"
    },
    {
      "inputs": [],
      "name": "tokenAddress",
      "outputs": [
        {
          "internalType": "contract IERC20",
          "name": "",
          "type": "address"
        }
      ],
      "stateMutability": "view",
      "type": "function"
    },
    {
      "inputs": [
        {
          "internalType": "uint256",
          "name": "tokenId",
          "type": "uint256"
        }
      ],
      "name": "tokenURI",
      "outputs": [
        {
          "internalType": "string",
          "name": "",
          "type": "string"
        }
      ],
      "stateMutability": "view",
      "type": "function"
    },
    {
      "inputs": [
        {
          "internalType": "uint256",
          "name": "",
          "type": "uint256"
        }
      ],
      "name": "trains",
      "outputs": [
        {
          "internalType": "uint256",
          "name": "id",
          "type": "uint256"
        },
        {
          "internalType": "uint8",
          "name": "level",
          "type": "uint8"
        },
        {
          "internalType": "uint8",
          "name": "rarity",
          "type": "uint8"
        },
        {
          "internalType": "bool",
          "name": "fuel",
          "type": "bool"
        },
        {
          "internalType": "uint8",
          "name": "status",
          "type": "uint8"
        }
      ],
      "stateMutability": "view",
      "type": "function"
    },
    {
      "inputs": [
        {
          "internalType": "address",
          "name": "from",
          "type": "address"
        },
        {
          "internalType": "address",
          "name": "to",
          "type": "address"
        },
        {
          "internalType": "uint256",
          "name": "tokenId",
          "type": "uint256"
        }
      ],
      "name": "transferFrom",
      "outputs": [],
      "stateMutability": "nonpayable",
      "type": "function"
    },
    {
      "inputs": [
        {
          "internalType": "address",
          "name": "newOwner",
          "type": "address"
        }
      ],
      "name": "transferOwnership",
      "outputs": [],
      "stateMutability": "nonpayable",
      "type": "function"
    },
    {
      "inputs": [],
      "name": "unpause",
      "outputs": [],
      "stateMutability": "nonpayable",
      "type": "function"
    }
  ],
  "bytecode": "0x6080604052600a6009553480156200001657600080fd5b50604051620025a9380380620025a9833981016040819052620000399162000203565b604080518082018252600681526521ba3930b4b760d11b60208083019182528351808501909452600384526221aa2960e91b908401528151919291620000829160009162000140565b5080516200009890600190602084019062000140565b50506007805460ff1916905550620000b033620000e6565b600a80546001600160a01b039384166001600160a01b031991821617909155600b805492909316911617905542600e5562000277565b600780546001600160a01b03838116610100818102610100600160a81b031985161790945560405193909204169182907f8be0079c531659141344cd1fd0a4f28419497f9722a3daafe3b4186f6b6457e090600090a35050565b8280546200014e906200023a565b90600052602060002090601f016020900481019282620001725760008555620001bd565b82601f106200018d57805160ff1916838001178555620001bd565b82800160010185558215620001bd579182015b82811115620001bd578251825591602001919060010190620001a0565b50620001cb929150620001cf565b5090565b5b80821115620001cb5760008155600101620001d0565b80516001600160a01b0381168114620001fe57600080fd5b919050565b6000806040838503121562000216578182fd5b6200022183620001e6565b91506200023160208401620001e6565b90509250929050565b600181811c908216806200024f57607f821691505b602082108114156200027157634e487b7160e01b600052602260045260246000fd5b50919050565b61232280620002876000396000f3fe608060405234801561001057600080fd5b50600436106101a95760003560e01c8063715018a6116100f9578063b88d4fde11610097578063d0eb26b011610071578063d0eb26b014610399578063e985e9c5146103ac578063f2fde38b146103e8578063f79ed94b146103fb57600080fd5b8063b88d4fde1461036a578063ba7d2c761461037d578063c87b56dd1461038657600080fd5b806395d89b41116100d357806395d89b41146103295780639cf278e8146103315780639d76ea5814610344578063a22cb4651461035757600080fd5b8063715018a6146103035780638456cb591461030b5780638da5cb5b1461031357600080fd5b806323b872dd11610166578063598c68b111610140578063598c68b1146102815780635c975abb146102c45780636352211e146102cf57806370a08231146102e257600080fd5b806323b872dd146102535780633f4ba83a1461026657806342842e0e1461026e57600080fd5b80630118fa49146101ae57806301ffc9a7146101c357806306fdde03146101eb578063081812fc14610200578063095ea7b31461022b57806319ae037b1461023e575b600080fd5b6101c16101bc366004611f19565b61040e565b005b6101d66101d1366004611ec9565b6107f7565b60405190151581526020015b60405180910390f35b6101f3610849565b6040516101e291906120a3565b61021361020e366004611f01565b6108db565b6040516001600160a01b0390911681526020016101e2565b6101c1610239366004611e84565b610963565b610246610a79565b6040516101e2919061202b565b6101c1610261366004611d9a565b610b16565b6101c1610b47565b6101c161027c366004611d9a565b610b81565b61029461028f366004611f01565b610b9c565b6040805195865260ff9485166020870152928416928501929092521515606084015216608082015260a0016101e2565b60075460ff166101d6565b6102136102dd366004611f01565b610be9565b6102f56102f0366004611d4e565b610c60565b6040519081526020016101e2565b6101c1610ce7565b6101c1610d21565b60075461010090046001600160a01b0316610213565b6101f3610d59565b61024661033f366004611d4e565b610d68565b600a54610213906001600160a01b031681565b6101c1610365366004611e4e565b610efc565b6101c1610378366004611dd5565b610f0b565b6102f560095481565b6101f3610394366004611f01565b610f43565b6101c16103a7366004611f01565b6110ba565b6101d66103ba366004611d68565b6001600160a01b03918216600090815260056020908152604080832093909416825291909152205460ff1690565b6101c16103f6366004611d4e565b6110ef565b600b54610213906001600160a01b031681565b60075460ff16156104595760405162461bcd60e51b815260206004820152601060248201526f14185d5cd8589b194e881c185d5cd95960821b60448201526064015b60405180910390fd5b600082116104b75760405162461bcd60e51b815260206004820152602560248201527f4d696e696d756d206e756d626572206f66206d696e7461626c6520746f6b656e604482015264206973203160d81b6064820152608401610450565b60058211156105165760405162461bcd60e51b815260206004820152602560248201527f4d6178696d756d206e756d626572206f66206d696e7461626c6520746f6b656e604482015264206973203560d81b6064820152608401610450565b6000600e5460b4610527919061218e565b90506000600e5461012c61053b919061218e565b90506000824211610556575068e3aeb5737240a00000610588565b82421180156105655750814211155b1561057b575069011478b7c30abc300000610588565b5069014542ba12a337c000005b600061059486836121ba565b905060006105a133610c60565b6009549091506105b1888361218e565b11156105ff5760405162461bcd60e51b815260206004820152601c60248201527f6d6178204e4654207065722061646472657373206578636565646564000000006044820152606401610450565b600a54600b546040516323b872dd60e01b81523360048201526001600160a01b039182166024820152604481018590529116906323b872dd90606401602060405180830381600087803b15801561065557600080fd5b505af1158015610669573d6000803e3d6000fd5b505050506040513d601f19601f8201168201806040525081019061068d9190611ead565b5060015b8781116107ed5760006106a46064611190565b6040805160a081018252600d54815260016020820181815260ff80861694840194855260006060850181815260808601858152600c805496870181558352865160029096027fdf6966c971051c3d54ec59162606531493a51404a002842f56009d7e5cf4a8c781019690965593517fdf6966c971051c3d54ec59162606531493a51404a002842f56009d7e5cf4a8c89095018054975191519451841663010000000263ff0000001995151562010000029590951663ffff0000199285166101000261ffff19909916969094169590951796909617959095161717905591925061078c60085490565b905061079833826111ec565b60008a856040516020016107ad929190611fcc565b60405160208183030381529060405290506107c8828261131f565b6107d6600880546001019055565b5050505080806107e590612257565b915050610691565b5050505050505050565b60006001600160e01b031982166380ac58cd60e01b148061082857506001600160e01b03198216635b5e139f60e01b145b8061084357506301ffc9a760e01b6001600160e01b03198316145b92915050565b6060600080546108589061221c565b80601f01602080910402602001604051908101604052809291908181526020018280546108849061221c565b80156108d15780601f106108a6576101008083540402835291602001916108d1565b820191906000526020600020905b8154815290600101906020018083116108b457829003601f168201915b5050505050905090565b60006108e6826113aa565b6109475760405162461bcd60e51b815260206004820152602c60248201527f4552433732313a20617070726f76656420717565727920666f72206e6f6e657860448201526b34b9ba32b73a103a37b5b2b760a11b6064820152608401610450565b506000908152600460205260409020546001600160a01b031690565b600061096e82610be9565b9050806001600160a01b0316836001600160a01b031614156109dc5760405162461bcd60e51b815260206004820152602160248201527f4552433732313a20617070726f76616c20746f2063757272656e74206f776e656044820152603960f91b6064820152608401610450565b336001600160a01b03821614806109f857506109f881336103ba565b610a6a5760405162461bcd60e51b815260206004820152603860248201527f4552433732313a20617070726f76652063616c6c6572206973206e6f74206f7760448201527f6e6572206e6f7220617070726f76656420666f7220616c6c00000000000000006064820152608401610450565b610a7483836113c7565b505050565b6060600c805480602002602001604051908101604052809291908181526020016000905b82821015610b0d5760008481526020908190206040805160a081018252600286029092018054835260019081015460ff8082168587015261010082048116938501939093526201000081048316151560608501526301000000900490911660808301529083529092019101610a9d565b50505050905090565b610b203382611435565b610b3c5760405162461bcd60e51b81526004016104509061213d565b610a7483838361151b565b6007546001600160a01b03610100909104163314610b775760405162461bcd60e51b815260040161045090612108565b610b7f6116bb565b565b610a7483838360405180602001604052806000815250610f0b565b600c8181548110610bac57600080fd5b60009182526020909120600290910201805460019091015490915060ff808216916101008104821691620100008204811691630100000090041685565b6000818152600260205260408120546001600160a01b0316806108435760405162461bcd60e51b815260206004820152602960248201527f4552433732313a206f776e657220717565727920666f72206e6f6e657869737460448201526832b73a103a37b5b2b760b91b6064820152608401610450565b60006001600160a01b038216610ccb5760405162461bcd60e51b815260206004820152602a60248201527f4552433732313a2062616c616e636520717565727920666f7220746865207a65604482015269726f206164647265737360b01b6064820152608401610450565b506001600160a01b031660009081526003602052604090205490565b6007546001600160a01b03610100909104163314610d175760405162461bcd60e51b815260040161045090612108565b610b7f600061174e565b6007546001600160a01b03610100909104163314610d515760405162461bcd60e51b815260040161045090612108565b610b7f6117a8565b6060600180546108589061221c565b60606000610d7583610c60565b67ffffffffffffffff811115610d9b57634e487b7160e01b600052604160045260246000fd5b604051908082528060200260200182016040528015610df457816020015b6040805160a081018252600080825260208083018290529282018190526060820181905260808201528252600019909201910181610db95790505b5090506000805b600c54811015610ef357846001600160a01b0316610e1882610be9565b6001600160a01b03161415610ee157600c8181548110610e4857634e487b7160e01b600052603260045260246000fd5b60009182526020918290206040805160a0810182526002909302909101805483526001015460ff8082169484019490945261010081048416918301919091526201000081048316151560608301526301000000900490911660808201528351849084908110610ec757634e487b7160e01b600052603260045260246000fd5b60200260200101819052508180610edd90612257565b9250505b80610eeb81612257565b915050610dfb565b50909392505050565b610f07338383611823565b5050565b610f153383611435565b610f315760405162461bcd60e51b81526004016104509061213d565b610f3d848484846118f2565b50505050565b6060610f4e826113aa565b610fb45760405162461bcd60e51b815260206004820152603160248201527f45524337323155524953746f726167653a2055524920717565727920666f72206044820152703737b732bc34b9ba32b73a103a37b5b2b760791b6064820152608401610450565b60008281526006602052604081208054610fcd9061221c565b80601f0160208091040260200160405190810160405280929190818152602001828054610ff99061221c565b80156110465780601f1061101b57610100808354040283529160200191611046565b820191906000526020600020905b81548152906001019060200180831161102957829003601f168201915b50505050509050600061106460408051602081019091526000815290565b9050805160001415611077575092915050565b8151156110a9578082604051602001611091929190611f9d565b60405160208183030381529060405292505050919050565b6110b284611925565b949350505050565b6007546001600160a01b036101009091041633146110ea5760405162461bcd60e51b815260040161045090612108565b600955565b6007546001600160a01b0361010090910416331461111f5760405162461bcd60e51b815260040161045090612108565b6001600160a01b0381166111845760405162461bcd60e51b815260206004820152602660248201527f4f776e61626c653a206e6577206f776e657220697320746865207a65726f206160448201526564647265737360d01b6064820152608401610450565b61118d8161174e565b50565b60008042336040516020016111c192919091825260601b6bffffffffffffffffffffffff1916602082015260340190565b60408051601f19818403018152919052805160209091012090506111e58382612272565b9392505050565b6001600160a01b0382166112425760405162461bcd60e51b815260206004820181905260248201527f4552433732313a206d696e7420746f20746865207a65726f20616464726573736044820152606401610450565b61124b816113aa565b156112985760405162461bcd60e51b815260206004820152601c60248201527f4552433732313a20746f6b656e20616c7265616479206d696e746564000000006044820152606401610450565b6001600160a01b03821660009081526003602052604081208054600192906112c190849061218e565b909155505060008181526002602052604080822080546001600160a01b0319166001600160a01b03861690811790915590518392907fddf252ad1be2c89b69c2b068fc378daa952ba7f163c4a11628f55a4df523b3ef908290a45050565b611328826113aa565b61138b5760405162461bcd60e51b815260206004820152602e60248201527f45524337323155524953746f726167653a2055524920736574206f66206e6f6e60448201526d32bc34b9ba32b73a103a37b5b2b760911b6064820152608401610450565b60008281526006602090815260409091208251610a7492840190611c23565b6000908152600260205260409020546001600160a01b0316151590565b600081815260046020526040902080546001600160a01b0319166001600160a01b03841690811790915581906113fc82610be9565b6001600160a01b03167f8c5be1e5ebec7d5bd14f71427d1e84f3dd0314c0f7b2291e5b200ac8c7c3b92560405160405180910390a45050565b6000611440826113aa565b6114a15760405162461bcd60e51b815260206004820152602c60248201527f4552433732313a206f70657261746f7220717565727920666f72206e6f6e657860448201526b34b9ba32b73a103a37b5b2b760a11b6064820152608401610450565b60006114ac83610be9565b9050806001600160a01b0316846001600160a01b031614806114e75750836001600160a01b03166114dc846108db565b6001600160a01b0316145b806110b257506001600160a01b0380821660009081526005602090815260408083209388168352929052205460ff166110b2565b826001600160a01b031661152e82610be9565b6001600160a01b0316146115965760405162461bcd60e51b815260206004820152602960248201527f4552433732313a207472616e73666572206f6620746f6b656e2074686174206960448201526839903737ba1037bbb760b91b6064820152608401610450565b6001600160a01b0382166115f85760405162461bcd60e51b8152602060048201526024808201527f4552433732313a207472616e7366657220746f20746865207a65726f206164646044820152637265737360e01b6064820152608401610450565b6116036000826113c7565b6001600160a01b038316600090815260036020526040812080546001929061162c9084906121d9565b90915550506001600160a01b038216600090815260036020526040812080546001929061165a90849061218e565b909155505060008181526002602052604080822080546001600160a01b0319166001600160a01b0386811691821790925591518493918716917fddf252ad1be2c89b69c2b068fc378daa952ba7f163c4a11628f55a4df523b3ef91a4505050565b60075460ff166117045760405162461bcd60e51b815260206004820152601460248201527314185d5cd8589b194e881b9bdd081c185d5cd95960621b6044820152606401610450565b6007805460ff191690557f5db9ee0a495bf2e6ff9c91a7834c1ba4fdd244a5e8aa4e537bd38aeae4b073aa335b6040516001600160a01b03909116815260200160405180910390a1565b600780546001600160a01b03838116610100818102610100600160a81b031985161790945560405193909204169182907f8be0079c531659141344cd1fd0a4f28419497f9722a3daafe3b4186f6b6457e090600090a35050565b60075460ff16156117ee5760405162461bcd60e51b815260206004820152601060248201526f14185d5cd8589b194e881c185d5cd95960821b6044820152606401610450565b6007805460ff191660011790557f62e78cea01bee320cd4e420270b5ea74000d11b0c9f74754ebdbfc544b05a2586117313390565b816001600160a01b0316836001600160a01b031614156118855760405162461bcd60e51b815260206004820152601960248201527f4552433732313a20617070726f766520746f2063616c6c6572000000000000006044820152606401610450565b6001600160a01b03838116600081815260056020908152604080832094871680845294825291829020805460ff191686151590811790915591519182527f17307eab39ab6107e8899845ad3d59bd9653f200f220920489ca2b5937696c31910160405180910390a3505050565b6118fd84848461151b565b611909848484846119fc565b610f3d5760405162461bcd60e51b8152600401610450906120b6565b6060611930826113aa565b6119945760405162461bcd60e51b815260206004820152602f60248201527f4552433732314d657461646174613a2055524920717565727920666f72206e6f60448201526e3732bc34b9ba32b73a103a37b5b2b760891b6064820152608401610450565b60006119ab60408051602081019091526000815290565b905060008151116119cb57604051806020016040528060008152506111e5565b806119d584611b09565b6040516020016119e6929190611f9d565b6040516020818303038152906040529392505050565b60006001600160a01b0384163b15611afe57604051630a85bd0160e11b81526001600160a01b0385169063150b7a0290611a40903390899088908890600401611fee565b602060405180830381600087803b158015611a5a57600080fd5b505af1925050508015611a8a575060408051601f3d908101601f19168201909252611a8791810190611ee5565b60015b611ae4573d808015611ab8576040519150601f19603f3d011682016040523d82523d6000602084013e611abd565b606091505b508051611adc5760405162461bcd60e51b8152600401610450906120b6565b805181602001fd5b6001600160e01b031916630a85bd0160e11b1490506110b2565b506001949350505050565b606081611b2d5750506040805180820190915260018152600360fc1b602082015290565b8160005b8115611b575780611b4181612257565b9150611b509050600a836121a6565b9150611b31565b60008167ffffffffffffffff811115611b8057634e487b7160e01b600052604160045260246000fd5b6040519080825280601f01601f191660200182016040528015611baa576020820181803683370190505b5090505b84156110b257611bbf6001836121d9565b9150611bcc600a86612272565b611bd790603061218e565b60f81b818381518110611bfa57634e487b7160e01b600052603260045260246000fd5b60200101906001600160f81b031916908160001a905350611c1c600a866121a6565b9450611bae565b828054611c2f9061221c565b90600052602060002090601f016020900481019282611c515760008555611c97565b82601f10611c6a57805160ff1916838001178555611c97565b82800160010185558215611c97579182015b82811115611c97578251825591602001919060010190611c7c565b50611ca3929150611ca7565b5090565b5b80821115611ca35760008155600101611ca8565b600067ffffffffffffffff80841115611cd757611cd76122b2565b604051601f8501601f19908116603f01168101908282118183101715611cff57611cff6122b2565b81604052809350858152868686011115611d1857600080fd5b858560208301376000602087830101525050509392505050565b80356001600160a01b0381168114611d4957600080fd5b919050565b600060208284031215611d5f578081fd5b6111e582611d32565b60008060408385031215611d7a578081fd5b611d8383611d32565b9150611d9160208401611d32565b90509250929050565b600080600060608486031215611dae578081fd5b611db784611d32565b9250611dc560208501611d32565b9150604084013590509250925092565b60008060008060808587031215611dea578081fd5b611df385611d32565b9350611e0160208601611d32565b925060408501359150606085013567ffffffffffffffff811115611e23578182fd5b8501601f81018713611e33578182fd5b611e4287823560208401611cbc565b91505092959194509250565b60008060408385031215611e60578182fd5b611e6983611d32565b91506020830135611e79816122c8565b809150509250929050565b60008060408385031215611e96578182fd5b611e9f83611d32565b946020939093013593505050565b600060208284031215611ebe578081fd5b81516111e5816122c8565b600060208284031215611eda578081fd5b81356111e5816122d6565b600060208284031215611ef6578081fd5b81516111e5816122d6565b600060208284031215611f12578081fd5b5035919050565b60008060408385031215611f2b578182fd5b82359150602083013567ffffffffffffffff811115611f48578182fd5b8301601f81018513611f58578182fd5b611f6785823560208401611cbc565b9150509250929050565b60008151808452611f898160208601602086016121f0565b601f01601f19169290920160200192915050565b60008351611faf8184602088016121f0565b835190830190611fc38183602088016121f0565b01949350505050565b60008351611fde8184602088016121f0565b9190910191825250602001919050565b6001600160a01b038581168252841660208201526040810183905260806060820181905260009061202190830184611f71565b9695505050505050565b602080825282518282018190526000919060409081850190868401855b82811015612096578151805185528681015160ff9081168887015286820151811687870152606080830151151590870152608091820151169085015260a09093019290850190600101612048565b5091979650505050505050565b6020815260006111e56020830184611f71565b60208082526032908201527f4552433732313a207472616e7366657220746f206e6f6e20455243373231526560408201527131b2b4bb32b91034b6b83632b6b2b73a32b960711b606082015260800190565b6020808252818101527f4f776e61626c653a2063616c6c6572206973206e6f7420746865206f776e6572604082015260600190565b60208082526031908201527f4552433732313a207472616e736665722063616c6c6572206973206e6f74206f6040820152701ddb995c881b9bdc88185c1c1c9bdd9959607a1b606082015260800190565b600082198211156121a1576121a1612286565b500190565b6000826121b5576121b561229c565b500490565b60008160001904831182151516156121d4576121d4612286565b500290565b6000828210156121eb576121eb612286565b500390565b60005b8381101561220b5781810151838201526020016121f3565b83811115610f3d5750506000910152565b600181811c9082168061223057607f821691505b6020821081141561225157634e487b7160e01b600052602260045260246000fd5b50919050565b600060001982141561226b5761226b612286565b5060010190565b6000826122815761228161229c565b500690565b634e487b7160e01b600052601160045260246000fd5b634e487b7160e01b600052601260045260246000fd5b634e487b7160e01b600052604160045260246000fd5b801515811461118d57600080fd5b6001600160e01b03198116811461118d57600080fdfea2646970667358221220736124c42e92b24f1a891cf5aa7d6bc70fc6a891d2f9daa58406f4d80a061b6064736f6c63430008040033",
  "linkReferences": {},
  "deployedLinkReferences": {}
}