{
  "_format": "hh-sol-artifact-1",
  "contractName": "Ctrain",
  "sourceName": "contracts/Ctrain.sol",
  "abi": [
    {
      "inputs": [
        {
          "internalType": "address",
          "name": "_token",
          "type": "address"
        },
        {
          "internalType": "address",
          "name": "_reserve",
          "type": "address"
        }
      ],
      "stateMutability": "nonpayable",
      "type": "constructor"
    },
    {
      "anonymous": false,
      "inputs": [
        {
          "indexed": true,
          "internalType": "address",
          "name": "owner",
          "type": "address"
        },
        {
          "indexed": true,
          "internalType": "address",
          "name": "approved",
          "type": "address"
        },
        {
          "indexed": true,
          "internalType": "uint256",
          "name": "tokenId",
          "type": "uint256"
        }
      ],
      "name": "Approval",
      "type": "event"
    },
    {
      "anonymous": false,
      "inputs": [
        {
          "indexed": true,
          "internalType": "address",
          "name": "owner",
          "type": "address"
        },
        {
          "indexed": true,
          "internalType": "address",
          "name": "operator",
          "type": "address"
        },
        {
          "indexed": false,
          "internalType": "bool",
          "name": "approved",
          "type": "bool"
        }
      ],
      "name": "ApprovalForAll",
      "type": "event"
    },
    {
      "anonymous": false,
      "inputs": [
        {
          "indexed": true,
          "internalType": "address",
          "name": "previousOwner",
          "type": "address"
        },
        {
          "indexed": true,
          "internalType": "address",
          "name": "newOwner",
          "type": "address"
        }
      ],
      "name": "OwnershipTransferred",
      "type": "event"
    },
    {
      "anonymous": false,
      "inputs": [
        {
          "indexed": false,
          "internalType": "address",
          "name": "account",
          "type": "address"
        }
      ],
      "name": "Paused",
      "type": "event"
    },
    {
      "anonymous": false,
      "inputs": [
        {
          "indexed": true,
          "internalType": "address",
          "name": "from",
          "type": "address"
        },
        {
          "indexed": true,
          "internalType": "address",
          "name": "to",
          "type": "address"
        },
        {
          "indexed": true,
          "internalType": "uint256",
          "name": "tokenId",
          "type": "uint256"
        }
      ],
      "name": "Transfer",
      "type": "event"
    },
    {
      "anonymous": false,
      "inputs": [
        {
          "indexed": false,
          "internalType": "address",
          "name": "account",
          "type": "address"
        }
      ],
      "name": "Unpaused",
      "type": "event"
    },
    {
      "inputs": [],
      "name": "allWhitelistedAddresses",
      "outputs": [
        {
          "internalType": "address[]",
          "name": "",
          "type": "address[]"
        }
      ],
      "stateMutability": "view",
      "type": "function"
    },
    {
      "inputs": [
        {
          "internalType": "address",
          "name": "to",
          "type": "address"
        },
        {
          "internalType": "uint256",
          "name": "tokenId",
          "type": "uint256"
        }
      ],
      "name": "approve",
      "outputs": [],
      "stateMutability": "nonpayable",
      "type": "function"
    },
    {
      "inputs": [
        {
          "internalType": "address",
          "name": "owner",
          "type": "address"
        }
      ],
      "name": "balanceOf",
      "outputs": [
        {
          "internalType": "uint256",
          "name": "",
          "type": "uint256"
        }
      ],
      "stateMutability": "view",
      "type": "function"
    },
    {
      "inputs": [
        {
          "internalType": "uint256",
          "name": "_mintAmount",
          "type": "uint256"
        },
        {
          "internalType": "string",
          "name": "tokenURI",
          "type": "string"
        }
      ],
      "name": "create",
      "outputs": [],
      "stateMutability": "payable",
      "type": "function"
    },
    {
      "inputs": [
        {
          "internalType": "uint256",
          "name": "tokenId",
          "type": "uint256"
        }
      ],
      "name": "getApproved",
      "outputs": [
        {
          "internalType": "address",
          "name": "",
          "type": "address"
        }
      ],
      "stateMutability": "view",
      "type": "function"
    },
    {
      "inputs": [
        {
          "internalType": "address",
          "name": "_owner",
          "type": "address"
        }
      ],
      "name": "getOwnerTrains",
      "outputs": [
        {
          "components": [
            {
              "internalType": "uint256",
              "name": "id",
              "type": "uint256"
            },
            {
              "internalType": "uint8",
              "name": "level",
              "type": "uint8"
            },
            {
              "internalType": "uint8",
              "name": "rarity",
              "type": "uint8"
            },
            {
              "internalType": "bool",
              "name": "fuel",
              "type": "bool"
            },
            {
              "internalType": "uint8",
              "name": "status",
              "type": "uint8"
            }
          ],
          "internalType": "struct Ctrain.Train[]",
          "name": "",
          "type": "tuple[]"
        }
      ],
      "stateMutability": "view",
      "type": "function"
    },
    {
      "inputs": [],
      "name": "getTrains",
      "outputs": [
        {
          "components": [
            {
              "internalType": "uint256",
              "name": "id",
              "type": "uint256"
            },
            {
              "internalType": "uint8",
              "name": "level",
              "type": "uint8"
            },
            {
              "internalType": "uint8",
              "name": "rarity",
              "type": "uint8"
            },
            {
              "internalType": "bool",
              "name": "fuel",
              "type": "bool"
            },
            {
              "internalType": "uint8",
              "name": "status",
              "type": "uint8"
            }
          ],
          "internalType": "struct Ctrain.Train[]",
          "name": "",
          "type": "tuple[]"
        }
      ],
      "stateMutability": "view",
      "type": "function"
    },
    {
      "inputs": [
        {
          "internalType": "address",
          "name": "owner",
          "type": "address"
        },
        {
          "internalType": "address",
          "name": "operator",
          "type": "address"
        }
      ],
      "name": "isApprovedForAll",
      "outputs": [
        {
          "internalType": "bool",
          "name": "",
          "type": "bool"
        }
      ],
      "stateMutability": "view",
      "type": "function"
    },
    {
      "inputs": [
        {
          "internalType": "address",
          "name": "_user",
          "type": "address"
        }
      ],
      "name": "isWhitelisted",
      "outputs": [
        {
          "internalType": "bool",
          "name": "",
          "type": "bool"
        }
      ],
      "stateMutability": "view",
      "type": "function"
    },
    {
      "inputs": [],
      "name": "name",
      "outputs": [
        {
          "internalType": "string",
          "name": "",
          "type": "string"
        }
      ],
      "stateMutability": "view",
      "type": "function"
    },
    {
      "inputs": [],
      "name": "nftPerAddressLimit",
      "outputs": [
        {
          "internalType": "uint256",
          "name": "",
          "type": "uint256"
        }
      ],
      "stateMutability": "view",
      "type": "function"
    },
    {
      "inputs": [],
      "name": "owner",
      "outputs": [
        {
          "internalType": "address",
          "name": "",
          "type": "address"
        }
      ],
      "stateMutability": "view",
      "type": "function"
    },
    {
      "inputs": [
        {
          "internalType": "uint256",
          "name": "tokenId",
          "type": "uint256"
        }
      ],
      "name": "ownerOf",
      "outputs": [
        {
          "internalType": "address",
          "name": "",
          "type": "address"
        }
      ],
      "stateMutability": "view",
      "type": "function"
    },
    {
      "inputs": [],
      "name": "pause",
      "outputs": [],
      "stateMutability": "nonpayable",
      "type": "function"
    },
    {
      "inputs": [],
      "name": "paused",
      "outputs": [
        {
          "internalType": "bool",
          "name": "",
          "type": "bool"
        }
      ],
      "stateMutability": "view",
      "type": "function"
    },
    {
      "inputs": [],
      "name": "renounceOwnership",
      "outputs": [],
      "stateMutability": "nonpayable",
      "type": "function"
    },
    {
      "inputs": [],
      "name": "reserveAddress",
      "outputs": [
        {
          "internalType": "address",
          "name": "",
          "type": "address"
        }
      ],
      "stateMutability": "view",
      "type": "function"
    },
    {
      "inputs": [
        {
          "internalType": "address",
          "name": "from",
          "type": "address"
        },
        {
          "internalType": "address",
          "name": "to",
          "type": "address"
        },
        {
          "internalType": "uint256",
          "name": "tokenId",
          "type": "uint256"
        }
      ],
      "name": "safeTransferFrom",
      "outputs": [],
      "stateMutability": "nonpayable",
      "type": "function"
    },
    {
      "inputs": [
        {
          "internalType": "address",
          "name": "from",
          "type": "address"
        },
        {
          "internalType": "address",
          "name": "to",
          "type": "address"
        },
        {
          "internalType": "uint256",
          "name": "tokenId",
          "type": "uint256"
        },
        {
          "internalType": "bytes",
          "name": "_data",
          "type": "bytes"
        }
      ],
      "name": "safeTransferFrom",
      "outputs": [],
      "stateMutability": "nonpayable",
      "type": "function"
    },
    {
      "inputs": [
        {
          "internalType": "address",
          "name": "operator",
          "type": "address"
        },
        {
          "internalType": "bool",
          "name": "approved",
          "type": "bool"
        }
      ],
      "name": "setApprovalForAll",
      "outputs": [],
      "stateMutability": "nonpayable",
      "type": "function"
    },
    {
      "inputs": [
        {
          "internalType": "uint256",
          "name": "_limit",
          "type": "uint256"
        }
      ],
      "name": "setNftPerAddressLimit",
      "outputs": [],
      "stateMutability": "nonpayable",
      "type": "function"
    },
    {
      "inputs": [
        {
          "internalType": "bytes4",
          "name": "interfaceId",
          "type": "bytes4"
        }
      ],
      "name": "supportsInterface",
      "outputs": [
        {
          "internalType": "bool",
          "name": "",
          "type": "bool"
        }
      ],
      "stateMutability": "view",
      "type": "function"
    },
    {
      "inputs": [],
      "name": "symbol",
      "outputs": [
        {
          "internalType": "string",
          "name": "",
          "type": "string"
        }
      ],
      "stateMutability": "view",
      "type": "function"
    },
    {
      "inputs": [],
      "name": "tokenAddress",
      "outputs": [
        {
          "internalType": "contract IERC20",
          "name": "",
          "type": "address"
        }
      ],
      "stateMutability": "view",
      "type": "function"
    },
    {
      "inputs": [
        {
          "internalType": "uint256",
          "name": "tokenId",
          "type": "uint256"
        }
      ],
      "name": "tokenURI",
      "outputs": [
        {
          "internalType": "string",
          "name": "",
          "type": "string"
        }
      ],
      "stateMutability": "view",
      "type": "function"
    },
    {
      "inputs": [],
      "name": "totalPresaleSupply",
      "outputs": [
        {
          "internalType": "uint256",
          "name": "",
          "type": "uint256"
        }
      ],
      "stateMutability": "view",
      "type": "function"
    },
    {
      "inputs": [
        {
          "internalType": "uint256",
          "name": "",
          "type": "uint256"
        }
      ],
      "name": "trains",
      "outputs": [
        {
          "internalType": "uint256",
          "name": "id",
          "type": "uint256"
        },
        {
          "internalType": "uint8",
          "name": "level",
          "type": "uint8"
        },
        {
          "internalType": "uint8",
          "name": "rarity",
          "type": "uint8"
        },
        {
          "internalType": "bool",
          "name": "fuel",
          "type": "bool"
        },
        {
          "internalType": "uint8",
          "name": "status",
          "type": "uint8"
        }
      ],
      "stateMutability": "view",
      "type": "function"
    },
    {
      "inputs": [
        {
          "internalType": "address",
          "name": "from",
          "type": "address"
        },
        {
          "internalType": "address",
          "name": "to",
          "type": "address"
        },
        {
          "internalType": "uint256",
          "name": "tokenId",
          "type": "uint256"
        }
      ],
      "name": "transferFrom",
      "outputs": [],
      "stateMutability": "nonpayable",
      "type": "function"
    },
    {
      "inputs": [
        {
          "internalType": "address",
          "name": "newOwner",
          "type": "address"
        }
      ],
      "name": "transferOwnership",
      "outputs": [],
      "stateMutability": "nonpayable",
      "type": "function"
    },
    {
      "inputs": [],
      "name": "unpause",
      "outputs": [],
      "stateMutability": "nonpayable",
      "type": "function"
    }
  ],
  "bytecode": "0x6080604052600a600955610bb8600a553480156200001c57600080fd5b5060405162002a6e38038062002a6e8339810160408190526200003f9162000209565b604080518082018252600681526521ba3930b4b760d11b60208083019182528351808501909452600384526221aa2960e91b908401528151919291620000889160009162000146565b5080516200009e90600190602084019062000146565b50506007805460ff1916905550620000b633620000ec565b600b80546001600160a01b039384166001600160a01b031991821617909155600c8054929093169116179055426010556200027d565b600780546001600160a01b03838116610100818102610100600160a81b031985161790945560405193909204169182907f8be0079c531659141344cd1fd0a4f28419497f9722a3daafe3b4186f6b6457e090600090a35050565b828054620001549062000240565b90600052602060002090601f016020900481019282620001785760008555620001c3565b82601f106200019357805160ff1916838001178555620001c3565b82800160010185558215620001c3579182015b82811115620001c3578251825591602001919060010190620001a6565b50620001d1929150620001d5565b5090565b5b80821115620001d15760008155600101620001d6565b80516001600160a01b03811681146200020457600080fd5b919050565b600080604083850312156200021c578182fd5b6200022783620001ec565b91506200023760208401620001ec565b90509250929050565b600181811c908216806200025557607f821691505b602082108114156200027757634e487b7160e01b600052602260045260246000fd5b50919050565b6127e1806200028d6000396000f3fe6080604052600436106101cd5760003560e01c8063715018a6116100f7578063b88d4fde11610095578063e985e9c511610064578063e985e9c51461052c578063f2fde38b14610575578063f779acbb14610595578063f79ed94b146105b757600080fd5b8063b88d4fde146104b6578063ba7d2c76146104d6578063c87b56dd146104ec578063d0eb26b01461050c57600080fd5b806395d89b41116100d157806395d89b41146104415780639cf278e8146104565780639d76ea5814610476578063a22cb4651461049657600080fd5b8063715018a6146103f45780638456cb59146104095780638da5cb5b1461041e57600080fd5b80633af32abf1161016f578063598c68b11161013e578063598c68b11461034c5780635c975abb1461039c5780636352211e146103b457806370a08231146103d457600080fd5b80633af32abf146102d85780633f4ba83a146102f857806342842e0e1461030d5780634f153fe81461032d57600080fd5b8063081812fc116101ab578063081812fc1461023e578063095ea7b31461027657806319ae037b1461029657806323b872dd146102b857600080fd5b80630118fa49146101d257806301ffc9a7146101e757806306fdde031461021c575b600080fd5b6101e56101e036600461238b565b6105d7565b005b3480156101f357600080fd5b5061020761020236600461233b565b610b90565b60405190151581526020015b60405180910390f35b34801561022857600080fd5b50610231610be2565b6040516102139190612562565b34801561024a57600080fd5b5061025e610259366004612373565b610c74565b6040516001600160a01b039091168152602001610213565b34801561028257600080fd5b506101e56102913660046122f6565b610cfc565b3480156102a257600080fd5b506102ab610e12565b60405161021391906124ea565b3480156102c457600080fd5b506101e56102d336600461220c565b610eaf565b3480156102e457600080fd5b506102076102f33660046121c0565b610ee0565b34801561030457600080fd5b506101e5610f58565b34801561031957600080fd5b506101e561032836600461220c565b610f92565b34801561033957600080fd5b50600a545b604051908152602001610213565b34801561035857600080fd5b5061036c610367366004612373565b610fad565b6040805195865260ff9485166020870152928416928501929092521515606084015216608082015260a001610213565b3480156103a857600080fd5b5060075460ff16610207565b3480156103c057600080fd5b5061025e6103cf366004612373565b610ffa565b3480156103e057600080fd5b5061033e6103ef3660046121c0565b611071565b34801561040057600080fd5b506101e56110f8565b34801561041557600080fd5b506101e5611132565b34801561042a57600080fd5b5060075461010090046001600160a01b031661025e565b34801561044d57600080fd5b5061023161116a565b34801561046257600080fd5b506102ab6104713660046121c0565b611179565b34801561048257600080fd5b50600b5461025e906001600160a01b031681565b3480156104a257600080fd5b506101e56104b13660046122c0565b61130d565b3480156104c257600080fd5b506101e56104d1366004612247565b61131c565b3480156104e257600080fd5b5061033e60095481565b3480156104f857600080fd5b50610231610507366004612373565b611354565b34801561051857600080fd5b506101e5610527366004612373565b6114cb565b34801561053857600080fd5b506102076105473660046121da565b6001600160a01b03918216600090815260056020908152604080832093909416825291909152205460ff1690565b34801561058157600080fd5b506101e56105903660046121c0565b611500565b3480156105a157600080fd5b506105aa6115a1565b604051610213919061249d565b3480156105c357600080fd5b50600c5461025e906001600160a01b031681565b60075460ff16156106225760405162461bcd60e51b815260206004820152601060248201526f14185d5cd8589b194e881c185d5cd95960821b60448201526064015b60405180910390fd5b600082116106805760405162461bcd60e51b815260206004820152602560248201527f4d696e696d756d206e756d626572206f66206d696e7461626c6520746f6b656e604482015264206973203160d81b6064820152608401610619565b60058211156106df5760405162461bcd60e51b815260206004820152602560248201527f4d6178696d756d206e756d626572206f66206d696e7461626c6520746f6b656e604482015264206973203560d81b6064820152608401610619565b60006106f2836612d452694f4000612679565b90508034146107615760405162461bcd60e51b815260206004820152603560248201527f506c656173652073656e6420616c6f6e6720243220666f722065616368204e466044820152745420746f20636f6d706c657465206d696e74696e6760581b6064820152608401610619565b6000601054610e10610773919061264d565b90506000601054611c20610787919061264d565b9050600082421161084957600a548611156107e05760405162461bcd60e51b8152602060048201526019602482015278141c995cd85b19481d1bdad95b881a5cc81cdbdb19081bdd5d603a1b6044820152606401610619565b85600a60008282546107f29190612698565b9091555050600d80546001810182556000919091527fd7b6990105719101dabeb77144f2a3385c8033acd3af97e9423a695e81ad1eb50180546001600160a01b03191633179055506816c4abbebea0100000610920565b82421180156108585750814211155b1561091457600a548611156108ab5760405162461bcd60e51b8152602060048201526019602482015278141c995cd85b19481d1bdad95b881a5cc81cdbdb19081bdd5d603a1b6044820152606401610619565b85600a60008282546108bd9190612698565b9091555050600d80546001810182556000919091527fd7b6990105719101dabeb77144f2a3385c8033acd3af97e9423a695e81ad1eb50180546001600160a01b0319163317905550681ba5abf9e779380000610920565b50682086ac3510526000005b600061092c8783612679565b9050600061093933611071565b600954909150610949898361264d565b11156109975760405162461bcd60e51b815260206004820152601c60248201527f6d6178204e4654207065722061646472657373206578636565646564000000006044820152606401610619565b600b54600c546040516323b872dd60e01b81523360048201526001600160a01b039182166024820152604481018590529116906323b872dd90606401602060405180830381600087803b1580156109ed57600080fd5b505af1158015610a01573d6000803e3d6000fd5b505050506040513d601f19601f82011682018060405250810190610a25919061231f565b5060015b888111610b85576000610a3c6064611602565b6040805160a081018252600f54815260016020820181815260ff80861694840194855260006060850181815260808601858152600e805496870181558352865160029096027fbb7b4a454dc3493923482f07822329ed19e8244eff582cc204f8554c3620c3fd81019690965593517fbb7b4a454dc3493923482f07822329ed19e8244eff582cc204f8554c3620c3fe9095018054975191519451841663010000000263ff0000001995151562010000029590951663ffff0000199285166101000261ffff199099169690941695909517969096179590951617179055919250610b2460085490565b9050610b30338261165e565b60008b85604051602001610b4592919061243e565b6040516020818303038152906040529050610b608282611791565b610b6e600880546001019055565b505050508080610b7d90612716565b915050610a29565b505050505050505050565b60006001600160e01b031982166380ac58cd60e01b1480610bc157506001600160e01b03198216635b5e139f60e01b145b80610bdc57506301ffc9a760e01b6001600160e01b03198316145b92915050565b606060008054610bf1906126db565b80601f0160208091040260200160405190810160405280929190818152602001828054610c1d906126db565b8015610c6a5780601f10610c3f57610100808354040283529160200191610c6a565b820191906000526020600020905b815481529060010190602001808311610c4d57829003601f168201915b5050505050905090565b6000610c7f8261181c565b610ce05760405162461bcd60e51b815260206004820152602c60248201527f4552433732313a20617070726f76656420717565727920666f72206e6f6e657860448201526b34b9ba32b73a103a37b5b2b760a11b6064820152608401610619565b506000908152600460205260409020546001600160a01b031690565b6000610d0782610ffa565b9050806001600160a01b0316836001600160a01b03161415610d755760405162461bcd60e51b815260206004820152602160248201527f4552433732313a20617070726f76616c20746f2063757272656e74206f776e656044820152603960f91b6064820152608401610619565b336001600160a01b0382161480610d915750610d918133610547565b610e035760405162461bcd60e51b815260206004820152603860248201527f4552433732313a20617070726f76652063616c6c6572206973206e6f74206f7760448201527f6e6572206e6f7220617070726f76656420666f7220616c6c00000000000000006064820152608401610619565b610e0d8383611839565b505050565b6060600e805480602002602001604051908101604052809291908181526020016000905b82821015610ea65760008481526020908190206040805160a081018252600286029092018054835260019081015460ff8082168587015261010082048116938501939093526201000081048316151560608501526301000000900490911660808301529083529092019101610e36565b50505050905090565b610eb933826118a7565b610ed55760405162461bcd60e51b8152600401610619906125fc565b610e0d83838361198d565b6000805b600d54811015610f4f57826001600160a01b0316600d8281548110610f1957634e487b7160e01b600052603260045260246000fd5b6000918252602090912001546001600160a01b03161415610f3d5750600192915050565b80610f4781612716565b915050610ee4565b50600092915050565b6007546001600160a01b03610100909104163314610f885760405162461bcd60e51b8152600401610619906125c7565b610f90611b2d565b565b610e0d8383836040518060200160405280600081525061131c565b600e8181548110610fbd57600080fd5b60009182526020909120600290910201805460019091015490915060ff808216916101008104821691620100008204811691630100000090041685565b6000818152600260205260408120546001600160a01b031680610bdc5760405162461bcd60e51b815260206004820152602960248201527f4552433732313a206f776e657220717565727920666f72206e6f6e657869737460448201526832b73a103a37b5b2b760b91b6064820152608401610619565b60006001600160a01b0382166110dc5760405162461bcd60e51b815260206004820152602a60248201527f4552433732313a2062616c616e636520717565727920666f7220746865207a65604482015269726f206164647265737360b01b6064820152608401610619565b506001600160a01b031660009081526003602052604090205490565b6007546001600160a01b036101009091041633146111285760405162461bcd60e51b8152600401610619906125c7565b610f906000611bc0565b6007546001600160a01b036101009091041633146111625760405162461bcd60e51b8152600401610619906125c7565b610f90611c1a565b606060018054610bf1906126db565b6060600061118683611071565b67ffffffffffffffff8111156111ac57634e487b7160e01b600052604160045260246000fd5b60405190808252806020026020018201604052801561120557816020015b6040805160a0810182526000808252602080830182905292820181905260608201819052608082015282526000199092019101816111ca5790505b5090506000805b600e5481101561130457846001600160a01b031661122982610ffa565b6001600160a01b031614156112f257600e818154811061125957634e487b7160e01b600052603260045260246000fd5b60009182526020918290206040805160a0810182526002909302909101805483526001015460ff80821694840194909452610100810484169183019190915262010000810483161515606083015263010000009004909116608082015283518490849081106112d857634e487b7160e01b600052603260045260246000fd5b602002602001018190525081806112ee90612716565b9250505b806112fc81612716565b91505061120c565b50909392505050565b611318338383611c95565b5050565b61132633836118a7565b6113425760405162461bcd60e51b8152600401610619906125fc565b61134e84848484611d64565b50505050565b606061135f8261181c565b6113c55760405162461bcd60e51b815260206004820152603160248201527f45524337323155524953746f726167653a2055524920717565727920666f72206044820152703737b732bc34b9ba32b73a103a37b5b2b760791b6064820152608401610619565b600082815260066020526040812080546113de906126db565b80601f016020809104026020016040519081016040528092919081815260200182805461140a906126db565b80156114575780601f1061142c57610100808354040283529160200191611457565b820191906000526020600020905b81548152906001019060200180831161143a57829003601f168201915b50505050509050600061147560408051602081019091526000815290565b9050805160001415611488575092915050565b8151156114ba5780826040516020016114a292919061240f565b60405160208183030381529060405292505050919050565b6114c384611d97565b949350505050565b6007546001600160a01b036101009091041633146114fb5760405162461bcd60e51b8152600401610619906125c7565b600955565b6007546001600160a01b036101009091041633146115305760405162461bcd60e51b8152600401610619906125c7565b6001600160a01b0381166115955760405162461bcd60e51b815260206004820152602660248201527f4f776e61626c653a206e6577206f776e657220697320746865207a65726f206160448201526564647265737360d01b6064820152608401610619565b61159e81611bc0565b50565b6060600d805480602002602001604051908101604052809291908181526020018280548015610c6a57602002820191906000526020600020905b81546001600160a01b031681526001909101906020018083116115db575050505050905090565b600080423360405160200161163392919091825260601b6bffffffffffffffffffffffff1916602082015260340190565b60408051601f19818403018152919052805160209091012090506116578382612731565b9392505050565b6001600160a01b0382166116b45760405162461bcd60e51b815260206004820181905260248201527f4552433732313a206d696e7420746f20746865207a65726f20616464726573736044820152606401610619565b6116bd8161181c565b1561170a5760405162461bcd60e51b815260206004820152601c60248201527f4552433732313a20746f6b656e20616c7265616479206d696e746564000000006044820152606401610619565b6001600160a01b038216600090815260036020526040812080546001929061173390849061264d565b909155505060008181526002602052604080822080546001600160a01b0319166001600160a01b03861690811790915590518392907fddf252ad1be2c89b69c2b068fc378daa952ba7f163c4a11628f55a4df523b3ef908290a45050565b61179a8261181c565b6117fd5760405162461bcd60e51b815260206004820152602e60248201527f45524337323155524953746f726167653a2055524920736574206f66206e6f6e60448201526d32bc34b9ba32b73a103a37b5b2b760911b6064820152608401610619565b60008281526006602090815260409091208251610e0d92840190612095565b6000908152600260205260409020546001600160a01b0316151590565b600081815260046020526040902080546001600160a01b0319166001600160a01b038416908117909155819061186e82610ffa565b6001600160a01b03167f8c5be1e5ebec7d5bd14f71427d1e84f3dd0314c0f7b2291e5b200ac8c7c3b92560405160405180910390a45050565b60006118b28261181c565b6119135760405162461bcd60e51b815260206004820152602c60248201527f4552433732313a206f70657261746f7220717565727920666f72206e6f6e657860448201526b34b9ba32b73a103a37b5b2b760a11b6064820152608401610619565b600061191e83610ffa565b9050806001600160a01b0316846001600160a01b031614806119595750836001600160a01b031661194e84610c74565b6001600160a01b0316145b806114c357506001600160a01b0380821660009081526005602090815260408083209388168352929052205460ff166114c3565b826001600160a01b03166119a082610ffa565b6001600160a01b031614611a085760405162461bcd60e51b815260206004820152602960248201527f4552433732313a207472616e73666572206f6620746f6b656e2074686174206960448201526839903737ba1037bbb760b91b6064820152608401610619565b6001600160a01b038216611a6a5760405162461bcd60e51b8152602060048201526024808201527f4552433732313a207472616e7366657220746f20746865207a65726f206164646044820152637265737360e01b6064820152608401610619565b611a75600082611839565b6001600160a01b0383166000908152600360205260408120805460019290611a9e908490612698565b90915550506001600160a01b0382166000908152600360205260408120805460019290611acc90849061264d565b909155505060008181526002602052604080822080546001600160a01b0319166001600160a01b0386811691821790925591518493918716917fddf252ad1be2c89b69c2b068fc378daa952ba7f163c4a11628f55a4df523b3ef91a4505050565b60075460ff16611b765760405162461bcd60e51b815260206004820152601460248201527314185d5cd8589b194e881b9bdd081c185d5cd95960621b6044820152606401610619565b6007805460ff191690557f5db9ee0a495bf2e6ff9c91a7834c1ba4fdd244a5e8aa4e537bd38aeae4b073aa335b6040516001600160a01b03909116815260200160405180910390a1565b600780546001600160a01b03838116610100818102610100600160a81b031985161790945560405193909204169182907f8be0079c531659141344cd1fd0a4f28419497f9722a3daafe3b4186f6b6457e090600090a35050565b60075460ff1615611c605760405162461bcd60e51b815260206004820152601060248201526f14185d5cd8589b194e881c185d5cd95960821b6044820152606401610619565b6007805460ff191660011790557f62e78cea01bee320cd4e420270b5ea74000d11b0c9f74754ebdbfc544b05a258611ba33390565b816001600160a01b0316836001600160a01b03161415611cf75760405162461bcd60e51b815260206004820152601960248201527f4552433732313a20617070726f766520746f2063616c6c6572000000000000006044820152606401610619565b6001600160a01b03838116600081815260056020908152604080832094871680845294825291829020805460ff191686151590811790915591519182527f17307eab39ab6107e8899845ad3d59bd9653f200f220920489ca2b5937696c31910160405180910390a3505050565b611d6f84848461198d565b611d7b84848484611e6e565b61134e5760405162461bcd60e51b815260040161061990612575565b6060611da28261181c565b611e065760405162461bcd60e51b815260206004820152602f60248201527f4552433732314d657461646174613a2055524920717565727920666f72206e6f60448201526e3732bc34b9ba32b73a103a37b5b2b760891b6064820152608401610619565b6000611e1d60408051602081019091526000815290565b90506000815111611e3d5760405180602001604052806000815250611657565b80611e4784611f7b565b604051602001611e5892919061240f565b6040516020818303038152906040529392505050565b60006001600160a01b0384163b15611f7057604051630a85bd0160e11b81526001600160a01b0385169063150b7a0290611eb2903390899088908890600401612460565b602060405180830381600087803b158015611ecc57600080fd5b505af1925050508015611efc575060408051601f3d908101601f19168201909252611ef991810190612357565b60015b611f56573d808015611f2a576040519150601f19603f3d011682016040523d82523d6000602084013e611f2f565b606091505b508051611f4e5760405162461bcd60e51b815260040161061990612575565b805181602001fd5b6001600160e01b031916630a85bd0160e11b1490506114c3565b506001949350505050565b606081611f9f5750506040805180820190915260018152600360fc1b602082015290565b8160005b8115611fc95780611fb381612716565b9150611fc29050600a83612665565b9150611fa3565b60008167ffffffffffffffff811115611ff257634e487b7160e01b600052604160045260246000fd5b6040519080825280601f01601f19166020018201604052801561201c576020820181803683370190505b5090505b84156114c357612031600183612698565b915061203e600a86612731565b61204990603061264d565b60f81b81838151811061206c57634e487b7160e01b600052603260045260246000fd5b60200101906001600160f81b031916908160001a90535061208e600a86612665565b9450612020565b8280546120a1906126db565b90600052602060002090601f0160209004810192826120c35760008555612109565b82601f106120dc57805160ff1916838001178555612109565b82800160010185558215612109579182015b828111156121095782518255916020019190600101906120ee565b50612115929150612119565b5090565b5b80821115612115576000815560010161211a565b600067ffffffffffffffff8084111561214957612149612771565b604051601f8501601f19908116603f0116810190828211818310171561217157612171612771565b8160405280935085815286868601111561218a57600080fd5b858560208301376000602087830101525050509392505050565b80356001600160a01b03811681146121bb57600080fd5b919050565b6000602082840312156121d1578081fd5b611657826121a4565b600080604083850312156121ec578081fd5b6121f5836121a4565b9150612203602084016121a4565b90509250929050565b600080600060608486031215612220578081fd5b612229846121a4565b9250612237602085016121a4565b9150604084013590509250925092565b6000806000806080858703121561225c578081fd5b612265856121a4565b9350612273602086016121a4565b925060408501359150606085013567ffffffffffffffff811115612295578182fd5b8501601f810187136122a5578182fd5b6122b48782356020840161212e565b91505092959194509250565b600080604083850312156122d2578182fd5b6122db836121a4565b915060208301356122eb81612787565b809150509250929050565b60008060408385031215612308578182fd5b612311836121a4565b946020939093013593505050565b600060208284031215612330578081fd5b815161165781612787565b60006020828403121561234c578081fd5b813561165781612795565b600060208284031215612368578081fd5b815161165781612795565b600060208284031215612384578081fd5b5035919050565b6000806040838503121561239d578182fd5b82359150602083013567ffffffffffffffff8111156123ba578182fd5b8301601f810185136123ca578182fd5b6123d98582356020840161212e565b9150509250929050565b600081518084526123fb8160208601602086016126af565b601f01601f19169290920160200192915050565b600083516124218184602088016126af565b8351908301906124358183602088016126af565b01949350505050565b600083516124508184602088016126af565b9190910191825250602001919050565b6001600160a01b0385811682528416602082015260408101839052608060608201819052600090612493908301846123e3565b9695505050505050565b6020808252825182820181905260009190848201906040850190845b818110156124de5783516001600160a01b0316835292840192918401916001016124b9565b50909695505050505050565b602080825282518282018190526000919060409081850190868401855b82811015612555578151805185528681015160ff9081168887015286820151811687870152606080830151151590870152608091820151169085015260a09093019290850190600101612507565b5091979650505050505050565b60208152600061165760208301846123e3565b60208082526032908201527f4552433732313a207472616e7366657220746f206e6f6e20455243373231526560408201527131b2b4bb32b91034b6b83632b6b2b73a32b960711b606082015260800190565b6020808252818101527f4f776e61626c653a2063616c6c6572206973206e6f7420746865206f776e6572604082015260600190565b60208082526031908201527f4552433732313a207472616e736665722063616c6c6572206973206e6f74206f6040820152701ddb995c881b9bdc88185c1c1c9bdd9959607a1b606082015260800190565b6000821982111561266057612660612745565b500190565b6000826126745761267461275b565b500490565b600081600019048311821515161561269357612693612745565b500290565b6000828210156126aa576126aa612745565b500390565b60005b838110156126ca5781810151838201526020016126b2565b8381111561134e5750506000910152565b600181811c908216806126ef57607f821691505b6020821081141561271057634e487b7160e01b600052602260045260246000fd5b50919050565b600060001982141561272a5761272a612745565b5060010190565b6000826127405761274061275b565b500690565b634e487b7160e01b600052601160045260246000fd5b634e487b7160e01b600052601260045260246000fd5b634e487b7160e01b600052604160045260246000fd5b801515811461159e57600080fd5b6001600160e01b03198116811461159e57600080fdfea2646970667358221220a8dd2bf8f17fb7435af517b1e94f1373ca8ad5ddb918eafb5799c20bcd9aca2364736f6c63430008040033",
  "linkReferences": {},
  "deployedLinkReferences": {}
}